{
	"data": {
		"bytecode": {
			"linkReferences": {},
			"object": "608060405234801561001057600080fd5b506152e6806100206000396000f3fe60806040523480156200001157600080fd5b5060043610620000465760003560e01c806354fd4d50146200004b5780635c65f2fb14620000955780638f2696af14620000c5575b600080fd5b604080518082018252601981527f4d6574614c69666544414f3a3230333a43726f776466756e6400000000000000602082015290516200008c919062000630565b60405180910390f35b620000ac620000a636600462000484565b620000cf565b6040516001600160a01b0390911681526020016200008c565b620000ac620000fc565b60006001600080828254620000e5919062000744565b90915550620000f69050826200011f565b92915050565b60006200011a30600054600162000114919062000744565b620001b5565b905090565b60008060008060008060008060008060008b80602001905181019062000146919062000506565b9950995099509950995099509950995099509950898989898989898989896040516200017290620003e6565b620001879a999897969594939291906200064c565b604051809103906000f080158015620001a4573d6000803e3d6000fd5b509c9b505050505050505050505050565b60006060826200020f57604051606b60f91b6020820152602560fa1b60218201526001600160601b0319606086901b166022820152600160ff1b60368201526037015b6040516020818303038152906040529050620003d2565b607f83116200026057604051606b60f91b6020820152602560fa1b60218201526001600160601b0319606086901b16602282015260f884901b6001600160f81b0319166036820152603701620001f8565b60ff8311620002bb5760405160d760f81b6020820152602560fa1b60218201526001600160601b0319606086901b166022820152608160f81b603682015260f884901b6001600160f81b0319166037820152603801620001f8565b61ffff83116200031757604051601b60fb1b6020820152602560fa1b60218201526001600160601b0319606086901b166022820152604160f91b60368201526001600160f01b031960f085901b166037820152603901620001f8565b62ffffff8311620003745760405160d960f81b6020820152602560fa1b60218201526001600160601b0319606086901b166022820152608360f81b60368201526001600160e81b031960e885901b166037820152603a01620001f8565b604051606d60f91b6020820152602560fa1b60218201526001600160601b0319606086901b166022820152602160fa1b60368201526001600160e01b031960e085901b166037820152603b0160405160208183030381529060405290505b805160209091012060008190529392505050565b614afc80620007b583390190565b80516001600160a01b03811681146200040c57600080fd5b919050565b600082601f8301126200042357600080fd5b81516200043a620004348262000719565b620006e5565b8181528460208386010111156200045057600080fd5b620004638260208301602087016200076b565b949350505050565b805167ffffffffffffffff811681146200040c57600080fd5b6000602082840312156200049757600080fd5b813567ffffffffffffffff811115620004af57600080fd5b8201601f81018413620004c157600080fd5b8035620004d2620004348262000719565b818152856020838501011115620004e857600080fd5b81602084016020830137600091810160200191909152949350505050565b6000806000806000806000806000806101408b8d0312156200052757600080fd5b8a5167ffffffffffffffff808211156200054057600080fd5b6200054e8e838f0162000411565b9b5060208d01519150808211156200056557600080fd5b620005738e838f0162000411565b9a5060408d01519150808211156200058a57600080fd5b50620005998d828e0162000411565b985050620005aa60608c016200046b565b965060808b01519550620005c160a08c01620003f4565b945060c08b0151935060e08b01519250620005e06101008c016200046b565b9150620005f16101208c01620003f4565b90509295989b9194979a5092959850565b600081518084526200061c8160208601602086016200076b565b601f01601f19169290920160200192915050565b60208152600062000645602083018462000602565b9392505050565b6000610140808352620006628184018e62000602565b9050828103602084015262000678818d62000602565b905082810360408401526200068e818c62000602565b67ffffffffffffffff9a8b166060850152608084019990995250506001600160a01b0395861660a082015260c081019490945260e08401929092529094166101008201529216610120909201919091529392505050565b604051601f8201601f1916810167ffffffffffffffff811182821017156200071157620007116200079e565b604052919050565b600067ffffffffffffffff8211156200073657620007366200079e565b50601f01601f191660200190565b600082198211156200076657634e487b7160e01b600052601160045260246000fd5b500190565b60005b83811015620007885781810151838201526020016200076e565b8381111562000798576000848401525b50505050565b634e487b7160e01b600052604160045260246000fdfe6101406040523480156200001257600080fd5b5060405162004afc38038062004afc83398101604081905262000035916200076f565b8989896040518060400160405280601981526020017f4d6574614c69666544414f3a3230333a43726f776466756e6400000000000000815250856127108585858583838386848e8f8160039080519060200190620000959291906200060d565b508051620000ab9060049060208401906200060d565b5050825160208085019190912083518483012060e08290526101008190524660a0818152604080517f8b73c3c69bb8fe3d512ecc4cf759cc79239f7b179b0ffacaa9a75d522b39400f81880181905281830187905260608201869052608082019490945230818401528151808203909301835260c0019052805194019390932091935091906080523060601b60c05261012052505084516200015792506005915060208601906200060d565b5081516200016d9060069060208501906200060d565b508051620001839060079060208401906200060d565b505060088054306001600160a01b0319918216179091556001600c556001600160401b0398909816600e55505050600f939093555050601a805483166001600160a01b038981169190911790915560148054909316908c16179091555050506015869055505060168390556200020760178362000229602090811b62001dde17901c565b600019600c5562000219878762000246565b5050505050505050505062000995565b81546001600160401b0319166001600160401b0391909116179055565b6000808052600960209081526040805160608082018352308083528285018190528284015282518082018452858152808501869052808401959095528251908101835260848082018790528351808303909101815260a48201845280850180516001600160e01b0390811663fb4fa30960e01b1790915290825283516001602480830191909152855180830382018152604492830187528088018051851663ece40cc160e01b1790528488015285516001600160401b038b1681830152865180820390920182529091018552808601805190921663ea0217cf60e01b17909152818401528251808401909352600d8084526c43726f77642046756e64696e6760981b9484019485527fec8156718a8372b1db44bb411437d0870f3e3790d4a08526d024ce1b0b668f6b9592949293919262000384918791906200060d565b506002850180546001600160401b031916600317905560005b60038110156200048757848160038110620003bc57620003bc62000969565b60209081029190910151600083815260018901909252604090912080546001600160a01b0319166001600160a01b0390921691909117905583816003811062000409576200040962000969565b6020020151866001016000838152602001908152602001600020600101819055508281600381106200043f576200043f62000969565b60200201518660010160008381526020019081526020016000206002019080519060200190620004719291906200060d565b50806200047e816200093f565b9150506200039d565b50620004ba620004a2436200059860201b62001dfc1760201c565b866003016200022960201b62001dde1790919060201c565b6040805160208082019092526017546001600160401b031681526200050691620004ee919062001e6862000609821b17901c565b866004016200022960201b62001dde1790919060201c565b7fa00fcf4f5e03cc2f4818b8f380a8f2a06479e49bf0765e5fec09aebdaf922bbc60003362000540436200059860201b62001dfc1760201c565b6040805160208082019092526017546001600160401b031681526200056e9162001e6862000609821b17901c565b85604051620005829594939291906200086a565b60405180910390a150506001600a555050505050565b60006001600160401b03821115620006055760405162461bcd60e51b815260206004820152602660248201527f53616665436173743a2076616c756520646f65736e27742066697420696e203660448201526534206269747360d01b606482015260840160405180910390fd5b5090565b5190565b8280546200061b9062000902565b90600052602060002090601f0160209004810192826200063f57600085556200068a565b82601f106200065a57805160ff19168380011785556200068a565b828001600101855582156200068a579182015b828111156200068a5782518255916020019190600101906200066d565b50620006059291505b8082111562000605576000815560010162000693565b80516001600160a01b0381168114620006c157600080fd5b919050565b600082601f830112620006d857600080fd5b81516001600160401b0380821115620006f557620006f56200097f565b604051601f8301601f19908116603f011681019082821181831017156200072057620007206200097f565b816040528381528660208588010111156200073a57600080fd5b6200074d846020830160208901620008cf565b9695505050505050565b80516001600160401b0381168114620006c157600080fd5b6000806000806000806000806000806101408b8d0312156200079057600080fd5b8a516001600160401b0380821115620007a857600080fd5b620007b68e838f01620006c6565b9b5060208d0151915080821115620007cd57600080fd5b620007db8e838f01620006c6565b9a5060408d0151915080821115620007f257600080fd5b50620008018d828e01620006c6565b9850506200081260608c0162000757565b965060808b015195506200082960a08c01620006a9565b945060c08b0151935060e08b01519250620008486101008c0162000757565b9150620008596101208c01620006a9565b90509295989b9194979a5092959850565b85815260018060a01b0385166020820152600060018060401b03808616604084015280851660608401525060a0608083015282518060a0840152620008b78160c0850160208701620008cf565b601f01601f19169190910160c0019695505050505050565b60005b83811015620008ec578181015183820152602001620008d2565b83811115620008fc576000848401525b50505050565b600181811c908216806200091757607f821691505b602082108114156200093957634e487b7160e01b600052602260045260246000fd5b50919050565b60006000198214156200096257634e487b7160e01b600052601160045260246000fd5b5060010190565b634e487b7160e01b600052603260045260246000fd5b634e487b7160e01b600052604160045260246000fd5b60805160a05160c05160601c60e0516101005161012051614114620009e86000396000612cd001526000612d1f01526000612cfa01526000612c5301526000612c7d01526000612ca701526141146000f3fe60806040526004361061039b5760003560e01c80637a3a0e84116101dc578063c34c08e511610102578063ece40cc1116100a0578063f8ce560a1161006f578063f8ce560a14610aef578063fb4fa30914610b0f578063fc7159f914610b2f578063fe0d94c114610b4f57600080fd5b8063ece40cc114610a6c578063f10e4e8414610a8c578063f3fabe0914610ab9578063f5a8492f14610acf57600080fd5b8063d26331d4116100dc578063d26331d4146109df578063dd62ed3e14610a0c578063ea0217cf14610a2c578063eb9019d414610a4c57600080fd5b8063c34c08e51461097f578063c3cda5201461099f578063c47f0027146109bf57600080fd5b8063a457c2d71161017a578063afe926e811610149578063afe926e814610915578063b58131b01461092a578063b9f1cb901461093f578063c28bc2fa1461095f57600080fd5b8063a457c2d71461088d578063a7e75efd146108ad578063a9059cbb146108c2578063ae092e89146108e257600080fd5b80638e539e8c116101b65780638e539e8c14610818578063937f6e771461083857806395d89b41146108585780639ab24eb01461086d57600080fd5b80637a3a0e84146107cd5780637d3d6522146107e35780637d5e81e2146107f857600080fd5b806340c10f19116102c1578063567813881161025f5780637034731b1161022e5780637034731b1461072a57806370a082311461073f57806378065f2714610775578063796b23bb1461079557600080fd5b8063567813881461069d578063587cde1e146106bd578063590e1ae3146106f55780635c19a95c1461070a57600080fd5b80634a91da481161029b5780634a91da48146105ec5780634c79e31d14610602578063544ffc9c1461061757806354fd4d501461066c57600080fd5b806340c10f191461056d578063438596321461058d57806348976936146105d757600080fd5b806323b872dd116103395780633932abb1116103085780633932abb1146104f7578063395093511461050b5780633bccf4fd1461052b5780633fb238651461054b57600080fd5b806323b872dd1461049e578063313ce567146104be57806331a3a506146104da57806338deaf55146104ef57600080fd5b8063095ea7b311610375578063095ea7b3146104245780631703a0181461045457806318160ddd146104695780631c3c0ea81461047e57600080fd5b806302a251a3146103be57806302fe5305146103e257806306fdde031461040257600080fd5b366103b9576008546001600160a01b031630146103b757600080fd5b005b600080fd5b3480156103ca57600080fd5b50600e545b6040519081526020015b60405180910390f35b3480156103ee57600080fd5b506103b76103fd366004613ba0565b610b62565b34801561040e57600080fd5b50610417610bac565b6040516103d99190613e47565b34801561043057600080fd5b5061044461043f36600461392b565b610c3e565b60405190151581526020016103d9565b34801561046057600080fd5b506103cf610c56565b34801561047557600080fd5b506002546103cf565b34801561048a57600080fd5b506103b76104993660046138a1565b610c80565b3480156104aa57600080fd5b506104446104b93660046138ef565b610ccc565b3480156104ca57600080fd5b50604051601281526020016103d9565b3480156104e657600080fd5b506103b7610cf2565b6103cf610d3a565b34801561050357600080fd5b5060006103cf565b34801561051757600080fd5b5061044461052636600461392b565b610d5c565b34801561053757600080fd5b506103cf610546366004613c4c565b610d7e565b34801561055757600080fd5b50610560610e03565b6040516103d99190613e19565b34801561057957600080fd5b506103b761058836600461392b565b610ecd565b34801561059957600080fd5b506104446105a8366004613c06565b60008281526010602090815260408083206001600160a01b038516845260030190915290205460ff1692915050565b3480156105e357600080fd5b50610417610f01565b3480156105f857600080fd5b506103cf600a5481565b34801561060e57600080fd5b50600f546103cf565b34801561062357600080fd5b50610651610632366004613bd4565b6000908152601060205260409020805460018201546002909201549092565b604080519384526020840192909252908201526060016103d9565b34801561067857600080fd5b50604080518082019091526008815267105094d5149050d560c21b6020820152610417565b3480156106a957600080fd5b506103cf6106b8366004613c29565b610f8f565b3480156106c957600080fd5b506106dd6106d83660046138a1565b610fa5565b6040516001600160a01b0390911681526020016103d9565b34801561070157600080fd5b506103b7610fee565b34801561071657600080fd5b506103b76107253660046138a1565b6110ef565b34801561073657600080fd5b506104176110fa565b34801561074b57600080fd5b506103cf61075a3660046138a1565b6001600160a01b031660009081526020819052604090205490565b34801561078157600080fd5b506014546106dd906001600160a01b031681565b3480156107a157600080fd5b506017546107b5906001600160401b031681565b6040516001600160401b0390911681526020016103d9565b3480156107d957600080fd5b506103cf60155481565b3480156107ef57600080fd5b50610444611107565b34801561080457600080fd5b506103cf610813366004613a6f565b611113565b34801561082457600080fd5b506103cf610833366004613bd4565b611409565b34801561084457600080fd5b506103b7610853366004613ba0565b61146a565b34801561086457600080fd5b506104176114a7565b34801561087957600080fd5b506103cf6108883660046138a1565b6114b6565b34801561089957600080fd5b506104446108a836600461392b565b6114d7565b3480156108b957600080fd5b506103b761155d565b3480156108ce57600080fd5b506104446108dd36600461392b565b6115ac565b3480156108ee57600080fd5b506109026108fd366004613bd4565b6115ba565b6040516103d99796959493929190613d72565b34801561092157600080fd5b506104176118f7565b34801561093657600080fd5b50600c546103cf565b34801561094b57600080fd5b506103cf61095a366004613bd4565b611904565b34801561096b57600080fd5b506103b761097a366004613955565b6119b0565b34801561098b57600080fd5b506008546106dd906001600160a01b031681565b3480156109ab57600080fd5b506103b76109ba3660046139db565b611a23565b3480156109cb57600080fd5b506103b76109da366004613ba0565b611ad6565b3480156109eb57600080fd5b506109ff6109fa366004613bd4565b611b13565b6040516103d99190613e33565b348015610a1857600080fd5b506103cf610a273660046138bc565b611b1e565b348015610a3857600080fd5b506103b7610a47366004613bd4565b611b49565b348015610a5857600080fd5b506103cf610a6736600461392b565b611b78565b348015610a7857600080fd5b506103b7610a87366004613bd4565b611b84565b348015610a9857600080fd5b506103cf610aa73660046138a1565b60196020526000908152604090205481565b348015610ac557600080fd5b506103cf60165481565b348015610adb57600080fd5b50601a546106dd906001600160a01b031681565b348015610afb57600080fd5b506103cf610b0a366004613bd4565b611bb3565b348015610b1b57600080fd5b506103b7610b2a366004613bd4565b611c48565b348015610b3b57600080fd5b506103cf610b4a366004613a33565b611c77565b6103cf610b5d366004613bd4565b611ccf565b6008546001600160a01b03163314610b955760405162461bcd60e51b8152600401610b8c90613e5a565b60405180910390fd5b8051610ba8906006906020840190613669565b5050565b606060038054610bbb90614007565b80601f0160208091040260200160405190810160405280929190818152602001828054610be790614007565b8015610c345780601f10610c0957610100808354040283529160200191610c34565b820191906000526020600020905b815481529060010190602001808311610c1757829003601f168201915b5050505050905090565b600033610c4c818585611e6c565b5060019392505050565b6000612710610c64600f5490565b600254610c719190613fa5565b610c7b9190613f83565b905090565b6008546001600160a01b03163314610caa5760405162461bcd60e51b8152600401610b8c90613e5a565b600880546001600160a01b0319166001600160a01b0392909216919091179055565b600033610cda858285611f90565b610ce585858561200a565b60019150505b9392505050565b601a546001600160a01b03163314610d0957600080fd5b60185460ff1615610d1957600080fd5b610d2d610d2543611dfc565b601790611dde565b610d3760006121de565b50565b6014546000906001600160a01b031615610d5357600080fd5b610c7b346122d4565b600033610c4c818585610d6f8383611b1e565b610d799190613f40565b611e6c565b604080517f150214d74d59b7d1e90c73fc22ef3d991dd0a76b046543d4d80ab92d2a50328f602082015290810186905260ff851660608201526000908190610deb90610de3906080015b604051602081830303815290604052805190602001206123d4565b868686612422565b9050610df887828861244a565b979650505050505050565b60185460009060ff1615610e175750600190565b60408051602081019091526017546001600160401b0316908190524311610e3e5750600090565b6015546014546040516370a0823160e01b81523060048201526001600160a01b03909116906370a082319060240160206040518083038186803b158015610e8457600080fd5b505afa158015610e98573d6000803e3d6000fd5b505050506040513d601f19601f82011682018060405250810190610ebc9190613bed565b10610ec75750600190565b50600290565b6008546001600160a01b03163314610ef75760405162461bcd60e51b8152600401610b8c90613e5a565b610ba8828261253c565b60058054610f0e90614007565b80601f0160208091040260200160405190810160405280929190818152602001828054610f3a90614007565b8015610f875780601f10610f5c57610100808354040283529160200191610f87565b820191906000526020600020905b815481529060010190602001808311610f6a57829003601f168201915b505050505081565b600033610f9d84828561244a565b949350505050565b6001600160a01b03818116600090815260116020526040812054909116610fca575090565b506001600160a01b039081166000908152601160205260409020541690565b919050565b6002610ff8610e03565b600281111561100957611009614073565b1461101357600080fd5b6014546001600160a01b031661105a573360008181526019602052604080822054905181156108fc0292818181858888f19350505050158015610d37573d6000803e3d6000fd5b601454336000818152601960205260409081902054905163a9059cbb60e01b8152600481019290925260248201526001600160a01b039091169063a9059cbb90604401602060405180830381600087803b1580156110b757600080fd5b505af11580156110cb573d6000803e3d6000fd5b505050506040513d601f19601f82011682018060405250810190610d379190613b7e565b33610ba88183612623565b60068054610f0e90614007565b6000610c7b60006126b9565b600061111e600c5490565b61112d33610a67600143613fc4565b101561116d5760405162461bcd60e51b815260206004820152600f60248201526e10995b1bddc81d1a1c995cda1bdb19608a1b6044820152606401610b8c565b600a80549060019060006111818385613f40565b909155505084518651146111a75760405162461bcd60e51b8152600401610b8c90613e82565b83518651146111c85760405162461bcd60e51b8152600401610b8c90613e82565b60008651116111e95760405162461bcd60e51b8152600401610b8c90613e82565b600081815260096020908152604091829020825191820190925260038201546001600160401b031690819052156112325760405162461bcd60e51b8152600401610b8c90613e82565b600061124281611dfc565b611dfc565b61124b43611dfc565b6112559190613f58565b9050600061126561123d600e5490565b61126f9083613f58565b86519091506112849084906020890190613669565b5061128f8951611dfc565b60028401805467ffffffffffffffff19166001600160401b039290921691909117905560005b89518110156113a2578981815181106112d0576112d0614089565b602002602001015184600101600083815260200190815260200160002060000160006101000a8154816001600160a01b0302191690836001600160a01b0316021790555088818151811061132657611326614089565b60200260200101518460010160008381526020019081526020016000206001018190555087818151811061135c5761135c614089565b6020026020010151846001016000838152602001908152602001600020600201908051906020019061138f929190613669565b508061139a81614042565b9150506112b5565b506113b06003840183611dde565b6113bd6004840182611dde565b7fa00fcf4f5e03cc2f4818b8f380a8f2a06479e49bf0765e5fec09aebdaf922bbc843384848a6040516113f4959493929190613eac565b60405180910390a15091979650505050505050565b60004382111561144d5760405162461bcd60e51b815260206004820152600f60248201526e109b1bd8dac81b9bdd081b5a5b9959608a1b6044820152606401610b8c565b4382141561145f576002545b92915050565b61145960138361276a565b6008546001600160a01b031633146114945760405162461bcd60e51b8152600401610b8c90613e5a565b8051610ba8906007906020840190613669565b606060048054610bbb90614007565b6001600160a01b038116600090815260126020526040812061145990612879565b600033816114e58286611b1e565b9050838110156115455760405162461bcd60e51b815260206004820152602560248201527f45524332303a2064656372656173656420616c6c6f77616e63652062656c6f77604482015264207a65726f60d81b6064820152608401610b8c565b6115528286868403611e6c565b506001949350505050565b601a546001600160a01b0316331461157457600080fd5b60185460ff161561158457600080fd5b61158c611107565b61159557600080fd5b6018805460ff19166001179055610d376000611ccf565b600033610c4c81858561200a565b600081815260096020526040812060028101546060928392839283929182918291906001600160401b03908116908111156115f7576115f761409f565b604051908082528060200260200182016040528015611620578160200160208202803683370190505b5060028201549098506001600160401b03908116908111156116445761164461409f565b60405190808252806020026020018201604052801561166d578160200160208202803683370190505b5060028201549097506001600160401b03908116908111156116915761169161409f565b6040519080825280602002602001820160405280156116c457816020015b60608152602001906001900390816116af5790505b50955060005b60028201546001600160401b031681101561182b57600081815260018301602052604090205489516001600160a01b03909116908a908390811061171057611710614089565b6001600160a01b0390921660209283029190910182015260008281526001808501909252604090200154885189908390811061174e5761174e614089565b602002602001018181525050816001016000828152602001908152602001600020600201805461177d90614007565b80601f01602080910402602001604051908101604052809291908181526020018280546117a990614007565b80156117f65780601f106117cb576101008083540402835291602001916117f6565b820191906000526020600020905b8154815290600101906020018083116117d957829003601f168201915b505050505087828151811061180d5761180d614089565b6020026020010181905250808061182390614042565b9150506116ca565b508054819061183990614007565b80601f016020809104026020016040519081016040528092919081815260200182805461186590614007565b80156118b25780601f10611887576101008083540402835291602001916118b2565b820191906000526020600020905b81548152906001019060200180831161189557829003601f168201915b505050505094506118c2896128d5565b60078111156118d3576118d3614073565b93506118de896129cf565b92506118e989612a09565b915050919395979092949650565b60078054610f0e90614007565b6014546000906001600160a01b031661191c57600080fd5b6014546040516323b872dd60e01b8152336004820152306024820152604481018490526001600160a01b03909116906323b872dd90606401602060405180830381600087803b15801561196e57600080fd5b505af1158015611982573d6000803e3d6000fd5b505050506040513d601f19601f820116820180604052508101906119a69190613b7e565b50611459826122d4565b6008546001600160a01b031633146119da5760405162461bcd60e51b8152600401610b8c90613e5a565b611a1c8483838080601f016020809104026020016040519081016040528093929190818152602001838380828437600092019190915250889250612a38915050565b5050505050565b83421115611a5d5760405162461bcd60e51b8152602060048201526007602482015266115e1c1a5c995960ca1b6044820152606401610b8c565b604080517fe48329057bfd03d55e49b547132e39cffd9c1820ad7b9d4c5307691425d15adf60208201526001600160a01b038816918101919091526060810186905260808101859052600090611ac190611ab99060a001610dc8565b858585612422565b9050611acd8188612623565b50505050505050565b6008546001600160a01b03163314611b005760405162461bcd60e51b8152600401610b8c90613e5a565b8051610ba8906005906020840190613669565b6000611459826128d5565b6001600160a01b03918216600090815260016020908152604080832093909416825291909152205490565b6008546001600160a01b03163314611b735760405162461bcd60e51b8152600401610b8c90613e5a565b600e55565b6000610ceb8383612a5e565b6008546001600160a01b03163314611bae5760405162461bcd60e51b8152600401610b8c90613e5a565b600c55565b6000808052600960209081526040805191820190527fec8156718a8372b1db44bb411437d0870f3e3790d4a08526d024ce1b0b668f6e546001600160401b031690819052611c0083611dfc565b6001600160401b03161415611c1f576016546015546114599190613fa5565b612710611c2b600f5490565b611c3484611409565b611c3e9190613fa5565b6114599190613f83565b6008546001600160a01b03163314611c725760405162461bcd60e51b8152600401610b8c90613e5a565b600f55565b600033611c8385610fa5565b6001600160a01b031614611cc45760405162461bcd60e51b815260206004820152600860248201526714995a9958dd195960c21b6044820152606401610b8c565b610f9d83858461244a565b600080600080611cde856115ba565b505050509250925092506000611cf3866128d5565b90506004816007811115611d0957611d09614073565b1480611d2657506005816007811115611d2457611d24614073565b145b611d725760405162461bcd60e51b815260206004820152601760248201527f50726f706f73616c206e6f74207375636365737366756c0000000000000000006044820152606401610b8c565b60008681526009602052604090819020600501805460ff19166001179055517f712ae1383f79ac853f8d882153778e0260ef8f03b504e2866e0593e04d2b291f90611dc09088815260200190565b60405180910390a1611dd486858585612a80565b5093949350505050565b815467ffffffffffffffff19166001600160401b0391909116179055565b60006001600160401b03821115611e645760405162461bcd60e51b815260206004820152602660248201527f53616665436173743a2076616c756520646f65736e27742066697420696e203660448201526534206269747360d01b6064820152608401610b8c565b5090565b5190565b6001600160a01b038316611ece5760405162461bcd60e51b8152602060048201526024808201527f45524332303a20617070726f76652066726f6d20746865207a65726f206164646044820152637265737360e01b6064820152608401610b8c565b6001600160a01b038216611f2f5760405162461bcd60e51b815260206004820152602260248201527f45524332303a20617070726f766520746f20746865207a65726f206164647265604482015261737360f01b6064820152608401610b8c565b6001600160a01b0383811660008181526001602090815260408083209487168084529482529182902085905590518481527f8c5be1e5ebec7d5bd14f71427d1e84f3dd0314c0f7b2291e5b200ac8c7c3b925910160405180910390a3505050565b6000611f9c8484611b1e565b905060001981146120045781811015611ff75760405162461bcd60e51b815260206004820152601d60248201527f45524332303a20696e73756666696369656e7420616c6c6f77616e63650000006044820152606401610b8c565b6120048484848403611e6c565b50505050565b6001600160a01b03831661206e5760405162461bcd60e51b815260206004820152602560248201527f45524332303a207472616e736665722066726f6d20746865207a65726f206164604482015264647265737360d81b6064820152608401610b8c565b6001600160a01b0382166120d05760405162461bcd60e51b815260206004820152602360248201527f45524332303a207472616e7366657220746f20746865207a65726f206164647260448201526265737360e81b6064820152608401610b8c565b6001600160a01b038316600090815260208190526040902054818110156121485760405162461bcd60e51b815260206004820152602660248201527f45524332303a207472616e7366657220616d6f756e7420657863656564732062604482015265616c616e636560d01b6064820152608401610b8c565b6001600160a01b0380851660009081526020819052604080822085850390559185168152908120805484929061217f908490613f40565b92505081905550826001600160a01b0316846001600160a01b03167fddf252ad1be2c89b69c2b068fc378daa952ba7f163c4a11628f55a4df523b3ef846040516121cb91815260200190565b60405180910390a3612004848484612b85565b6000806121ea836128d5565b9050600281600781111561220057612200614073565b141580156122205750600681600781111561221d5761221d614073565b14155b801561223e5750600781600781111561223b5761223b614073565b14155b6122755760405162461bcd60e51b8152602060048201526008602482015267496e61637469766560c01b6044820152606401610b8c565b60008381526009602052604090819020600501805461ff001916610100179055517f789cf55be980739dad1d0699b93b58e806b51c9d96619bfa8fe0a28abaa7b30c906122c59085815260200190565b60405180910390a15090919050565b60185460009060ff16156123135760405162461bcd60e51b815260206004820152600660248201526518db1bdcd95960d21b6044820152606401610b8c565b6016546123209083613fa5565b6040516340c10f1960e01b81523360048201526024810182905290915030906340c10f1990604401600060405180830381600087803b15801561236257600080fd5b505af1158015612376573d6000803e3d6000fd5b5061238b925060009150339050600184612b90565b60408051600081526001602082015290810182905233907f2c9deb38f462962eadbd85a9d3a4120503ee091f1582eaaa10aa8c6797651d299060600160405180910390a2919050565b60006114596123e1612c46565b8360405161190160f01b6020820152602281018390526042810182905260009060620160405160208183030381529060405280519060200120905092915050565b600080600061243387878787612d6d565b9150915061244081612e5a565b5095945050505050565b60008381526009602052604081206001612463866128d5565b600781111561247457612474614073565b146124ac5760405162461bcd60e51b8152602060048201526008602482015267496e61637469766560c01b6044820152606401610b8c565b604080516020810190915260038201546001600160401b0316908190526000906124d7908690611b78565b90506124e586868684612b90565b6040805187815260ff861660208201529081018290526001600160a01b038616907f2c9deb38f462962eadbd85a9d3a4120503ee091f1582eaaa10aa8c6797651d299060600160405180910390a295945050505050565b6001600160a01b0382166125925760405162461bcd60e51b815260206004820152601f60248201527f45524332303a206d696e7420746f20746865207a65726f2061646472657373006044820152606401610b8c565b80600260008282546125a49190613f40565b90915550506001600160a01b038216600090815260208190526040812080548392906125d1908490613f40565b90915550506040518181526001600160a01b038316906000907fddf252ad1be2c89b69c2b068fc378daa952ba7f163c4a11628f55a4df523b3ef9060200160405180910390a3610ba860008383612b85565b600061262e83610fa5565b6001600160a01b0384811660008181526011602052604080822080546001600160a01b031916888616908117909155905194955093928516927f3134e8a2e6d97e929a7e54011ea5485d7d196dd5f0ba4d4ef95803e8e3fc257f9190a46126b481836126af866001600160a01b031660009081526020819052604090205490565b613015565b505050565b600081612761576014546001600160a01b03166126db57505060155447101590565b6015546014546040516370a0823160e01b81523060048201526001600160a01b03909116906370a082319060240160206040518083038186803b15801561272157600080fd5b505afa158015612735573d6000803e3d6000fd5b505050506040513d601f19601f820116820180604052508101906127599190613bed565b101592915050565b611459826131a6565b60004382106127bb5760405162461bcd60e51b815260206004820181905260248201527f436865636b706f696e74733a20626c6f636b206e6f7420796574206d696e65646044820152606401610b8c565b825460005b818110156128205760006127d482846131e9565b9050848660000182815481106127ec576127ec614089565b60009182526020909120015463ffffffff16111561280c5780925061281a565b612817816001613f40565b91505b506127c0565b81156128645784612832600184613fc4565b8154811061284257612842614089565b60009182526020909120015464010000000090046001600160e01b0316612867565b60005b6001600160e01b031695945050505050565b805460009080156128c25782612890600183613fc4565b815481106128a0576128a0614089565b60009182526020909120015464010000000090046001600160e01b03166128c5565b60005b6001600160e01b03169392505050565b6000818152600960205260408120600581015460ff16156128f95750600792915050565b6005810154610100900460ff16156129145750600292915050565b600061291f846129cf565b90508061295b5760405162461bcd60e51b815260206004820152600a6024820152691d5b9adb9bdddb881a5960b21b6044820152606401610b8c565b4381111561296d575060009392505050565b600061297885612a09565b9050612983856126b9565b80156129a2575060008581526010602052604090208054600190910154115b156129b257506004949350505050565b4381106129c457506001949350505050565b506003949350505050565b60008181526009602090815260408083208151928301909152600301546001600160401b0316908190525b6001600160401b031692915050565b60008181526009602090815260408083208151928301909152600401546001600160401b0316908190526129fa565b6060610f9d8484846040518060600160405280602981526020016140b660299139613204565b6001600160a01b0382166000908152601260205260408120610ceb908361276a565b60408051808201909152600d81526c10d85b1b081c995d995c9d1959609a1b602082015260005b8451811015612b7d57600080868381518110612ac557612ac5614089565b60200260200101516001600160a01b0316868481518110612ae857612ae8614089565b6020026020010151868581518110612b0257612b02614089565b6020026020010151604051612b179190613d56565b60006040518083038185875af1925050503d8060008114612b54576040519150601f19603f3d011682016040523d82523d6000602084013e612b59565b606091505b5091509150612b69828286613326565b50505080612b7690614042565b9050612aa7565b505050505050565b6126b483838361335f565b6000848152601060205260409020612ba885856133d4565b60ff8316612bcf5781816000016000828254612bc49190613f40565b90915550611a1c9050565b60ff831660011415612bef5781816001016000828254612bc49190613f40565b60ff831660021415612c0f5781816002016000828254612bc49190613f40565b60405162461bcd60e51b815260206004820152600c60248201526b496e76616c696420766f746560a01b6044820152606401610b8c565b6000306001600160a01b037f000000000000000000000000000000000000000000000000000000000000000016148015612c9f57507f000000000000000000000000000000000000000000000000000000000000000046145b15612cc957507f000000000000000000000000000000000000000000000000000000000000000090565b50604080517f00000000000000000000000000000000000000000000000000000000000000006020808301919091527f0000000000000000000000000000000000000000000000000000000000000000828401527f000000000000000000000000000000000000000000000000000000000000000060608301524660808301523060a0808401919091528351808403909101815260c0909201909252805191012090565b6000807f7fffffffffffffffffffffffffffffff5d576e7357a4501ddfe92f46681b20a0831115612da45750600090506003612e51565b8460ff16601b14158015612dbc57508460ff16601c14155b15612dcd5750600090506004612e51565b6040805160008082526020820180845289905260ff881692820192909252606081018690526080810185905260019060a0016020604051602081039080840390855afa158015612e21573d6000803e3d6000fd5b5050604051601f1901519150506001600160a01b038116612e4a57600060019250925050612e51565b9150600090505b94509492505050565b6000816004811115612e6e57612e6e614073565b1415612e775750565b6001816004811115612e8b57612e8b614073565b1415612ed95760405162461bcd60e51b815260206004820152601860248201527f45434453413a20696e76616c6964207369676e617475726500000000000000006044820152606401610b8c565b6002816004811115612eed57612eed614073565b1415612f3b5760405162461bcd60e51b815260206004820152601f60248201527f45434453413a20696e76616c6964207369676e6174757265206c656e677468006044820152606401610b8c565b6003816004811115612f4f57612f4f614073565b1415612fa85760405162461bcd60e51b815260206004820152602260248201527f45434453413a20696e76616c6964207369676e6174757265202773272076616c604482015261756560f01b6064820152608401610b8c565b6004816004811115612fbc57612fbc614073565b1415610d375760405162461bcd60e51b815260206004820152602260248201527f45434453413a20696e76616c6964207369676e6174757265202776272076616c604482015261756560f01b6064820152608401610b8c565b816001600160a01b0316836001600160a01b0316141580156130375750600081115b156126b4576001600160a01b038316156130ef576001600160a01b0383166000908152601260205260408120819061309c90849061307490612879565b61307e9190613fc4565b6001600160a01b0387166000908152601260205260409020906133e4565b91509150846001600160a01b03167fdec2bacdd2f05b59de34da9b523dff8be42e5e38e818c82fdb0bae774387a72483836040516130e4929190918252602082015260400190565b60405180910390a250505b6001600160a01b038216156126b4576001600160a01b0382166000908152601260205260408120819061314f90849061312790612879565b6131319190613f40565b6001600160a01b0386166000908152601260205260409020906133e4565b91509150836001600160a01b03167fdec2bacdd2f05b59de34da9b523dff8be42e5e38e818c82fdb0bae774387a7248383604051613197929190918252602082015260400190565b60405180910390a25050505050565b60008181526010602052604081206002810154600182015482546131ca9190613f40565b6131d49190613f40565b6131e0610b0a856129cf565b11159392505050565b60006131f86002848418613f83565b610ceb90848416613f40565b6060824710156132655760405162461bcd60e51b815260206004820152602660248201527f416464726573733a20696e73756666696369656e742062616c616e636520666f6044820152651c8818d85b1b60d21b6064820152608401610b8c565b6001600160a01b0385163b6132bc5760405162461bcd60e51b815260206004820152601d60248201527f416464726573733a2063616c6c20746f206e6f6e2d636f6e74726163740000006044820152606401610b8c565b600080866001600160a01b031685876040516132d89190613d56565b60006040518083038185875af1925050503d8060008114613315576040519150601f19603f3d011682016040523d82523d6000602084013e61331a565b606091505b5091509150610df88282865b60608315613335575081610ceb565b8251156133455782518084602001fd5b8160405162461bcd60e51b8152600401610b8c9190613e47565b6001600160a01b0383166133905761338d8161337b6013612879565b6133859190613f40565b6013906133e4565b50505b6001600160a01b0382166133b9576133b6816133ac6013612879565b6133859190613fc4565b50505b6126b46133c584610fa5565b6133ce84610fa5565b83613015565b8115610ba857610ba8828261350a565b81546000908190816133f586612879565b90506000821180156134335750438661340f600185613fc4565b8154811061341f5761341f614089565b60009182526020909120015463ffffffff16145b15613493576134418561359b565b8661344d600185613fc4565b8154811061345d5761345d614089565b9060005260206000200160000160046101000a8154816001600160e01b0302191690836001600160e01b03160217905550613501565b8560000160405180604001604052806134ab43613604565b63ffffffff1681526020016134bf8861359b565b6001600160e01b0390811690915282546001810184556000938452602093849020835194909301519091166401000000000263ffffffff909316929092179101555b95939450505050565b60008281526010602090815260408083206001600160a01b0385168452600381019092529091205460ff16156135715760405162461bcd60e51b815260206004820152600c60248201526b105b1c9958591e4818d85cdd60a21b6044820152606401610b8c565b6001600160a01b039091166000908152600390910160205260409020805460ff1916600117905550565b60006001600160e01b03821115611e645760405162461bcd60e51b815260206004820152602760248201527f53616665436173743a2076616c756520646f65736e27742066697420696e20326044820152663234206269747360c81b6064820152608401610b8c565b600063ffffffff821115611e645760405162461bcd60e51b815260206004820152602660248201527f53616665436173743a2076616c756520646f65736e27742066697420696e203360448201526532206269747360d01b6064820152608401610b8c565b82805461367590614007565b90600052602060002090601f01602090048101928261369757600085556136dd565b82601f106136b057805160ff19168380011785556136dd565b828001600101855582156136dd579182015b828111156136dd5782518255916020019190600101906136c2565b50611e649291505b80821115611e6457600081556001016136e5565b60006001600160401b038311156137125761371261409f565b613725601f8401601f1916602001613eed565b905082815283838301111561373957600080fd5b828260208301376000602084830101529392505050565b80356001600160a01b0381168114610fe957600080fd5b600082601f83011261377857600080fd5b8135602061378d61378883613f1d565b613eed565b80838252828201915082860187848660051b89010111156137ad57600080fd5b60005b858110156138035781356001600160401b038111156137ce57600080fd5b8801603f81018a136137df57600080fd5b6137f08a87830135604084016136f9565b85525092840192908401906001016137b0565b5090979650505050505050565b600082601f83011261382157600080fd5b8135602061383161378883613f1d565b80838252828201915082860187848660051b890101111561385157600080fd5b60005b8581101561380357813584529284019290840190600101613854565b600082601f83011261388157600080fd5b610ceb838335602085016136f9565b803560ff81168114610fe957600080fd5b6000602082840312156138b357600080fd5b610ceb82613750565b600080604083850312156138cf57600080fd5b6138d883613750565b91506138e660208401613750565b90509250929050565b60008060006060848603121561390457600080fd5b61390d84613750565b925061391b60208501613750565b9150604084013590509250925092565b6000806040838503121561393e57600080fd5b61394783613750565b946020939093013593505050565b6000806000806060858703121561396b57600080fd5b61397485613750565b93506020850135925060408501356001600160401b038082111561399757600080fd5b818701915087601f8301126139ab57600080fd5b8135818111156139ba57600080fd5b8860208285010111156139cc57600080fd5b95989497505060200194505050565b60008060008060008060c087890312156139f457600080fd5b6139fd87613750565b95506020870135945060408701359350613a1960608801613890565b92506080870135915060a087013590509295509295509295565b600080600060608486031215613a4857600080fd5b613a5184613750565b925060208401359150613a6660408501613890565b90509250925092565b60008060008060808587031215613a8557600080fd5b84356001600160401b0380821115613a9c57600080fd5b818701915087601f830112613ab057600080fd5b81356020613ac061378883613f1d565b8083825282820191508286018c848660051b8901011115613ae057600080fd5b600096505b84871015613b0a57613af681613750565b835260019690960195918301918301613ae5565b5098505088013592505080821115613b2157600080fd5b613b2d88838901613810565b94506040870135915080821115613b4357600080fd5b613b4f88838901613767565b93506060870135915080821115613b6557600080fd5b50613b7287828801613870565b91505092959194509250565b600060208284031215613b9057600080fd5b81518015158114610ceb57600080fd5b600060208284031215613bb257600080fd5b81356001600160401b03811115613bc857600080fd5b610f9d84828501613870565b600060208284031215613be657600080fd5b5035919050565b600060208284031215613bff57600080fd5b5051919050565b60008060408385031215613c1957600080fd5b823591506138e660208401613750565b60008060408385031215613c3c57600080fd5b823591506138e660208401613890565b600080600080600060a08688031215613c6457600080fd5b85359450613c7460208701613890565b9350613c8260408701613890565b94979396509394606081013594506080013592915050565b600081518084526020808501808196508360051b8101915082860160005b85811015613ce2578284038952613cd0848351613d2a565b98850198935090840190600101613cb8565b5091979650505050505050565b600081518084526020808501945080840160005b83811015613d1f57815187529582019590820190600101613d03565b509495945050505050565b60008151808452613d42816020860160208601613fdb565b601f01601f19169290920160200192915050565b60008251613d68818460208701613fdb565b9190910192915050565b60e08082528851908201819052600090602090610100840190828c01845b82811015613db55781516001600160a01b031684529284019290840190600101613d90565b50505083810382850152613dc9818b613cef565b9150508281036040840152613dde8189613c9a565b90508281036060840152613df28188613d2a565b915050613e04608083018660ff169052565b60a082019390935260c0015295945050505050565b6020810160038310613e2d57613e2d614073565b91905290565b6020810160088310613e2d57613e2d614073565b602081526000610ceb6020830184613d2a565b6020808252600e908201526d6f6e6c79476f7665726e616e636560901b604082015260600190565b60208082526010908201526f125b9d985b1a59081c1c9bdc1bdcd85b60821b604082015260600190565b8581526001600160a01b03851660208201526001600160401b0384811660408301528316606082015260a060808201819052600090610df890830184613d2a565b604051601f8201601f191681016001600160401b0381118282101715613f1557613f1561409f565b604052919050565b60006001600160401b03821115613f3657613f3661409f565b5060051b60200190565b60008219821115613f5357613f5361405d565b500190565b60006001600160401b03808316818516808303821115613f7a57613f7a61405d565b01949350505050565b600082613fa057634e487b7160e01b600052601260045260246000fd5b500490565b6000816000190483118215151615613fbf57613fbf61405d565b500290565b600082821015613fd657613fd661405d565b500390565b60005b83811015613ff6578181015183820152602001613fde565b838111156120045750506000910152565b600181811c9082168061401b57607f821691505b6020821081141561403c57634e487b7160e01b600052602260045260246000fd5b50919050565b60006000198214156140565761405661405d565b5060010190565b634e487b7160e01b600052601160045260246000fd5b634e487b7160e01b600052602160045260246000fd5b634e487b7160e01b600052603260045260246000fd5b634e487b7160e01b600052604160045260246000fdfe416464726573733a206c6f772d6c6576656c2063616c6c20776974682076616c7565206661696c6564a26469706673582212200f8ac975353dea30d8f678de39093d95954ff9a86d09fe3c540dc1b1efea233264736f6c63430008070033a26469706673582212209ef74e423cbefcdd40b02543602bd616822d2664a66608e38ab4c1bcd017760064736f6c63430008070033",
			"opcodes": "PUSH1 0x80 PUSH1 0x40 MSTORE CALLVALUE DUP1 ISZERO PUSH2 0x10 JUMPI PUSH1 0x0 DUP1 REVERT JUMPDEST POP PUSH2 0x52E6 DUP1 PUSH2 0x20 PUSH1 0x0 CODECOPY PUSH1 0x0 RETURN INVALID PUSH1 0x80 PUSH1 0x40 MSTORE CALLVALUE DUP1 ISZERO PUSH3 0x11 JUMPI PUSH1 0x0 DUP1 REVERT JUMPDEST POP PUSH1 0x4 CALLDATASIZE LT PUSH3 0x46 JUMPI PUSH1 0x0 CALLDATALOAD PUSH1 0xE0 SHR DUP1 PUSH4 0x54FD4D50 EQ PUSH3 0x4B JUMPI DUP1 PUSH4 0x5C65F2FB EQ PUSH3 0x95 JUMPI DUP1 PUSH4 0x8F2696AF EQ PUSH3 0xC5 JUMPI JUMPDEST PUSH1 0x0 DUP1 REVERT JUMPDEST PUSH1 0x40 DUP1 MLOAD DUP1 DUP3 ADD DUP3 MSTORE PUSH1 0x19 DUP2 MSTORE PUSH32 0x4D6574614C69666544414F3A3230333A43726F776466756E6400000000000000 PUSH1 0x20 DUP3 ADD MSTORE SWAP1 MLOAD PUSH3 0x8C SWAP2 SWAP1 PUSH3 0x630 JUMP JUMPDEST PUSH1 0x40 MLOAD DUP1 SWAP2 SUB SWAP1 RETURN JUMPDEST PUSH3 0xAC PUSH3 0xA6 CALLDATASIZE PUSH1 0x4 PUSH3 0x484 JUMP JUMPDEST PUSH3 0xCF JUMP JUMPDEST PUSH1 0x40 MLOAD PUSH1 0x1 PUSH1 0x1 PUSH1 0xA0 SHL SUB SWAP1 SWAP2 AND DUP2 MSTORE PUSH1 0x20 ADD PUSH3 0x8C JUMP JUMPDEST PUSH3 0xAC PUSH3 0xFC JUMP JUMPDEST PUSH1 0x0 PUSH1 0x1 PUSH1 0x0 DUP1 DUP3 DUP3 SLOAD PUSH3 0xE5 SWAP2 SWAP1 PUSH3 0x744 JUMP JUMPDEST SWAP1 SWAP2 SSTORE POP PUSH3 0xF6 SWAP1 POP DUP3 PUSH3 0x11F JUMP JUMPDEST SWAP3 SWAP2 POP POP JUMP JUMPDEST PUSH1 0x0 PUSH3 0x11A ADDRESS PUSH1 0x0 SLOAD PUSH1 0x1 PUSH3 0x114 SWAP2 SWAP1 PUSH3 0x744 JUMP JUMPDEST PUSH3 0x1B5 JUMP JUMPDEST SWAP1 POP SWAP1 JUMP JUMPDEST PUSH1 0x0 DUP1 PUSH1 0x0 DUP1 PUSH1 0x0 DUP1 PUSH1 0x0 DUP1 PUSH1 0x0 DUP1 PUSH1 0x0 DUP12 DUP1 PUSH1 0x20 ADD SWAP1 MLOAD DUP2 ADD SWAP1 PUSH3 0x146 SWAP2 SWAP1 PUSH3 0x506 JUMP JUMPDEST SWAP10 POP SWAP10 POP SWAP10 POP SWAP10 POP SWAP10 POP SWAP10 POP SWAP10 POP SWAP10 POP SWAP10 POP SWAP10 POP DUP10 DUP10 DUP10 DUP10 DUP10 DUP10 DUP10 DUP10 DUP10 DUP10 PUSH1 0x40 MLOAD PUSH3 0x172 SWAP1 PUSH3 0x3E6 JUMP JUMPDEST PUSH3 0x187 SWAP11 SWAP10 SWAP9 SWAP8 SWAP7 SWAP6 SWAP5 SWAP4 SWAP3 SWAP2 SWAP1 PUSH3 0x64C JUMP JUMPDEST PUSH1 0x40 MLOAD DUP1 SWAP2 SUB SWAP1 PUSH1 0x0 CREATE DUP1 ISZERO DUP1 ISZERO PUSH3 0x1A4 JUMPI RETURNDATASIZE PUSH1 0x0 DUP1 RETURNDATACOPY RETURNDATASIZE PUSH1 0x0 REVERT JUMPDEST POP SWAP13 SWAP12 POP POP POP POP POP POP POP POP POP POP POP POP JUMP JUMPDEST PUSH1 0x0 PUSH1 0x60 DUP3 PUSH3 0x20F JUMPI PUSH1 0x40 MLOAD PUSH1 0x6B PUSH1 0xF9 SHL PUSH1 0x20 DUP3 ADD MSTORE PUSH1 0x25 PUSH1 0xFA SHL PUSH1 0x21 DUP3 ADD MSTORE PUSH1 0x1 PUSH1 0x1 PUSH1 0x60 SHL SUB NOT PUSH1 0x60 DUP7 SWAP1 SHL AND PUSH1 0x22 DUP3 ADD MSTORE PUSH1 0x1 PUSH1 0xFF SHL PUSH1 0x36 DUP3 ADD MSTORE PUSH1 0x37 ADD JUMPDEST PUSH1 0x40 MLOAD PUSH1 0x20 DUP2 DUP4 SUB SUB DUP2 MSTORE SWAP1 PUSH1 0x40 MSTORE SWAP1 POP PUSH3 0x3D2 JUMP JUMPDEST PUSH1 0x7F DUP4 GT PUSH3 0x260 JUMPI PUSH1 0x40 MLOAD PUSH1 0x6B PUSH1 0xF9 SHL PUSH1 0x20 DUP3 ADD MSTORE PUSH1 0x25 PUSH1 0xFA SHL PUSH1 0x21 DUP3 ADD MSTORE PUSH1 0x1 PUSH1 0x1 PUSH1 0x60 SHL SUB NOT PUSH1 0x60 DUP7 SWAP1 SHL AND PUSH1 0x22 DUP3 ADD MSTORE PUSH1 0xF8 DUP5 SWAP1 SHL PUSH1 0x1 PUSH1 0x1 PUSH1 0xF8 SHL SUB NOT AND PUSH1 0x36 DUP3 ADD MSTORE PUSH1 0x37 ADD PUSH3 0x1F8 JUMP JUMPDEST PUSH1 0xFF DUP4 GT PUSH3 0x2BB JUMPI PUSH1 0x40 MLOAD PUSH1 0xD7 PUSH1 0xF8 SHL PUSH1 0x20 DUP3 ADD MSTORE PUSH1 0x25 PUSH1 0xFA SHL PUSH1 0x21 DUP3 ADD MSTORE PUSH1 0x1 PUSH1 0x1 PUSH1 0x60 SHL SUB NOT PUSH1 0x60 DUP7 SWAP1 SHL AND PUSH1 0x22 DUP3 ADD MSTORE PUSH1 0x81 PUSH1 0xF8 SHL PUSH1 0x36 DUP3 ADD MSTORE PUSH1 0xF8 DUP5 SWAP1 SHL PUSH1 0x1 PUSH1 0x1 PUSH1 0xF8 SHL SUB NOT AND PUSH1 0x37 DUP3 ADD MSTORE PUSH1 0x38 ADD PUSH3 0x1F8 JUMP JUMPDEST PUSH2 0xFFFF DUP4 GT PUSH3 0x317 JUMPI PUSH1 0x40 MLOAD PUSH1 0x1B PUSH1 0xFB SHL PUSH1 0x20 DUP3 ADD MSTORE PUSH1 0x25 PUSH1 0xFA SHL PUSH1 0x21 DUP3 ADD MSTORE PUSH1 0x1 PUSH1 0x1 PUSH1 0x60 SHL SUB NOT PUSH1 0x60 DUP7 SWAP1 SHL AND PUSH1 0x22 DUP3 ADD MSTORE PUSH1 0x41 PUSH1 0xF9 SHL PUSH1 0x36 DUP3 ADD MSTORE PUSH1 0x1 PUSH1 0x1 PUSH1 0xF0 SHL SUB NOT PUSH1 0xF0 DUP6 SWAP1 SHL AND PUSH1 0x37 DUP3 ADD MSTORE PUSH1 0x39 ADD PUSH3 0x1F8 JUMP JUMPDEST PUSH3 0xFFFFFF DUP4 GT PUSH3 0x374 JUMPI PUSH1 0x40 MLOAD PUSH1 0xD9 PUSH1 0xF8 SHL PUSH1 0x20 DUP3 ADD MSTORE PUSH1 0x25 PUSH1 0xFA SHL PUSH1 0x21 DUP3 ADD MSTORE PUSH1 0x1 PUSH1 0x1 PUSH1 0x60 SHL SUB NOT PUSH1 0x60 DUP7 SWAP1 SHL AND PUSH1 0x22 DUP3 ADD MSTORE PUSH1 0x83 PUSH1 0xF8 SHL PUSH1 0x36 DUP3 ADD MSTORE PUSH1 0x1 PUSH1 0x1 PUSH1 0xE8 SHL SUB NOT PUSH1 0xE8 DUP6 SWAP1 SHL AND PUSH1 0x37 DUP3 ADD MSTORE PUSH1 0x3A ADD PUSH3 0x1F8 JUMP JUMPDEST PUSH1 0x40 MLOAD PUSH1 0x6D PUSH1 0xF9 SHL PUSH1 0x20 DUP3 ADD MSTORE PUSH1 0x25 PUSH1 0xFA SHL PUSH1 0x21 DUP3 ADD MSTORE PUSH1 0x1 PUSH1 0x1 PUSH1 0x60 SHL SUB NOT PUSH1 0x60 DUP7 SWAP1 SHL AND PUSH1 0x22 DUP3 ADD MSTORE PUSH1 0x21 PUSH1 0xFA SHL PUSH1 0x36 DUP3 ADD MSTORE PUSH1 0x1 PUSH1 0x1 PUSH1 0xE0 SHL SUB NOT PUSH1 0xE0 DUP6 SWAP1 SHL AND PUSH1 0x37 DUP3 ADD MSTORE PUSH1 0x3B ADD PUSH1 0x40 MLOAD PUSH1 0x20 DUP2 DUP4 SUB SUB DUP2 MSTORE SWAP1 PUSH1 0x40 MSTORE SWAP1 POP JUMPDEST DUP1 MLOAD PUSH1 0x20 SWAP1 SWAP2 ADD KECCAK256 PUSH1 0x0 DUP2 SWAP1 MSTORE SWAP4 SWAP3 POP POP POP JUMP JUMPDEST PUSH2 0x4AFC DUP1 PUSH3 0x7B5 DUP4 CODECOPY ADD SWAP1 JUMP JUMPDEST DUP1 MLOAD PUSH1 0x1 PUSH1 0x1 PUSH1 0xA0 SHL SUB DUP2 AND DUP2 EQ PUSH3 0x40C JUMPI PUSH1 0x0 DUP1 REVERT JUMPDEST SWAP2 SWAP1 POP JUMP JUMPDEST PUSH1 0x0 DUP3 PUSH1 0x1F DUP4 ADD SLT PUSH3 0x423 JUMPI PUSH1 0x0 DUP1 REVERT JUMPDEST DUP2 MLOAD PUSH3 0x43A PUSH3 0x434 DUP3 PUSH3 0x719 JUMP JUMPDEST PUSH3 0x6E5 JUMP JUMPDEST DUP2 DUP2 MSTORE DUP5 PUSH1 0x20 DUP4 DUP7 ADD ADD GT ISZERO PUSH3 0x450 JUMPI PUSH1 0x0 DUP1 REVERT JUMPDEST PUSH3 0x463 DUP3 PUSH1 0x20 DUP4 ADD PUSH1 0x20 DUP8 ADD PUSH3 0x76B JUMP JUMPDEST SWAP5 SWAP4 POP POP POP POP JUMP JUMPDEST DUP1 MLOAD PUSH8 0xFFFFFFFFFFFFFFFF DUP2 AND DUP2 EQ PUSH3 0x40C JUMPI PUSH1 0x0 DUP1 REVERT JUMPDEST PUSH1 0x0 PUSH1 0x20 DUP3 DUP5 SUB SLT ISZERO PUSH3 0x497 JUMPI PUSH1 0x0 DUP1 REVERT JUMPDEST DUP2 CALLDATALOAD PUSH8 0xFFFFFFFFFFFFFFFF DUP2 GT ISZERO PUSH3 0x4AF JUMPI PUSH1 0x0 DUP1 REVERT JUMPDEST DUP3 ADD PUSH1 0x1F DUP2 ADD DUP5 SGT PUSH3 0x4C1 JUMPI PUSH1 0x0 DUP1 REVERT JUMPDEST DUP1 CALLDATALOAD PUSH3 0x4D2 PUSH3 0x434 DUP3 PUSH3 0x719 JUMP JUMPDEST DUP2 DUP2 MSTORE DUP6 PUSH1 0x20 DUP4 DUP6 ADD ADD GT ISZERO PUSH3 0x4E8 JUMPI PUSH1 0x0 DUP1 REVERT JUMPDEST DUP2 PUSH1 0x20 DUP5 ADD PUSH1 0x20 DUP4 ADD CALLDATACOPY PUSH1 0x0 SWAP2 DUP2 ADD PUSH1 0x20 ADD SWAP2 SWAP1 SWAP2 MSTORE SWAP5 SWAP4 POP POP POP POP JUMP JUMPDEST PUSH1 0x0 DUP1 PUSH1 0x0 DUP1 PUSH1 0x0 DUP1 PUSH1 0x0 DUP1 PUSH1 0x0 DUP1 PUSH2 0x140 DUP12 DUP14 SUB SLT ISZERO PUSH3 0x527 JUMPI PUSH1 0x0 DUP1 REVERT JUMPDEST DUP11 MLOAD PUSH8 0xFFFFFFFFFFFFFFFF DUP1 DUP3 GT ISZERO PUSH3 0x540 JUMPI PUSH1 0x0 DUP1 REVERT JUMPDEST PUSH3 0x54E DUP15 DUP4 DUP16 ADD PUSH3 0x411 JUMP JUMPDEST SWAP12 POP PUSH1 0x20 DUP14 ADD MLOAD SWAP2 POP DUP1 DUP3 GT ISZERO PUSH3 0x565 JUMPI PUSH1 0x0 DUP1 REVERT JUMPDEST PUSH3 0x573 DUP15 DUP4 DUP16 ADD PUSH3 0x411 JUMP JUMPDEST SWAP11 POP PUSH1 0x40 DUP14 ADD MLOAD SWAP2 POP DUP1 DUP3 GT ISZERO PUSH3 0x58A JUMPI PUSH1 0x0 DUP1 REVERT JUMPDEST POP PUSH3 0x599 DUP14 DUP3 DUP15 ADD PUSH3 0x411 JUMP JUMPDEST SWAP9 POP POP PUSH3 0x5AA PUSH1 0x60 DUP13 ADD PUSH3 0x46B JUMP JUMPDEST SWAP7 POP PUSH1 0x80 DUP12 ADD MLOAD SWAP6 POP PUSH3 0x5C1 PUSH1 0xA0 DUP13 ADD PUSH3 0x3F4 JUMP JUMPDEST SWAP5 POP PUSH1 0xC0 DUP12 ADD MLOAD SWAP4 POP PUSH1 0xE0 DUP12 ADD MLOAD SWAP3 POP PUSH3 0x5E0 PUSH2 0x100 DUP13 ADD PUSH3 0x46B JUMP JUMPDEST SWAP2 POP PUSH3 0x5F1 PUSH2 0x120 DUP13 ADD PUSH3 0x3F4 JUMP JUMPDEST SWAP1 POP SWAP3 SWAP6 SWAP9 SWAP12 SWAP2 SWAP5 SWAP8 SWAP11 POP SWAP3 SWAP6 SWAP9 POP JUMP JUMPDEST PUSH1 0x0 DUP2 MLOAD DUP1 DUP5 MSTORE PUSH3 0x61C DUP2 PUSH1 0x20 DUP7 ADD PUSH1 0x20 DUP7 ADD PUSH3 0x76B JUMP JUMPDEST PUSH1 0x1F ADD PUSH1 0x1F NOT AND SWAP3 SWAP1 SWAP3 ADD PUSH1 0x20 ADD SWAP3 SWAP2 POP POP JUMP JUMPDEST PUSH1 0x20 DUP2 MSTORE PUSH1 0x0 PUSH3 0x645 PUSH1 0x20 DUP4 ADD DUP5 PUSH3 0x602 JUMP JUMPDEST SWAP4 SWAP3 POP POP POP JUMP JUMPDEST PUSH1 0x0 PUSH2 0x140 DUP1 DUP4 MSTORE PUSH3 0x662 DUP2 DUP5 ADD DUP15 PUSH3 0x602 JUMP JUMPDEST SWAP1 POP DUP3 DUP2 SUB PUSH1 0x20 DUP5 ADD MSTORE PUSH3 0x678 DUP2 DUP14 PUSH3 0x602 JUMP JUMPDEST SWAP1 POP DUP3 DUP2 SUB PUSH1 0x40 DUP5 ADD MSTORE PUSH3 0x68E DUP2 DUP13 PUSH3 0x602 JUMP JUMPDEST PUSH8 0xFFFFFFFFFFFFFFFF SWAP11 DUP12 AND PUSH1 0x60 DUP6 ADD MSTORE PUSH1 0x80 DUP5 ADD SWAP10 SWAP1 SWAP10 MSTORE POP POP PUSH1 0x1 PUSH1 0x1 PUSH1 0xA0 SHL SUB SWAP6 DUP7 AND PUSH1 0xA0 DUP3 ADD MSTORE PUSH1 0xC0 DUP2 ADD SWAP5 SWAP1 SWAP5 MSTORE PUSH1 0xE0 DUP5 ADD SWAP3 SWAP1 SWAP3 MSTORE SWAP1 SWAP5 AND PUSH2 0x100 DUP3 ADD MSTORE SWAP3 AND PUSH2 0x120 SWAP1 SWAP3 ADD SWAP2 SWAP1 SWAP2 MSTORE SWAP4 SWAP3 POP POP POP JUMP JUMPDEST PUSH1 0x40 MLOAD PUSH1 0x1F DUP3 ADD PUSH1 0x1F NOT AND DUP2 ADD PUSH8 0xFFFFFFFFFFFFFFFF DUP2 GT DUP3 DUP3 LT OR ISZERO PUSH3 0x711 JUMPI PUSH3 0x711 PUSH3 0x79E JUMP JUMPDEST PUSH1 0x40 MSTORE SWAP2 SWAP1 POP JUMP JUMPDEST PUSH1 0x0 PUSH8 0xFFFFFFFFFFFFFFFF DUP3 GT ISZERO PUSH3 0x736 JUMPI PUSH3 0x736 PUSH3 0x79E JUMP JUMPDEST POP PUSH1 0x1F ADD PUSH1 0x1F NOT AND PUSH1 0x20 ADD SWAP1 JUMP JUMPDEST PUSH1 0x0 DUP3 NOT DUP3 GT ISZERO PUSH3 0x766 JUMPI PUSH4 0x4E487B71 PUSH1 0xE0 SHL PUSH1 0x0 MSTORE PUSH1 0x11 PUSH1 0x4 MSTORE PUSH1 0x24 PUSH1 0x0 REVERT JUMPDEST POP ADD SWAP1 JUMP JUMPDEST PUSH1 0x0 JUMPDEST DUP4 DUP2 LT ISZERO PUSH3 0x788 JUMPI DUP2 DUP2 ADD MLOAD DUP4 DUP3 ADD MSTORE PUSH1 0x20 ADD PUSH3 0x76E JUMP JUMPDEST DUP4 DUP2 GT ISZERO PUSH3 0x798 JUMPI PUSH1 0x0 DUP5 DUP5 ADD MSTORE JUMPDEST POP POP POP POP JUMP JUMPDEST PUSH4 0x4E487B71 PUSH1 0xE0 SHL PUSH1 0x0 MSTORE PUSH1 0x41 PUSH1 0x4 MSTORE PUSH1 0x24 PUSH1 0x0 REVERT INVALID PUSH2 0x140 PUSH1 0x40 MSTORE CALLVALUE DUP1 ISZERO PUSH3 0x12 JUMPI PUSH1 0x0 DUP1 REVERT JUMPDEST POP PUSH1 0x40 MLOAD PUSH3 0x4AFC CODESIZE SUB DUP1 PUSH3 0x4AFC DUP4 CODECOPY DUP2 ADD PUSH1 0x40 DUP2 SWAP1 MSTORE PUSH3 0x35 SWAP2 PUSH3 0x76F JUMP JUMPDEST DUP10 DUP10 DUP10 PUSH1 0x40 MLOAD DUP1 PUSH1 0x40 ADD PUSH1 0x40 MSTORE DUP1 PUSH1 0x19 DUP2 MSTORE PUSH1 0x20 ADD PUSH32 0x4D6574614C69666544414F3A3230333A43726F776466756E6400000000000000 DUP2 MSTORE POP DUP6 PUSH2 0x2710 DUP6 DUP6 DUP6 DUP6 DUP4 DUP4 DUP4 DUP7 DUP5 DUP15 DUP16 DUP2 PUSH1 0x3 SWAP1 DUP1 MLOAD SWAP1 PUSH1 0x20 ADD SWAP1 PUSH3 0x95 SWAP3 SWAP2 SWAP1 PUSH3 0x60D JUMP JUMPDEST POP DUP1 MLOAD PUSH3 0xAB SWAP1 PUSH1 0x4 SWAP1 PUSH1 0x20 DUP5 ADD SWAP1 PUSH3 0x60D JUMP JUMPDEST POP POP DUP3 MLOAD PUSH1 0x20 DUP1 DUP6 ADD SWAP2 SWAP1 SWAP2 KECCAK256 DUP4 MLOAD DUP5 DUP4 ADD KECCAK256 PUSH1 0xE0 DUP3 SWAP1 MSTORE PUSH2 0x100 DUP2 SWAP1 MSTORE CHAINID PUSH1 0xA0 DUP2 DUP2 MSTORE PUSH1 0x40 DUP1 MLOAD PUSH32 0x8B73C3C69BB8FE3D512ECC4CF759CC79239F7B179B0FFACAA9A75D522B39400F DUP2 DUP9 ADD DUP2 SWAP1 MSTORE DUP2 DUP4 ADD DUP8 SWAP1 MSTORE PUSH1 0x60 DUP3 ADD DUP7 SWAP1 MSTORE PUSH1 0x80 DUP3 ADD SWAP5 SWAP1 SWAP5 MSTORE ADDRESS DUP2 DUP5 ADD MSTORE DUP2 MLOAD DUP1 DUP3 SUB SWAP1 SWAP4 ADD DUP4 MSTORE PUSH1 0xC0 ADD SWAP1 MSTORE DUP1 MLOAD SWAP5 ADD SWAP4 SWAP1 SWAP4 KECCAK256 SWAP2 SWAP4 POP SWAP2 SWAP1 PUSH1 0x80 MSTORE ADDRESS PUSH1 0x60 SHL PUSH1 0xC0 MSTORE PUSH2 0x120 MSTORE POP POP DUP5 MLOAD PUSH3 0x157 SWAP3 POP PUSH1 0x5 SWAP2 POP PUSH1 0x20 DUP7 ADD SWAP1 PUSH3 0x60D JUMP JUMPDEST POP DUP2 MLOAD PUSH3 0x16D SWAP1 PUSH1 0x6 SWAP1 PUSH1 0x20 DUP6 ADD SWAP1 PUSH3 0x60D JUMP JUMPDEST POP DUP1 MLOAD PUSH3 0x183 SWAP1 PUSH1 0x7 SWAP1 PUSH1 0x20 DUP5 ADD SWAP1 PUSH3 0x60D JUMP JUMPDEST POP POP PUSH1 0x8 DUP1 SLOAD ADDRESS PUSH1 0x1 PUSH1 0x1 PUSH1 0xA0 SHL SUB NOT SWAP2 DUP3 AND OR SWAP1 SWAP2 SSTORE PUSH1 0x1 PUSH1 0xC SSTORE PUSH1 0x1 PUSH1 0x1 PUSH1 0x40 SHL SUB SWAP9 SWAP1 SWAP9 AND PUSH1 0xE SSTORE POP POP POP PUSH1 0xF SWAP4 SWAP1 SWAP4 SSTORE POP POP PUSH1 0x1A DUP1 SLOAD DUP4 AND PUSH1 0x1 PUSH1 0x1 PUSH1 0xA0 SHL SUB DUP10 DUP2 AND SWAP2 SWAP1 SWAP2 OR SWAP1 SWAP2 SSTORE PUSH1 0x14 DUP1 SLOAD SWAP1 SWAP4 AND SWAP1 DUP13 AND OR SWAP1 SWAP2 SSTORE POP POP POP PUSH1 0x15 DUP7 SWAP1 SSTORE POP POP PUSH1 0x16 DUP4 SWAP1 SSTORE PUSH3 0x207 PUSH1 0x17 DUP4 PUSH3 0x229 PUSH1 0x20 SWAP1 DUP2 SHL PUSH3 0x1DDE OR SWAP1 SHR JUMP JUMPDEST PUSH1 0x0 NOT PUSH1 0xC SSTORE PUSH3 0x219 DUP8 DUP8 PUSH3 0x246 JUMP JUMPDEST POP POP POP POP POP POP POP POP POP POP PUSH3 0x995 JUMP JUMPDEST DUP2 SLOAD PUSH1 0x1 PUSH1 0x1 PUSH1 0x40 SHL SUB NOT AND PUSH1 0x1 PUSH1 0x1 PUSH1 0x40 SHL SUB SWAP2 SWAP1 SWAP2 AND OR SWAP1 SSTORE JUMP JUMPDEST PUSH1 0x0 DUP1 DUP1 MSTORE PUSH1 0x9 PUSH1 0x20 SWAP1 DUP2 MSTORE PUSH1 0x40 DUP1 MLOAD PUSH1 0x60 DUP1 DUP3 ADD DUP4 MSTORE ADDRESS DUP1 DUP4 MSTORE DUP3 DUP6 ADD DUP2 SWAP1 MSTORE DUP3 DUP5 ADD MSTORE DUP3 MLOAD DUP1 DUP3 ADD DUP5 MSTORE DUP6 DUP2 MSTORE DUP1 DUP6 ADD DUP7 SWAP1 MSTORE DUP1 DUP5 ADD SWAP6 SWAP1 SWAP6 MSTORE DUP3 MLOAD SWAP1 DUP2 ADD DUP4 MSTORE PUSH1 0x84 DUP1 DUP3 ADD DUP8 SWAP1 MSTORE DUP4 MLOAD DUP1 DUP4 SUB SWAP1 SWAP2 ADD DUP2 MSTORE PUSH1 0xA4 DUP3 ADD DUP5 MSTORE DUP1 DUP6 ADD DUP1 MLOAD PUSH1 0x1 PUSH1 0x1 PUSH1 0xE0 SHL SUB SWAP1 DUP2 AND PUSH4 0xFB4FA309 PUSH1 0xE0 SHL OR SWAP1 SWAP2 MSTORE SWAP1 DUP3 MSTORE DUP4 MLOAD PUSH1 0x1 PUSH1 0x24 DUP1 DUP4 ADD SWAP2 SWAP1 SWAP2 MSTORE DUP6 MLOAD DUP1 DUP4 SUB DUP3 ADD DUP2 MSTORE PUSH1 0x44 SWAP3 DUP4 ADD DUP8 MSTORE DUP1 DUP9 ADD DUP1 MLOAD DUP6 AND PUSH4 0xECE40CC1 PUSH1 0xE0 SHL OR SWAP1 MSTORE DUP5 DUP9 ADD MSTORE DUP6 MLOAD PUSH1 0x1 PUSH1 0x1 PUSH1 0x40 SHL SUB DUP12 AND DUP2 DUP4 ADD MSTORE DUP7 MLOAD DUP1 DUP3 SUB SWAP1 SWAP3 ADD DUP3 MSTORE SWAP1 SWAP2 ADD DUP6 MSTORE DUP1 DUP7 ADD DUP1 MLOAD SWAP1 SWAP3 AND PUSH4 0xEA0217CF PUSH1 0xE0 SHL OR SWAP1 SWAP2 MSTORE DUP2 DUP5 ADD MSTORE DUP3 MLOAD DUP1 DUP5 ADD SWAP1 SWAP4 MSTORE PUSH1 0xD DUP1 DUP5 MSTORE PUSH13 0x43726F77642046756E64696E67 PUSH1 0x98 SHL SWAP5 DUP5 ADD SWAP5 DUP6 MSTORE PUSH32 0xEC8156718A8372B1DB44BB411437D0870F3E3790D4A08526D024CE1B0B668F6B SWAP6 SWAP3 SWAP5 SWAP3 SWAP4 SWAP2 SWAP3 PUSH3 0x384 SWAP2 DUP8 SWAP2 SWAP1 PUSH3 0x60D JUMP JUMPDEST POP PUSH1 0x2 DUP6 ADD DUP1 SLOAD PUSH1 0x1 PUSH1 0x1 PUSH1 0x40 SHL SUB NOT AND PUSH1 0x3 OR SWAP1 SSTORE PUSH1 0x0 JUMPDEST PUSH1 0x3 DUP2 LT ISZERO PUSH3 0x487 JUMPI DUP5 DUP2 PUSH1 0x3 DUP2 LT PUSH3 0x3BC JUMPI PUSH3 0x3BC PUSH3 0x969 JUMP JUMPDEST PUSH1 0x20 SWAP1 DUP2 MUL SWAP2 SWAP1 SWAP2 ADD MLOAD PUSH1 0x0 DUP4 DUP2 MSTORE PUSH1 0x1 DUP10 ADD SWAP1 SWAP3 MSTORE PUSH1 0x40 SWAP1 SWAP2 KECCAK256 DUP1 SLOAD PUSH1 0x1 PUSH1 0x1 PUSH1 0xA0 SHL SUB NOT AND PUSH1 0x1 PUSH1 0x1 PUSH1 0xA0 SHL SUB SWAP1 SWAP3 AND SWAP2 SWAP1 SWAP2 OR SWAP1 SSTORE DUP4 DUP2 PUSH1 0x3 DUP2 LT PUSH3 0x409 JUMPI PUSH3 0x409 PUSH3 0x969 JUMP JUMPDEST PUSH1 0x20 MUL ADD MLOAD DUP7 PUSH1 0x1 ADD PUSH1 0x0 DUP4 DUP2 MSTORE PUSH1 0x20 ADD SWAP1 DUP2 MSTORE PUSH1 0x20 ADD PUSH1 0x0 KECCAK256 PUSH1 0x1 ADD DUP2 SWAP1 SSTORE POP DUP3 DUP2 PUSH1 0x3 DUP2 LT PUSH3 0x43F JUMPI PUSH3 0x43F PUSH3 0x969 JUMP JUMPDEST PUSH1 0x20 MUL ADD MLOAD DUP7 PUSH1 0x1 ADD PUSH1 0x0 DUP4 DUP2 MSTORE PUSH1 0x20 ADD SWAP1 DUP2 MSTORE PUSH1 0x20 ADD PUSH1 0x0 KECCAK256 PUSH1 0x2 ADD SWAP1 DUP1 MLOAD SWAP1 PUSH1 0x20 ADD SWAP1 PUSH3 0x471 SWAP3 SWAP2 SWAP1 PUSH3 0x60D JUMP JUMPDEST POP DUP1 PUSH3 0x47E DUP2 PUSH3 0x93F JUMP JUMPDEST SWAP2 POP POP PUSH3 0x39D JUMP JUMPDEST POP PUSH3 0x4BA PUSH3 0x4A2 NUMBER PUSH3 0x598 PUSH1 0x20 SHL PUSH3 0x1DFC OR PUSH1 0x20 SHR JUMP JUMPDEST DUP7 PUSH1 0x3 ADD PUSH3 0x229 PUSH1 0x20 SHL PUSH3 0x1DDE OR SWAP1 SWAP2 SWAP1 PUSH1 0x20 SHR JUMP JUMPDEST PUSH1 0x40 DUP1 MLOAD PUSH1 0x20 DUP1 DUP3 ADD SWAP1 SWAP3 MSTORE PUSH1 0x17 SLOAD PUSH1 0x1 PUSH1 0x1 PUSH1 0x40 SHL SUB AND DUP2 MSTORE PUSH3 0x506 SWAP2 PUSH3 0x4EE SWAP2 SWAP1 PUSH3 0x1E68 PUSH3 0x609 DUP3 SHL OR SWAP1 SHR JUMP JUMPDEST DUP7 PUSH1 0x4 ADD PUSH3 0x229 PUSH1 0x20 SHL PUSH3 0x1DDE OR SWAP1 SWAP2 SWAP1 PUSH1 0x20 SHR JUMP JUMPDEST PUSH32 0xA00FCF4F5E03CC2F4818B8F380A8F2A06479E49BF0765E5FEC09AEBDAF922BBC PUSH1 0x0 CALLER PUSH3 0x540 NUMBER PUSH3 0x598 PUSH1 0x20 SHL PUSH3 0x1DFC OR PUSH1 0x20 SHR JUMP JUMPDEST PUSH1 0x40 DUP1 MLOAD PUSH1 0x20 DUP1 DUP3 ADD SWAP1 SWAP3 MSTORE PUSH1 0x17 SLOAD PUSH1 0x1 PUSH1 0x1 PUSH1 0x40 SHL SUB AND DUP2 MSTORE PUSH3 0x56E SWAP2 PUSH3 0x1E68 PUSH3 0x609 DUP3 SHL OR SWAP1 SHR JUMP JUMPDEST DUP6 PUSH1 0x40 MLOAD PUSH3 0x582 SWAP6 SWAP5 SWAP4 SWAP3 SWAP2 SWAP1 PUSH3 0x86A JUMP JUMPDEST PUSH1 0x40 MLOAD DUP1 SWAP2 SUB SWAP1 LOG1 POP POP PUSH1 0x1 PUSH1 0xA SSTORE POP POP POP POP POP JUMP JUMPDEST PUSH1 0x0 PUSH1 0x1 PUSH1 0x1 PUSH1 0x40 SHL SUB DUP3 GT ISZERO PUSH3 0x605 JUMPI PUSH1 0x40 MLOAD PUSH3 0x461BCD PUSH1 0xE5 SHL DUP2 MSTORE PUSH1 0x20 PUSH1 0x4 DUP3 ADD MSTORE PUSH1 0x26 PUSH1 0x24 DUP3 ADD MSTORE PUSH32 0x53616665436173743A2076616C756520646F65736E27742066697420696E2036 PUSH1 0x44 DUP3 ADD MSTORE PUSH6 0x342062697473 PUSH1 0xD0 SHL PUSH1 0x64 DUP3 ADD MSTORE PUSH1 0x84 ADD PUSH1 0x40 MLOAD DUP1 SWAP2 SUB SWAP1 REVERT JUMPDEST POP SWAP1 JUMP JUMPDEST MLOAD SWAP1 JUMP JUMPDEST DUP3 DUP1 SLOAD PUSH3 0x61B SWAP1 PUSH3 0x902 JUMP JUMPDEST SWAP1 PUSH1 0x0 MSTORE PUSH1 0x20 PUSH1 0x0 KECCAK256 SWAP1 PUSH1 0x1F ADD PUSH1 0x20 SWAP1 DIV DUP2 ADD SWAP3 DUP3 PUSH3 0x63F JUMPI PUSH1 0x0 DUP6 SSTORE PUSH3 0x68A JUMP JUMPDEST DUP3 PUSH1 0x1F LT PUSH3 0x65A JUMPI DUP1 MLOAD PUSH1 0xFF NOT AND DUP4 DUP1 ADD OR DUP6 SSTORE PUSH3 0x68A JUMP JUMPDEST DUP3 DUP1 ADD PUSH1 0x1 ADD DUP6 SSTORE DUP3 ISZERO PUSH3 0x68A JUMPI SWAP2 DUP3 ADD JUMPDEST DUP3 DUP2 GT ISZERO PUSH3 0x68A JUMPI DUP3 MLOAD DUP3 SSTORE SWAP2 PUSH1 0x20 ADD SWAP2 SWAP1 PUSH1 0x1 ADD SWAP1 PUSH3 0x66D JUMP JUMPDEST POP PUSH3 0x605 SWAP3 SWAP2 POP JUMPDEST DUP1 DUP3 GT ISZERO PUSH3 0x605 JUMPI PUSH1 0x0 DUP2 SSTORE PUSH1 0x1 ADD PUSH3 0x693 JUMP JUMPDEST DUP1 MLOAD PUSH1 0x1 PUSH1 0x1 PUSH1 0xA0 SHL SUB DUP2 AND DUP2 EQ PUSH3 0x6C1 JUMPI PUSH1 0x0 DUP1 REVERT JUMPDEST SWAP2 SWAP1 POP JUMP JUMPDEST PUSH1 0x0 DUP3 PUSH1 0x1F DUP4 ADD SLT PUSH3 0x6D8 JUMPI PUSH1 0x0 DUP1 REVERT JUMPDEST DUP2 MLOAD PUSH1 0x1 PUSH1 0x1 PUSH1 0x40 SHL SUB DUP1 DUP3 GT ISZERO PUSH3 0x6F5 JUMPI PUSH3 0x6F5 PUSH3 0x97F JUMP JUMPDEST PUSH1 0x40 MLOAD PUSH1 0x1F DUP4 ADD PUSH1 0x1F NOT SWAP1 DUP2 AND PUSH1 0x3F ADD AND DUP2 ADD SWAP1 DUP3 DUP3 GT DUP2 DUP4 LT OR ISZERO PUSH3 0x720 JUMPI PUSH3 0x720 PUSH3 0x97F JUMP JUMPDEST DUP2 PUSH1 0x40 MSTORE DUP4 DUP2 MSTORE DUP7 PUSH1 0x20 DUP6 DUP9 ADD ADD GT ISZERO PUSH3 0x73A JUMPI PUSH1 0x0 DUP1 REVERT JUMPDEST PUSH3 0x74D DUP5 PUSH1 0x20 DUP4 ADD PUSH1 0x20 DUP10 ADD PUSH3 0x8CF JUMP JUMPDEST SWAP7 SWAP6 POP POP POP POP POP POP JUMP JUMPDEST DUP1 MLOAD PUSH1 0x1 PUSH1 0x1 PUSH1 0x40 SHL SUB DUP2 AND DUP2 EQ PUSH3 0x6C1 JUMPI PUSH1 0x0 DUP1 REVERT JUMPDEST PUSH1 0x0 DUP1 PUSH1 0x0 DUP1 PUSH1 0x0 DUP1 PUSH1 0x0 DUP1 PUSH1 0x0 DUP1 PUSH2 0x140 DUP12 DUP14 SUB SLT ISZERO PUSH3 0x790 JUMPI PUSH1 0x0 DUP1 REVERT JUMPDEST DUP11 MLOAD PUSH1 0x1 PUSH1 0x1 PUSH1 0x40 SHL SUB DUP1 DUP3 GT ISZERO PUSH3 0x7A8 JUMPI PUSH1 0x0 DUP1 REVERT JUMPDEST PUSH3 0x7B6 DUP15 DUP4 DUP16 ADD PUSH3 0x6C6 JUMP JUMPDEST SWAP12 POP PUSH1 0x20 DUP14 ADD MLOAD SWAP2 POP DUP1 DUP3 GT ISZERO PUSH3 0x7CD JUMPI PUSH1 0x0 DUP1 REVERT JUMPDEST PUSH3 0x7DB DUP15 DUP4 DUP16 ADD PUSH3 0x6C6 JUMP JUMPDEST SWAP11 POP PUSH1 0x40 DUP14 ADD MLOAD SWAP2 POP DUP1 DUP3 GT ISZERO PUSH3 0x7F2 JUMPI PUSH1 0x0 DUP1 REVERT JUMPDEST POP PUSH3 0x801 DUP14 DUP3 DUP15 ADD PUSH3 0x6C6 JUMP JUMPDEST SWAP9 POP POP PUSH3 0x812 PUSH1 0x60 DUP13 ADD PUSH3 0x757 JUMP JUMPDEST SWAP7 POP PUSH1 0x80 DUP12 ADD MLOAD SWAP6 POP PUSH3 0x829 PUSH1 0xA0 DUP13 ADD PUSH3 0x6A9 JUMP JUMPDEST SWAP5 POP PUSH1 0xC0 DUP12 ADD MLOAD SWAP4 POP PUSH1 0xE0 DUP12 ADD MLOAD SWAP3 POP PUSH3 0x848 PUSH2 0x100 DUP13 ADD PUSH3 0x757 JUMP JUMPDEST SWAP2 POP PUSH3 0x859 PUSH2 0x120 DUP13 ADD PUSH3 0x6A9 JUMP JUMPDEST SWAP1 POP SWAP3 SWAP6 SWAP9 SWAP12 SWAP2 SWAP5 SWAP8 SWAP11 POP SWAP3 SWAP6 SWAP9 POP JUMP JUMPDEST DUP6 DUP2 MSTORE PUSH1 0x1 DUP1 PUSH1 0xA0 SHL SUB DUP6 AND PUSH1 0x20 DUP3 ADD MSTORE PUSH1 0x0 PUSH1 0x1 DUP1 PUSH1 0x40 SHL SUB DUP1 DUP7 AND PUSH1 0x40 DUP5 ADD MSTORE DUP1 DUP6 AND PUSH1 0x60 DUP5 ADD MSTORE POP PUSH1 0xA0 PUSH1 0x80 DUP4 ADD MSTORE DUP3 MLOAD DUP1 PUSH1 0xA0 DUP5 ADD MSTORE PUSH3 0x8B7 DUP2 PUSH1 0xC0 DUP6 ADD PUSH1 0x20 DUP8 ADD PUSH3 0x8CF JUMP JUMPDEST PUSH1 0x1F ADD PUSH1 0x1F NOT AND SWAP2 SWAP1 SWAP2 ADD PUSH1 0xC0 ADD SWAP7 SWAP6 POP POP POP POP POP POP JUMP JUMPDEST PUSH1 0x0 JUMPDEST DUP4 DUP2 LT ISZERO PUSH3 0x8EC JUMPI DUP2 DUP2 ADD MLOAD DUP4 DUP3 ADD MSTORE PUSH1 0x20 ADD PUSH3 0x8D2 JUMP JUMPDEST DUP4 DUP2 GT ISZERO PUSH3 0x8FC JUMPI PUSH1 0x0 DUP5 DUP5 ADD MSTORE JUMPDEST POP POP POP POP JUMP JUMPDEST PUSH1 0x1 DUP2 DUP2 SHR SWAP1 DUP3 AND DUP1 PUSH3 0x917 JUMPI PUSH1 0x7F DUP3 AND SWAP2 POP JUMPDEST PUSH1 0x20 DUP3 LT DUP2 EQ ISZERO PUSH3 0x939 JUMPI PUSH4 0x4E487B71 PUSH1 0xE0 SHL PUSH1 0x0 MSTORE PUSH1 0x22 PUSH1 0x4 MSTORE PUSH1 0x24 PUSH1 0x0 REVERT JUMPDEST POP SWAP2 SWAP1 POP JUMP JUMPDEST PUSH1 0x0 PUSH1 0x0 NOT DUP3 EQ ISZERO PUSH3 0x962 JUMPI PUSH4 0x4E487B71 PUSH1 0xE0 SHL PUSH1 0x0 MSTORE PUSH1 0x11 PUSH1 0x4 MSTORE PUSH1 0x24 PUSH1 0x0 REVERT JUMPDEST POP PUSH1 0x1 ADD SWAP1 JUMP JUMPDEST PUSH4 0x4E487B71 PUSH1 0xE0 SHL PUSH1 0x0 MSTORE PUSH1 0x32 PUSH1 0x4 MSTORE PUSH1 0x24 PUSH1 0x0 REVERT JUMPDEST PUSH4 0x4E487B71 PUSH1 0xE0 SHL PUSH1 0x0 MSTORE PUSH1 0x41 PUSH1 0x4 MSTORE PUSH1 0x24 PUSH1 0x0 REVERT JUMPDEST PUSH1 0x80 MLOAD PUSH1 0xA0 MLOAD PUSH1 0xC0 MLOAD PUSH1 0x60 SHR PUSH1 0xE0 MLOAD PUSH2 0x100 MLOAD PUSH2 0x120 MLOAD PUSH2 0x4114 PUSH3 0x9E8 PUSH1 0x0 CODECOPY PUSH1 0x0 PUSH2 0x2CD0 ADD MSTORE PUSH1 0x0 PUSH2 0x2D1F ADD MSTORE PUSH1 0x0 PUSH2 0x2CFA ADD MSTORE PUSH1 0x0 PUSH2 0x2C53 ADD MSTORE PUSH1 0x0 PUSH2 0x2C7D ADD MSTORE PUSH1 0x0 PUSH2 0x2CA7 ADD MSTORE PUSH2 0x4114 PUSH1 0x0 RETURN INVALID PUSH1 0x80 PUSH1 0x40 MSTORE PUSH1 0x4 CALLDATASIZE LT PUSH2 0x39B JUMPI PUSH1 0x0 CALLDATALOAD PUSH1 0xE0 SHR DUP1 PUSH4 0x7A3A0E84 GT PUSH2 0x1DC JUMPI DUP1 PUSH4 0xC34C08E5 GT PUSH2 0x102 JUMPI DUP1 PUSH4 0xECE40CC1 GT PUSH2 0xA0 JUMPI DUP1 PUSH4 0xF8CE560A GT PUSH2 0x6F JUMPI DUP1 PUSH4 0xF8CE560A EQ PUSH2 0xAEF JUMPI DUP1 PUSH4 0xFB4FA309 EQ PUSH2 0xB0F JUMPI DUP1 PUSH4 0xFC7159F9 EQ PUSH2 0xB2F JUMPI DUP1 PUSH4 0xFE0D94C1 EQ PUSH2 0xB4F JUMPI PUSH1 0x0 DUP1 REVERT JUMPDEST DUP1 PUSH4 0xECE40CC1 EQ PUSH2 0xA6C JUMPI DUP1 PUSH4 0xF10E4E84 EQ PUSH2 0xA8C JUMPI DUP1 PUSH4 0xF3FABE09 EQ PUSH2 0xAB9 JUMPI DUP1 PUSH4 0xF5A8492F EQ PUSH2 0xACF JUMPI PUSH1 0x0 DUP1 REVERT JUMPDEST DUP1 PUSH4 0xD26331D4 GT PUSH2 0xDC JUMPI DUP1 PUSH4 0xD26331D4 EQ PUSH2 0x9DF JUMPI DUP1 PUSH4 0xDD62ED3E EQ PUSH2 0xA0C JUMPI DUP1 PUSH4 0xEA0217CF EQ PUSH2 0xA2C JUMPI DUP1 PUSH4 0xEB9019D4 EQ PUSH2 0xA4C JUMPI PUSH1 0x0 DUP1 REVERT JUMPDEST DUP1 PUSH4 0xC34C08E5 EQ PUSH2 0x97F JUMPI DUP1 PUSH4 0xC3CDA520 EQ PUSH2 0x99F JUMPI DUP1 PUSH4 0xC47F0027 EQ PUSH2 0x9BF JUMPI PUSH1 0x0 DUP1 REVERT JUMPDEST DUP1 PUSH4 0xA457C2D7 GT PUSH2 0x17A JUMPI DUP1 PUSH4 0xAFE926E8 GT PUSH2 0x149 JUMPI DUP1 PUSH4 0xAFE926E8 EQ PUSH2 0x915 JUMPI DUP1 PUSH4 0xB58131B0 EQ PUSH2 0x92A JUMPI DUP1 PUSH4 0xB9F1CB90 EQ PUSH2 0x93F JUMPI DUP1 PUSH4 0xC28BC2FA EQ PUSH2 0x95F JUMPI PUSH1 0x0 DUP1 REVERT JUMPDEST DUP1 PUSH4 0xA457C2D7 EQ PUSH2 0x88D JUMPI DUP1 PUSH4 0xA7E75EFD EQ PUSH2 0x8AD JUMPI DUP1 PUSH4 0xA9059CBB EQ PUSH2 0x8C2 JUMPI DUP1 PUSH4 0xAE092E89 EQ PUSH2 0x8E2 JUMPI PUSH1 0x0 DUP1 REVERT JUMPDEST DUP1 PUSH4 0x8E539E8C GT PUSH2 0x1B6 JUMPI DUP1 PUSH4 0x8E539E8C EQ PUSH2 0x818 JUMPI DUP1 PUSH4 0x937F6E77 EQ PUSH2 0x838 JUMPI DUP1 PUSH4 0x95D89B41 EQ PUSH2 0x858 JUMPI DUP1 PUSH4 0x9AB24EB0 EQ PUSH2 0x86D JUMPI PUSH1 0x0 DUP1 REVERT JUMPDEST DUP1 PUSH4 0x7A3A0E84 EQ PUSH2 0x7CD JUMPI DUP1 PUSH4 0x7D3D6522 EQ PUSH2 0x7E3 JUMPI DUP1 PUSH4 0x7D5E81E2 EQ PUSH2 0x7F8 JUMPI PUSH1 0x0 DUP1 REVERT JUMPDEST DUP1 PUSH4 0x40C10F19 GT PUSH2 0x2C1 JUMPI DUP1 PUSH4 0x56781388 GT PUSH2 0x25F JUMPI DUP1 PUSH4 0x7034731B GT PUSH2 0x22E JUMPI DUP1 PUSH4 0x7034731B EQ PUSH2 0x72A JUMPI DUP1 PUSH4 0x70A08231 EQ PUSH2 0x73F JUMPI DUP1 PUSH4 0x78065F27 EQ PUSH2 0x775 JUMPI DUP1 PUSH4 0x796B23BB EQ PUSH2 0x795 JUMPI PUSH1 0x0 DUP1 REVERT JUMPDEST DUP1 PUSH4 0x56781388 EQ PUSH2 0x69D JUMPI DUP1 PUSH4 0x587CDE1E EQ PUSH2 0x6BD JUMPI DUP1 PUSH4 0x590E1AE3 EQ PUSH2 0x6F5 JUMPI DUP1 PUSH4 0x5C19A95C EQ PUSH2 0x70A JUMPI PUSH1 0x0 DUP1 REVERT JUMPDEST DUP1 PUSH4 0x4A91DA48 GT PUSH2 0x29B JUMPI DUP1 PUSH4 0x4A91DA48 EQ PUSH2 0x5EC JUMPI DUP1 PUSH4 0x4C79E31D EQ PUSH2 0x602 JUMPI DUP1 PUSH4 0x544FFC9C EQ PUSH2 0x617 JUMPI DUP1 PUSH4 0x54FD4D50 EQ PUSH2 0x66C JUMPI PUSH1 0x0 DUP1 REVERT JUMPDEST DUP1 PUSH4 0x40C10F19 EQ PUSH2 0x56D JUMPI DUP1 PUSH4 0x43859632 EQ PUSH2 0x58D JUMPI DUP1 PUSH4 0x48976936 EQ PUSH2 0x5D7 JUMPI PUSH1 0x0 DUP1 REVERT JUMPDEST DUP1 PUSH4 0x23B872DD GT PUSH2 0x339 JUMPI DUP1 PUSH4 0x3932ABB1 GT PUSH2 0x308 JUMPI DUP1 PUSH4 0x3932ABB1 EQ PUSH2 0x4F7 JUMPI DUP1 PUSH4 0x39509351 EQ PUSH2 0x50B JUMPI DUP1 PUSH4 0x3BCCF4FD EQ PUSH2 0x52B JUMPI DUP1 PUSH4 0x3FB23865 EQ PUSH2 0x54B JUMPI PUSH1 0x0 DUP1 REVERT JUMPDEST DUP1 PUSH4 0x23B872DD EQ PUSH2 0x49E JUMPI DUP1 PUSH4 0x313CE567 EQ PUSH2 0x4BE JUMPI DUP1 PUSH4 0x31A3A506 EQ PUSH2 0x4DA JUMPI DUP1 PUSH4 0x38DEAF55 EQ PUSH2 0x4EF JUMPI PUSH1 0x0 DUP1 REVERT JUMPDEST DUP1 PUSH4 0x95EA7B3 GT PUSH2 0x375 JUMPI DUP1 PUSH4 0x95EA7B3 EQ PUSH2 0x424 JUMPI DUP1 PUSH4 0x1703A018 EQ PUSH2 0x454 JUMPI DUP1 PUSH4 0x18160DDD EQ PUSH2 0x469 JUMPI DUP1 PUSH4 0x1C3C0EA8 EQ PUSH2 0x47E JUMPI PUSH1 0x0 DUP1 REVERT JUMPDEST DUP1 PUSH4 0x2A251A3 EQ PUSH2 0x3BE JUMPI DUP1 PUSH4 0x2FE5305 EQ PUSH2 0x3E2 JUMPI DUP1 PUSH4 0x6FDDE03 EQ PUSH2 0x402 JUMPI PUSH1 0x0 DUP1 REVERT JUMPDEST CALLDATASIZE PUSH2 0x3B9 JUMPI PUSH1 0x8 SLOAD PUSH1 0x1 PUSH1 0x1 PUSH1 0xA0 SHL SUB AND ADDRESS EQ PUSH2 0x3B7 JUMPI PUSH1 0x0 DUP1 REVERT JUMPDEST STOP JUMPDEST PUSH1 0x0 DUP1 REVERT JUMPDEST CALLVALUE DUP1 ISZERO PUSH2 0x3CA JUMPI PUSH1 0x0 DUP1 REVERT JUMPDEST POP PUSH1 0xE SLOAD JUMPDEST PUSH1 0x40 MLOAD SWAP1 DUP2 MSTORE PUSH1 0x20 ADD JUMPDEST PUSH1 0x40 MLOAD DUP1 SWAP2 SUB SWAP1 RETURN JUMPDEST CALLVALUE DUP1 ISZERO PUSH2 0x3EE JUMPI PUSH1 0x0 DUP1 REVERT JUMPDEST POP PUSH2 0x3B7 PUSH2 0x3FD CALLDATASIZE PUSH1 0x4 PUSH2 0x3BA0 JUMP JUMPDEST PUSH2 0xB62 JUMP JUMPDEST CALLVALUE DUP1 ISZERO PUSH2 0x40E JUMPI PUSH1 0x0 DUP1 REVERT JUMPDEST POP PUSH2 0x417 PUSH2 0xBAC JUMP JUMPDEST PUSH1 0x40 MLOAD PUSH2 0x3D9 SWAP2 SWAP1 PUSH2 0x3E47 JUMP JUMPDEST CALLVALUE DUP1 ISZERO PUSH2 0x430 JUMPI PUSH1 0x0 DUP1 REVERT JUMPDEST POP PUSH2 0x444 PUSH2 0x43F CALLDATASIZE PUSH1 0x4 PUSH2 0x392B JUMP JUMPDEST PUSH2 0xC3E JUMP JUMPDEST PUSH1 0x40 MLOAD SWAP1 ISZERO ISZERO DUP2 MSTORE PUSH1 0x20 ADD PUSH2 0x3D9 JUMP JUMPDEST CALLVALUE DUP1 ISZERO PUSH2 0x460 JUMPI PUSH1 0x0 DUP1 REVERT JUMPDEST POP PUSH2 0x3CF PUSH2 0xC56 JUMP JUMPDEST CALLVALUE DUP1 ISZERO PUSH2 0x475 JUMPI PUSH1 0x0 DUP1 REVERT JUMPDEST POP PUSH1 0x2 SLOAD PUSH2 0x3CF JUMP JUMPDEST CALLVALUE DUP1 ISZERO PUSH2 0x48A JUMPI PUSH1 0x0 DUP1 REVERT JUMPDEST POP PUSH2 0x3B7 PUSH2 0x499 CALLDATASIZE PUSH1 0x4 PUSH2 0x38A1 JUMP JUMPDEST PUSH2 0xC80 JUMP JUMPDEST CALLVALUE DUP1 ISZERO PUSH2 0x4AA JUMPI PUSH1 0x0 DUP1 REVERT JUMPDEST POP PUSH2 0x444 PUSH2 0x4B9 CALLDATASIZE PUSH1 0x4 PUSH2 0x38EF JUMP JUMPDEST PUSH2 0xCCC JUMP JUMPDEST CALLVALUE DUP1 ISZERO PUSH2 0x4CA JUMPI PUSH1 0x0 DUP1 REVERT JUMPDEST POP PUSH1 0x40 MLOAD PUSH1 0x12 DUP2 MSTORE PUSH1 0x20 ADD PUSH2 0x3D9 JUMP JUMPDEST CALLVALUE DUP1 ISZERO PUSH2 0x4E6 JUMPI PUSH1 0x0 DUP1 REVERT JUMPDEST POP PUSH2 0x3B7 PUSH2 0xCF2 JUMP JUMPDEST PUSH2 0x3CF PUSH2 0xD3A JUMP JUMPDEST CALLVALUE DUP1 ISZERO PUSH2 0x503 JUMPI PUSH1 0x0 DUP1 REVERT JUMPDEST POP PUSH1 0x0 PUSH2 0x3CF JUMP JUMPDEST CALLVALUE DUP1 ISZERO PUSH2 0x517 JUMPI PUSH1 0x0 DUP1 REVERT JUMPDEST POP PUSH2 0x444 PUSH2 0x526 CALLDATASIZE PUSH1 0x4 PUSH2 0x392B JUMP JUMPDEST PUSH2 0xD5C JUMP JUMPDEST CALLVALUE DUP1 ISZERO PUSH2 0x537 JUMPI PUSH1 0x0 DUP1 REVERT JUMPDEST POP PUSH2 0x3CF PUSH2 0x546 CALLDATASIZE PUSH1 0x4 PUSH2 0x3C4C JUMP JUMPDEST PUSH2 0xD7E JUMP JUMPDEST CALLVALUE DUP1 ISZERO PUSH2 0x557 JUMPI PUSH1 0x0 DUP1 REVERT JUMPDEST POP PUSH2 0x560 PUSH2 0xE03 JUMP JUMPDEST PUSH1 0x40 MLOAD PUSH2 0x3D9 SWAP2 SWAP1 PUSH2 0x3E19 JUMP JUMPDEST CALLVALUE DUP1 ISZERO PUSH2 0x579 JUMPI PUSH1 0x0 DUP1 REVERT JUMPDEST POP PUSH2 0x3B7 PUSH2 0x588 CALLDATASIZE PUSH1 0x4 PUSH2 0x392B JUMP JUMPDEST PUSH2 0xECD JUMP JUMPDEST CALLVALUE DUP1 ISZERO PUSH2 0x599 JUMPI PUSH1 0x0 DUP1 REVERT JUMPDEST POP PUSH2 0x444 PUSH2 0x5A8 CALLDATASIZE PUSH1 0x4 PUSH2 0x3C06 JUMP JUMPDEST PUSH1 0x0 DUP3 DUP2 MSTORE PUSH1 0x10 PUSH1 0x20 SWAP1 DUP2 MSTORE PUSH1 0x40 DUP1 DUP4 KECCAK256 PUSH1 0x1 PUSH1 0x1 PUSH1 0xA0 SHL SUB DUP6 AND DUP5 MSTORE PUSH1 0x3 ADD SWAP1 SWAP2 MSTORE SWAP1 KECCAK256 SLOAD PUSH1 0xFF AND SWAP3 SWAP2 POP POP JUMP JUMPDEST CALLVALUE DUP1 ISZERO PUSH2 0x5E3 JUMPI PUSH1 0x0 DUP1 REVERT JUMPDEST POP PUSH2 0x417 PUSH2 0xF01 JUMP JUMPDEST CALLVALUE DUP1 ISZERO PUSH2 0x5F8 JUMPI PUSH1 0x0 DUP1 REVERT JUMPDEST POP PUSH2 0x3CF PUSH1 0xA SLOAD DUP2 JUMP JUMPDEST CALLVALUE DUP1 ISZERO PUSH2 0x60E JUMPI PUSH1 0x0 DUP1 REVERT JUMPDEST POP PUSH1 0xF SLOAD PUSH2 0x3CF JUMP JUMPDEST CALLVALUE DUP1 ISZERO PUSH2 0x623 JUMPI PUSH1 0x0 DUP1 REVERT JUMPDEST POP PUSH2 0x651 PUSH2 0x632 CALLDATASIZE PUSH1 0x4 PUSH2 0x3BD4 JUMP JUMPDEST PUSH1 0x0 SWAP1 DUP2 MSTORE PUSH1 0x10 PUSH1 0x20 MSTORE PUSH1 0x40 SWAP1 KECCAK256 DUP1 SLOAD PUSH1 0x1 DUP3 ADD SLOAD PUSH1 0x2 SWAP1 SWAP3 ADD SLOAD SWAP1 SWAP3 JUMP JUMPDEST PUSH1 0x40 DUP1 MLOAD SWAP4 DUP5 MSTORE PUSH1 0x20 DUP5 ADD SWAP3 SWAP1 SWAP3 MSTORE SWAP1 DUP3 ADD MSTORE PUSH1 0x60 ADD PUSH2 0x3D9 JUMP JUMPDEST CALLVALUE DUP1 ISZERO PUSH2 0x678 JUMPI PUSH1 0x0 DUP1 REVERT JUMPDEST POP PUSH1 0x40 DUP1 MLOAD DUP1 DUP3 ADD SWAP1 SWAP2 MSTORE PUSH1 0x8 DUP2 MSTORE PUSH8 0x105094D5149050D5 PUSH1 0xC2 SHL PUSH1 0x20 DUP3 ADD MSTORE PUSH2 0x417 JUMP JUMPDEST CALLVALUE DUP1 ISZERO PUSH2 0x6A9 JUMPI PUSH1 0x0 DUP1 REVERT JUMPDEST POP PUSH2 0x3CF PUSH2 0x6B8 CALLDATASIZE PUSH1 0x4 PUSH2 0x3C29 JUMP JUMPDEST PUSH2 0xF8F JUMP JUMPDEST CALLVALUE DUP1 ISZERO PUSH2 0x6C9 JUMPI PUSH1 0x0 DUP1 REVERT JUMPDEST POP PUSH2 0x6DD PUSH2 0x6D8 CALLDATASIZE PUSH1 0x4 PUSH2 0x38A1 JUMP JUMPDEST PUSH2 0xFA5 JUMP JUMPDEST PUSH1 0x40 MLOAD PUSH1 0x1 PUSH1 0x1 PUSH1 0xA0 SHL SUB SWAP1 SWAP2 AND DUP2 MSTORE PUSH1 0x20 ADD PUSH2 0x3D9 JUMP JUMPDEST CALLVALUE DUP1 ISZERO PUSH2 0x701 JUMPI PUSH1 0x0 DUP1 REVERT JUMPDEST POP PUSH2 0x3B7 PUSH2 0xFEE JUMP JUMPDEST CALLVALUE DUP1 ISZERO PUSH2 0x716 JUMPI PUSH1 0x0 DUP1 REVERT JUMPDEST POP PUSH2 0x3B7 PUSH2 0x725 CALLDATASIZE PUSH1 0x4 PUSH2 0x38A1 JUMP JUMPDEST PUSH2 0x10EF JUMP JUMPDEST CALLVALUE DUP1 ISZERO PUSH2 0x736 JUMPI PUSH1 0x0 DUP1 REVERT JUMPDEST POP PUSH2 0x417 PUSH2 0x10FA JUMP JUMPDEST CALLVALUE DUP1 ISZERO PUSH2 0x74B JUMPI PUSH1 0x0 DUP1 REVERT JUMPDEST POP PUSH2 0x3CF PUSH2 0x75A CALLDATASIZE PUSH1 0x4 PUSH2 0x38A1 JUMP JUMPDEST PUSH1 0x1 PUSH1 0x1 PUSH1 0xA0 SHL SUB AND PUSH1 0x0 SWAP1 DUP2 MSTORE PUSH1 0x20 DUP2 SWAP1 MSTORE PUSH1 0x40 SWAP1 KECCAK256 SLOAD SWAP1 JUMP JUMPDEST CALLVALUE DUP1 ISZERO PUSH2 0x781 JUMPI PUSH1 0x0 DUP1 REVERT JUMPDEST POP PUSH1 0x14 SLOAD PUSH2 0x6DD SWAP1 PUSH1 0x1 PUSH1 0x1 PUSH1 0xA0 SHL SUB AND DUP2 JUMP JUMPDEST CALLVALUE DUP1 ISZERO PUSH2 0x7A1 JUMPI PUSH1 0x0 DUP1 REVERT JUMPDEST POP PUSH1 0x17 SLOAD PUSH2 0x7B5 SWAP1 PUSH1 0x1 PUSH1 0x1 PUSH1 0x40 SHL SUB AND DUP2 JUMP JUMPDEST PUSH1 0x40 MLOAD PUSH1 0x1 PUSH1 0x1 PUSH1 0x40 SHL SUB SWAP1 SWAP2 AND DUP2 MSTORE PUSH1 0x20 ADD PUSH2 0x3D9 JUMP JUMPDEST CALLVALUE DUP1 ISZERO PUSH2 0x7D9 JUMPI PUSH1 0x0 DUP1 REVERT JUMPDEST POP PUSH2 0x3CF PUSH1 0x15 SLOAD DUP2 JUMP JUMPDEST CALLVALUE DUP1 ISZERO PUSH2 0x7EF JUMPI PUSH1 0x0 DUP1 REVERT JUMPDEST POP PUSH2 0x444 PUSH2 0x1107 JUMP JUMPDEST CALLVALUE DUP1 ISZERO PUSH2 0x804 JUMPI PUSH1 0x0 DUP1 REVERT JUMPDEST POP PUSH2 0x3CF PUSH2 0x813 CALLDATASIZE PUSH1 0x4 PUSH2 0x3A6F JUMP JUMPDEST PUSH2 0x1113 JUMP JUMPDEST CALLVALUE DUP1 ISZERO PUSH2 0x824 JUMPI PUSH1 0x0 DUP1 REVERT JUMPDEST POP PUSH2 0x3CF PUSH2 0x833 CALLDATASIZE PUSH1 0x4 PUSH2 0x3BD4 JUMP JUMPDEST PUSH2 0x1409 JUMP JUMPDEST CALLVALUE DUP1 ISZERO PUSH2 0x844 JUMPI PUSH1 0x0 DUP1 REVERT JUMPDEST POP PUSH2 0x3B7 PUSH2 0x853 CALLDATASIZE PUSH1 0x4 PUSH2 0x3BA0 JUMP JUMPDEST PUSH2 0x146A JUMP JUMPDEST CALLVALUE DUP1 ISZERO PUSH2 0x864 JUMPI PUSH1 0x0 DUP1 REVERT JUMPDEST POP PUSH2 0x417 PUSH2 0x14A7 JUMP JUMPDEST CALLVALUE DUP1 ISZERO PUSH2 0x879 JUMPI PUSH1 0x0 DUP1 REVERT JUMPDEST POP PUSH2 0x3CF PUSH2 0x888 CALLDATASIZE PUSH1 0x4 PUSH2 0x38A1 JUMP JUMPDEST PUSH2 0x14B6 JUMP JUMPDEST CALLVALUE DUP1 ISZERO PUSH2 0x899 JUMPI PUSH1 0x0 DUP1 REVERT JUMPDEST POP PUSH2 0x444 PUSH2 0x8A8 CALLDATASIZE PUSH1 0x4 PUSH2 0x392B JUMP JUMPDEST PUSH2 0x14D7 JUMP JUMPDEST CALLVALUE DUP1 ISZERO PUSH2 0x8B9 JUMPI PUSH1 0x0 DUP1 REVERT JUMPDEST POP PUSH2 0x3B7 PUSH2 0x155D JUMP JUMPDEST CALLVALUE DUP1 ISZERO PUSH2 0x8CE JUMPI PUSH1 0x0 DUP1 REVERT JUMPDEST POP PUSH2 0x444 PUSH2 0x8DD CALLDATASIZE PUSH1 0x4 PUSH2 0x392B JUMP JUMPDEST PUSH2 0x15AC JUMP JUMPDEST CALLVALUE DUP1 ISZERO PUSH2 0x8EE JUMPI PUSH1 0x0 DUP1 REVERT JUMPDEST POP PUSH2 0x902 PUSH2 0x8FD CALLDATASIZE PUSH1 0x4 PUSH2 0x3BD4 JUMP JUMPDEST PUSH2 0x15BA JUMP JUMPDEST PUSH1 0x40 MLOAD PUSH2 0x3D9 SWAP8 SWAP7 SWAP6 SWAP5 SWAP4 SWAP3 SWAP2 SWAP1 PUSH2 0x3D72 JUMP JUMPDEST CALLVALUE DUP1 ISZERO PUSH2 0x921 JUMPI PUSH1 0x0 DUP1 REVERT JUMPDEST POP PUSH2 0x417 PUSH2 0x18F7 JUMP JUMPDEST CALLVALUE DUP1 ISZERO PUSH2 0x936 JUMPI PUSH1 0x0 DUP1 REVERT JUMPDEST POP PUSH1 0xC SLOAD PUSH2 0x3CF JUMP JUMPDEST CALLVALUE DUP1 ISZERO PUSH2 0x94B JUMPI PUSH1 0x0 DUP1 REVERT JUMPDEST POP PUSH2 0x3CF PUSH2 0x95A CALLDATASIZE PUSH1 0x4 PUSH2 0x3BD4 JUMP JUMPDEST PUSH2 0x1904 JUMP JUMPDEST CALLVALUE DUP1 ISZERO PUSH2 0x96B JUMPI PUSH1 0x0 DUP1 REVERT JUMPDEST POP PUSH2 0x3B7 PUSH2 0x97A CALLDATASIZE PUSH1 0x4 PUSH2 0x3955 JUMP JUMPDEST PUSH2 0x19B0 JUMP JUMPDEST CALLVALUE DUP1 ISZERO PUSH2 0x98B JUMPI PUSH1 0x0 DUP1 REVERT JUMPDEST POP PUSH1 0x8 SLOAD PUSH2 0x6DD SWAP1 PUSH1 0x1 PUSH1 0x1 PUSH1 0xA0 SHL SUB AND DUP2 JUMP JUMPDEST CALLVALUE DUP1 ISZERO PUSH2 0x9AB JUMPI PUSH1 0x0 DUP1 REVERT JUMPDEST POP PUSH2 0x3B7 PUSH2 0x9BA CALLDATASIZE PUSH1 0x4 PUSH2 0x39DB JUMP JUMPDEST PUSH2 0x1A23 JUMP JUMPDEST CALLVALUE DUP1 ISZERO PUSH2 0x9CB JUMPI PUSH1 0x0 DUP1 REVERT JUMPDEST POP PUSH2 0x3B7 PUSH2 0x9DA CALLDATASIZE PUSH1 0x4 PUSH2 0x3BA0 JUMP JUMPDEST PUSH2 0x1AD6 JUMP JUMPDEST CALLVALUE DUP1 ISZERO PUSH2 0x9EB JUMPI PUSH1 0x0 DUP1 REVERT JUMPDEST POP PUSH2 0x9FF PUSH2 0x9FA CALLDATASIZE PUSH1 0x4 PUSH2 0x3BD4 JUMP JUMPDEST PUSH2 0x1B13 JUMP JUMPDEST PUSH1 0x40 MLOAD PUSH2 0x3D9 SWAP2 SWAP1 PUSH2 0x3E33 JUMP JUMPDEST CALLVALUE DUP1 ISZERO PUSH2 0xA18 JUMPI PUSH1 0x0 DUP1 REVERT JUMPDEST POP PUSH2 0x3CF PUSH2 0xA27 CALLDATASIZE PUSH1 0x4 PUSH2 0x38BC JUMP JUMPDEST PUSH2 0x1B1E JUMP JUMPDEST CALLVALUE DUP1 ISZERO PUSH2 0xA38 JUMPI PUSH1 0x0 DUP1 REVERT JUMPDEST POP PUSH2 0x3B7 PUSH2 0xA47 CALLDATASIZE PUSH1 0x4 PUSH2 0x3BD4 JUMP JUMPDEST PUSH2 0x1B49 JUMP JUMPDEST CALLVALUE DUP1 ISZERO PUSH2 0xA58 JUMPI PUSH1 0x0 DUP1 REVERT JUMPDEST POP PUSH2 0x3CF PUSH2 0xA67 CALLDATASIZE PUSH1 0x4 PUSH2 0x392B JUMP JUMPDEST PUSH2 0x1B78 JUMP JUMPDEST CALLVALUE DUP1 ISZERO PUSH2 0xA78 JUMPI PUSH1 0x0 DUP1 REVERT JUMPDEST POP PUSH2 0x3B7 PUSH2 0xA87 CALLDATASIZE PUSH1 0x4 PUSH2 0x3BD4 JUMP JUMPDEST PUSH2 0x1B84 JUMP JUMPDEST CALLVALUE DUP1 ISZERO PUSH2 0xA98 JUMPI PUSH1 0x0 DUP1 REVERT JUMPDEST POP PUSH2 0x3CF PUSH2 0xAA7 CALLDATASIZE PUSH1 0x4 PUSH2 0x38A1 JUMP JUMPDEST PUSH1 0x19 PUSH1 0x20 MSTORE PUSH1 0x0 SWAP1 DUP2 MSTORE PUSH1 0x40 SWAP1 KECCAK256 SLOAD DUP2 JUMP JUMPDEST CALLVALUE DUP1 ISZERO PUSH2 0xAC5 JUMPI PUSH1 0x0 DUP1 REVERT JUMPDEST POP PUSH2 0x3CF PUSH1 0x16 SLOAD DUP2 JUMP JUMPDEST CALLVALUE DUP1 ISZERO PUSH2 0xADB JUMPI PUSH1 0x0 DUP1 REVERT JUMPDEST POP PUSH1 0x1A SLOAD PUSH2 0x6DD SWAP1 PUSH1 0x1 PUSH1 0x1 PUSH1 0xA0 SHL SUB AND DUP2 JUMP JUMPDEST CALLVALUE DUP1 ISZERO PUSH2 0xAFB JUMPI PUSH1 0x0 DUP1 REVERT JUMPDEST POP PUSH2 0x3CF PUSH2 0xB0A CALLDATASIZE PUSH1 0x4 PUSH2 0x3BD4 JUMP JUMPDEST PUSH2 0x1BB3 JUMP JUMPDEST CALLVALUE DUP1 ISZERO PUSH2 0xB1B JUMPI PUSH1 0x0 DUP1 REVERT JUMPDEST POP PUSH2 0x3B7 PUSH2 0xB2A CALLDATASIZE PUSH1 0x4 PUSH2 0x3BD4 JUMP JUMPDEST PUSH2 0x1C48 JUMP JUMPDEST CALLVALUE DUP1 ISZERO PUSH2 0xB3B JUMPI PUSH1 0x0 DUP1 REVERT JUMPDEST POP PUSH2 0x3CF PUSH2 0xB4A CALLDATASIZE PUSH1 0x4 PUSH2 0x3A33 JUMP JUMPDEST PUSH2 0x1C77 JUMP JUMPDEST PUSH2 0x3CF PUSH2 0xB5D CALLDATASIZE PUSH1 0x4 PUSH2 0x3BD4 JUMP JUMPDEST PUSH2 0x1CCF JUMP JUMPDEST PUSH1 0x8 SLOAD PUSH1 0x1 PUSH1 0x1 PUSH1 0xA0 SHL SUB AND CALLER EQ PUSH2 0xB95 JUMPI PUSH1 0x40 MLOAD PUSH3 0x461BCD PUSH1 0xE5 SHL DUP2 MSTORE PUSH1 0x4 ADD PUSH2 0xB8C SWAP1 PUSH2 0x3E5A JUMP JUMPDEST PUSH1 0x40 MLOAD DUP1 SWAP2 SUB SWAP1 REVERT JUMPDEST DUP1 MLOAD PUSH2 0xBA8 SWAP1 PUSH1 0x6 SWAP1 PUSH1 0x20 DUP5 ADD SWAP1 PUSH2 0x3669 JUMP JUMPDEST POP POP JUMP JUMPDEST PUSH1 0x60 PUSH1 0x3 DUP1 SLOAD PUSH2 0xBBB SWAP1 PUSH2 0x4007 JUMP JUMPDEST DUP1 PUSH1 0x1F ADD PUSH1 0x20 DUP1 SWAP2 DIV MUL PUSH1 0x20 ADD PUSH1 0x40 MLOAD SWAP1 DUP2 ADD PUSH1 0x40 MSTORE DUP1 SWAP3 SWAP2 SWAP1 DUP2 DUP2 MSTORE PUSH1 0x20 ADD DUP3 DUP1 SLOAD PUSH2 0xBE7 SWAP1 PUSH2 0x4007 JUMP JUMPDEST DUP1 ISZERO PUSH2 0xC34 JUMPI DUP1 PUSH1 0x1F LT PUSH2 0xC09 JUMPI PUSH2 0x100 DUP1 DUP4 SLOAD DIV MUL DUP4 MSTORE SWAP2 PUSH1 0x20 ADD SWAP2 PUSH2 0xC34 JUMP JUMPDEST DUP3 ADD SWAP2 SWAP1 PUSH1 0x0 MSTORE PUSH1 0x20 PUSH1 0x0 KECCAK256 SWAP1 JUMPDEST DUP2 SLOAD DUP2 MSTORE SWAP1 PUSH1 0x1 ADD SWAP1 PUSH1 0x20 ADD DUP1 DUP4 GT PUSH2 0xC17 JUMPI DUP3 SWAP1 SUB PUSH1 0x1F AND DUP3 ADD SWAP2 JUMPDEST POP POP POP POP POP SWAP1 POP SWAP1 JUMP JUMPDEST PUSH1 0x0 CALLER PUSH2 0xC4C DUP2 DUP6 DUP6 PUSH2 0x1E6C JUMP JUMPDEST POP PUSH1 0x1 SWAP4 SWAP3 POP POP POP JUMP JUMPDEST PUSH1 0x0 PUSH2 0x2710 PUSH2 0xC64 PUSH1 0xF SLOAD SWAP1 JUMP JUMPDEST PUSH1 0x2 SLOAD PUSH2 0xC71 SWAP2 SWAP1 PUSH2 0x3FA5 JUMP JUMPDEST PUSH2 0xC7B SWAP2 SWAP1 PUSH2 0x3F83 JUMP JUMPDEST SWAP1 POP SWAP1 JUMP JUMPDEST PUSH1 0x8 SLOAD PUSH1 0x1 PUSH1 0x1 PUSH1 0xA0 SHL SUB AND CALLER EQ PUSH2 0xCAA JUMPI PUSH1 0x40 MLOAD PUSH3 0x461BCD PUSH1 0xE5 SHL DUP2 MSTORE PUSH1 0x4 ADD PUSH2 0xB8C SWAP1 PUSH2 0x3E5A JUMP JUMPDEST PUSH1 0x8 DUP1 SLOAD PUSH1 0x1 PUSH1 0x1 PUSH1 0xA0 SHL SUB NOT AND PUSH1 0x1 PUSH1 0x1 PUSH1 0xA0 SHL SUB SWAP3 SWAP1 SWAP3 AND SWAP2 SWAP1 SWAP2 OR SWAP1 SSTORE JUMP JUMPDEST PUSH1 0x0 CALLER PUSH2 0xCDA DUP6 DUP3 DUP6 PUSH2 0x1F90 JUMP JUMPDEST PUSH2 0xCE5 DUP6 DUP6 DUP6 PUSH2 0x200A JUMP JUMPDEST PUSH1 0x1 SWAP2 POP POP JUMPDEST SWAP4 SWAP3 POP POP POP JUMP JUMPDEST PUSH1 0x1A SLOAD PUSH1 0x1 PUSH1 0x1 PUSH1 0xA0 SHL SUB AND CALLER EQ PUSH2 0xD09 JUMPI PUSH1 0x0 DUP1 REVERT JUMPDEST PUSH1 0x18 SLOAD PUSH1 0xFF AND ISZERO PUSH2 0xD19 JUMPI PUSH1 0x0 DUP1 REVERT JUMPDEST PUSH2 0xD2D PUSH2 0xD25 NUMBER PUSH2 0x1DFC JUMP JUMPDEST PUSH1 0x17 SWAP1 PUSH2 0x1DDE JUMP JUMPDEST PUSH2 0xD37 PUSH1 0x0 PUSH2 0x21DE JUMP JUMPDEST POP JUMP JUMPDEST PUSH1 0x14 SLOAD PUSH1 0x0 SWAP1 PUSH1 0x1 PUSH1 0x1 PUSH1 0xA0 SHL SUB AND ISZERO PUSH2 0xD53 JUMPI PUSH1 0x0 DUP1 REVERT JUMPDEST PUSH2 0xC7B CALLVALUE PUSH2 0x22D4 JUMP JUMPDEST PUSH1 0x0 CALLER PUSH2 0xC4C DUP2 DUP6 DUP6 PUSH2 0xD6F DUP4 DUP4 PUSH2 0x1B1E JUMP JUMPDEST PUSH2 0xD79 SWAP2 SWAP1 PUSH2 0x3F40 JUMP JUMPDEST PUSH2 0x1E6C JUMP JUMPDEST PUSH1 0x40 DUP1 MLOAD PUSH32 0x150214D74D59B7D1E90C73FC22EF3D991DD0A76B046543D4D80AB92D2A50328F PUSH1 0x20 DUP3 ADD MSTORE SWAP1 DUP2 ADD DUP7 SWAP1 MSTORE PUSH1 0xFF DUP6 AND PUSH1 0x60 DUP3 ADD MSTORE PUSH1 0x0 SWAP1 DUP2 SWAP1 PUSH2 0xDEB SWAP1 PUSH2 0xDE3 SWAP1 PUSH1 0x80 ADD JUMPDEST PUSH1 0x40 MLOAD PUSH1 0x20 DUP2 DUP4 SUB SUB DUP2 MSTORE SWAP1 PUSH1 0x40 MSTORE DUP1 MLOAD SWAP1 PUSH1 0x20 ADD KECCAK256 PUSH2 0x23D4 JUMP JUMPDEST DUP7 DUP7 DUP7 PUSH2 0x2422 JUMP JUMPDEST SWAP1 POP PUSH2 0xDF8 DUP8 DUP3 DUP9 PUSH2 0x244A JUMP JUMPDEST SWAP8 SWAP7 POP POP POP POP POP POP POP JUMP JUMPDEST PUSH1 0x18 SLOAD PUSH1 0x0 SWAP1 PUSH1 0xFF AND ISZERO PUSH2 0xE17 JUMPI POP PUSH1 0x1 SWAP1 JUMP JUMPDEST PUSH1 0x40 DUP1 MLOAD PUSH1 0x20 DUP2 ADD SWAP1 SWAP2 MSTORE PUSH1 0x17 SLOAD PUSH1 0x1 PUSH1 0x1 PUSH1 0x40 SHL SUB AND SWAP1 DUP2 SWAP1 MSTORE NUMBER GT PUSH2 0xE3E JUMPI POP PUSH1 0x0 SWAP1 JUMP JUMPDEST PUSH1 0x15 SLOAD PUSH1 0x14 SLOAD PUSH1 0x40 MLOAD PUSH4 0x70A08231 PUSH1 0xE0 SHL DUP2 MSTORE ADDRESS PUSH1 0x4 DUP3 ADD MSTORE PUSH1 0x1 PUSH1 0x1 PUSH1 0xA0 SHL SUB SWAP1 SWAP2 AND SWAP1 PUSH4 0x70A08231 SWAP1 PUSH1 0x24 ADD PUSH1 0x20 PUSH1 0x40 MLOAD DUP1 DUP4 SUB DUP2 DUP7 DUP1 EXTCODESIZE ISZERO DUP1 ISZERO PUSH2 0xE84 JUMPI PUSH1 0x0 DUP1 REVERT JUMPDEST POP GAS STATICCALL ISZERO DUP1 ISZERO PUSH2 0xE98 JUMPI RETURNDATASIZE PUSH1 0x0 DUP1 RETURNDATACOPY RETURNDATASIZE PUSH1 0x0 REVERT JUMPDEST POP POP POP POP PUSH1 0x40 MLOAD RETURNDATASIZE PUSH1 0x1F NOT PUSH1 0x1F DUP3 ADD AND DUP3 ADD DUP1 PUSH1 0x40 MSTORE POP DUP2 ADD SWAP1 PUSH2 0xEBC SWAP2 SWAP1 PUSH2 0x3BED JUMP JUMPDEST LT PUSH2 0xEC7 JUMPI POP PUSH1 0x1 SWAP1 JUMP JUMPDEST POP PUSH1 0x2 SWAP1 JUMP JUMPDEST PUSH1 0x8 SLOAD PUSH1 0x1 PUSH1 0x1 PUSH1 0xA0 SHL SUB AND CALLER EQ PUSH2 0xEF7 JUMPI PUSH1 0x40 MLOAD PUSH3 0x461BCD PUSH1 0xE5 SHL DUP2 MSTORE PUSH1 0x4 ADD PUSH2 0xB8C SWAP1 PUSH2 0x3E5A JUMP JUMPDEST PUSH2 0xBA8 DUP3 DUP3 PUSH2 0x253C JUMP JUMPDEST PUSH1 0x5 DUP1 SLOAD PUSH2 0xF0E SWAP1 PUSH2 0x4007 JUMP JUMPDEST DUP1 PUSH1 0x1F ADD PUSH1 0x20 DUP1 SWAP2 DIV MUL PUSH1 0x20 ADD PUSH1 0x40 MLOAD SWAP1 DUP2 ADD PUSH1 0x40 MSTORE DUP1 SWAP3 SWAP2 SWAP1 DUP2 DUP2 MSTORE PUSH1 0x20 ADD DUP3 DUP1 SLOAD PUSH2 0xF3A SWAP1 PUSH2 0x4007 JUMP JUMPDEST DUP1 ISZERO PUSH2 0xF87 JUMPI DUP1 PUSH1 0x1F LT PUSH2 0xF5C JUMPI PUSH2 0x100 DUP1 DUP4 SLOAD DIV MUL DUP4 MSTORE SWAP2 PUSH1 0x20 ADD SWAP2 PUSH2 0xF87 JUMP JUMPDEST DUP3 ADD SWAP2 SWAP1 PUSH1 0x0 MSTORE PUSH1 0x20 PUSH1 0x0 KECCAK256 SWAP1 JUMPDEST DUP2 SLOAD DUP2 MSTORE SWAP1 PUSH1 0x1 ADD SWAP1 PUSH1 0x20 ADD DUP1 DUP4 GT PUSH2 0xF6A JUMPI DUP3 SWAP1 SUB PUSH1 0x1F AND DUP3 ADD SWAP2 JUMPDEST POP POP POP POP POP DUP2 JUMP JUMPDEST PUSH1 0x0 CALLER PUSH2 0xF9D DUP5 DUP3 DUP6 PUSH2 0x244A JUMP JUMPDEST SWAP5 SWAP4 POP POP POP POP JUMP JUMPDEST PUSH1 0x1 PUSH1 0x1 PUSH1 0xA0 SHL SUB DUP2 DUP2 AND PUSH1 0x0 SWAP1 DUP2 MSTORE PUSH1 0x11 PUSH1 0x20 MSTORE PUSH1 0x40 DUP2 KECCAK256 SLOAD SWAP1 SWAP2 AND PUSH2 0xFCA JUMPI POP SWAP1 JUMP JUMPDEST POP PUSH1 0x1 PUSH1 0x1 PUSH1 0xA0 SHL SUB SWAP1 DUP2 AND PUSH1 0x0 SWAP1 DUP2 MSTORE PUSH1 0x11 PUSH1 0x20 MSTORE PUSH1 0x40 SWAP1 KECCAK256 SLOAD AND SWAP1 JUMP JUMPDEST SWAP2 SWAP1 POP JUMP JUMPDEST PUSH1 0x2 PUSH2 0xFF8 PUSH2 0xE03 JUMP JUMPDEST PUSH1 0x2 DUP2 GT ISZERO PUSH2 0x1009 JUMPI PUSH2 0x1009 PUSH2 0x4073 JUMP JUMPDEST EQ PUSH2 0x1013 JUMPI PUSH1 0x0 DUP1 REVERT JUMPDEST PUSH1 0x14 SLOAD PUSH1 0x1 PUSH1 0x1 PUSH1 0xA0 SHL SUB AND PUSH2 0x105A JUMPI CALLER PUSH1 0x0 DUP2 DUP2 MSTORE PUSH1 0x19 PUSH1 0x20 MSTORE PUSH1 0x40 DUP1 DUP3 KECCAK256 SLOAD SWAP1 MLOAD DUP2 ISZERO PUSH2 0x8FC MUL SWAP3 DUP2 DUP2 DUP2 DUP6 DUP9 DUP9 CALL SWAP4 POP POP POP POP ISZERO DUP1 ISZERO PUSH2 0xD37 JUMPI RETURNDATASIZE PUSH1 0x0 DUP1 RETURNDATACOPY RETURNDATASIZE PUSH1 0x0 REVERT JUMPDEST PUSH1 0x14 SLOAD CALLER PUSH1 0x0 DUP2 DUP2 MSTORE PUSH1 0x19 PUSH1 0x20 MSTORE PUSH1 0x40 SWAP1 DUP2 SWAP1 KECCAK256 SLOAD SWAP1 MLOAD PUSH4 0xA9059CBB PUSH1 0xE0 SHL DUP2 MSTORE PUSH1 0x4 DUP2 ADD SWAP3 SWAP1 SWAP3 MSTORE PUSH1 0x24 DUP3 ADD MSTORE PUSH1 0x1 PUSH1 0x1 PUSH1 0xA0 SHL SUB SWAP1 SWAP2 AND SWAP1 PUSH4 0xA9059CBB SWAP1 PUSH1 0x44 ADD PUSH1 0x20 PUSH1 0x40 MLOAD DUP1 DUP4 SUB DUP2 PUSH1 0x0 DUP8 DUP1 EXTCODESIZE ISZERO DUP1 ISZERO PUSH2 0x10B7 JUMPI PUSH1 0x0 DUP1 REVERT JUMPDEST POP GAS CALL ISZERO DUP1 ISZERO PUSH2 0x10CB JUMPI RETURNDATASIZE PUSH1 0x0 DUP1 RETURNDATACOPY RETURNDATASIZE PUSH1 0x0 REVERT JUMPDEST POP POP POP POP PUSH1 0x40 MLOAD RETURNDATASIZE PUSH1 0x1F NOT PUSH1 0x1F DUP3 ADD AND DUP3 ADD DUP1 PUSH1 0x40 MSTORE POP DUP2 ADD SWAP1 PUSH2 0xD37 SWAP2 SWAP1 PUSH2 0x3B7E JUMP JUMPDEST CALLER PUSH2 0xBA8 DUP2 DUP4 PUSH2 0x2623 JUMP JUMPDEST PUSH1 0x6 DUP1 SLOAD PUSH2 0xF0E SWAP1 PUSH2 0x4007 JUMP JUMPDEST PUSH1 0x0 PUSH2 0xC7B PUSH1 0x0 PUSH2 0x26B9 JUMP JUMPDEST PUSH1 0x0 PUSH2 0x111E PUSH1 0xC SLOAD SWAP1 JUMP JUMPDEST PUSH2 0x112D CALLER PUSH2 0xA67 PUSH1 0x1 NUMBER PUSH2 0x3FC4 JUMP JUMPDEST LT ISZERO PUSH2 0x116D JUMPI PUSH1 0x40 MLOAD PUSH3 0x461BCD PUSH1 0xE5 SHL DUP2 MSTORE PUSH1 0x20 PUSH1 0x4 DUP3 ADD MSTORE PUSH1 0xF PUSH1 0x24 DUP3 ADD MSTORE PUSH15 0x10995B1BDDC81D1A1C995CDA1BDB19 PUSH1 0x8A SHL PUSH1 0x44 DUP3 ADD MSTORE PUSH1 0x64 ADD PUSH2 0xB8C JUMP JUMPDEST PUSH1 0xA DUP1 SLOAD SWAP1 PUSH1 0x1 SWAP1 PUSH1 0x0 PUSH2 0x1181 DUP4 DUP6 PUSH2 0x3F40 JUMP JUMPDEST SWAP1 SWAP2 SSTORE POP POP DUP5 MLOAD DUP7 MLOAD EQ PUSH2 0x11A7 JUMPI PUSH1 0x40 MLOAD PUSH3 0x461BCD PUSH1 0xE5 SHL DUP2 MSTORE PUSH1 0x4 ADD PUSH2 0xB8C SWAP1 PUSH2 0x3E82 JUMP JUMPDEST DUP4 MLOAD DUP7 MLOAD EQ PUSH2 0x11C8 JUMPI PUSH1 0x40 MLOAD PUSH3 0x461BCD PUSH1 0xE5 SHL DUP2 MSTORE PUSH1 0x4 ADD PUSH2 0xB8C SWAP1 PUSH2 0x3E82 JUMP JUMPDEST PUSH1 0x0 DUP7 MLOAD GT PUSH2 0x11E9 JUMPI PUSH1 0x40 MLOAD PUSH3 0x461BCD PUSH1 0xE5 SHL DUP2 MSTORE PUSH1 0x4 ADD PUSH2 0xB8C SWAP1 PUSH2 0x3E82 JUMP JUMPDEST PUSH1 0x0 DUP2 DUP2 MSTORE PUSH1 0x9 PUSH1 0x20 SWAP1 DUP2 MSTORE PUSH1 0x40 SWAP2 DUP3 SWAP1 KECCAK256 DUP3 MLOAD SWAP2 DUP3 ADD SWAP1 SWAP3 MSTORE PUSH1 0x3 DUP3 ADD SLOAD PUSH1 0x1 PUSH1 0x1 PUSH1 0x40 SHL SUB AND SWAP1 DUP2 SWAP1 MSTORE ISZERO PUSH2 0x1232 JUMPI PUSH1 0x40 MLOAD PUSH3 0x461BCD PUSH1 0xE5 SHL DUP2 MSTORE PUSH1 0x4 ADD PUSH2 0xB8C SWAP1 PUSH2 0x3E82 JUMP JUMPDEST PUSH1 0x0 PUSH2 0x1242 DUP2 PUSH2 0x1DFC JUMP JUMPDEST PUSH2 0x1DFC JUMP JUMPDEST PUSH2 0x124B NUMBER PUSH2 0x1DFC JUMP JUMPDEST PUSH2 0x1255 SWAP2 SWAP1 PUSH2 0x3F58 JUMP JUMPDEST SWAP1 POP PUSH1 0x0 PUSH2 0x1265 PUSH2 0x123D PUSH1 0xE SLOAD SWAP1 JUMP JUMPDEST PUSH2 0x126F SWAP1 DUP4 PUSH2 0x3F58 JUMP JUMPDEST DUP7 MLOAD SWAP1 SWAP2 POP PUSH2 0x1284 SWAP1 DUP5 SWAP1 PUSH1 0x20 DUP10 ADD SWAP1 PUSH2 0x3669 JUMP JUMPDEST POP PUSH2 0x128F DUP10 MLOAD PUSH2 0x1DFC JUMP JUMPDEST PUSH1 0x2 DUP5 ADD DUP1 SLOAD PUSH8 0xFFFFFFFFFFFFFFFF NOT AND PUSH1 0x1 PUSH1 0x1 PUSH1 0x40 SHL SUB SWAP3 SWAP1 SWAP3 AND SWAP2 SWAP1 SWAP2 OR SWAP1 SSTORE PUSH1 0x0 JUMPDEST DUP10 MLOAD DUP2 LT ISZERO PUSH2 0x13A2 JUMPI DUP10 DUP2 DUP2 MLOAD DUP2 LT PUSH2 0x12D0 JUMPI PUSH2 0x12D0 PUSH2 0x4089 JUMP JUMPDEST PUSH1 0x20 MUL PUSH1 0x20 ADD ADD MLOAD DUP5 PUSH1 0x1 ADD PUSH1 0x0 DUP4 DUP2 MSTORE PUSH1 0x20 ADD SWAP1 DUP2 MSTORE PUSH1 0x20 ADD PUSH1 0x0 KECCAK256 PUSH1 0x0 ADD PUSH1 0x0 PUSH2 0x100 EXP DUP2 SLOAD DUP2 PUSH1 0x1 PUSH1 0x1 PUSH1 0xA0 SHL SUB MUL NOT AND SWAP1 DUP4 PUSH1 0x1 PUSH1 0x1 PUSH1 0xA0 SHL SUB AND MUL OR SWAP1 SSTORE POP DUP9 DUP2 DUP2 MLOAD DUP2 LT PUSH2 0x1326 JUMPI PUSH2 0x1326 PUSH2 0x4089 JUMP JUMPDEST PUSH1 0x20 MUL PUSH1 0x20 ADD ADD MLOAD DUP5 PUSH1 0x1 ADD PUSH1 0x0 DUP4 DUP2 MSTORE PUSH1 0x20 ADD SWAP1 DUP2 MSTORE PUSH1 0x20 ADD PUSH1 0x0 KECCAK256 PUSH1 0x1 ADD DUP2 SWAP1 SSTORE POP DUP8 DUP2 DUP2 MLOAD DUP2 LT PUSH2 0x135C JUMPI PUSH2 0x135C PUSH2 0x4089 JUMP JUMPDEST PUSH1 0x20 MUL PUSH1 0x20 ADD ADD MLOAD DUP5 PUSH1 0x1 ADD PUSH1 0x0 DUP4 DUP2 MSTORE PUSH1 0x20 ADD SWAP1 DUP2 MSTORE PUSH1 0x20 ADD PUSH1 0x0 KECCAK256 PUSH1 0x2 ADD SWAP1 DUP1 MLOAD SWAP1 PUSH1 0x20 ADD SWAP1 PUSH2 0x138F SWAP3 SWAP2 SWAP1 PUSH2 0x3669 JUMP JUMPDEST POP DUP1 PUSH2 0x139A DUP2 PUSH2 0x4042 JUMP JUMPDEST SWAP2 POP POP PUSH2 0x12B5 JUMP JUMPDEST POP PUSH2 0x13B0 PUSH1 0x3 DUP5 ADD DUP4 PUSH2 0x1DDE JUMP JUMPDEST PUSH2 0x13BD PUSH1 0x4 DUP5 ADD DUP3 PUSH2 0x1DDE JUMP JUMPDEST PUSH32 0xA00FCF4F5E03CC2F4818B8F380A8F2A06479E49BF0765E5FEC09AEBDAF922BBC DUP5 CALLER DUP5 DUP5 DUP11 PUSH1 0x40 MLOAD PUSH2 0x13F4 SWAP6 SWAP5 SWAP4 SWAP3 SWAP2 SWAP1 PUSH2 0x3EAC JUMP JUMPDEST PUSH1 0x40 MLOAD DUP1 SWAP2 SUB SWAP1 LOG1 POP SWAP2 SWAP8 SWAP7 POP POP POP POP POP POP POP JUMP JUMPDEST PUSH1 0x0 NUMBER DUP3 GT ISZERO PUSH2 0x144D JUMPI PUSH1 0x40 MLOAD PUSH3 0x461BCD PUSH1 0xE5 SHL DUP2 MSTORE PUSH1 0x20 PUSH1 0x4 DUP3 ADD MSTORE PUSH1 0xF PUSH1 0x24 DUP3 ADD MSTORE PUSH15 0x109B1BD8DAC81B9BDD081B5A5B9959 PUSH1 0x8A SHL PUSH1 0x44 DUP3 ADD MSTORE PUSH1 0x64 ADD PUSH2 0xB8C JUMP JUMPDEST NUMBER DUP3 EQ ISZERO PUSH2 0x145F JUMPI PUSH1 0x2 SLOAD JUMPDEST SWAP3 SWAP2 POP POP JUMP JUMPDEST PUSH2 0x1459 PUSH1 0x13 DUP4 PUSH2 0x276A JUMP JUMPDEST PUSH1 0x8 SLOAD PUSH1 0x1 PUSH1 0x1 PUSH1 0xA0 SHL SUB AND CALLER EQ PUSH2 0x1494 JUMPI PUSH1 0x40 MLOAD PUSH3 0x461BCD PUSH1 0xE5 SHL DUP2 MSTORE PUSH1 0x4 ADD PUSH2 0xB8C SWAP1 PUSH2 0x3E5A JUMP JUMPDEST DUP1 MLOAD PUSH2 0xBA8 SWAP1 PUSH1 0x7 SWAP1 PUSH1 0x20 DUP5 ADD SWAP1 PUSH2 0x3669 JUMP JUMPDEST PUSH1 0x60 PUSH1 0x4 DUP1 SLOAD PUSH2 0xBBB SWAP1 PUSH2 0x4007 JUMP JUMPDEST PUSH1 0x1 PUSH1 0x1 PUSH1 0xA0 SHL SUB DUP2 AND PUSH1 0x0 SWAP1 DUP2 MSTORE PUSH1 0x12 PUSH1 0x20 MSTORE PUSH1 0x40 DUP2 KECCAK256 PUSH2 0x1459 SWAP1 PUSH2 0x2879 JUMP JUMPDEST PUSH1 0x0 CALLER DUP2 PUSH2 0x14E5 DUP3 DUP7 PUSH2 0x1B1E JUMP JUMPDEST SWAP1 POP DUP4 DUP2 LT ISZERO PUSH2 0x1545 JUMPI PUSH1 0x40 MLOAD PUSH3 0x461BCD PUSH1 0xE5 SHL DUP2 MSTORE PUSH1 0x20 PUSH1 0x4 DUP3 ADD MSTORE PUSH1 0x25 PUSH1 0x24 DUP3 ADD MSTORE PUSH32 0x45524332303A2064656372656173656420616C6C6F77616E63652062656C6F77 PUSH1 0x44 DUP3 ADD MSTORE PUSH5 0x207A65726F PUSH1 0xD8 SHL PUSH1 0x64 DUP3 ADD MSTORE PUSH1 0x84 ADD PUSH2 0xB8C JUMP JUMPDEST PUSH2 0x1552 DUP3 DUP7 DUP7 DUP5 SUB PUSH2 0x1E6C JUMP JUMPDEST POP PUSH1 0x1 SWAP5 SWAP4 POP POP POP POP JUMP JUMPDEST PUSH1 0x1A SLOAD PUSH1 0x1 PUSH1 0x1 PUSH1 0xA0 SHL SUB AND CALLER EQ PUSH2 0x1574 JUMPI PUSH1 0x0 DUP1 REVERT JUMPDEST PUSH1 0x18 SLOAD PUSH1 0xFF AND ISZERO PUSH2 0x1584 JUMPI PUSH1 0x0 DUP1 REVERT JUMPDEST PUSH2 0x158C PUSH2 0x1107 JUMP JUMPDEST PUSH2 0x1595 JUMPI PUSH1 0x0 DUP1 REVERT JUMPDEST PUSH1 0x18 DUP1 SLOAD PUSH1 0xFF NOT AND PUSH1 0x1 OR SWAP1 SSTORE PUSH2 0xD37 PUSH1 0x0 PUSH2 0x1CCF JUMP JUMPDEST PUSH1 0x0 CALLER PUSH2 0xC4C DUP2 DUP6 DUP6 PUSH2 0x200A JUMP JUMPDEST PUSH1 0x0 DUP2 DUP2 MSTORE PUSH1 0x9 PUSH1 0x20 MSTORE PUSH1 0x40 DUP2 KECCAK256 PUSH1 0x2 DUP2 ADD SLOAD PUSH1 0x60 SWAP3 DUP4 SWAP3 DUP4 SWAP3 DUP4 SWAP3 SWAP2 DUP3 SWAP2 DUP3 SWAP2 SWAP1 PUSH1 0x1 PUSH1 0x1 PUSH1 0x40 SHL SUB SWAP1 DUP2 AND SWAP1 DUP2 GT ISZERO PUSH2 0x15F7 JUMPI PUSH2 0x15F7 PUSH2 0x409F JUMP JUMPDEST PUSH1 0x40 MLOAD SWAP1 DUP1 DUP3 MSTORE DUP1 PUSH1 0x20 MUL PUSH1 0x20 ADD DUP3 ADD PUSH1 0x40 MSTORE DUP1 ISZERO PUSH2 0x1620 JUMPI DUP2 PUSH1 0x20 ADD PUSH1 0x20 DUP3 MUL DUP1 CALLDATASIZE DUP4 CALLDATACOPY ADD SWAP1 POP JUMPDEST POP PUSH1 0x2 DUP3 ADD SLOAD SWAP1 SWAP9 POP PUSH1 0x1 PUSH1 0x1 PUSH1 0x40 SHL SUB SWAP1 DUP2 AND SWAP1 DUP2 GT ISZERO PUSH2 0x1644 JUMPI PUSH2 0x1644 PUSH2 0x409F JUMP JUMPDEST PUSH1 0x40 MLOAD SWAP1 DUP1 DUP3 MSTORE DUP1 PUSH1 0x20 MUL PUSH1 0x20 ADD DUP3 ADD PUSH1 0x40 MSTORE DUP1 ISZERO PUSH2 0x166D JUMPI DUP2 PUSH1 0x20 ADD PUSH1 0x20 DUP3 MUL DUP1 CALLDATASIZE DUP4 CALLDATACOPY ADD SWAP1 POP JUMPDEST POP PUSH1 0x2 DUP3 ADD SLOAD SWAP1 SWAP8 POP PUSH1 0x1 PUSH1 0x1 PUSH1 0x40 SHL SUB SWAP1 DUP2 AND SWAP1 DUP2 GT ISZERO PUSH2 0x1691 JUMPI PUSH2 0x1691 PUSH2 0x409F JUMP JUMPDEST PUSH1 0x40 MLOAD SWAP1 DUP1 DUP3 MSTORE DUP1 PUSH1 0x20 MUL PUSH1 0x20 ADD DUP3 ADD PUSH1 0x40 MSTORE DUP1 ISZERO PUSH2 0x16C4 JUMPI DUP2 PUSH1 0x20 ADD JUMPDEST PUSH1 0x60 DUP2 MSTORE PUSH1 0x20 ADD SWAP1 PUSH1 0x1 SWAP1 SUB SWAP1 DUP2 PUSH2 0x16AF JUMPI SWAP1 POP JUMPDEST POP SWAP6 POP PUSH1 0x0 JUMPDEST PUSH1 0x2 DUP3 ADD SLOAD PUSH1 0x1 PUSH1 0x1 PUSH1 0x40 SHL SUB AND DUP2 LT ISZERO PUSH2 0x182B JUMPI PUSH1 0x0 DUP2 DUP2 MSTORE PUSH1 0x1 DUP4 ADD PUSH1 0x20 MSTORE PUSH1 0x40 SWAP1 KECCAK256 SLOAD DUP10 MLOAD PUSH1 0x1 PUSH1 0x1 PUSH1 0xA0 SHL SUB SWAP1 SWAP2 AND SWAP1 DUP11 SWAP1 DUP4 SWAP1 DUP2 LT PUSH2 0x1710 JUMPI PUSH2 0x1710 PUSH2 0x4089 JUMP JUMPDEST PUSH1 0x1 PUSH1 0x1 PUSH1 0xA0 SHL SUB SWAP1 SWAP3 AND PUSH1 0x20 SWAP3 DUP4 MUL SWAP2 SWAP1 SWAP2 ADD DUP3 ADD MSTORE PUSH1 0x0 DUP3 DUP2 MSTORE PUSH1 0x1 DUP1 DUP6 ADD SWAP1 SWAP3 MSTORE PUSH1 0x40 SWAP1 KECCAK256 ADD SLOAD DUP9 MLOAD DUP10 SWAP1 DUP4 SWAP1 DUP2 LT PUSH2 0x174E JUMPI PUSH2 0x174E PUSH2 0x4089 JUMP JUMPDEST PUSH1 0x20 MUL PUSH1 0x20 ADD ADD DUP2 DUP2 MSTORE POP POP DUP2 PUSH1 0x1 ADD PUSH1 0x0 DUP3 DUP2 MSTORE PUSH1 0x20 ADD SWAP1 DUP2 MSTORE PUSH1 0x20 ADD PUSH1 0x0 KECCAK256 PUSH1 0x2 ADD DUP1 SLOAD PUSH2 0x177D SWAP1 PUSH2 0x4007 JUMP JUMPDEST DUP1 PUSH1 0x1F ADD PUSH1 0x20 DUP1 SWAP2 DIV MUL PUSH1 0x20 ADD PUSH1 0x40 MLOAD SWAP1 DUP2 ADD PUSH1 0x40 MSTORE DUP1 SWAP3 SWAP2 SWAP1 DUP2 DUP2 MSTORE PUSH1 0x20 ADD DUP3 DUP1 SLOAD PUSH2 0x17A9 SWAP1 PUSH2 0x4007 JUMP JUMPDEST DUP1 ISZERO PUSH2 0x17F6 JUMPI DUP1 PUSH1 0x1F LT PUSH2 0x17CB JUMPI PUSH2 0x100 DUP1 DUP4 SLOAD DIV MUL DUP4 MSTORE SWAP2 PUSH1 0x20 ADD SWAP2 PUSH2 0x17F6 JUMP JUMPDEST DUP3 ADD SWAP2 SWAP1 PUSH1 0x0 MSTORE PUSH1 0x20 PUSH1 0x0 KECCAK256 SWAP1 JUMPDEST DUP2 SLOAD DUP2 MSTORE SWAP1 PUSH1 0x1 ADD SWAP1 PUSH1 0x20 ADD DUP1 DUP4 GT PUSH2 0x17D9 JUMPI DUP3 SWAP1 SUB PUSH1 0x1F AND DUP3 ADD SWAP2 JUMPDEST POP POP POP POP POP DUP8 DUP3 DUP2 MLOAD DUP2 LT PUSH2 0x180D JUMPI PUSH2 0x180D PUSH2 0x4089 JUMP JUMPDEST PUSH1 0x20 MUL PUSH1 0x20 ADD ADD DUP2 SWAP1 MSTORE POP DUP1 DUP1 PUSH2 0x1823 SWAP1 PUSH2 0x4042 JUMP JUMPDEST SWAP2 POP POP PUSH2 0x16CA JUMP JUMPDEST POP DUP1 SLOAD DUP2 SWAP1 PUSH2 0x1839 SWAP1 PUSH2 0x4007 JUMP JUMPDEST DUP1 PUSH1 0x1F ADD PUSH1 0x20 DUP1 SWAP2 DIV MUL PUSH1 0x20 ADD PUSH1 0x40 MLOAD SWAP1 DUP2 ADD PUSH1 0x40 MSTORE DUP1 SWAP3 SWAP2 SWAP1 DUP2 DUP2 MSTORE PUSH1 0x20 ADD DUP3 DUP1 SLOAD PUSH2 0x1865 SWAP1 PUSH2 0x4007 JUMP JUMPDEST DUP1 ISZERO PUSH2 0x18B2 JUMPI DUP1 PUSH1 0x1F LT PUSH2 0x1887 JUMPI PUSH2 0x100 DUP1 DUP4 SLOAD DIV MUL DUP4 MSTORE SWAP2 PUSH1 0x20 ADD SWAP2 PUSH2 0x18B2 JUMP JUMPDEST DUP3 ADD SWAP2 SWAP1 PUSH1 0x0 MSTORE PUSH1 0x20 PUSH1 0x0 KECCAK256 SWAP1 JUMPDEST DUP2 SLOAD DUP2 MSTORE SWAP1 PUSH1 0x1 ADD SWAP1 PUSH1 0x20 ADD DUP1 DUP4 GT PUSH2 0x1895 JUMPI DUP3 SWAP1 SUB PUSH1 0x1F AND DUP3 ADD SWAP2 JUMPDEST POP POP POP POP POP SWAP5 POP PUSH2 0x18C2 DUP10 PUSH2 0x28D5 JUMP JUMPDEST PUSH1 0x7 DUP2 GT ISZERO PUSH2 0x18D3 JUMPI PUSH2 0x18D3 PUSH2 0x4073 JUMP JUMPDEST SWAP4 POP PUSH2 0x18DE DUP10 PUSH2 0x29CF JUMP JUMPDEST SWAP3 POP PUSH2 0x18E9 DUP10 PUSH2 0x2A09 JUMP JUMPDEST SWAP2 POP POP SWAP2 SWAP4 SWAP6 SWAP8 SWAP1 SWAP3 SWAP5 SWAP7 POP JUMP JUMPDEST PUSH1 0x7 DUP1 SLOAD PUSH2 0xF0E SWAP1 PUSH2 0x4007 JUMP JUMPDEST PUSH1 0x14 SLOAD PUSH1 0x0 SWAP1 PUSH1 0x1 PUSH1 0x1 PUSH1 0xA0 SHL SUB AND PUSH2 0x191C JUMPI PUSH1 0x0 DUP1 REVERT JUMPDEST PUSH1 0x14 SLOAD PUSH1 0x40 MLOAD PUSH4 0x23B872DD PUSH1 0xE0 SHL DUP2 MSTORE CALLER PUSH1 0x4 DUP3 ADD MSTORE ADDRESS PUSH1 0x24 DUP3 ADD MSTORE PUSH1 0x44 DUP2 ADD DUP5 SWAP1 MSTORE PUSH1 0x1 PUSH1 0x1 PUSH1 0xA0 SHL SUB SWAP1 SWAP2 AND SWAP1 PUSH4 0x23B872DD SWAP1 PUSH1 0x64 ADD PUSH1 0x20 PUSH1 0x40 MLOAD DUP1 DUP4 SUB DUP2 PUSH1 0x0 DUP8 DUP1 EXTCODESIZE ISZERO DUP1 ISZERO PUSH2 0x196E JUMPI PUSH1 0x0 DUP1 REVERT JUMPDEST POP GAS CALL ISZERO DUP1 ISZERO PUSH2 0x1982 JUMPI RETURNDATASIZE PUSH1 0x0 DUP1 RETURNDATACOPY RETURNDATASIZE PUSH1 0x0 REVERT JUMPDEST POP POP POP POP PUSH1 0x40 MLOAD RETURNDATASIZE PUSH1 0x1F NOT PUSH1 0x1F DUP3 ADD AND DUP3 ADD DUP1 PUSH1 0x40 MSTORE POP DUP2 ADD SWAP1 PUSH2 0x19A6 SWAP2 SWAP1 PUSH2 0x3B7E JUMP JUMPDEST POP PUSH2 0x1459 DUP3 PUSH2 0x22D4 JUMP JUMPDEST PUSH1 0x8 SLOAD PUSH1 0x1 PUSH1 0x1 PUSH1 0xA0 SHL SUB AND CALLER EQ PUSH2 0x19DA JUMPI PUSH1 0x40 MLOAD PUSH3 0x461BCD PUSH1 0xE5 SHL DUP2 MSTORE PUSH1 0x4 ADD PUSH2 0xB8C SWAP1 PUSH2 0x3E5A JUMP JUMPDEST PUSH2 0x1A1C DUP5 DUP4 DUP4 DUP1 DUP1 PUSH1 0x1F ADD PUSH1 0x20 DUP1 SWAP2 DIV MUL PUSH1 0x20 ADD PUSH1 0x40 MLOAD SWAP1 DUP2 ADD PUSH1 0x40 MSTORE DUP1 SWAP4 SWAP3 SWAP2 SWAP1 DUP2 DUP2 MSTORE PUSH1 0x20 ADD DUP4 DUP4 DUP1 DUP3 DUP5 CALLDATACOPY PUSH1 0x0 SWAP3 ADD SWAP2 SWAP1 SWAP2 MSTORE POP DUP9 SWAP3 POP PUSH2 0x2A38 SWAP2 POP POP JUMP JUMPDEST POP POP POP POP POP JUMP JUMPDEST DUP4 TIMESTAMP GT ISZERO PUSH2 0x1A5D JUMPI PUSH1 0x40 MLOAD PUSH3 0x461BCD PUSH1 0xE5 SHL DUP2 MSTORE PUSH1 0x20 PUSH1 0x4 DUP3 ADD MSTORE PUSH1 0x7 PUSH1 0x24 DUP3 ADD MSTORE PUSH7 0x115E1C1A5C9959 PUSH1 0xCA SHL PUSH1 0x44 DUP3 ADD MSTORE PUSH1 0x64 ADD PUSH2 0xB8C JUMP JUMPDEST PUSH1 0x40 DUP1 MLOAD PUSH32 0xE48329057BFD03D55E49B547132E39CFFD9C1820AD7B9D4C5307691425D15ADF PUSH1 0x20 DUP3 ADD MSTORE PUSH1 0x1 PUSH1 0x1 PUSH1 0xA0 SHL SUB DUP9 AND SWAP2 DUP2 ADD SWAP2 SWAP1 SWAP2 MSTORE PUSH1 0x60 DUP2 ADD DUP7 SWAP1 MSTORE PUSH1 0x80 DUP2 ADD DUP6 SWAP1 MSTORE PUSH1 0x0 SWAP1 PUSH2 0x1AC1 SWAP1 PUSH2 0x1AB9 SWAP1 PUSH1 0xA0 ADD PUSH2 0xDC8 JUMP JUMPDEST DUP6 DUP6 DUP6 PUSH2 0x2422 JUMP JUMPDEST SWAP1 POP PUSH2 0x1ACD DUP2 DUP9 PUSH2 0x2623 JUMP JUMPDEST POP POP POP POP POP POP POP JUMP JUMPDEST PUSH1 0x8 SLOAD PUSH1 0x1 PUSH1 0x1 PUSH1 0xA0 SHL SUB AND CALLER EQ PUSH2 0x1B00 JUMPI PUSH1 0x40 MLOAD PUSH3 0x461BCD PUSH1 0xE5 SHL DUP2 MSTORE PUSH1 0x4 ADD PUSH2 0xB8C SWAP1 PUSH2 0x3E5A JUMP JUMPDEST DUP1 MLOAD PUSH2 0xBA8 SWAP1 PUSH1 0x5 SWAP1 PUSH1 0x20 DUP5 ADD SWAP1 PUSH2 0x3669 JUMP JUMPDEST PUSH1 0x0 PUSH2 0x1459 DUP3 PUSH2 0x28D5 JUMP JUMPDEST PUSH1 0x1 PUSH1 0x1 PUSH1 0xA0 SHL SUB SWAP2 DUP3 AND PUSH1 0x0 SWAP1 DUP2 MSTORE PUSH1 0x1 PUSH1 0x20 SWAP1 DUP2 MSTORE PUSH1 0x40 DUP1 DUP4 KECCAK256 SWAP4 SWAP1 SWAP5 AND DUP3 MSTORE SWAP2 SWAP1 SWAP2 MSTORE KECCAK256 SLOAD SWAP1 JUMP JUMPDEST PUSH1 0x8 SLOAD PUSH1 0x1 PUSH1 0x1 PUSH1 0xA0 SHL SUB AND CALLER EQ PUSH2 0x1B73 JUMPI PUSH1 0x40 MLOAD PUSH3 0x461BCD PUSH1 0xE5 SHL DUP2 MSTORE PUSH1 0x4 ADD PUSH2 0xB8C SWAP1 PUSH2 0x3E5A JUMP JUMPDEST PUSH1 0xE SSTORE JUMP JUMPDEST PUSH1 0x0 PUSH2 0xCEB DUP4 DUP4 PUSH2 0x2A5E JUMP JUMPDEST PUSH1 0x8 SLOAD PUSH1 0x1 PUSH1 0x1 PUSH1 0xA0 SHL SUB AND CALLER EQ PUSH2 0x1BAE JUMPI PUSH1 0x40 MLOAD PUSH3 0x461BCD PUSH1 0xE5 SHL DUP2 MSTORE PUSH1 0x4 ADD PUSH2 0xB8C SWAP1 PUSH2 0x3E5A JUMP JUMPDEST PUSH1 0xC SSTORE JUMP JUMPDEST PUSH1 0x0 DUP1 DUP1 MSTORE PUSH1 0x9 PUSH1 0x20 SWAP1 DUP2 MSTORE PUSH1 0x40 DUP1 MLOAD SWAP2 DUP3 ADD SWAP1 MSTORE PUSH32 0xEC8156718A8372B1DB44BB411437D0870F3E3790D4A08526D024CE1B0B668F6E SLOAD PUSH1 0x1 PUSH1 0x1 PUSH1 0x40 SHL SUB AND SWAP1 DUP2 SWAP1 MSTORE PUSH2 0x1C00 DUP4 PUSH2 0x1DFC JUMP JUMPDEST PUSH1 0x1 PUSH1 0x1 PUSH1 0x40 SHL SUB AND EQ ISZERO PUSH2 0x1C1F JUMPI PUSH1 0x16 SLOAD PUSH1 0x15 SLOAD PUSH2 0x1459 SWAP2 SWAP1 PUSH2 0x3FA5 JUMP JUMPDEST PUSH2 0x2710 PUSH2 0x1C2B PUSH1 0xF SLOAD SWAP1 JUMP JUMPDEST PUSH2 0x1C34 DUP5 PUSH2 0x1409 JUMP JUMPDEST PUSH2 0x1C3E SWAP2 SWAP1 PUSH2 0x3FA5 JUMP JUMPDEST PUSH2 0x1459 SWAP2 SWAP1 PUSH2 0x3F83 JUMP JUMPDEST PUSH1 0x8 SLOAD PUSH1 0x1 PUSH1 0x1 PUSH1 0xA0 SHL SUB AND CALLER EQ PUSH2 0x1C72 JUMPI PUSH1 0x40 MLOAD PUSH3 0x461BCD PUSH1 0xE5 SHL DUP2 MSTORE PUSH1 0x4 ADD PUSH2 0xB8C SWAP1 PUSH2 0x3E5A JUMP JUMPDEST PUSH1 0xF SSTORE JUMP JUMPDEST PUSH1 0x0 CALLER PUSH2 0x1C83 DUP6 PUSH2 0xFA5 JUMP JUMPDEST PUSH1 0x1 PUSH1 0x1 PUSH1 0xA0 SHL SUB AND EQ PUSH2 0x1CC4 JUMPI PUSH1 0x40 MLOAD PUSH3 0x461BCD PUSH1 0xE5 SHL DUP2 MSTORE PUSH1 0x20 PUSH1 0x4 DUP3 ADD MSTORE PUSH1 0x8 PUSH1 0x24 DUP3 ADD MSTORE PUSH8 0x14995A9958DD1959 PUSH1 0xC2 SHL PUSH1 0x44 DUP3 ADD MSTORE PUSH1 0x64 ADD PUSH2 0xB8C JUMP JUMPDEST PUSH2 0xF9D DUP4 DUP6 DUP5 PUSH2 0x244A JUMP JUMPDEST PUSH1 0x0 DUP1 PUSH1 0x0 DUP1 PUSH2 0x1CDE DUP6 PUSH2 0x15BA JUMP JUMPDEST POP POP POP POP SWAP3 POP SWAP3 POP SWAP3 POP PUSH1 0x0 PUSH2 0x1CF3 DUP7 PUSH2 0x28D5 JUMP JUMPDEST SWAP1 POP PUSH1 0x4 DUP2 PUSH1 0x7 DUP2 GT ISZERO PUSH2 0x1D09 JUMPI PUSH2 0x1D09 PUSH2 0x4073 JUMP JUMPDEST EQ DUP1 PUSH2 0x1D26 JUMPI POP PUSH1 0x5 DUP2 PUSH1 0x7 DUP2 GT ISZERO PUSH2 0x1D24 JUMPI PUSH2 0x1D24 PUSH2 0x4073 JUMP JUMPDEST EQ JUMPDEST PUSH2 0x1D72 JUMPI PUSH1 0x40 MLOAD PUSH3 0x461BCD PUSH1 0xE5 SHL DUP2 MSTORE PUSH1 0x20 PUSH1 0x4 DUP3 ADD MSTORE PUSH1 0x17 PUSH1 0x24 DUP3 ADD MSTORE PUSH32 0x50726F706F73616C206E6F74207375636365737366756C000000000000000000 PUSH1 0x44 DUP3 ADD MSTORE PUSH1 0x64 ADD PUSH2 0xB8C JUMP JUMPDEST PUSH1 0x0 DUP7 DUP2 MSTORE PUSH1 0x9 PUSH1 0x20 MSTORE PUSH1 0x40 SWAP1 DUP2 SWAP1 KECCAK256 PUSH1 0x5 ADD DUP1 SLOAD PUSH1 0xFF NOT AND PUSH1 0x1 OR SWAP1 SSTORE MLOAD PUSH32 0x712AE1383F79AC853F8D882153778E0260EF8F03B504E2866E0593E04D2B291F SWAP1 PUSH2 0x1DC0 SWAP1 DUP9 DUP2 MSTORE PUSH1 0x20 ADD SWAP1 JUMP JUMPDEST PUSH1 0x40 MLOAD DUP1 SWAP2 SUB SWAP1 LOG1 PUSH2 0x1DD4 DUP7 DUP6 DUP6 DUP6 PUSH2 0x2A80 JUMP JUMPDEST POP SWAP4 SWAP5 SWAP4 POP POP POP POP JUMP JUMPDEST DUP2 SLOAD PUSH8 0xFFFFFFFFFFFFFFFF NOT AND PUSH1 0x1 PUSH1 0x1 PUSH1 0x40 SHL SUB SWAP2 SWAP1 SWAP2 AND OR SWAP1 SSTORE JUMP JUMPDEST PUSH1 0x0 PUSH1 0x1 PUSH1 0x1 PUSH1 0x40 SHL SUB DUP3 GT ISZERO PUSH2 0x1E64 JUMPI PUSH1 0x40 MLOAD PUSH3 0x461BCD PUSH1 0xE5 SHL DUP2 MSTORE PUSH1 0x20 PUSH1 0x4 DUP3 ADD MSTORE PUSH1 0x26 PUSH1 0x24 DUP3 ADD MSTORE PUSH32 0x53616665436173743A2076616C756520646F65736E27742066697420696E2036 PUSH1 0x44 DUP3 ADD MSTORE PUSH6 0x342062697473 PUSH1 0xD0 SHL PUSH1 0x64 DUP3 ADD MSTORE PUSH1 0x84 ADD PUSH2 0xB8C JUMP JUMPDEST POP SWAP1 JUMP JUMPDEST MLOAD SWAP1 JUMP JUMPDEST PUSH1 0x1 PUSH1 0x1 PUSH1 0xA0 SHL SUB DUP4 AND PUSH2 0x1ECE JUMPI PUSH1 0x40 MLOAD PUSH3 0x461BCD PUSH1 0xE5 SHL DUP2 MSTORE PUSH1 0x20 PUSH1 0x4 DUP3 ADD MSTORE PUSH1 0x24 DUP1 DUP3 ADD MSTORE PUSH32 0x45524332303A20617070726F76652066726F6D20746865207A65726F20616464 PUSH1 0x44 DUP3 ADD MSTORE PUSH4 0x72657373 PUSH1 0xE0 SHL PUSH1 0x64 DUP3 ADD MSTORE PUSH1 0x84 ADD PUSH2 0xB8C JUMP JUMPDEST PUSH1 0x1 PUSH1 0x1 PUSH1 0xA0 SHL SUB DUP3 AND PUSH2 0x1F2F JUMPI PUSH1 0x40 MLOAD PUSH3 0x461BCD PUSH1 0xE5 SHL DUP2 MSTORE PUSH1 0x20 PUSH1 0x4 DUP3 ADD MSTORE PUSH1 0x22 PUSH1 0x24 DUP3 ADD MSTORE PUSH32 0x45524332303A20617070726F766520746F20746865207A65726F206164647265 PUSH1 0x44 DUP3 ADD MSTORE PUSH2 0x7373 PUSH1 0xF0 SHL PUSH1 0x64 DUP3 ADD MSTORE PUSH1 0x84 ADD PUSH2 0xB8C JUMP JUMPDEST PUSH1 0x1 PUSH1 0x1 PUSH1 0xA0 SHL SUB DUP4 DUP2 AND PUSH1 0x0 DUP2 DUP2 MSTORE PUSH1 0x1 PUSH1 0x20 SWAP1 DUP2 MSTORE PUSH1 0x40 DUP1 DUP4 KECCAK256 SWAP5 DUP8 AND DUP1 DUP5 MSTORE SWAP5 DUP3 MSTORE SWAP2 DUP3 SWAP1 KECCAK256 DUP6 SWAP1 SSTORE SWAP1 MLOAD DUP5 DUP2 MSTORE PUSH32 0x8C5BE1E5EBEC7D5BD14F71427D1E84F3DD0314C0F7B2291E5B200AC8C7C3B925 SWAP2 ADD PUSH1 0x40 MLOAD DUP1 SWAP2 SUB SWAP1 LOG3 POP POP POP JUMP JUMPDEST PUSH1 0x0 PUSH2 0x1F9C DUP5 DUP5 PUSH2 0x1B1E JUMP JUMPDEST SWAP1 POP PUSH1 0x0 NOT DUP2 EQ PUSH2 0x2004 JUMPI DUP2 DUP2 LT ISZERO PUSH2 0x1FF7 JUMPI PUSH1 0x40 MLOAD PUSH3 0x461BCD PUSH1 0xE5 SHL DUP2 MSTORE PUSH1 0x20 PUSH1 0x4 DUP3 ADD MSTORE PUSH1 0x1D PUSH1 0x24 DUP3 ADD MSTORE PUSH32 0x45524332303A20696E73756666696369656E7420616C6C6F77616E6365000000 PUSH1 0x44 DUP3 ADD MSTORE PUSH1 0x64 ADD PUSH2 0xB8C JUMP JUMPDEST PUSH2 0x2004 DUP5 DUP5 DUP5 DUP5 SUB PUSH2 0x1E6C JUMP JUMPDEST POP POP POP POP JUMP JUMPDEST PUSH1 0x1 PUSH1 0x1 PUSH1 0xA0 SHL SUB DUP4 AND PUSH2 0x206E JUMPI PUSH1 0x40 MLOAD PUSH3 0x461BCD PUSH1 0xE5 SHL DUP2 MSTORE PUSH1 0x20 PUSH1 0x4 DUP3 ADD MSTORE PUSH1 0x25 PUSH1 0x24 DUP3 ADD MSTORE PUSH32 0x45524332303A207472616E736665722066726F6D20746865207A65726F206164 PUSH1 0x44 DUP3 ADD MSTORE PUSH5 0x6472657373 PUSH1 0xD8 SHL PUSH1 0x64 DUP3 ADD MSTORE PUSH1 0x84 ADD PUSH2 0xB8C JUMP JUMPDEST PUSH1 0x1 PUSH1 0x1 PUSH1 0xA0 SHL SUB DUP3 AND PUSH2 0x20D0 JUMPI PUSH1 0x40 MLOAD PUSH3 0x461BCD PUSH1 0xE5 SHL DUP2 MSTORE PUSH1 0x20 PUSH1 0x4 DUP3 ADD MSTORE PUSH1 0x23 PUSH1 0x24 DUP3 ADD MSTORE PUSH32 0x45524332303A207472616E7366657220746F20746865207A65726F2061646472 PUSH1 0x44 DUP3 ADD MSTORE PUSH3 0x657373 PUSH1 0xE8 SHL PUSH1 0x64 DUP3 ADD MSTORE PUSH1 0x84 ADD PUSH2 0xB8C JUMP JUMPDEST PUSH1 0x1 PUSH1 0x1 PUSH1 0xA0 SHL SUB DUP4 AND PUSH1 0x0 SWAP1 DUP2 MSTORE PUSH1 0x20 DUP2 SWAP1 MSTORE PUSH1 0x40 SWAP1 KECCAK256 SLOAD DUP2 DUP2 LT ISZERO PUSH2 0x2148 JUMPI PUSH1 0x40 MLOAD PUSH3 0x461BCD PUSH1 0xE5 SHL DUP2 MSTORE PUSH1 0x20 PUSH1 0x4 DUP3 ADD MSTORE PUSH1 0x26 PUSH1 0x24 DUP3 ADD MSTORE PUSH32 0x45524332303A207472616E7366657220616D6F756E7420657863656564732062 PUSH1 0x44 DUP3 ADD MSTORE PUSH6 0x616C616E6365 PUSH1 0xD0 SHL PUSH1 0x64 DUP3 ADD MSTORE PUSH1 0x84 ADD PUSH2 0xB8C JUMP JUMPDEST PUSH1 0x1 PUSH1 0x1 PUSH1 0xA0 SHL SUB DUP1 DUP6 AND PUSH1 0x0 SWAP1 DUP2 MSTORE PUSH1 0x20 DUP2 SWAP1 MSTORE PUSH1 0x40 DUP1 DUP3 KECCAK256 DUP6 DUP6 SUB SWAP1 SSTORE SWAP2 DUP6 AND DUP2 MSTORE SWAP1 DUP2 KECCAK256 DUP1 SLOAD DUP5 SWAP3 SWAP1 PUSH2 0x217F SWAP1 DUP5 SWAP1 PUSH2 0x3F40 JUMP JUMPDEST SWAP3 POP POP DUP2 SWAP1 SSTORE POP DUP3 PUSH1 0x1 PUSH1 0x1 PUSH1 0xA0 SHL SUB AND DUP5 PUSH1 0x1 PUSH1 0x1 PUSH1 0xA0 SHL SUB AND PUSH32 0xDDF252AD1BE2C89B69C2B068FC378DAA952BA7F163C4A11628F55A4DF523B3EF DUP5 PUSH1 0x40 MLOAD PUSH2 0x21CB SWAP2 DUP2 MSTORE PUSH1 0x20 ADD SWAP1 JUMP JUMPDEST PUSH1 0x40 MLOAD DUP1 SWAP2 SUB SWAP1 LOG3 PUSH2 0x2004 DUP5 DUP5 DUP5 PUSH2 0x2B85 JUMP JUMPDEST PUSH1 0x0 DUP1 PUSH2 0x21EA DUP4 PUSH2 0x28D5 JUMP JUMPDEST SWAP1 POP PUSH1 0x2 DUP2 PUSH1 0x7 DUP2 GT ISZERO PUSH2 0x2200 JUMPI PUSH2 0x2200 PUSH2 0x4073 JUMP JUMPDEST EQ ISZERO DUP1 ISZERO PUSH2 0x2220 JUMPI POP PUSH1 0x6 DUP2 PUSH1 0x7 DUP2 GT ISZERO PUSH2 0x221D JUMPI PUSH2 0x221D PUSH2 0x4073 JUMP JUMPDEST EQ ISZERO JUMPDEST DUP1 ISZERO PUSH2 0x223E JUMPI POP PUSH1 0x7 DUP2 PUSH1 0x7 DUP2 GT ISZERO PUSH2 0x223B JUMPI PUSH2 0x223B PUSH2 0x4073 JUMP JUMPDEST EQ ISZERO JUMPDEST PUSH2 0x2275 JUMPI PUSH1 0x40 MLOAD PUSH3 0x461BCD PUSH1 0xE5 SHL DUP2 MSTORE PUSH1 0x20 PUSH1 0x4 DUP3 ADD MSTORE PUSH1 0x8 PUSH1 0x24 DUP3 ADD MSTORE PUSH8 0x496E616374697665 PUSH1 0xC0 SHL PUSH1 0x44 DUP3 ADD MSTORE PUSH1 0x64 ADD PUSH2 0xB8C JUMP JUMPDEST PUSH1 0x0 DUP4 DUP2 MSTORE PUSH1 0x9 PUSH1 0x20 MSTORE PUSH1 0x40 SWAP1 DUP2 SWAP1 KECCAK256 PUSH1 0x5 ADD DUP1 SLOAD PUSH2 0xFF00 NOT AND PUSH2 0x100 OR SWAP1 SSTORE MLOAD PUSH32 0x789CF55BE980739DAD1D0699B93B58E806B51C9D96619BFA8FE0A28ABAA7B30C SWAP1 PUSH2 0x22C5 SWAP1 DUP6 DUP2 MSTORE PUSH1 0x20 ADD SWAP1 JUMP JUMPDEST PUSH1 0x40 MLOAD DUP1 SWAP2 SUB SWAP1 LOG1 POP SWAP1 SWAP2 SWAP1 POP JUMP JUMPDEST PUSH1 0x18 SLOAD PUSH1 0x0 SWAP1 PUSH1 0xFF AND ISZERO PUSH2 0x2313 JUMPI PUSH1 0x40 MLOAD PUSH3 0x461BCD PUSH1 0xE5 SHL DUP2 MSTORE PUSH1 0x20 PUSH1 0x4 DUP3 ADD MSTORE PUSH1 0x6 PUSH1 0x24 DUP3 ADD MSTORE PUSH6 0x18DB1BDCD959 PUSH1 0xD2 SHL PUSH1 0x44 DUP3 ADD MSTORE PUSH1 0x64 ADD PUSH2 0xB8C JUMP JUMPDEST PUSH1 0x16 SLOAD PUSH2 0x2320 SWAP1 DUP4 PUSH2 0x3FA5 JUMP JUMPDEST PUSH1 0x40 MLOAD PUSH4 0x40C10F19 PUSH1 0xE0 SHL DUP2 MSTORE CALLER PUSH1 0x4 DUP3 ADD MSTORE PUSH1 0x24 DUP2 ADD DUP3 SWAP1 MSTORE SWAP1 SWAP2 POP ADDRESS SWAP1 PUSH4 0x40C10F19 SWAP1 PUSH1 0x44 ADD PUSH1 0x0 PUSH1 0x40 MLOAD DUP1 DUP4 SUB DUP2 PUSH1 0x0 DUP8 DUP1 EXTCODESIZE ISZERO DUP1 ISZERO PUSH2 0x2362 JUMPI PUSH1 0x0 DUP1 REVERT JUMPDEST POP GAS CALL ISZERO DUP1 ISZERO PUSH2 0x2376 JUMPI RETURNDATASIZE PUSH1 0x0 DUP1 RETURNDATACOPY RETURNDATASIZE PUSH1 0x0 REVERT JUMPDEST POP PUSH2 0x238B SWAP3 POP PUSH1 0x0 SWAP2 POP CALLER SWAP1 POP PUSH1 0x1 DUP5 PUSH2 0x2B90 JUMP JUMPDEST PUSH1 0x40 DUP1 MLOAD PUSH1 0x0 DUP2 MSTORE PUSH1 0x1 PUSH1 0x20 DUP3 ADD MSTORE SWAP1 DUP2 ADD DUP3 SWAP1 MSTORE CALLER SWAP1 PUSH32 0x2C9DEB38F462962EADBD85A9D3A4120503EE091F1582EAAA10AA8C6797651D29 SWAP1 PUSH1 0x60 ADD PUSH1 0x40 MLOAD DUP1 SWAP2 SUB SWAP1 LOG2 SWAP2 SWAP1 POP JUMP JUMPDEST PUSH1 0x0 PUSH2 0x1459 PUSH2 0x23E1 PUSH2 0x2C46 JUMP JUMPDEST DUP4 PUSH1 0x40 MLOAD PUSH2 0x1901 PUSH1 0xF0 SHL PUSH1 0x20 DUP3 ADD MSTORE PUSH1 0x22 DUP2 ADD DUP4 SWAP1 MSTORE PUSH1 0x42 DUP2 ADD DUP3 SWAP1 MSTORE PUSH1 0x0 SWAP1 PUSH1 0x62 ADD PUSH1 0x40 MLOAD PUSH1 0x20 DUP2 DUP4 SUB SUB DUP2 MSTORE SWAP1 PUSH1 0x40 MSTORE DUP1 MLOAD SWAP1 PUSH1 0x20 ADD KECCAK256 SWAP1 POP SWAP3 SWAP2 POP POP JUMP JUMPDEST PUSH1 0x0 DUP1 PUSH1 0x0 PUSH2 0x2433 DUP8 DUP8 DUP8 DUP8 PUSH2 0x2D6D JUMP JUMPDEST SWAP2 POP SWAP2 POP PUSH2 0x2440 DUP2 PUSH2 0x2E5A JUMP JUMPDEST POP SWAP6 SWAP5 POP POP POP POP POP JUMP JUMPDEST PUSH1 0x0 DUP4 DUP2 MSTORE PUSH1 0x9 PUSH1 0x20 MSTORE PUSH1 0x40 DUP2 KECCAK256 PUSH1 0x1 PUSH2 0x2463 DUP7 PUSH2 0x28D5 JUMP JUMPDEST PUSH1 0x7 DUP2 GT ISZERO PUSH2 0x2474 JUMPI PUSH2 0x2474 PUSH2 0x4073 JUMP JUMPDEST EQ PUSH2 0x24AC JUMPI PUSH1 0x40 MLOAD PUSH3 0x461BCD PUSH1 0xE5 SHL DUP2 MSTORE PUSH1 0x20 PUSH1 0x4 DUP3 ADD MSTORE PUSH1 0x8 PUSH1 0x24 DUP3 ADD MSTORE PUSH8 0x496E616374697665 PUSH1 0xC0 SHL PUSH1 0x44 DUP3 ADD MSTORE PUSH1 0x64 ADD PUSH2 0xB8C JUMP JUMPDEST PUSH1 0x40 DUP1 MLOAD PUSH1 0x20 DUP2 ADD SWAP1 SWAP2 MSTORE PUSH1 0x3 DUP3 ADD SLOAD PUSH1 0x1 PUSH1 0x1 PUSH1 0x40 SHL SUB AND SWAP1 DUP2 SWAP1 MSTORE PUSH1 0x0 SWAP1 PUSH2 0x24D7 SWAP1 DUP7 SWAP1 PUSH2 0x1B78 JUMP JUMPDEST SWAP1 POP PUSH2 0x24E5 DUP7 DUP7 DUP7 DUP5 PUSH2 0x2B90 JUMP JUMPDEST PUSH1 0x40 DUP1 MLOAD DUP8 DUP2 MSTORE PUSH1 0xFF DUP7 AND PUSH1 0x20 DUP3 ADD MSTORE SWAP1 DUP2 ADD DUP3 SWAP1 MSTORE PUSH1 0x1 PUSH1 0x1 PUSH1 0xA0 SHL SUB DUP7 AND SWAP1 PUSH32 0x2C9DEB38F462962EADBD85A9D3A4120503EE091F1582EAAA10AA8C6797651D29 SWAP1 PUSH1 0x60 ADD PUSH1 0x40 MLOAD DUP1 SWAP2 SUB SWAP1 LOG2 SWAP6 SWAP5 POP POP POP POP POP JUMP JUMPDEST PUSH1 0x1 PUSH1 0x1 PUSH1 0xA0 SHL SUB DUP3 AND PUSH2 0x2592 JUMPI PUSH1 0x40 MLOAD PUSH3 0x461BCD PUSH1 0xE5 SHL DUP2 MSTORE PUSH1 0x20 PUSH1 0x4 DUP3 ADD MSTORE PUSH1 0x1F PUSH1 0x24 DUP3 ADD MSTORE PUSH32 0x45524332303A206D696E7420746F20746865207A65726F206164647265737300 PUSH1 0x44 DUP3 ADD MSTORE PUSH1 0x64 ADD PUSH2 0xB8C JUMP JUMPDEST DUP1 PUSH1 0x2 PUSH1 0x0 DUP3 DUP3 SLOAD PUSH2 0x25A4 SWAP2 SWAP1 PUSH2 0x3F40 JUMP JUMPDEST SWAP1 SWAP2 SSTORE POP POP PUSH1 0x1 PUSH1 0x1 PUSH1 0xA0 SHL SUB DUP3 AND PUSH1 0x0 SWAP1 DUP2 MSTORE PUSH1 0x20 DUP2 SWAP1 MSTORE PUSH1 0x40 DUP2 KECCAK256 DUP1 SLOAD DUP4 SWAP3 SWAP1 PUSH2 0x25D1 SWAP1 DUP5 SWAP1 PUSH2 0x3F40 JUMP JUMPDEST SWAP1 SWAP2 SSTORE POP POP PUSH1 0x40 MLOAD DUP2 DUP2 MSTORE PUSH1 0x1 PUSH1 0x1 PUSH1 0xA0 SHL SUB DUP4 AND SWAP1 PUSH1 0x0 SWAP1 PUSH32 0xDDF252AD1BE2C89B69C2B068FC378DAA952BA7F163C4A11628F55A4DF523B3EF SWAP1 PUSH1 0x20 ADD PUSH1 0x40 MLOAD DUP1 SWAP2 SUB SWAP1 LOG3 PUSH2 0xBA8 PUSH1 0x0 DUP4 DUP4 PUSH2 0x2B85 JUMP JUMPDEST PUSH1 0x0 PUSH2 0x262E DUP4 PUSH2 0xFA5 JUMP JUMPDEST PUSH1 0x1 PUSH1 0x1 PUSH1 0xA0 SHL SUB DUP5 DUP2 AND PUSH1 0x0 DUP2 DUP2 MSTORE PUSH1 0x11 PUSH1 0x20 MSTORE PUSH1 0x40 DUP1 DUP3 KECCAK256 DUP1 SLOAD PUSH1 0x1 PUSH1 0x1 PUSH1 0xA0 SHL SUB NOT AND DUP9 DUP7 AND SWAP1 DUP2 OR SWAP1 SWAP2 SSTORE SWAP1 MLOAD SWAP5 SWAP6 POP SWAP4 SWAP3 DUP6 AND SWAP3 PUSH32 0x3134E8A2E6D97E929A7E54011EA5485D7D196DD5F0BA4D4EF95803E8E3FC257F SWAP2 SWAP1 LOG4 PUSH2 0x26B4 DUP2 DUP4 PUSH2 0x26AF DUP7 PUSH1 0x1 PUSH1 0x1 PUSH1 0xA0 SHL SUB AND PUSH1 0x0 SWAP1 DUP2 MSTORE PUSH1 0x20 DUP2 SWAP1 MSTORE PUSH1 0x40 SWAP1 KECCAK256 SLOAD SWAP1 JUMP JUMPDEST PUSH2 0x3015 JUMP JUMPDEST POP POP POP JUMP JUMPDEST PUSH1 0x0 DUP2 PUSH2 0x2761 JUMPI PUSH1 0x14 SLOAD PUSH1 0x1 PUSH1 0x1 PUSH1 0xA0 SHL SUB AND PUSH2 0x26DB JUMPI POP POP PUSH1 0x15 SLOAD SELFBALANCE LT ISZERO SWAP1 JUMP JUMPDEST PUSH1 0x15 SLOAD PUSH1 0x14 SLOAD PUSH1 0x40 MLOAD PUSH4 0x70A08231 PUSH1 0xE0 SHL DUP2 MSTORE ADDRESS PUSH1 0x4 DUP3 ADD MSTORE PUSH1 0x1 PUSH1 0x1 PUSH1 0xA0 SHL SUB SWAP1 SWAP2 AND SWAP1 PUSH4 0x70A08231 SWAP1 PUSH1 0x24 ADD PUSH1 0x20 PUSH1 0x40 MLOAD DUP1 DUP4 SUB DUP2 DUP7 DUP1 EXTCODESIZE ISZERO DUP1 ISZERO PUSH2 0x2721 JUMPI PUSH1 0x0 DUP1 REVERT JUMPDEST POP GAS STATICCALL ISZERO DUP1 ISZERO PUSH2 0x2735 JUMPI RETURNDATASIZE PUSH1 0x0 DUP1 RETURNDATACOPY RETURNDATASIZE PUSH1 0x0 REVERT JUMPDEST POP POP POP POP PUSH1 0x40 MLOAD RETURNDATASIZE PUSH1 0x1F NOT PUSH1 0x1F DUP3 ADD AND DUP3 ADD DUP1 PUSH1 0x40 MSTORE POP DUP2 ADD SWAP1 PUSH2 0x2759 SWAP2 SWAP1 PUSH2 0x3BED JUMP JUMPDEST LT ISZERO SWAP3 SWAP2 POP POP JUMP JUMPDEST PUSH2 0x1459 DUP3 PUSH2 0x31A6 JUMP JUMPDEST PUSH1 0x0 NUMBER DUP3 LT PUSH2 0x27BB JUMPI PUSH1 0x40 MLOAD PUSH3 0x461BCD PUSH1 0xE5 SHL DUP2 MSTORE PUSH1 0x20 PUSH1 0x4 DUP3 ADD DUP2 SWAP1 MSTORE PUSH1 0x24 DUP3 ADD MSTORE PUSH32 0x436865636B706F696E74733A20626C6F636B206E6F7420796574206D696E6564 PUSH1 0x44 DUP3 ADD MSTORE PUSH1 0x64 ADD PUSH2 0xB8C JUMP JUMPDEST DUP3 SLOAD PUSH1 0x0 JUMPDEST DUP2 DUP2 LT ISZERO PUSH2 0x2820 JUMPI PUSH1 0x0 PUSH2 0x27D4 DUP3 DUP5 PUSH2 0x31E9 JUMP JUMPDEST SWAP1 POP DUP5 DUP7 PUSH1 0x0 ADD DUP3 DUP2 SLOAD DUP2 LT PUSH2 0x27EC JUMPI PUSH2 0x27EC PUSH2 0x4089 JUMP JUMPDEST PUSH1 0x0 SWAP2 DUP3 MSTORE PUSH1 0x20 SWAP1 SWAP2 KECCAK256 ADD SLOAD PUSH4 0xFFFFFFFF AND GT ISZERO PUSH2 0x280C JUMPI DUP1 SWAP3 POP PUSH2 0x281A JUMP JUMPDEST PUSH2 0x2817 DUP2 PUSH1 0x1 PUSH2 0x3F40 JUMP JUMPDEST SWAP2 POP JUMPDEST POP PUSH2 0x27C0 JUMP JUMPDEST DUP2 ISZERO PUSH2 0x2864 JUMPI DUP5 PUSH2 0x2832 PUSH1 0x1 DUP5 PUSH2 0x3FC4 JUMP JUMPDEST DUP2 SLOAD DUP2 LT PUSH2 0x2842 JUMPI PUSH2 0x2842 PUSH2 0x4089 JUMP JUMPDEST PUSH1 0x0 SWAP2 DUP3 MSTORE PUSH1 0x20 SWAP1 SWAP2 KECCAK256 ADD SLOAD PUSH5 0x100000000 SWAP1 DIV PUSH1 0x1 PUSH1 0x1 PUSH1 0xE0 SHL SUB AND PUSH2 0x2867 JUMP JUMPDEST PUSH1 0x0 JUMPDEST PUSH1 0x1 PUSH1 0x1 PUSH1 0xE0 SHL SUB AND SWAP6 SWAP5 POP POP POP POP POP JUMP JUMPDEST DUP1 SLOAD PUSH1 0x0 SWAP1 DUP1 ISZERO PUSH2 0x28C2 JUMPI DUP3 PUSH2 0x2890 PUSH1 0x1 DUP4 PUSH2 0x3FC4 JUMP JUMPDEST DUP2 SLOAD DUP2 LT PUSH2 0x28A0 JUMPI PUSH2 0x28A0 PUSH2 0x4089 JUMP JUMPDEST PUSH1 0x0 SWAP2 DUP3 MSTORE PUSH1 0x20 SWAP1 SWAP2 KECCAK256 ADD SLOAD PUSH5 0x100000000 SWAP1 DIV PUSH1 0x1 PUSH1 0x1 PUSH1 0xE0 SHL SUB AND PUSH2 0x28C5 JUMP JUMPDEST PUSH1 0x0 JUMPDEST PUSH1 0x1 PUSH1 0x1 PUSH1 0xE0 SHL SUB AND SWAP4 SWAP3 POP POP POP JUMP JUMPDEST PUSH1 0x0 DUP2 DUP2 MSTORE PUSH1 0x9 PUSH1 0x20 MSTORE PUSH1 0x40 DUP2 KECCAK256 PUSH1 0x5 DUP2 ADD SLOAD PUSH1 0xFF AND ISZERO PUSH2 0x28F9 JUMPI POP PUSH1 0x7 SWAP3 SWAP2 POP POP JUMP JUMPDEST PUSH1 0x5 DUP2 ADD SLOAD PUSH2 0x100 SWAP1 DIV PUSH1 0xFF AND ISZERO PUSH2 0x2914 JUMPI POP PUSH1 0x2 SWAP3 SWAP2 POP POP JUMP JUMPDEST PUSH1 0x0 PUSH2 0x291F DUP5 PUSH2 0x29CF JUMP JUMPDEST SWAP1 POP DUP1 PUSH2 0x295B JUMPI PUSH1 0x40 MLOAD PUSH3 0x461BCD PUSH1 0xE5 SHL DUP2 MSTORE PUSH1 0x20 PUSH1 0x4 DUP3 ADD MSTORE PUSH1 0xA PUSH1 0x24 DUP3 ADD MSTORE PUSH10 0x1D5B9ADB9BDDDB881A59 PUSH1 0xB2 SHL PUSH1 0x44 DUP3 ADD MSTORE PUSH1 0x64 ADD PUSH2 0xB8C JUMP JUMPDEST NUMBER DUP2 GT ISZERO PUSH2 0x296D JUMPI POP PUSH1 0x0 SWAP4 SWAP3 POP POP POP JUMP JUMPDEST PUSH1 0x0 PUSH2 0x2978 DUP6 PUSH2 0x2A09 JUMP JUMPDEST SWAP1 POP PUSH2 0x2983 DUP6 PUSH2 0x26B9 JUMP JUMPDEST DUP1 ISZERO PUSH2 0x29A2 JUMPI POP PUSH1 0x0 DUP6 DUP2 MSTORE PUSH1 0x10 PUSH1 0x20 MSTORE PUSH1 0x40 SWAP1 KECCAK256 DUP1 SLOAD PUSH1 0x1 SWAP1 SWAP2 ADD SLOAD GT JUMPDEST ISZERO PUSH2 0x29B2 JUMPI POP PUSH1 0x4 SWAP5 SWAP4 POP POP POP POP JUMP JUMPDEST NUMBER DUP2 LT PUSH2 0x29C4 JUMPI POP PUSH1 0x1 SWAP5 SWAP4 POP POP POP POP JUMP JUMPDEST POP PUSH1 0x3 SWAP5 SWAP4 POP POP POP POP JUMP JUMPDEST PUSH1 0x0 DUP2 DUP2 MSTORE PUSH1 0x9 PUSH1 0x20 SWAP1 DUP2 MSTORE PUSH1 0x40 DUP1 DUP4 KECCAK256 DUP2 MLOAD SWAP3 DUP4 ADD SWAP1 SWAP2 MSTORE PUSH1 0x3 ADD SLOAD PUSH1 0x1 PUSH1 0x1 PUSH1 0x40 SHL SUB AND SWAP1 DUP2 SWAP1 MSTORE JUMPDEST PUSH1 0x1 PUSH1 0x1 PUSH1 0x40 SHL SUB AND SWAP3 SWAP2 POP POP JUMP JUMPDEST PUSH1 0x0 DUP2 DUP2 MSTORE PUSH1 0x9 PUSH1 0x20 SWAP1 DUP2 MSTORE PUSH1 0x40 DUP1 DUP4 KECCAK256 DUP2 MLOAD SWAP3 DUP4 ADD SWAP1 SWAP2 MSTORE PUSH1 0x4 ADD SLOAD PUSH1 0x1 PUSH1 0x1 PUSH1 0x40 SHL SUB AND SWAP1 DUP2 SWAP1 MSTORE PUSH2 0x29FA JUMP JUMPDEST PUSH1 0x60 PUSH2 0xF9D DUP5 DUP5 DUP5 PUSH1 0x40 MLOAD DUP1 PUSH1 0x60 ADD PUSH1 0x40 MSTORE DUP1 PUSH1 0x29 DUP2 MSTORE PUSH1 0x20 ADD PUSH2 0x40B6 PUSH1 0x29 SWAP2 CODECOPY PUSH2 0x3204 JUMP JUMPDEST PUSH1 0x1 PUSH1 0x1 PUSH1 0xA0 SHL SUB DUP3 AND PUSH1 0x0 SWAP1 DUP2 MSTORE PUSH1 0x12 PUSH1 0x20 MSTORE PUSH1 0x40 DUP2 KECCAK256 PUSH2 0xCEB SWAP1 DUP4 PUSH2 0x276A JUMP JUMPDEST PUSH1 0x40 DUP1 MLOAD DUP1 DUP3 ADD SWAP1 SWAP2 MSTORE PUSH1 0xD DUP2 MSTORE PUSH13 0x10D85B1B081C995D995C9D1959 PUSH1 0x9A SHL PUSH1 0x20 DUP3 ADD MSTORE PUSH1 0x0 JUMPDEST DUP5 MLOAD DUP2 LT ISZERO PUSH2 0x2B7D JUMPI PUSH1 0x0 DUP1 DUP7 DUP4 DUP2 MLOAD DUP2 LT PUSH2 0x2AC5 JUMPI PUSH2 0x2AC5 PUSH2 0x4089 JUMP JUMPDEST PUSH1 0x20 MUL PUSH1 0x20 ADD ADD MLOAD PUSH1 0x1 PUSH1 0x1 PUSH1 0xA0 SHL SUB AND DUP7 DUP5 DUP2 MLOAD DUP2 LT PUSH2 0x2AE8 JUMPI PUSH2 0x2AE8 PUSH2 0x4089 JUMP JUMPDEST PUSH1 0x20 MUL PUSH1 0x20 ADD ADD MLOAD DUP7 DUP6 DUP2 MLOAD DUP2 LT PUSH2 0x2B02 JUMPI PUSH2 0x2B02 PUSH2 0x4089 JUMP JUMPDEST PUSH1 0x20 MUL PUSH1 0x20 ADD ADD MLOAD PUSH1 0x40 MLOAD PUSH2 0x2B17 SWAP2 SWAP1 PUSH2 0x3D56 JUMP JUMPDEST PUSH1 0x0 PUSH1 0x40 MLOAD DUP1 DUP4 SUB DUP2 DUP6 DUP8 GAS CALL SWAP3 POP POP POP RETURNDATASIZE DUP1 PUSH1 0x0 DUP2 EQ PUSH2 0x2B54 JUMPI PUSH1 0x40 MLOAD SWAP2 POP PUSH1 0x1F NOT PUSH1 0x3F RETURNDATASIZE ADD AND DUP3 ADD PUSH1 0x40 MSTORE RETURNDATASIZE DUP3 MSTORE RETURNDATASIZE PUSH1 0x0 PUSH1 0x20 DUP5 ADD RETURNDATACOPY PUSH2 0x2B59 JUMP JUMPDEST PUSH1 0x60 SWAP2 POP JUMPDEST POP SWAP2 POP SWAP2 POP PUSH2 0x2B69 DUP3 DUP3 DUP7 PUSH2 0x3326 JUMP JUMPDEST POP POP POP DUP1 PUSH2 0x2B76 SWAP1 PUSH2 0x4042 JUMP JUMPDEST SWAP1 POP PUSH2 0x2AA7 JUMP JUMPDEST POP POP POP POP POP POP JUMP JUMPDEST PUSH2 0x26B4 DUP4 DUP4 DUP4 PUSH2 0x335F JUMP JUMPDEST PUSH1 0x0 DUP5 DUP2 MSTORE PUSH1 0x10 PUSH1 0x20 MSTORE PUSH1 0x40 SWAP1 KECCAK256 PUSH2 0x2BA8 DUP6 DUP6 PUSH2 0x33D4 JUMP JUMPDEST PUSH1 0xFF DUP4 AND PUSH2 0x2BCF JUMPI DUP2 DUP2 PUSH1 0x0 ADD PUSH1 0x0 DUP3 DUP3 SLOAD PUSH2 0x2BC4 SWAP2 SWAP1 PUSH2 0x3F40 JUMP JUMPDEST SWAP1 SWAP2 SSTORE POP PUSH2 0x1A1C SWAP1 POP JUMP JUMPDEST PUSH1 0xFF DUP4 AND PUSH1 0x1 EQ ISZERO PUSH2 0x2BEF JUMPI DUP2 DUP2 PUSH1 0x1 ADD PUSH1 0x0 DUP3 DUP3 SLOAD PUSH2 0x2BC4 SWAP2 SWAP1 PUSH2 0x3F40 JUMP JUMPDEST PUSH1 0xFF DUP4 AND PUSH1 0x2 EQ ISZERO PUSH2 0x2C0F JUMPI DUP2 DUP2 PUSH1 0x2 ADD PUSH1 0x0 DUP3 DUP3 SLOAD PUSH2 0x2BC4 SWAP2 SWAP1 PUSH2 0x3F40 JUMP JUMPDEST PUSH1 0x40 MLOAD PUSH3 0x461BCD PUSH1 0xE5 SHL DUP2 MSTORE PUSH1 0x20 PUSH1 0x4 DUP3 ADD MSTORE PUSH1 0xC PUSH1 0x24 DUP3 ADD MSTORE PUSH12 0x496E76616C696420766F7465 PUSH1 0xA0 SHL PUSH1 0x44 DUP3 ADD MSTORE PUSH1 0x64 ADD PUSH2 0xB8C JUMP JUMPDEST PUSH1 0x0 ADDRESS PUSH1 0x1 PUSH1 0x1 PUSH1 0xA0 SHL SUB PUSH32 0x0 AND EQ DUP1 ISZERO PUSH2 0x2C9F JUMPI POP PUSH32 0x0 CHAINID EQ JUMPDEST ISZERO PUSH2 0x2CC9 JUMPI POP PUSH32 0x0 SWAP1 JUMP JUMPDEST POP PUSH1 0x40 DUP1 MLOAD PUSH32 0x0 PUSH1 0x20 DUP1 DUP4 ADD SWAP2 SWAP1 SWAP2 MSTORE PUSH32 0x0 DUP3 DUP5 ADD MSTORE PUSH32 0x0 PUSH1 0x60 DUP4 ADD MSTORE CHAINID PUSH1 0x80 DUP4 ADD MSTORE ADDRESS PUSH1 0xA0 DUP1 DUP5 ADD SWAP2 SWAP1 SWAP2 MSTORE DUP4 MLOAD DUP1 DUP5 SUB SWAP1 SWAP2 ADD DUP2 MSTORE PUSH1 0xC0 SWAP1 SWAP3 ADD SWAP1 SWAP3 MSTORE DUP1 MLOAD SWAP2 ADD KECCAK256 SWAP1 JUMP JUMPDEST PUSH1 0x0 DUP1 PUSH32 0x7FFFFFFFFFFFFFFFFFFFFFFFFFFFFFFF5D576E7357A4501DDFE92F46681B20A0 DUP4 GT ISZERO PUSH2 0x2DA4 JUMPI POP PUSH1 0x0 SWAP1 POP PUSH1 0x3 PUSH2 0x2E51 JUMP JUMPDEST DUP5 PUSH1 0xFF AND PUSH1 0x1B EQ ISZERO DUP1 ISZERO PUSH2 0x2DBC JUMPI POP DUP5 PUSH1 0xFF AND PUSH1 0x1C EQ ISZERO JUMPDEST ISZERO PUSH2 0x2DCD JUMPI POP PUSH1 0x0 SWAP1 POP PUSH1 0x4 PUSH2 0x2E51 JUMP JUMPDEST PUSH1 0x40 DUP1 MLOAD PUSH1 0x0 DUP1 DUP3 MSTORE PUSH1 0x20 DUP3 ADD DUP1 DUP5 MSTORE DUP10 SWAP1 MSTORE PUSH1 0xFF DUP9 AND SWAP3 DUP3 ADD SWAP3 SWAP1 SWAP3 MSTORE PUSH1 0x60 DUP2 ADD DUP7 SWAP1 MSTORE PUSH1 0x80 DUP2 ADD DUP6 SWAP1 MSTORE PUSH1 0x1 SWAP1 PUSH1 0xA0 ADD PUSH1 0x20 PUSH1 0x40 MLOAD PUSH1 0x20 DUP2 SUB SWAP1 DUP1 DUP5 SUB SWAP1 DUP6 GAS STATICCALL ISZERO DUP1 ISZERO PUSH2 0x2E21 JUMPI RETURNDATASIZE PUSH1 0x0 DUP1 RETURNDATACOPY RETURNDATASIZE PUSH1 0x0 REVERT JUMPDEST POP POP PUSH1 0x40 MLOAD PUSH1 0x1F NOT ADD MLOAD SWAP2 POP POP PUSH1 0x1 PUSH1 0x1 PUSH1 0xA0 SHL SUB DUP2 AND PUSH2 0x2E4A JUMPI PUSH1 0x0 PUSH1 0x1 SWAP3 POP SWAP3 POP POP PUSH2 0x2E51 JUMP JUMPDEST SWAP2 POP PUSH1 0x0 SWAP1 POP JUMPDEST SWAP5 POP SWAP5 SWAP3 POP POP POP JUMP JUMPDEST PUSH1 0x0 DUP2 PUSH1 0x4 DUP2 GT ISZERO PUSH2 0x2E6E JUMPI PUSH2 0x2E6E PUSH2 0x4073 JUMP JUMPDEST EQ ISZERO PUSH2 0x2E77 JUMPI POP JUMP JUMPDEST PUSH1 0x1 DUP2 PUSH1 0x4 DUP2 GT ISZERO PUSH2 0x2E8B JUMPI PUSH2 0x2E8B PUSH2 0x4073 JUMP JUMPDEST EQ ISZERO PUSH2 0x2ED9 JUMPI PUSH1 0x40 MLOAD PUSH3 0x461BCD PUSH1 0xE5 SHL DUP2 MSTORE PUSH1 0x20 PUSH1 0x4 DUP3 ADD MSTORE PUSH1 0x18 PUSH1 0x24 DUP3 ADD MSTORE PUSH32 0x45434453413A20696E76616C6964207369676E61747572650000000000000000 PUSH1 0x44 DUP3 ADD MSTORE PUSH1 0x64 ADD PUSH2 0xB8C JUMP JUMPDEST PUSH1 0x2 DUP2 PUSH1 0x4 DUP2 GT ISZERO PUSH2 0x2EED JUMPI PUSH2 0x2EED PUSH2 0x4073 JUMP JUMPDEST EQ ISZERO PUSH2 0x2F3B JUMPI PUSH1 0x40 MLOAD PUSH3 0x461BCD PUSH1 0xE5 SHL DUP2 MSTORE PUSH1 0x20 PUSH1 0x4 DUP3 ADD MSTORE PUSH1 0x1F PUSH1 0x24 DUP3 ADD MSTORE PUSH32 0x45434453413A20696E76616C6964207369676E6174757265206C656E67746800 PUSH1 0x44 DUP3 ADD MSTORE PUSH1 0x64 ADD PUSH2 0xB8C JUMP JUMPDEST PUSH1 0x3 DUP2 PUSH1 0x4 DUP2 GT ISZERO PUSH2 0x2F4F JUMPI PUSH2 0x2F4F PUSH2 0x4073 JUMP JUMPDEST EQ ISZERO PUSH2 0x2FA8 JUMPI PUSH1 0x40 MLOAD PUSH3 0x461BCD PUSH1 0xE5 SHL DUP2 MSTORE PUSH1 0x20 PUSH1 0x4 DUP3 ADD MSTORE PUSH1 0x22 PUSH1 0x24 DUP3 ADD MSTORE PUSH32 0x45434453413A20696E76616C6964207369676E6174757265202773272076616C PUSH1 0x44 DUP3 ADD MSTORE PUSH2 0x7565 PUSH1 0xF0 SHL PUSH1 0x64 DUP3 ADD MSTORE PUSH1 0x84 ADD PUSH2 0xB8C JUMP JUMPDEST PUSH1 0x4 DUP2 PUSH1 0x4 DUP2 GT ISZERO PUSH2 0x2FBC JUMPI PUSH2 0x2FBC PUSH2 0x4073 JUMP JUMPDEST EQ ISZERO PUSH2 0xD37 JUMPI PUSH1 0x40 MLOAD PUSH3 0x461BCD PUSH1 0xE5 SHL DUP2 MSTORE PUSH1 0x20 PUSH1 0x4 DUP3 ADD MSTORE PUSH1 0x22 PUSH1 0x24 DUP3 ADD MSTORE PUSH32 0x45434453413A20696E76616C6964207369676E6174757265202776272076616C PUSH1 0x44 DUP3 ADD MSTORE PUSH2 0x7565 PUSH1 0xF0 SHL PUSH1 0x64 DUP3 ADD MSTORE PUSH1 0x84 ADD PUSH2 0xB8C JUMP JUMPDEST DUP2 PUSH1 0x1 PUSH1 0x1 PUSH1 0xA0 SHL SUB AND DUP4 PUSH1 0x1 PUSH1 0x1 PUSH1 0xA0 SHL SUB AND EQ ISZERO DUP1 ISZERO PUSH2 0x3037 JUMPI POP PUSH1 0x0 DUP2 GT JUMPDEST ISZERO PUSH2 0x26B4 JUMPI PUSH1 0x1 PUSH1 0x1 PUSH1 0xA0 SHL SUB DUP4 AND ISZERO PUSH2 0x30EF JUMPI PUSH1 0x1 PUSH1 0x1 PUSH1 0xA0 SHL SUB DUP4 AND PUSH1 0x0 SWAP1 DUP2 MSTORE PUSH1 0x12 PUSH1 0x20 MSTORE PUSH1 0x40 DUP2 KECCAK256 DUP2 SWAP1 PUSH2 0x309C SWAP1 DUP5 SWAP1 PUSH2 0x3074 SWAP1 PUSH2 0x2879 JUMP JUMPDEST PUSH2 0x307E SWAP2 SWAP1 PUSH2 0x3FC4 JUMP JUMPDEST PUSH1 0x1 PUSH1 0x1 PUSH1 0xA0 SHL SUB DUP8 AND PUSH1 0x0 SWAP1 DUP2 MSTORE PUSH1 0x12 PUSH1 0x20 MSTORE PUSH1 0x40 SWAP1 KECCAK256 SWAP1 PUSH2 0x33E4 JUMP JUMPDEST SWAP2 POP SWAP2 POP DUP5 PUSH1 0x1 PUSH1 0x1 PUSH1 0xA0 SHL SUB AND PUSH32 0xDEC2BACDD2F05B59DE34DA9B523DFF8BE42E5E38E818C82FDB0BAE774387A724 DUP4 DUP4 PUSH1 0x40 MLOAD PUSH2 0x30E4 SWAP3 SWAP2 SWAP1 SWAP2 DUP3 MSTORE PUSH1 0x20 DUP3 ADD MSTORE PUSH1 0x40 ADD SWAP1 JUMP JUMPDEST PUSH1 0x40 MLOAD DUP1 SWAP2 SUB SWAP1 LOG2 POP POP JUMPDEST PUSH1 0x1 PUSH1 0x1 PUSH1 0xA0 SHL SUB DUP3 AND ISZERO PUSH2 0x26B4 JUMPI PUSH1 0x1 PUSH1 0x1 PUSH1 0xA0 SHL SUB DUP3 AND PUSH1 0x0 SWAP1 DUP2 MSTORE PUSH1 0x12 PUSH1 0x20 MSTORE PUSH1 0x40 DUP2 KECCAK256 DUP2 SWAP1 PUSH2 0x314F SWAP1 DUP5 SWAP1 PUSH2 0x3127 SWAP1 PUSH2 0x2879 JUMP JUMPDEST PUSH2 0x3131 SWAP2 SWAP1 PUSH2 0x3F40 JUMP JUMPDEST PUSH1 0x1 PUSH1 0x1 PUSH1 0xA0 SHL SUB DUP7 AND PUSH1 0x0 SWAP1 DUP2 MSTORE PUSH1 0x12 PUSH1 0x20 MSTORE PUSH1 0x40 SWAP1 KECCAK256 SWAP1 PUSH2 0x33E4 JUMP JUMPDEST SWAP2 POP SWAP2 POP DUP4 PUSH1 0x1 PUSH1 0x1 PUSH1 0xA0 SHL SUB AND PUSH32 0xDEC2BACDD2F05B59DE34DA9B523DFF8BE42E5E38E818C82FDB0BAE774387A724 DUP4 DUP4 PUSH1 0x40 MLOAD PUSH2 0x3197 SWAP3 SWAP2 SWAP1 SWAP2 DUP3 MSTORE PUSH1 0x20 DUP3 ADD MSTORE PUSH1 0x40 ADD SWAP1 JUMP JUMPDEST PUSH1 0x40 MLOAD DUP1 SWAP2 SUB SWAP1 LOG2 POP POP POP POP POP JUMP JUMPDEST PUSH1 0x0 DUP2 DUP2 MSTORE PUSH1 0x10 PUSH1 0x20 MSTORE PUSH1 0x40 DUP2 KECCAK256 PUSH1 0x2 DUP2 ADD SLOAD PUSH1 0x1 DUP3 ADD SLOAD DUP3 SLOAD PUSH2 0x31CA SWAP2 SWAP1 PUSH2 0x3F40 JUMP JUMPDEST PUSH2 0x31D4 SWAP2 SWAP1 PUSH2 0x3F40 JUMP JUMPDEST PUSH2 0x31E0 PUSH2 0xB0A DUP6 PUSH2 0x29CF JUMP JUMPDEST GT ISZERO SWAP4 SWAP3 POP POP POP JUMP JUMPDEST PUSH1 0x0 PUSH2 0x31F8 PUSH1 0x2 DUP5 DUP5 XOR PUSH2 0x3F83 JUMP JUMPDEST PUSH2 0xCEB SWAP1 DUP5 DUP5 AND PUSH2 0x3F40 JUMP JUMPDEST PUSH1 0x60 DUP3 SELFBALANCE LT ISZERO PUSH2 0x3265 JUMPI PUSH1 0x40 MLOAD PUSH3 0x461BCD PUSH1 0xE5 SHL DUP2 MSTORE PUSH1 0x20 PUSH1 0x4 DUP3 ADD MSTORE PUSH1 0x26 PUSH1 0x24 DUP3 ADD MSTORE PUSH32 0x416464726573733A20696E73756666696369656E742062616C616E636520666F PUSH1 0x44 DUP3 ADD MSTORE PUSH6 0x1C8818D85B1B PUSH1 0xD2 SHL PUSH1 0x64 DUP3 ADD MSTORE PUSH1 0x84 ADD PUSH2 0xB8C JUMP JUMPDEST PUSH1 0x1 PUSH1 0x1 PUSH1 0xA0 SHL SUB DUP6 AND EXTCODESIZE PUSH2 0x32BC JUMPI PUSH1 0x40 MLOAD PUSH3 0x461BCD PUSH1 0xE5 SHL DUP2 MSTORE PUSH1 0x20 PUSH1 0x4 DUP3 ADD MSTORE PUSH1 0x1D PUSH1 0x24 DUP3 ADD MSTORE PUSH32 0x416464726573733A2063616C6C20746F206E6F6E2D636F6E7472616374000000 PUSH1 0x44 DUP3 ADD MSTORE PUSH1 0x64 ADD PUSH2 0xB8C JUMP JUMPDEST PUSH1 0x0 DUP1 DUP7 PUSH1 0x1 PUSH1 0x1 PUSH1 0xA0 SHL SUB AND DUP6 DUP8 PUSH1 0x40 MLOAD PUSH2 0x32D8 SWAP2 SWAP1 PUSH2 0x3D56 JUMP JUMPDEST PUSH1 0x0 PUSH1 0x40 MLOAD DUP1 DUP4 SUB DUP2 DUP6 DUP8 GAS CALL SWAP3 POP POP POP RETURNDATASIZE DUP1 PUSH1 0x0 DUP2 EQ PUSH2 0x3315 JUMPI PUSH1 0x40 MLOAD SWAP2 POP PUSH1 0x1F NOT PUSH1 0x3F RETURNDATASIZE ADD AND DUP3 ADD PUSH1 0x40 MSTORE RETURNDATASIZE DUP3 MSTORE RETURNDATASIZE PUSH1 0x0 PUSH1 0x20 DUP5 ADD RETURNDATACOPY PUSH2 0x331A JUMP JUMPDEST PUSH1 0x60 SWAP2 POP JUMPDEST POP SWAP2 POP SWAP2 POP PUSH2 0xDF8 DUP3 DUP3 DUP7 JUMPDEST PUSH1 0x60 DUP4 ISZERO PUSH2 0x3335 JUMPI POP DUP2 PUSH2 0xCEB JUMP JUMPDEST DUP3 MLOAD ISZERO PUSH2 0x3345 JUMPI DUP3 MLOAD DUP1 DUP5 PUSH1 0x20 ADD REVERT JUMPDEST DUP2 PUSH1 0x40 MLOAD PUSH3 0x461BCD PUSH1 0xE5 SHL DUP2 MSTORE PUSH1 0x4 ADD PUSH2 0xB8C SWAP2 SWAP1 PUSH2 0x3E47 JUMP JUMPDEST PUSH1 0x1 PUSH1 0x1 PUSH1 0xA0 SHL SUB DUP4 AND PUSH2 0x3390 JUMPI PUSH2 0x338D DUP2 PUSH2 0x337B PUSH1 0x13 PUSH2 0x2879 JUMP JUMPDEST PUSH2 0x3385 SWAP2 SWAP1 PUSH2 0x3F40 JUMP JUMPDEST PUSH1 0x13 SWAP1 PUSH2 0x33E4 JUMP JUMPDEST POP POP JUMPDEST PUSH1 0x1 PUSH1 0x1 PUSH1 0xA0 SHL SUB DUP3 AND PUSH2 0x33B9 JUMPI PUSH2 0x33B6 DUP2 PUSH2 0x33AC PUSH1 0x13 PUSH2 0x2879 JUMP JUMPDEST PUSH2 0x3385 SWAP2 SWAP1 PUSH2 0x3FC4 JUMP JUMPDEST POP POP JUMPDEST PUSH2 0x26B4 PUSH2 0x33C5 DUP5 PUSH2 0xFA5 JUMP JUMPDEST PUSH2 0x33CE DUP5 PUSH2 0xFA5 JUMP JUMPDEST DUP4 PUSH2 0x3015 JUMP JUMPDEST DUP2 ISZERO PUSH2 0xBA8 JUMPI PUSH2 0xBA8 DUP3 DUP3 PUSH2 0x350A JUMP JUMPDEST DUP2 SLOAD PUSH1 0x0 SWAP1 DUP2 SWAP1 DUP2 PUSH2 0x33F5 DUP7 PUSH2 0x2879 JUMP JUMPDEST SWAP1 POP PUSH1 0x0 DUP3 GT DUP1 ISZERO PUSH2 0x3433 JUMPI POP NUMBER DUP7 PUSH2 0x340F PUSH1 0x1 DUP6 PUSH2 0x3FC4 JUMP JUMPDEST DUP2 SLOAD DUP2 LT PUSH2 0x341F JUMPI PUSH2 0x341F PUSH2 0x4089 JUMP JUMPDEST PUSH1 0x0 SWAP2 DUP3 MSTORE PUSH1 0x20 SWAP1 SWAP2 KECCAK256 ADD SLOAD PUSH4 0xFFFFFFFF AND EQ JUMPDEST ISZERO PUSH2 0x3493 JUMPI PUSH2 0x3441 DUP6 PUSH2 0x359B JUMP JUMPDEST DUP7 PUSH2 0x344D PUSH1 0x1 DUP6 PUSH2 0x3FC4 JUMP JUMPDEST DUP2 SLOAD DUP2 LT PUSH2 0x345D JUMPI PUSH2 0x345D PUSH2 0x4089 JUMP JUMPDEST SWAP1 PUSH1 0x0 MSTORE PUSH1 0x20 PUSH1 0x0 KECCAK256 ADD PUSH1 0x0 ADD PUSH1 0x4 PUSH2 0x100 EXP DUP2 SLOAD DUP2 PUSH1 0x1 PUSH1 0x1 PUSH1 0xE0 SHL SUB MUL NOT AND SWAP1 DUP4 PUSH1 0x1 PUSH1 0x1 PUSH1 0xE0 SHL SUB AND MUL OR SWAP1 SSTORE POP PUSH2 0x3501 JUMP JUMPDEST DUP6 PUSH1 0x0 ADD PUSH1 0x40 MLOAD DUP1 PUSH1 0x40 ADD PUSH1 0x40 MSTORE DUP1 PUSH2 0x34AB NUMBER PUSH2 0x3604 JUMP JUMPDEST PUSH4 0xFFFFFFFF AND DUP2 MSTORE PUSH1 0x20 ADD PUSH2 0x34BF DUP9 PUSH2 0x359B JUMP JUMPDEST PUSH1 0x1 PUSH1 0x1 PUSH1 0xE0 SHL SUB SWAP1 DUP2 AND SWAP1 SWAP2 MSTORE DUP3 SLOAD PUSH1 0x1 DUP2 ADD DUP5 SSTORE PUSH1 0x0 SWAP4 DUP5 MSTORE PUSH1 0x20 SWAP4 DUP5 SWAP1 KECCAK256 DUP4 MLOAD SWAP5 SWAP1 SWAP4 ADD MLOAD SWAP1 SWAP2 AND PUSH5 0x100000000 MUL PUSH4 0xFFFFFFFF SWAP1 SWAP4 AND SWAP3 SWAP1 SWAP3 OR SWAP2 ADD SSTORE JUMPDEST SWAP6 SWAP4 SWAP5 POP POP POP POP JUMP JUMPDEST PUSH1 0x0 DUP3 DUP2 MSTORE PUSH1 0x10 PUSH1 0x20 SWAP1 DUP2 MSTORE PUSH1 0x40 DUP1 DUP4 KECCAK256 PUSH1 0x1 PUSH1 0x1 PUSH1 0xA0 SHL SUB DUP6 AND DUP5 MSTORE PUSH1 0x3 DUP2 ADD SWAP1 SWAP3 MSTORE SWAP1 SWAP2 KECCAK256 SLOAD PUSH1 0xFF AND ISZERO PUSH2 0x3571 JUMPI PUSH1 0x40 MLOAD PUSH3 0x461BCD PUSH1 0xE5 SHL DUP2 MSTORE PUSH1 0x20 PUSH1 0x4 DUP3 ADD MSTORE PUSH1 0xC PUSH1 0x24 DUP3 ADD MSTORE PUSH12 0x105B1C9958591E4818D85CDD PUSH1 0xA2 SHL PUSH1 0x44 DUP3 ADD MSTORE PUSH1 0x64 ADD PUSH2 0xB8C JUMP JUMPDEST PUSH1 0x1 PUSH1 0x1 PUSH1 0xA0 SHL SUB SWAP1 SWAP2 AND PUSH1 0x0 SWAP1 DUP2 MSTORE PUSH1 0x3 SWAP1 SWAP2 ADD PUSH1 0x20 MSTORE PUSH1 0x40 SWAP1 KECCAK256 DUP1 SLOAD PUSH1 0xFF NOT AND PUSH1 0x1 OR SWAP1 SSTORE POP JUMP JUMPDEST PUSH1 0x0 PUSH1 0x1 PUSH1 0x1 PUSH1 0xE0 SHL SUB DUP3 GT ISZERO PUSH2 0x1E64 JUMPI PUSH1 0x40 MLOAD PUSH3 0x461BCD PUSH1 0xE5 SHL DUP2 MSTORE PUSH1 0x20 PUSH1 0x4 DUP3 ADD MSTORE PUSH1 0x27 PUSH1 0x24 DUP3 ADD MSTORE PUSH32 0x53616665436173743A2076616C756520646F65736E27742066697420696E2032 PUSH1 0x44 DUP3 ADD MSTORE PUSH7 0x32342062697473 PUSH1 0xC8 SHL PUSH1 0x64 DUP3 ADD MSTORE PUSH1 0x84 ADD PUSH2 0xB8C JUMP JUMPDEST PUSH1 0x0 PUSH4 0xFFFFFFFF DUP3 GT ISZERO PUSH2 0x1E64 JUMPI PUSH1 0x40 MLOAD PUSH3 0x461BCD PUSH1 0xE5 SHL DUP2 MSTORE PUSH1 0x20 PUSH1 0x4 DUP3 ADD MSTORE PUSH1 0x26 PUSH1 0x24 DUP3 ADD MSTORE PUSH32 0x53616665436173743A2076616C756520646F65736E27742066697420696E2033 PUSH1 0x44 DUP3 ADD MSTORE PUSH6 0x322062697473 PUSH1 0xD0 SHL PUSH1 0x64 DUP3 ADD MSTORE PUSH1 0x84 ADD PUSH2 0xB8C JUMP JUMPDEST DUP3 DUP1 SLOAD PUSH2 0x3675 SWAP1 PUSH2 0x4007 JUMP JUMPDEST SWAP1 PUSH1 0x0 MSTORE PUSH1 0x20 PUSH1 0x0 KECCAK256 SWAP1 PUSH1 0x1F ADD PUSH1 0x20 SWAP1 DIV DUP2 ADD SWAP3 DUP3 PUSH2 0x3697 JUMPI PUSH1 0x0 DUP6 SSTORE PUSH2 0x36DD JUMP JUMPDEST DUP3 PUSH1 0x1F LT PUSH2 0x36B0 JUMPI DUP1 MLOAD PUSH1 0xFF NOT AND DUP4 DUP1 ADD OR DUP6 SSTORE PUSH2 0x36DD JUMP JUMPDEST DUP3 DUP1 ADD PUSH1 0x1 ADD DUP6 SSTORE DUP3 ISZERO PUSH2 0x36DD JUMPI SWAP2 DUP3 ADD JUMPDEST DUP3 DUP2 GT ISZERO PUSH2 0x36DD JUMPI DUP3 MLOAD DUP3 SSTORE SWAP2 PUSH1 0x20 ADD SWAP2 SWAP1 PUSH1 0x1 ADD SWAP1 PUSH2 0x36C2 JUMP JUMPDEST POP PUSH2 0x1E64 SWAP3 SWAP2 POP JUMPDEST DUP1 DUP3 GT ISZERO PUSH2 0x1E64 JUMPI PUSH1 0x0 DUP2 SSTORE PUSH1 0x1 ADD PUSH2 0x36E5 JUMP JUMPDEST PUSH1 0x0 PUSH1 0x1 PUSH1 0x1 PUSH1 0x40 SHL SUB DUP4 GT ISZERO PUSH2 0x3712 JUMPI PUSH2 0x3712 PUSH2 0x409F JUMP JUMPDEST PUSH2 0x3725 PUSH1 0x1F DUP5 ADD PUSH1 0x1F NOT AND PUSH1 0x20 ADD PUSH2 0x3EED JUMP JUMPDEST SWAP1 POP DUP3 DUP2 MSTORE DUP4 DUP4 DUP4 ADD GT ISZERO PUSH2 0x3739 JUMPI PUSH1 0x0 DUP1 REVERT JUMPDEST DUP3 DUP3 PUSH1 0x20 DUP4 ADD CALLDATACOPY PUSH1 0x0 PUSH1 0x20 DUP5 DUP4 ADD ADD MSTORE SWAP4 SWAP3 POP POP POP JUMP JUMPDEST DUP1 CALLDATALOAD PUSH1 0x1 PUSH1 0x1 PUSH1 0xA0 SHL SUB DUP2 AND DUP2 EQ PUSH2 0xFE9 JUMPI PUSH1 0x0 DUP1 REVERT JUMPDEST PUSH1 0x0 DUP3 PUSH1 0x1F DUP4 ADD SLT PUSH2 0x3778 JUMPI PUSH1 0x0 DUP1 REVERT JUMPDEST DUP2 CALLDATALOAD PUSH1 0x20 PUSH2 0x378D PUSH2 0x3788 DUP4 PUSH2 0x3F1D JUMP JUMPDEST PUSH2 0x3EED JUMP JUMPDEST DUP1 DUP4 DUP3 MSTORE DUP3 DUP3 ADD SWAP2 POP DUP3 DUP7 ADD DUP8 DUP5 DUP7 PUSH1 0x5 SHL DUP10 ADD ADD GT ISZERO PUSH2 0x37AD JUMPI PUSH1 0x0 DUP1 REVERT JUMPDEST PUSH1 0x0 JUMPDEST DUP6 DUP2 LT ISZERO PUSH2 0x3803 JUMPI DUP2 CALLDATALOAD PUSH1 0x1 PUSH1 0x1 PUSH1 0x40 SHL SUB DUP2 GT ISZERO PUSH2 0x37CE JUMPI PUSH1 0x0 DUP1 REVERT JUMPDEST DUP9 ADD PUSH1 0x3F DUP2 ADD DUP11 SGT PUSH2 0x37DF JUMPI PUSH1 0x0 DUP1 REVERT JUMPDEST PUSH2 0x37F0 DUP11 DUP8 DUP4 ADD CALLDATALOAD PUSH1 0x40 DUP5 ADD PUSH2 0x36F9 JUMP JUMPDEST DUP6 MSTORE POP SWAP3 DUP5 ADD SWAP3 SWAP1 DUP5 ADD SWAP1 PUSH1 0x1 ADD PUSH2 0x37B0 JUMP JUMPDEST POP SWAP1 SWAP8 SWAP7 POP POP POP POP POP POP POP JUMP JUMPDEST PUSH1 0x0 DUP3 PUSH1 0x1F DUP4 ADD SLT PUSH2 0x3821 JUMPI PUSH1 0x0 DUP1 REVERT JUMPDEST DUP2 CALLDATALOAD PUSH1 0x20 PUSH2 0x3831 PUSH2 0x3788 DUP4 PUSH2 0x3F1D JUMP JUMPDEST DUP1 DUP4 DUP3 MSTORE DUP3 DUP3 ADD SWAP2 POP DUP3 DUP7 ADD DUP8 DUP5 DUP7 PUSH1 0x5 SHL DUP10 ADD ADD GT ISZERO PUSH2 0x3851 JUMPI PUSH1 0x0 DUP1 REVERT JUMPDEST PUSH1 0x0 JUMPDEST DUP6 DUP2 LT ISZERO PUSH2 0x3803 JUMPI DUP2 CALLDATALOAD DUP5 MSTORE SWAP3 DUP5 ADD SWAP3 SWAP1 DUP5 ADD SWAP1 PUSH1 0x1 ADD PUSH2 0x3854 JUMP JUMPDEST PUSH1 0x0 DUP3 PUSH1 0x1F DUP4 ADD SLT PUSH2 0x3881 JUMPI PUSH1 0x0 DUP1 REVERT JUMPDEST PUSH2 0xCEB DUP4 DUP4 CALLDATALOAD PUSH1 0x20 DUP6 ADD PUSH2 0x36F9 JUMP JUMPDEST DUP1 CALLDATALOAD PUSH1 0xFF DUP2 AND DUP2 EQ PUSH2 0xFE9 JUMPI PUSH1 0x0 DUP1 REVERT JUMPDEST PUSH1 0x0 PUSH1 0x20 DUP3 DUP5 SUB SLT ISZERO PUSH2 0x38B3 JUMPI PUSH1 0x0 DUP1 REVERT JUMPDEST PUSH2 0xCEB DUP3 PUSH2 0x3750 JUMP JUMPDEST PUSH1 0x0 DUP1 PUSH1 0x40 DUP4 DUP6 SUB SLT ISZERO PUSH2 0x38CF JUMPI PUSH1 0x0 DUP1 REVERT JUMPDEST PUSH2 0x38D8 DUP4 PUSH2 0x3750 JUMP JUMPDEST SWAP2 POP PUSH2 0x38E6 PUSH1 0x20 DUP5 ADD PUSH2 0x3750 JUMP JUMPDEST SWAP1 POP SWAP3 POP SWAP3 SWAP1 POP JUMP JUMPDEST PUSH1 0x0 DUP1 PUSH1 0x0 PUSH1 0x60 DUP5 DUP7 SUB SLT ISZERO PUSH2 0x3904 JUMPI PUSH1 0x0 DUP1 REVERT JUMPDEST PUSH2 0x390D DUP5 PUSH2 0x3750 JUMP JUMPDEST SWAP3 POP PUSH2 0x391B PUSH1 0x20 DUP6 ADD PUSH2 0x3750 JUMP JUMPDEST SWAP2 POP PUSH1 0x40 DUP5 ADD CALLDATALOAD SWAP1 POP SWAP3 POP SWAP3 POP SWAP3 JUMP JUMPDEST PUSH1 0x0 DUP1 PUSH1 0x40 DUP4 DUP6 SUB SLT ISZERO PUSH2 0x393E JUMPI PUSH1 0x0 DUP1 REVERT JUMPDEST PUSH2 0x3947 DUP4 PUSH2 0x3750 JUMP JUMPDEST SWAP5 PUSH1 0x20 SWAP4 SWAP1 SWAP4 ADD CALLDATALOAD SWAP4 POP POP POP JUMP JUMPDEST PUSH1 0x0 DUP1 PUSH1 0x0 DUP1 PUSH1 0x60 DUP6 DUP8 SUB SLT ISZERO PUSH2 0x396B JUMPI PUSH1 0x0 DUP1 REVERT JUMPDEST PUSH2 0x3974 DUP6 PUSH2 0x3750 JUMP JUMPDEST SWAP4 POP PUSH1 0x20 DUP6 ADD CALLDATALOAD SWAP3 POP PUSH1 0x40 DUP6 ADD CALLDATALOAD PUSH1 0x1 PUSH1 0x1 PUSH1 0x40 SHL SUB DUP1 DUP3 GT ISZERO PUSH2 0x3997 JUMPI PUSH1 0x0 DUP1 REVERT JUMPDEST DUP2 DUP8 ADD SWAP2 POP DUP8 PUSH1 0x1F DUP4 ADD SLT PUSH2 0x39AB JUMPI PUSH1 0x0 DUP1 REVERT JUMPDEST DUP2 CALLDATALOAD DUP2 DUP2 GT ISZERO PUSH2 0x39BA JUMPI PUSH1 0x0 DUP1 REVERT JUMPDEST DUP9 PUSH1 0x20 DUP3 DUP6 ADD ADD GT ISZERO PUSH2 0x39CC JUMPI PUSH1 0x0 DUP1 REVERT JUMPDEST SWAP6 SWAP9 SWAP5 SWAP8 POP POP PUSH1 0x20 ADD SWAP5 POP POP POP JUMP JUMPDEST PUSH1 0x0 DUP1 PUSH1 0x0 DUP1 PUSH1 0x0 DUP1 PUSH1 0xC0 DUP8 DUP10 SUB SLT ISZERO PUSH2 0x39F4 JUMPI PUSH1 0x0 DUP1 REVERT JUMPDEST PUSH2 0x39FD DUP8 PUSH2 0x3750 JUMP JUMPDEST SWAP6 POP PUSH1 0x20 DUP8 ADD CALLDATALOAD SWAP5 POP PUSH1 0x40 DUP8 ADD CALLDATALOAD SWAP4 POP PUSH2 0x3A19 PUSH1 0x60 DUP9 ADD PUSH2 0x3890 JUMP JUMPDEST SWAP3 POP PUSH1 0x80 DUP8 ADD CALLDATALOAD SWAP2 POP PUSH1 0xA0 DUP8 ADD CALLDATALOAD SWAP1 POP SWAP3 SWAP6 POP SWAP3 SWAP6 POP SWAP3 SWAP6 JUMP JUMPDEST PUSH1 0x0 DUP1 PUSH1 0x0 PUSH1 0x60 DUP5 DUP7 SUB SLT ISZERO PUSH2 0x3A48 JUMPI PUSH1 0x0 DUP1 REVERT JUMPDEST PUSH2 0x3A51 DUP5 PUSH2 0x3750 JUMP JUMPDEST SWAP3 POP PUSH1 0x20 DUP5 ADD CALLDATALOAD SWAP2 POP PUSH2 0x3A66 PUSH1 0x40 DUP6 ADD PUSH2 0x3890 JUMP JUMPDEST SWAP1 POP SWAP3 POP SWAP3 POP SWAP3 JUMP JUMPDEST PUSH1 0x0 DUP1 PUSH1 0x0 DUP1 PUSH1 0x80 DUP6 DUP8 SUB SLT ISZERO PUSH2 0x3A85 JUMPI PUSH1 0x0 DUP1 REVERT JUMPDEST DUP5 CALLDATALOAD PUSH1 0x1 PUSH1 0x1 PUSH1 0x40 SHL SUB DUP1 DUP3 GT ISZERO PUSH2 0x3A9C JUMPI PUSH1 0x0 DUP1 REVERT JUMPDEST DUP2 DUP8 ADD SWAP2 POP DUP8 PUSH1 0x1F DUP4 ADD SLT PUSH2 0x3AB0 JUMPI PUSH1 0x0 DUP1 REVERT JUMPDEST DUP2 CALLDATALOAD PUSH1 0x20 PUSH2 0x3AC0 PUSH2 0x3788 DUP4 PUSH2 0x3F1D JUMP JUMPDEST DUP1 DUP4 DUP3 MSTORE DUP3 DUP3 ADD SWAP2 POP DUP3 DUP7 ADD DUP13 DUP5 DUP7 PUSH1 0x5 SHL DUP10 ADD ADD GT ISZERO PUSH2 0x3AE0 JUMPI PUSH1 0x0 DUP1 REVERT JUMPDEST PUSH1 0x0 SWAP7 POP JUMPDEST DUP5 DUP8 LT ISZERO PUSH2 0x3B0A JUMPI PUSH2 0x3AF6 DUP2 PUSH2 0x3750 JUMP JUMPDEST DUP4 MSTORE PUSH1 0x1 SWAP7 SWAP1 SWAP7 ADD SWAP6 SWAP2 DUP4 ADD SWAP2 DUP4 ADD PUSH2 0x3AE5 JUMP JUMPDEST POP SWAP9 POP POP DUP9 ADD CALLDATALOAD SWAP3 POP POP DUP1 DUP3 GT ISZERO PUSH2 0x3B21 JUMPI PUSH1 0x0 DUP1 REVERT JUMPDEST PUSH2 0x3B2D DUP9 DUP4 DUP10 ADD PUSH2 0x3810 JUMP JUMPDEST SWAP5 POP PUSH1 0x40 DUP8 ADD CALLDATALOAD SWAP2 POP DUP1 DUP3 GT ISZERO PUSH2 0x3B43 JUMPI PUSH1 0x0 DUP1 REVERT JUMPDEST PUSH2 0x3B4F DUP9 DUP4 DUP10 ADD PUSH2 0x3767 JUMP JUMPDEST SWAP4 POP PUSH1 0x60 DUP8 ADD CALLDATALOAD SWAP2 POP DUP1 DUP3 GT ISZERO PUSH2 0x3B65 JUMPI PUSH1 0x0 DUP1 REVERT JUMPDEST POP PUSH2 0x3B72 DUP8 DUP3 DUP9 ADD PUSH2 0x3870 JUMP JUMPDEST SWAP2 POP POP SWAP3 SWAP6 SWAP2 SWAP5 POP SWAP3 POP JUMP JUMPDEST PUSH1 0x0 PUSH1 0x20 DUP3 DUP5 SUB SLT ISZERO PUSH2 0x3B90 JUMPI PUSH1 0x0 DUP1 REVERT JUMPDEST DUP2 MLOAD DUP1 ISZERO ISZERO DUP2 EQ PUSH2 0xCEB JUMPI PUSH1 0x0 DUP1 REVERT JUMPDEST PUSH1 0x0 PUSH1 0x20 DUP3 DUP5 SUB SLT ISZERO PUSH2 0x3BB2 JUMPI PUSH1 0x0 DUP1 REVERT JUMPDEST DUP2 CALLDATALOAD PUSH1 0x1 PUSH1 0x1 PUSH1 0x40 SHL SUB DUP2 GT ISZERO PUSH2 0x3BC8 JUMPI PUSH1 0x0 DUP1 REVERT JUMPDEST PUSH2 0xF9D DUP5 DUP3 DUP6 ADD PUSH2 0x3870 JUMP JUMPDEST PUSH1 0x0 PUSH1 0x20 DUP3 DUP5 SUB SLT ISZERO PUSH2 0x3BE6 JUMPI PUSH1 0x0 DUP1 REVERT JUMPDEST POP CALLDATALOAD SWAP2 SWAP1 POP JUMP JUMPDEST PUSH1 0x0 PUSH1 0x20 DUP3 DUP5 SUB SLT ISZERO PUSH2 0x3BFF JUMPI PUSH1 0x0 DUP1 REVERT JUMPDEST POP MLOAD SWAP2 SWAP1 POP JUMP JUMPDEST PUSH1 0x0 DUP1 PUSH1 0x40 DUP4 DUP6 SUB SLT ISZERO PUSH2 0x3C19 JUMPI PUSH1 0x0 DUP1 REVERT JUMPDEST DUP3 CALLDATALOAD SWAP2 POP PUSH2 0x38E6 PUSH1 0x20 DUP5 ADD PUSH2 0x3750 JUMP JUMPDEST PUSH1 0x0 DUP1 PUSH1 0x40 DUP4 DUP6 SUB SLT ISZERO PUSH2 0x3C3C JUMPI PUSH1 0x0 DUP1 REVERT JUMPDEST DUP3 CALLDATALOAD SWAP2 POP PUSH2 0x38E6 PUSH1 0x20 DUP5 ADD PUSH2 0x3890 JUMP JUMPDEST PUSH1 0x0 DUP1 PUSH1 0x0 DUP1 PUSH1 0x0 PUSH1 0xA0 DUP7 DUP9 SUB SLT ISZERO PUSH2 0x3C64 JUMPI PUSH1 0x0 DUP1 REVERT JUMPDEST DUP6 CALLDATALOAD SWAP5 POP PUSH2 0x3C74 PUSH1 0x20 DUP8 ADD PUSH2 0x3890 JUMP JUMPDEST SWAP4 POP PUSH2 0x3C82 PUSH1 0x40 DUP8 ADD PUSH2 0x3890 JUMP JUMPDEST SWAP5 SWAP8 SWAP4 SWAP7 POP SWAP4 SWAP5 PUSH1 0x60 DUP2 ADD CALLDATALOAD SWAP5 POP PUSH1 0x80 ADD CALLDATALOAD SWAP3 SWAP2 POP POP JUMP JUMPDEST PUSH1 0x0 DUP2 MLOAD DUP1 DUP5 MSTORE PUSH1 0x20 DUP1 DUP6 ADD DUP1 DUP2 SWAP7 POP DUP4 PUSH1 0x5 SHL DUP2 ADD SWAP2 POP DUP3 DUP7 ADD PUSH1 0x0 JUMPDEST DUP6 DUP2 LT ISZERO PUSH2 0x3CE2 JUMPI DUP3 DUP5 SUB DUP10 MSTORE PUSH2 0x3CD0 DUP5 DUP4 MLOAD PUSH2 0x3D2A JUMP JUMPDEST SWAP9 DUP6 ADD SWAP9 SWAP4 POP SWAP1 DUP5 ADD SWAP1 PUSH1 0x1 ADD PUSH2 0x3CB8 JUMP JUMPDEST POP SWAP2 SWAP8 SWAP7 POP POP POP POP POP POP POP JUMP JUMPDEST PUSH1 0x0 DUP2 MLOAD DUP1 DUP5 MSTORE PUSH1 0x20 DUP1 DUP6 ADD SWAP5 POP DUP1 DUP5 ADD PUSH1 0x0 JUMPDEST DUP4 DUP2 LT ISZERO PUSH2 0x3D1F JUMPI DUP2 MLOAD DUP8 MSTORE SWAP6 DUP3 ADD SWAP6 SWAP1 DUP3 ADD SWAP1 PUSH1 0x1 ADD PUSH2 0x3D03 JUMP JUMPDEST POP SWAP5 SWAP6 SWAP5 POP POP POP POP POP JUMP JUMPDEST PUSH1 0x0 DUP2 MLOAD DUP1 DUP5 MSTORE PUSH2 0x3D42 DUP2 PUSH1 0x20 DUP7 ADD PUSH1 0x20 DUP7 ADD PUSH2 0x3FDB JUMP JUMPDEST PUSH1 0x1F ADD PUSH1 0x1F NOT AND SWAP3 SWAP1 SWAP3 ADD PUSH1 0x20 ADD SWAP3 SWAP2 POP POP JUMP JUMPDEST PUSH1 0x0 DUP3 MLOAD PUSH2 0x3D68 DUP2 DUP5 PUSH1 0x20 DUP8 ADD PUSH2 0x3FDB JUMP JUMPDEST SWAP2 SWAP1 SWAP2 ADD SWAP3 SWAP2 POP POP JUMP JUMPDEST PUSH1 0xE0 DUP1 DUP3 MSTORE DUP9 MLOAD SWAP1 DUP3 ADD DUP2 SWAP1 MSTORE PUSH1 0x0 SWAP1 PUSH1 0x20 SWAP1 PUSH2 0x100 DUP5 ADD SWAP1 DUP3 DUP13 ADD DUP5 JUMPDEST DUP3 DUP2 LT ISZERO PUSH2 0x3DB5 JUMPI DUP2 MLOAD PUSH1 0x1 PUSH1 0x1 PUSH1 0xA0 SHL SUB AND DUP5 MSTORE SWAP3 DUP5 ADD SWAP3 SWAP1 DUP5 ADD SWAP1 PUSH1 0x1 ADD PUSH2 0x3D90 JUMP JUMPDEST POP POP POP DUP4 DUP2 SUB DUP3 DUP6 ADD MSTORE PUSH2 0x3DC9 DUP2 DUP12 PUSH2 0x3CEF JUMP JUMPDEST SWAP2 POP POP DUP3 DUP2 SUB PUSH1 0x40 DUP5 ADD MSTORE PUSH2 0x3DDE DUP2 DUP10 PUSH2 0x3C9A JUMP JUMPDEST SWAP1 POP DUP3 DUP2 SUB PUSH1 0x60 DUP5 ADD MSTORE PUSH2 0x3DF2 DUP2 DUP9 PUSH2 0x3D2A JUMP JUMPDEST SWAP2 POP POP PUSH2 0x3E04 PUSH1 0x80 DUP4 ADD DUP7 PUSH1 0xFF AND SWAP1 MSTORE JUMP JUMPDEST PUSH1 0xA0 DUP3 ADD SWAP4 SWAP1 SWAP4 MSTORE PUSH1 0xC0 ADD MSTORE SWAP6 SWAP5 POP POP POP POP POP JUMP JUMPDEST PUSH1 0x20 DUP2 ADD PUSH1 0x3 DUP4 LT PUSH2 0x3E2D JUMPI PUSH2 0x3E2D PUSH2 0x4073 JUMP JUMPDEST SWAP2 SWAP1 MSTORE SWAP1 JUMP JUMPDEST PUSH1 0x20 DUP2 ADD PUSH1 0x8 DUP4 LT PUSH2 0x3E2D JUMPI PUSH2 0x3E2D PUSH2 0x4073 JUMP JUMPDEST PUSH1 0x20 DUP2 MSTORE PUSH1 0x0 PUSH2 0xCEB PUSH1 0x20 DUP4 ADD DUP5 PUSH2 0x3D2A JUMP JUMPDEST PUSH1 0x20 DUP1 DUP3 MSTORE PUSH1 0xE SWAP1 DUP3 ADD MSTORE PUSH14 0x6F6E6C79476F7665726E616E6365 PUSH1 0x90 SHL PUSH1 0x40 DUP3 ADD MSTORE PUSH1 0x60 ADD SWAP1 JUMP JUMPDEST PUSH1 0x20 DUP1 DUP3 MSTORE PUSH1 0x10 SWAP1 DUP3 ADD MSTORE PUSH16 0x125B9D985B1A59081C1C9BDC1BDCD85B PUSH1 0x82 SHL PUSH1 0x40 DUP3 ADD MSTORE PUSH1 0x60 ADD SWAP1 JUMP JUMPDEST DUP6 DUP2 MSTORE PUSH1 0x1 PUSH1 0x1 PUSH1 0xA0 SHL SUB DUP6 AND PUSH1 0x20 DUP3 ADD MSTORE PUSH1 0x1 PUSH1 0x1 PUSH1 0x40 SHL SUB DUP5 DUP2 AND PUSH1 0x40 DUP4 ADD MSTORE DUP4 AND PUSH1 0x60 DUP3 ADD MSTORE PUSH1 0xA0 PUSH1 0x80 DUP3 ADD DUP2 SWAP1 MSTORE PUSH1 0x0 SWAP1 PUSH2 0xDF8 SWAP1 DUP4 ADD DUP5 PUSH2 0x3D2A JUMP JUMPDEST PUSH1 0x40 MLOAD PUSH1 0x1F DUP3 ADD PUSH1 0x1F NOT AND DUP2 ADD PUSH1 0x1 PUSH1 0x1 PUSH1 0x40 SHL SUB DUP2 GT DUP3 DUP3 LT OR ISZERO PUSH2 0x3F15 JUMPI PUSH2 0x3F15 PUSH2 0x409F JUMP JUMPDEST PUSH1 0x40 MSTORE SWAP2 SWAP1 POP JUMP JUMPDEST PUSH1 0x0 PUSH1 0x1 PUSH1 0x1 PUSH1 0x40 SHL SUB DUP3 GT ISZERO PUSH2 0x3F36 JUMPI PUSH2 0x3F36 PUSH2 0x409F JUMP JUMPDEST POP PUSH1 0x5 SHL PUSH1 0x20 ADD SWAP1 JUMP JUMPDEST PUSH1 0x0 DUP3 NOT DUP3 GT ISZERO PUSH2 0x3F53 JUMPI PUSH2 0x3F53 PUSH2 0x405D JUMP JUMPDEST POP ADD SWAP1 JUMP JUMPDEST PUSH1 0x0 PUSH1 0x1 PUSH1 0x1 PUSH1 0x40 SHL SUB DUP1 DUP4 AND DUP2 DUP6 AND DUP1 DUP4 SUB DUP3 GT ISZERO PUSH2 0x3F7A JUMPI PUSH2 0x3F7A PUSH2 0x405D JUMP JUMPDEST ADD SWAP5 SWAP4 POP POP POP POP JUMP JUMPDEST PUSH1 0x0 DUP3 PUSH2 0x3FA0 JUMPI PUSH4 0x4E487B71 PUSH1 0xE0 SHL PUSH1 0x0 MSTORE PUSH1 0x12 PUSH1 0x4 MSTORE PUSH1 0x24 PUSH1 0x0 REVERT JUMPDEST POP DIV SWAP1 JUMP JUMPDEST PUSH1 0x0 DUP2 PUSH1 0x0 NOT DIV DUP4 GT DUP3 ISZERO ISZERO AND ISZERO PUSH2 0x3FBF JUMPI PUSH2 0x3FBF PUSH2 0x405D JUMP JUMPDEST POP MUL SWAP1 JUMP JUMPDEST PUSH1 0x0 DUP3 DUP3 LT ISZERO PUSH2 0x3FD6 JUMPI PUSH2 0x3FD6 PUSH2 0x405D JUMP JUMPDEST POP SUB SWAP1 JUMP JUMPDEST PUSH1 0x0 JUMPDEST DUP4 DUP2 LT ISZERO PUSH2 0x3FF6 JUMPI DUP2 DUP2 ADD MLOAD DUP4 DUP3 ADD MSTORE PUSH1 0x20 ADD PUSH2 0x3FDE JUMP JUMPDEST DUP4 DUP2 GT ISZERO PUSH2 0x2004 JUMPI POP POP PUSH1 0x0 SWAP2 ADD MSTORE JUMP JUMPDEST PUSH1 0x1 DUP2 DUP2 SHR SWAP1 DUP3 AND DUP1 PUSH2 0x401B JUMPI PUSH1 0x7F DUP3 AND SWAP2 POP JUMPDEST PUSH1 0x20 DUP3 LT DUP2 EQ ISZERO PUSH2 0x403C JUMPI PUSH4 0x4E487B71 PUSH1 0xE0 SHL PUSH1 0x0 MSTORE PUSH1 0x22 PUSH1 0x4 MSTORE PUSH1 0x24 PUSH1 0x0 REVERT JUMPDEST POP SWAP2 SWAP1 POP JUMP JUMPDEST PUSH1 0x0 PUSH1 0x0 NOT DUP3 EQ ISZERO PUSH2 0x4056 JUMPI PUSH2 0x4056 PUSH2 0x405D JUMP JUMPDEST POP PUSH1 0x1 ADD SWAP1 JUMP JUMPDEST PUSH4 0x4E487B71 PUSH1 0xE0 SHL PUSH1 0x0 MSTORE PUSH1 0x11 PUSH1 0x4 MSTORE PUSH1 0x24 PUSH1 0x0 REVERT JUMPDEST PUSH4 0x4E487B71 PUSH1 0xE0 SHL PUSH1 0x0 MSTORE PUSH1 0x21 PUSH1 0x4 MSTORE PUSH1 0x24 PUSH1 0x0 REVERT JUMPDEST PUSH4 0x4E487B71 PUSH1 0xE0 SHL PUSH1 0x0 MSTORE PUSH1 0x32 PUSH1 0x4 MSTORE PUSH1 0x24 PUSH1 0x0 REVERT JUMPDEST PUSH4 0x4E487B71 PUSH1 0xE0 SHL PUSH1 0x0 MSTORE PUSH1 0x41 PUSH1 0x4 MSTORE PUSH1 0x24 PUSH1 0x0 REVERT INVALID COINBASE PUSH5 0x6472657373 GASPRICE KECCAK256 PUSH13 0x6F772D6C6576656C2063616C6C KECCAK256 PUSH24 0x6974682076616C7565206661696C6564A264697066735822 SLT KECCAK256 0xF DUP11 0xC9 PUSH22 0x353DEA30D8F678DE39093D95954FF9A86D09FE3C540D 0xC1 0xB1 0xEF 0xEA 0x23 ORIGIN PUSH5 0x736F6C6343 STOP ADDMOD SMOD STOP CALLER LOG2 PUSH5 0x6970667358 0x22 SLT KECCAK256 SWAP15 0xF7 0x4E TIMESTAMP EXTCODECOPY 0xBE 0xFC 0xDD BLOCKHASH 0xB0 0x25 NUMBER PUSH1 0x2B 0xD6 AND DUP3 0x2D 0x26 PUSH5 0xA66608E38A 0xB4 0xC1 0xBC 0xD0 OR PUSH23 0x64736F6C634300080700330000000000000000000000 "
		},
		"gasEstimates": {
			"creation": {
				"codeDepositCost": "4244400",
				"executionCost": "4896",
				"totalCost": "4249296"
			},
			"external": {
				"createDAO(bytes)": "infinite",
				"getNextAddress()": "2885",
				"version()": "infinite"
			},
			"internal": {
				"_createDAO(bytes memory)": "infinite"
			}
		},
		"methodIdentifiers": {
			"createDAO(bytes)": "5c65f2fb",
			"getNextAddress()": "8f2696af",
			"version()": "54fd4d50"
		}
	},
	"abi": [
		{
			"inputs": [
				{
					"internalType": "bytes",
					"name": "param",
					"type": "bytes"
				}
			],
			"name": "createDAO",
			"outputs": [
				{
					"internalType": "address",
					"name": "",
					"type": "address"
				}
			],
			"stateMutability": "nonpayable",
			"type": "function"
		},
		{
			"inputs": [],
			"name": "getNextAddress",
			"outputs": [
				{
					"internalType": "address",
					"name": "",
					"type": "address"
				}
			],
			"stateMutability": "view",
			"type": "function"
		},
		{
			"inputs": [],
			"name": "version",
			"outputs": [
				{
					"internalType": "string",
					"name": "",
					"type": "string"
				}
			],
			"stateMutability": "pure",
			"type": "function"
		}
	]
}