{
	"data": {
		"bytecode": {
			"linkReferences": {},
			"object": "608060405234801561001057600080fd5b50614aeb806100206000396000f3fe60806040523480156200001157600080fd5b5060043610620000465760003560e01c806354fd4d50146200004b5780635c65f2fb146200006d578063a08351df146200009d575b600080fd5b62000055620000b4565b60405162000064919062000493565b60405180910390f35b620000846200007e36600462000381565b620000eb565b6040516001600160a01b03909116815260200162000064565b62000084620000ae36600462000381565b62000185565b60408051808201909152601881527f4d6574614c69666544414f3a3130313a77697468436f696e0000000000000000602082015290565b60008060405180602001620001009062000373565b601f1982820381018352601f90910116604081905262000126919085906020016200043c565b6040516020818303038152906040529050600062000143620000b4565b43604051602001620001579291906200046f565b6040516020818303038152906040528051906020012090506200017d6000828462000267565b949350505050565b600080604051806020016200019a9062000373565b601f1982820381018352601f909101166040819052620001c0919085906020016200043c565b6040516020818303038152906040528051906020012090506000620001e4620000b4565b43604051602001620001f89291906200046f565b60408051601f1981840301815282825280516020918201206001600160f81b0319848301526bffffffffffffffffffffffff193060601b16602185015260358401819052605580850187905283518086039091018152607590940190925282519201919091209091506200017d565b60008084471015620002c05760405162461bcd60e51b815260206004820152601d60248201527f437265617465323a20696e73756666696369656e742062616c616e636500000060448201526064015b60405180910390fd5b8251620003105760405162461bcd60e51b815260206004820181905260248201527f437265617465323a2062797465636f6465206c656e677468206973207a65726f6044820152606401620002b7565b8383516020850187f590506001600160a01b0381166200017d5760405162461bcd60e51b815260206004820152601960248201527f437265617465323a204661696c6564206f6e206465706c6f79000000000000006044820152606401620002b7565b6145a4806200051283390190565b6000602082840312156200039457600080fd5b813567ffffffffffffffff80821115620003ad57600080fd5b818401915084601f830112620003c257600080fd5b813581811115620003d757620003d7620004fb565b604051601f8201601f19908116603f01168101908382118183101715620004025762000402620004fb565b816040528281528760208487010111156200041c57600080fd5b826020860160208301376000928101602001929092525095945050505050565b6000835162000450818460208801620004c8565b83519083019062000466818360208801620004c8565b01949350505050565b6000835162000483818460208801620004c8565b9190910191825250602001919050565b6020815260008251806020840152620004b4816040850160208701620004c8565b601f01601f19169190910160400192915050565b60005b83811015620004e5578181015183820152602001620004cb565b83811115620004f5576000848401525b50505050565b634e487b7160e01b600052604160045260246000fdfe6101406040523480156200001257600080fd5b50604051620045a4380380620045a4833981016040819052620000359162000b0e565b8686866040518060400160405280601881526020017f4d6574614c69666544414f3a3130313a77697468436f696e000000000000000081525087878585858583838386848e8f816003908051906020019062000093929190620008c0565b508051620000a9906004906020840190620008c0565b5050825160208085019190912083518483012060e08290526101008190524660a0818152604080517f8b73c3c69bb8fe3d512ecc4cf759cc79239f7b179b0ffacaa9a75d522b39400f81880181905281830187905260608201869052608082019490945230818401528151808203909301835260c0019052805194019390932091935091906080523060601b60c0526101205250508451620001559250600591506020860190620008c0565b5081516200016b906006906020850190620008c0565b50805162000181906007906020840190620008c0565b5050600880546001600160a01b0319163017905550506001600c555050506001600160401b03909216600e55600f55505083518551149250620001f69150505760405162461bcd60e51b81526020600482015260056024820152641a5b9c1d5d60da1b60448201526064015b60405180910390fd5b60005b825181101562000262576200024d8382815181106200021c576200021c62000d0a565b602002602001015183838151811062000239576200023962000d0a565b60200260200101516200027060201b60201c565b80620002598162000cd6565b915050620001f9565b505050505050505062000d36565b6001600160a01b038216620002c85760405162461bcd60e51b815260206004820152601f60248201527f45524332303a206d696e7420746f20746865207a65726f2061646472657373006044820152606401620001ed565b8060026000828254620002dc919062000c64565b90915550506001600160a01b038216600090815260208190526040812080548392906200030b90849062000c64565b90915550506040518181526001600160a01b038316906000907fddf252ad1be2c89b69c2b068fc378daa952ba7f163c4a11628f55a4df523b3ef9060200160405180910390a36200035f6000838362000368565b5050565b505050565b620003638383836001600160a01b038316620003bf57620003bc816200039a60136200041a60201b620017dc1760201c565b620003a6919062000c64565b60136200047d60201b620018381790919060201c565b50505b6001600160a01b038216620003f957620003f681620003ea60136200041a60201b620017dc1760201c565b620003a6919062000c7f565b50505b620003636200040884620005d9565b6200041384620005d9565b8362000623565b805460009080156200046a57826200043460018362000c7f565b8154811062000447576200044762000d0a565b60009182526020909120015464010000000090046001600160e01b03166200046d565b60005b6001600160e01b03169392505050565b815460009081908162000490866200041a565b9050600082118015620004d457504386620004ad60018562000c7f565b81548110620004c057620004c062000d0a565b60009182526020909120015463ffffffff16145b156200054857620004f085620007ea60201b6200195e1760201c565b86620004fe60018562000c7f565b8154811062000511576200051162000d0a565b9060005260206000200160000160046101000a8154816001600160e01b0302191690836001600160e01b03160217905550620005d0565b8560000160405180604001604052806200056d436200085960201b620019cb1760201c565b63ffffffff1681526020016200058e88620007ea60201b6200195e1760201c565b6001600160e01b0390811690915282546001810184556000938452602093849020835194909301519091166401000000000263ffffffff909316929092179101555b95939450505050565b6001600160a01b03818116600090815260116020526040812054909116620005ff575090565b506001600160a01b039081166000908152601160205260409020541690565b919050565b816001600160a01b0316836001600160a01b031614158015620006465750600081115b1562000363576001600160a01b038316156200071957600080620006d6836200069e60126000896001600160a01b03166001600160a01b031681526020019081526020016000206200041a60201b620017dc1760201c565b620006aa919062000c7f565b6001600160a01b03871660009081526012602090815260409091209190620018386200047d821b17901c565b91509150846001600160a01b03166000805160206200458483398151915283836040516200070e929190918252602082015260400190565b60405180910390a250505b6001600160a01b038216156200036357600080620007a3836200076b60126000886001600160a01b03166001600160a01b031681526020019081526020016000206200041a60201b620017dc1760201c565b62000777919062000c64565b6001600160a01b03861660009081526012602090815260409091209190620018386200047d821b17901c565b91509150836001600160a01b0316600080516020620045848339815191528383604051620007db929190918252602082015260400190565b60405180910390a25050505050565b60006001600160e01b03821115620008555760405162461bcd60e51b815260206004820152602760248201527f53616665436173743a2076616c756520646f65736e27742066697420696e20326044820152663234206269747360c81b6064820152608401620001ed565b5090565b600063ffffffff821115620008555760405162461bcd60e51b815260206004820152602660248201527f53616665436173743a2076616c756520646f65736e27742066697420696e203360448201526532206269747360d01b6064820152608401620001ed565b828054620008ce9062000c99565b90600052602060002090601f016020900481019282620008f257600085556200093d565b82601f106200090d57805160ff19168380011785556200093d565b828001600101855582156200093d579182015b828111156200093d57825182559160200191906001019062000920565b50620008559291505b8082111562000855576000815560010162000946565b600082601f8301126200096e57600080fd5b8151602062000987620009818362000c3e565b62000c0b565b80838252828201915082860187848660051b8901011115620009a857600080fd5b6000805b86811015620009df5782516001600160a01b0381168114620009cc578283fd5b85529385019391850191600101620009ac565b509198975050505050505050565b600082601f830112620009ff57600080fd5b8151602062000a12620009818362000c3e565b80838252828201915082860187848660051b890101111562000a3357600080fd5b60005b8581101562000a545781518452928401929084019060010162000a36565b5090979650505050505050565b600082601f83011262000a7357600080fd5b81516001600160401b0381111562000a8f5762000a8f62000d20565b602062000aa5601f8301601f1916820162000c0b565b828152858284870101111562000aba57600080fd5b60005b8381101562000ada57858101830151828201840152820162000abd565b8381111562000aec5760008385840101525b5095945050505050565b80516001600160401b03811681146200061e57600080fd5b600080600080600080600060e0888a03121562000b2a57600080fd5b87516001600160401b038082111562000b4257600080fd5b62000b508b838c0162000a61565b985060208a015191508082111562000b6757600080fd5b62000b758b838c0162000a61565b975060408a015191508082111562000b8c57600080fd5b62000b9a8b838c0162000a61565b965062000baa60608b0162000af6565b955060808a0151945060a08a015191508082111562000bc857600080fd5b62000bd68b838c016200095c565b935060c08a015191508082111562000bed57600080fd5b5062000bfc8a828b01620009ed565b91505092959891949750929550565b604051601f8201601f191681016001600160401b038111828210171562000c365762000c3662000d20565b604052919050565b60006001600160401b0382111562000c5a5762000c5a62000d20565b5060051b60200190565b6000821982111562000c7a5762000c7a62000cf4565b500190565b60008282101562000c945762000c9462000cf4565b500390565b600181811c9082168062000cae57607f821691505b6020821081141562000cd057634e487b7160e01b600052602260045260246000fd5b50919050565b600060001982141562000ced5762000ced62000cf4565b5060010190565b634e487b7160e01b600052601160045260246000fd5b634e487b7160e01b600052603260045260246000fd5b634e487b7160e01b600052604160045260246000fd5b60805160a05160c05160601c60e05161010051610120516137fb62000d8960003960006125460152600061259501526000612570015260006124c9015260006124f30152600061251d01526137fb6000f3fe60806040526004361061028c5760003560e01c806370a082311161015a578063c34c08e5116100c1578063eb9019d41161007a578063eb9019d414610831578063ece40cc114610851578063f8ce560a14610871578063fb4fa30914610891578063fc7159f9146108b1578063fe0d94c1146108d157600080fd5b8063c34c08e514610764578063c3cda52014610784578063c47f0027146107a4578063d26331d4146107c4578063dd62ed3e146107f1578063ea0217cf1461081157600080fd5b8063a457c2d711610113578063a457c2d7146106a7578063a9059cbb146106c7578063ae092e89146106e7578063afe926e81461071a578063b58131b01461072f578063c28bc2fa1461074457600080fd5b806370a08231146105dc5780637d5e81e2146106125780638e539e8c14610632578063937f6e771461065257806395d89b41146106725780639ab24eb01461068757600080fd5b80633bccf4fd116101fe578063544ffc9c116101b7578063544ffc9c146104c957806354fd4d501461051e578063567813881461054f578063587cde1e1461056f5780635c19a95c146105a75780637034731b146105c757600080fd5b80633bccf4fd146103ff57806340c10f191461041f578063438596321461043f57806348976936146104895780634a91da481461049e5780634c79e31d146104b457600080fd5b806318160ddd1161025057806318160ddd1461035a5780631c3c0ea81461036f57806323b872dd1461038f578063313ce567146103af5780633932abb1146103cb57806339509351146103df57600080fd5b806302a251a3146102af57806302fe5305146102d357806306fdde03146102f3578063095ea7b3146103155780631703a0181461034557600080fd5b366102aa576008546001600160a01b031630146102a857600080fd5b005b600080fd5b3480156102bb57600080fd5b50600e545b6040519081526020015b60405180910390f35b3480156102df57600080fd5b506102a86102ee3660046132a6565b6108e4565b3480156102ff57600080fd5b5061030861092e565b6040516102ca919061352e565b34801561032157600080fd5b50610335610330366004613053565b6109c0565b60405190151581526020016102ca565b34801561035157600080fd5b506102c06109d8565b34801561036657600080fd5b506002546102c0565b34801561037b57600080fd5b506102a861038a366004612fc9565b610a02565b34801561039b57600080fd5b506103356103aa366004613017565b610a4e565b3480156103bb57600080fd5b50604051601281526020016102ca565b3480156103d757600080fd5b5060006102c0565b3480156103eb57600080fd5b506103356103fa366004613053565b610a74565b34801561040b57600080fd5b506102c061041a366004613339565b610a96565b34801561042b57600080fd5b506102a861043a366004613053565b610b1b565b34801561044b57600080fd5b5061033561045a3660046132f3565b60008281526010602090815260408083206001600160a01b038516845260030190915290205460ff1692915050565b34801561049557600080fd5b50610308610b4f565b3480156104aa57600080fd5b506102c0600a5481565b3480156104c057600080fd5b50600f546102c0565b3480156104d557600080fd5b506105036104e43660046132da565b6000908152601060205260409020805460018201546002909201549092565b604080519384526020840192909252908201526060016102ca565b34801561052a57600080fd5b50604080518082019091526008815267105094d5149050d560c21b6020820152610308565b34801561055b57600080fd5b506102c061056a366004613316565b610bdd565b34801561057b57600080fd5b5061058f61058a366004612fc9565b610bf3565b6040516001600160a01b0390911681526020016102ca565b3480156105b357600080fd5b506102a86105c2366004612fc9565b610c3c565b3480156105d357600080fd5b50610308610c47565b3480156105e857600080fd5b506102c06105f7366004612fc9565b6001600160a01b031660009081526020819052604090205490565b34801561061e57600080fd5b506102c061062d366004613197565b610c54565b34801561063e57600080fd5b506102c061064d3660046132da565b610f6c565b34801561065e57600080fd5b506102a861066d3660046132a6565b610fcd565b34801561067e57600080fd5b5061030861100a565b34801561069357600080fd5b506102c06106a2366004612fc9565b611019565b3480156106b357600080fd5b506103356106c2366004613053565b61103a565b3480156106d357600080fd5b506103356106e2366004613053565b6110c0565b3480156106f357600080fd5b506107076107023660046132da565b6110ce565b6040516102ca979695949392919061345f565b34801561072657600080fd5b5061030861140b565b34801561073b57600080fd5b50600c546102c0565b34801561075057600080fd5b506102a861075f36600461307d565b611418565b34801561077057600080fd5b5060085461058f906001600160a01b031681565b34801561079057600080fd5b506102a861079f366004613103565b61148b565b3480156107b057600080fd5b506102a86107bf3660046132a6565b61153e565b3480156107d057600080fd5b506107e46107df3660046132da565b61157b565b6040516102ca9190613506565b3480156107fd57600080fd5b506102c061080c366004612fe4565b611586565b34801561081d57600080fd5b506102a861082c3660046132da565b6115b1565b34801561083d57600080fd5b506102c061084c366004613053565b6115e0565b34801561085d57600080fd5b506102a861086c3660046132da565b6115ec565b34801561087d57600080fd5b506102c061088c3660046132da565b61161b565b34801561089d57600080fd5b506102a86108ac3660046132da565b611646565b3480156108bd57600080fd5b506102c06108cc36600461315b565b611675565b6102c06108df3660046132da565b6116cd565b6008546001600160a01b031633146109175760405162461bcd60e51b815260040161090e90613541565b60405180910390fd5b805161092a906006906020840190612d91565b5050565b60606003805461093d906136ee565b80601f0160208091040260200160405190810160405280929190818152602001828054610969906136ee565b80156109b65780601f1061098b576101008083540402835291602001916109b6565b820191906000526020600020905b81548152906001019060200180831161099957829003601f168201915b5050505050905090565b6000336109ce818585611a30565b5060019392505050565b60006127106109e6600f5490565b6002546109f3919061368c565b6109fd919061366a565b905090565b6008546001600160a01b03163314610a2c5760405162461bcd60e51b815260040161090e90613541565b600880546001600160a01b0319166001600160a01b0392909216919091179055565b600033610a5c858285611b54565b610a67858585611bce565b60019150505b9392505050565b6000336109ce818585610a878383611586565b610a919190613627565b611a30565b604080517f150214d74d59b7d1e90c73fc22ef3d991dd0a76b046543d4d80ab92d2a50328f602082015290810186905260ff851660608201526000908190610b0390610afb906080015b60405160208183030381529060405280519060200120611da2565b868686611df0565b9050610b10878288611e18565b979650505050505050565b6008546001600160a01b03163314610b455760405162461bcd60e51b815260040161090e90613541565b61092a8282611f0a565b60058054610b5c906136ee565b80601f0160208091040260200160405190810160405280929190818152602001828054610b88906136ee565b8015610bd55780601f10610baa57610100808354040283529160200191610bd5565b820191906000526020600020905b815481529060010190602001808311610bb857829003601f168201915b505050505081565b600033610beb848285611e18565b949350505050565b6001600160a01b03818116600090815260116020526040812054909116610c18575090565b506001600160a01b039081166000908152601160205260409020541690565b919050565b3361092a8183611ff1565b60068054610b5c906136ee565b6000610c5f600c5490565b610c6e3361084c6001436136ab565b1015610cae5760405162461bcd60e51b815260206004820152600f60248201526e10995b1bddc81d1a1c995cda1bdb19608a1b604482015260640161090e565b600a8054906001906000610cc28385613627565b90915550508451865114610ce85760405162461bcd60e51b815260040161090e90613569565b8351865114610d095760405162461bcd60e51b815260040161090e90613569565b6000865111610d2a5760405162461bcd60e51b815260040161090e90613569565b600081815260096020908152604091829020825191820190925260038201546001600160401b03169081905215610d735760405162461bcd60e51b815260040161090e90613569565b6000610d8381612087565b612087565b610d8c43612087565b610d96919061363f565b90506000610da6610d7e600e5490565b610db0908361363f565b8651909150610dc59084906020890190612d91565b50610dd08951612087565b60028401805467ffffffffffffffff19166001600160401b039290921691909117905560005b8951811015610ee357898181518110610e1157610e11613770565b602002602001015184600101600083815260200190815260200160002060000160006101000a8154816001600160a01b0302191690836001600160a01b03160217905550888181518110610e6757610e67613770565b602002602001015184600101600083815260200190815260200160002060010181905550878181518110610e9d57610e9d613770565b60200260200101518460010160008381526020019081526020016000206002019080519060200190610ed0929190612d91565b5080610edb81613729565b915050610df6565b5060038301805467ffffffffffffffff19166001600160401b03841617905560048301805467ffffffffffffffff19166001600160401b0383161790557fa00fcf4f5e03cc2f4818b8f380a8f2a06479e49bf0765e5fec09aebdaf922bbc843384848a604051610f57959493929190613593565b60405180910390a15091979650505050505050565b600043821115610fb05760405162461bcd60e51b815260206004820152600f60248201526e109b1bd8dac81b9bdd081b5a5b9959608a1b604482015260640161090e565b43821415610fc2576002545b92915050565b610fbc6013836120f2565b6008546001600160a01b03163314610ff75760405162461bcd60e51b815260040161090e90613541565b805161092a906007906020840190612d91565b60606004805461093d906136ee565b6001600160a01b0381166000908152601260205260408120610fbc906117dc565b600033816110488286611586565b9050838110156110a85760405162461bcd60e51b815260206004820152602560248201527f45524332303a2064656372656173656420616c6c6f77616e63652062656c6f77604482015264207a65726f60d81b606482015260840161090e565b6110b58286868403611a30565b506001949350505050565b6000336109ce818585611bce565b600081815260096020526040812060028101546060928392839283929182918291906001600160401b039081169081111561110b5761110b613786565b604051908082528060200260200182016040528015611134578160200160208202803683370190505b5060028201549098506001600160401b039081169081111561115857611158613786565b604051908082528060200260200182016040528015611181578160200160208202803683370190505b5060028201549097506001600160401b03908116908111156111a5576111a5613786565b6040519080825280602002602001820160405280156111d857816020015b60608152602001906001900390816111c35790505b50955060005b60028201546001600160401b031681101561133f57600081815260018301602052604090205489516001600160a01b03909116908a908390811061122457611224613770565b6001600160a01b0390921660209283029190910182015260008281526001808501909252604090200154885189908390811061126257611262613770565b6020026020010181815250508160010160008281526020019081526020016000206002018054611291906136ee565b80601f01602080910402602001604051908101604052809291908181526020018280546112bd906136ee565b801561130a5780601f106112df5761010080835404028352916020019161130a565b820191906000526020600020905b8154815290600101906020018083116112ed57829003601f168201915b505050505087828151811061132157611321613770565b6020026020010181905250808061133790613729565b9150506111de565b508054819061134d906136ee565b80601f0160208091040260200160405190810160405280929190818152602001828054611379906136ee565b80156113c65780601f1061139b576101008083540402835291602001916113c6565b820191906000526020600020905b8154815290600101906020018083116113a957829003601f168201915b505050505094506113d689612201565b60078111156113e7576113e761375a565b93506113f2896122fb565b92506113fd89612335565b915050919395979092949650565b60078054610b5c906136ee565b6008546001600160a01b031633146114425760405162461bcd60e51b815260040161090e90613541565b6114848483838080601f016020809104026020016040519081016040528093929190818152602001838380828437600092019190915250889250612364915050565b5050505050565b834211156114c55760405162461bcd60e51b8152602060048201526007602482015266115e1c1a5c995960ca1b604482015260640161090e565b604080517fe48329057bfd03d55e49b547132e39cffd9c1820ad7b9d4c5307691425d15adf60208201526001600160a01b038816918101919091526060810186905260808101859052600090611529906115219060a001610ae0565b858585611df0565b90506115358188611ff1565b50505050505050565b6008546001600160a01b031633146115685760405162461bcd60e51b815260040161090e90613541565b805161092a906005906020840190612d91565b6000610fbc82612201565b6001600160a01b03918216600090815260016020908152604080832093909416825291909152205490565b6008546001600160a01b031633146115db5760405162461bcd60e51b815260040161090e90613541565b600e55565b6000610a6d838361238a565b6008546001600160a01b031633146116165760405162461bcd60e51b815260040161090e90613541565b600c55565b6000612710611629600f5490565b61163284610f6c565b61163c919061368c565b610fbc919061366a565b6008546001600160a01b031633146116705760405162461bcd60e51b815260040161090e90613541565b600f55565b60003361168185610bf3565b6001600160a01b0316146116c25760405162461bcd60e51b815260206004820152600860248201526714995a9958dd195960c21b604482015260640161090e565b610beb838584611e18565b6000806000806116dc856110ce565b5050505092509250925060006116f186612201565b905060048160078111156117075761170761375a565b1480611724575060058160078111156117225761172261375a565b145b6117705760405162461bcd60e51b815260206004820152601760248201527f50726f706f73616c206e6f74207375636365737366756c000000000000000000604482015260640161090e565b60008681526009602052604090819020600501805460ff19166001179055517f712ae1383f79ac853f8d882153778e0260ef8f03b504e2866e0593e04d2b291f906117be9088815260200190565b60405180910390a16117d2868585856123ac565b5093949350505050565b8054600090801561182557826117f36001836136ab565b8154811061180357611803613770565b60009182526020909120015464010000000090046001600160e01b0316611828565b60005b6001600160e01b03169392505050565b8154600090819081611849866117dc565b9050600082118015611887575043866118636001856136ab565b8154811061187357611873613770565b60009182526020909120015463ffffffff16145b156118e7576118958561195e565b866118a16001856136ab565b815481106118b1576118b1613770565b9060005260206000200160000160046101000a8154816001600160e01b0302191690836001600160e01b03160217905550611955565b8560000160405180604001604052806118ff436119cb565b63ffffffff1681526020016119138861195e565b6001600160e01b0390811690915282546001810184556000938452602093849020835194909301519091166401000000000263ffffffff909316929092179101555b95939450505050565b60006001600160e01b038211156119c75760405162461bcd60e51b815260206004820152602760248201527f53616665436173743a2076616c756520646f65736e27742066697420696e20326044820152663234206269747360c81b606482015260840161090e565b5090565b600063ffffffff8211156119c75760405162461bcd60e51b815260206004820152602660248201527f53616665436173743a2076616c756520646f65736e27742066697420696e203360448201526532206269747360d01b606482015260840161090e565b6001600160a01b038316611a925760405162461bcd60e51b8152602060048201526024808201527f45524332303a20617070726f76652066726f6d20746865207a65726f206164646044820152637265737360e01b606482015260840161090e565b6001600160a01b038216611af35760405162461bcd60e51b815260206004820152602260248201527f45524332303a20617070726f766520746f20746865207a65726f206164647265604482015261737360f01b606482015260840161090e565b6001600160a01b0383811660008181526001602090815260408083209487168084529482529182902085905590518481527f8c5be1e5ebec7d5bd14f71427d1e84f3dd0314c0f7b2291e5b200ac8c7c3b925910160405180910390a3505050565b6000611b608484611586565b90506000198114611bc85781811015611bbb5760405162461bcd60e51b815260206004820152601d60248201527f45524332303a20696e73756666696369656e7420616c6c6f77616e6365000000604482015260640161090e565b611bc88484848403611a30565b50505050565b6001600160a01b038316611c325760405162461bcd60e51b815260206004820152602560248201527f45524332303a207472616e736665722066726f6d20746865207a65726f206164604482015264647265737360d81b606482015260840161090e565b6001600160a01b038216611c945760405162461bcd60e51b815260206004820152602360248201527f45524332303a207472616e7366657220746f20746865207a65726f206164647260448201526265737360e81b606482015260840161090e565b6001600160a01b03831660009081526020819052604090205481811015611d0c5760405162461bcd60e51b815260206004820152602660248201527f45524332303a207472616e7366657220616d6f756e7420657863656564732062604482015265616c616e636560d01b606482015260840161090e565b6001600160a01b03808516600090815260208190526040808220858503905591851681529081208054849290611d43908490613627565b92505081905550826001600160a01b0316846001600160a01b03167fddf252ad1be2c89b69c2b068fc378daa952ba7f163c4a11628f55a4df523b3ef84604051611d8f91815260200190565b60405180910390a3611bc88484846124b1565b6000610fbc611daf6124bc565b8360405161190160f01b6020820152602281018390526042810182905260009060620160405160208183030381529060405280519060200120905092915050565b6000806000611e01878787876125e3565b91509150611e0e816126d0565b5095945050505050565b60008381526009602052604081206001611e3186612201565b6007811115611e4257611e4261375a565b14611e7a5760405162461bcd60e51b8152602060048201526008602482015267496e61637469766560c01b604482015260640161090e565b604080516020810190915260038201546001600160401b031690819052600090611ea59086906115e0565b9050611eb38686868461288b565b6040805187815260ff861660208201529081018290526001600160a01b038616907f2c9deb38f462962eadbd85a9d3a4120503ee091f1582eaaa10aa8c6797651d299060600160405180910390a295945050505050565b6001600160a01b038216611f605760405162461bcd60e51b815260206004820152601f60248201527f45524332303a206d696e7420746f20746865207a65726f206164647265737300604482015260640161090e565b8060026000828254611f729190613627565b90915550506001600160a01b03821660009081526020819052604081208054839290611f9f908490613627565b90915550506040518181526001600160a01b038316906000907fddf252ad1be2c89b69c2b068fc378daa952ba7f163c4a11628f55a4df523b3ef9060200160405180910390a361092a600083836124b1565b6000611ffc83610bf3565b6001600160a01b0384811660008181526011602052604080822080546001600160a01b031916888616908117909155905194955093928516927f3134e8a2e6d97e929a7e54011ea5485d7d196dd5f0ba4d4ef95803e8e3fc257f9190a4612082818361207d866001600160a01b031660009081526020819052604090205490565b612941565b505050565b60006001600160401b038211156119c75760405162461bcd60e51b815260206004820152602660248201527f53616665436173743a2076616c756520646f65736e27742066697420696e203660448201526534206269747360d01b606482015260840161090e565b50565b60004382106121435760405162461bcd60e51b815260206004820181905260248201527f436865636b706f696e74733a20626c6f636b206e6f7420796574206d696e6564604482015260640161090e565b825460005b818110156121a857600061215c8284612ad2565b90508486600001828154811061217457612174613770565b60009182526020909120015463ffffffff161115612194578092506121a2565b61219f816001613627565b91505b50612148565b81156121ec57846121ba6001846136ab565b815481106121ca576121ca613770565b60009182526020909120015464010000000090046001600160e01b03166121ef565b60005b6001600160e01b031695945050505050565b6000818152600960205260408120600581015460ff16156122255750600792915050565b6005810154610100900460ff16156122405750600292915050565b600061224b846122fb565b9050806122875760405162461bcd60e51b815260206004820152600a6024820152691d5b9adb9bdddb881a5960b21b604482015260640161090e565b43811115612299575060009392505050565b60006122a485612335565b90506122af85612aed565b80156122ce575060008581526010602052604090208054600190910154115b156122de57506004949350505050565b4381106122f057506001949350505050565b506003949350505050565b60008181526009602090815260408083208151928301909152600301546001600160401b0316908190525b6001600160401b031692915050565b60008181526009602090815260408083208151928301909152600401546001600160401b031690819052612326565b6060610beb84848460405180606001604052806029815260200161379d60299139612b30565b6001600160a01b0382166000908152601260205260408120610a6d90836120f2565b60408051808201909152600d81526c10d85b1b081c995d995c9d1959609a1b602082015260005b84518110156124a9576000808683815181106123f1576123f1613770565b60200260200101516001600160a01b031686848151811061241457612414613770565b602002602001015186858151811061242e5761242e613770565b60200260200101516040516124439190613443565b60006040518083038185875af1925050503d8060008114612480576040519150601f19603f3d011682016040523d82523d6000602084013e612485565b606091505b5091509150612495828286612c52565b505050806124a290613729565b90506123d3565b505050505050565b612082838383612c8b565b6000306001600160a01b037f00000000000000000000000000000000000000000000000000000000000000001614801561251557507f000000000000000000000000000000000000000000000000000000000000000046145b1561253f57507f000000000000000000000000000000000000000000000000000000000000000090565b50604080517f00000000000000000000000000000000000000000000000000000000000000006020808301919091527f0000000000000000000000000000000000000000000000000000000000000000828401527f000000000000000000000000000000000000000000000000000000000000000060608301524660808301523060a0808401919091528351808403909101815260c0909201909252805191012090565b6000807f7fffffffffffffffffffffffffffffff5d576e7357a4501ddfe92f46681b20a083111561261a57506000905060036126c7565b8460ff16601b1415801561263257508460ff16601c14155b1561264357506000905060046126c7565b6040805160008082526020820180845289905260ff881692820192909252606081018690526080810185905260019060a0016020604051602081039080840390855afa158015612697573d6000803e3d6000fd5b5050604051601f1901519150506001600160a01b0381166126c0576000600192509250506126c7565b9150600090505b94509492505050565b60008160048111156126e4576126e461375a565b14156126ed5750565b60018160048111156127015761270161375a565b141561274f5760405162461bcd60e51b815260206004820152601860248201527f45434453413a20696e76616c6964207369676e61747572650000000000000000604482015260640161090e565b60028160048111156127635761276361375a565b14156127b15760405162461bcd60e51b815260206004820152601f60248201527f45434453413a20696e76616c6964207369676e6174757265206c656e67746800604482015260640161090e565b60038160048111156127c5576127c561375a565b141561281e5760405162461bcd60e51b815260206004820152602260248201527f45434453413a20696e76616c6964207369676e6174757265202773272076616c604482015261756560f01b606482015260840161090e565b60048160048111156128325761283261375a565b14156120ef5760405162461bcd60e51b815260206004820152602260248201527f45434453413a20696e76616c6964207369676e6174757265202776272076616c604482015261756560f01b606482015260840161090e565b60008481526010602052604090206128a38585612d00565b60ff83166128ca57818160000160008282546128bf9190613627565b909155506114849050565b60ff8316600114156128ea57818160010160008282546128bf9190613627565b60ff83166002141561290a57818160020160008282546128bf9190613627565b60405162461bcd60e51b815260206004820152600c60248201526b496e76616c696420766f746560a01b604482015260640161090e565b816001600160a01b0316836001600160a01b0316141580156129635750600081115b15612082576001600160a01b03831615612a1b576001600160a01b038316600090815260126020526040812081906129c89084906129a0906117dc565b6129aa91906136ab565b6001600160a01b038716600090815260126020526040902090611838565b91509150846001600160a01b03167fdec2bacdd2f05b59de34da9b523dff8be42e5e38e818c82fdb0bae774387a7248383604051612a10929190918252602082015260400190565b60405180910390a250505b6001600160a01b03821615612082576001600160a01b03821660009081526012602052604081208190612a7b908490612a53906117dc565b612a5d9190613627565b6001600160a01b038616600090815260126020526040902090611838565b91509150836001600160a01b03167fdec2bacdd2f05b59de34da9b523dff8be42e5e38e818c82fdb0bae774387a7248383604051612ac3929190918252602082015260400190565b60405180910390a25050505050565b6000612ae1600284841861366a565b610a6d90848416613627565b6000818152601060205260408120600281015460018201548254612b119190613627565b612b1b9190613627565b612b2761088c856122fb565b11159392505050565b606082471015612b915760405162461bcd60e51b815260206004820152602660248201527f416464726573733a20696e73756666696369656e742062616c616e636520666f6044820152651c8818d85b1b60d21b606482015260840161090e565b6001600160a01b0385163b612be85760405162461bcd60e51b815260206004820152601d60248201527f416464726573733a2063616c6c20746f206e6f6e2d636f6e7472616374000000604482015260640161090e565b600080866001600160a01b03168587604051612c049190613443565b60006040518083038185875af1925050503d8060008114612c41576040519150601f19603f3d011682016040523d82523d6000602084013e612c46565b606091505b5091509150610b108282865b60608315612c61575081610a6d565b825115612c715782518084602001fd5b8160405162461bcd60e51b815260040161090e919061352e565b6001600160a01b038316612cbc57612cb981612ca760136117dc565b612cb19190613627565b601390611838565b50505b6001600160a01b038216612ce557612ce281612cd860136117dc565b612cb191906136ab565b50505b612082612cf184610bf3565b612cfa84610bf3565b83612941565b60008281526010602090815260408083206001600160a01b0385168452600381019092529091205460ff1615612d675760405162461bcd60e51b815260206004820152600c60248201526b105b1c9958591e4818d85cdd60a21b604482015260640161090e565b6001600160a01b039091166000908152600390910160205260409020805460ff1916600117905550565b828054612d9d906136ee565b90600052602060002090601f016020900481019282612dbf5760008555612e05565b82601f10612dd857805160ff1916838001178555612e05565b82800160010185558215612e05579182015b82811115612e05578251825591602001919060010190612dea565b506119c79291505b808211156119c75760008155600101612e0d565b60006001600160401b03831115612e3a57612e3a613786565b612e4d601f8401601f19166020016135d4565b9050828152838383011115612e6157600080fd5b828260208301376000602084830101529392505050565b80356001600160a01b0381168114610c3757600080fd5b600082601f830112612ea057600080fd5b81356020612eb5612eb083613604565b6135d4565b80838252828201915082860187848660051b8901011115612ed557600080fd5b60005b85811015612f2b5781356001600160401b03811115612ef657600080fd5b8801603f81018a13612f0757600080fd5b612f188a8783013560408401612e21565b8552509284019290840190600101612ed8565b5090979650505050505050565b600082601f830112612f4957600080fd5b81356020612f59612eb083613604565b80838252828201915082860187848660051b8901011115612f7957600080fd5b60005b85811015612f2b57813584529284019290840190600101612f7c565b600082601f830112612fa957600080fd5b610a6d83833560208501612e21565b803560ff81168114610c3757600080fd5b600060208284031215612fdb57600080fd5b610a6d82612e78565b60008060408385031215612ff757600080fd5b61300083612e78565b915061300e60208401612e78565b90509250929050565b60008060006060848603121561302c57600080fd5b61303584612e78565b925061304360208501612e78565b9150604084013590509250925092565b6000806040838503121561306657600080fd5b61306f83612e78565b946020939093013593505050565b6000806000806060858703121561309357600080fd5b61309c85612e78565b93506020850135925060408501356001600160401b03808211156130bf57600080fd5b818701915087601f8301126130d357600080fd5b8135818111156130e257600080fd5b8860208285010111156130f457600080fd5b95989497505060200194505050565b60008060008060008060c0878903121561311c57600080fd5b61312587612e78565b9550602087013594506040870135935061314160608801612fb8565b92506080870135915060a087013590509295509295509295565b60008060006060848603121561317057600080fd5b61317984612e78565b92506020840135915061318e60408501612fb8565b90509250925092565b600080600080608085870312156131ad57600080fd5b84356001600160401b03808211156131c457600080fd5b818701915087601f8301126131d857600080fd5b813560206131e8612eb083613604565b8083825282820191508286018c848660051b890101111561320857600080fd5b600096505b848710156132325761321e81612e78565b83526001969096019591830191830161320d565b509850508801359250508082111561324957600080fd5b61325588838901612f38565b9450604087013591508082111561326b57600080fd5b61327788838901612e8f565b9350606087013591508082111561328d57600080fd5b5061329a87828801612f98565b91505092959194509250565b6000602082840312156132b857600080fd5b81356001600160401b038111156132ce57600080fd5b610beb84828501612f98565b6000602082840312156132ec57600080fd5b5035919050565b6000806040838503121561330657600080fd5b8235915061300e60208401612e78565b6000806040838503121561332957600080fd5b8235915061300e60208401612fb8565b600080600080600060a0868803121561335157600080fd5b8535945061336160208701612fb8565b935061336f60408701612fb8565b94979396509394606081013594506080013592915050565b600081518084526020808501808196508360051b8101915082860160005b858110156133cf5782840389526133bd848351613417565b988501989350908401906001016133a5565b5091979650505050505050565b600081518084526020808501945080840160005b8381101561340c578151875295820195908201906001016133f0565b509495945050505050565b6000815180845261342f8160208601602086016136c2565b601f01601f19169290920160200192915050565b600082516134558184602087016136c2565b9190910192915050565b60e08082528851908201819052600090602090610100840190828c01845b828110156134a25781516001600160a01b03168452928401929084019060010161347d565b505050838103828501526134b6818b6133dc565b91505082810360408401526134cb8189613387565b905082810360608401526134df8188613417565b9150506134f1608083018660ff169052565b60a082019390935260c0015295945050505050565b602081016008831061352857634e487b7160e01b600052602160045260246000fd5b91905290565b602081526000610a6d6020830184613417565b6020808252600e908201526d6f6e6c79476f7665726e616e636560901b604082015260600190565b60208082526010908201526f125b9d985b1a59081c1c9bdc1bdcd85b60821b604082015260600190565b8581526001600160a01b03851660208201526001600160401b0384811660408301528316606082015260a060808201819052600090610b1090830184613417565b604051601f8201601f191681016001600160401b03811182821017156135fc576135fc613786565b604052919050565b60006001600160401b0382111561361d5761361d613786565b5060051b60200190565b6000821982111561363a5761363a613744565b500190565b60006001600160401b0380831681851680830382111561366157613661613744565b01949350505050565b60008261368757634e487b7160e01b600052601260045260246000fd5b500490565b60008160001904831182151516156136a6576136a6613744565b500290565b6000828210156136bd576136bd613744565b500390565b60005b838110156136dd5781810151838201526020016136c5565b83811115611bc85750506000910152565b600181811c9082168061370257607f821691505b6020821081141561372357634e487b7160e01b600052602260045260246000fd5b50919050565b600060001982141561373d5761373d613744565b5060010190565b634e487b7160e01b600052601160045260246000fd5b634e487b7160e01b600052602160045260246000fd5b634e487b7160e01b600052603260045260246000fd5b634e487b7160e01b600052604160045260246000fdfe416464726573733a206c6f772d6c6576656c2063616c6c20776974682076616c7565206661696c6564a264697066735822122090ee60098ed442e08654170f18c6297aaa41628734c8750560234c1f84cd4c5364736f6c63430008070033dec2bacdd2f05b59de34da9b523dff8be42e5e38e818c82fdb0bae774387a724a26469706673582212206935e30e863f6255e58e3a516cf9bdad0736c89059b122b1d8cf3c153d50905064736f6c63430008070033",
			"opcodes": "PUSH1 0x80 PUSH1 0x40 MSTORE CALLVALUE DUP1 ISZERO PUSH2 0x10 JUMPI PUSH1 0x0 DUP1 REVERT JUMPDEST POP PUSH2 0x4AEB DUP1 PUSH2 0x20 PUSH1 0x0 CODECOPY PUSH1 0x0 RETURN INVALID PUSH1 0x80 PUSH1 0x40 MSTORE CALLVALUE DUP1 ISZERO PUSH3 0x11 JUMPI PUSH1 0x0 DUP1 REVERT JUMPDEST POP PUSH1 0x4 CALLDATASIZE LT PUSH3 0x46 JUMPI PUSH1 0x0 CALLDATALOAD PUSH1 0xE0 SHR DUP1 PUSH4 0x54FD4D50 EQ PUSH3 0x4B JUMPI DUP1 PUSH4 0x5C65F2FB EQ PUSH3 0x6D JUMPI DUP1 PUSH4 0xA08351DF EQ PUSH3 0x9D JUMPI JUMPDEST PUSH1 0x0 DUP1 REVERT JUMPDEST PUSH3 0x55 PUSH3 0xB4 JUMP JUMPDEST PUSH1 0x40 MLOAD PUSH3 0x64 SWAP2 SWAP1 PUSH3 0x493 JUMP JUMPDEST PUSH1 0x40 MLOAD DUP1 SWAP2 SUB SWAP1 RETURN JUMPDEST PUSH3 0x84 PUSH3 0x7E CALLDATASIZE PUSH1 0x4 PUSH3 0x381 JUMP JUMPDEST PUSH3 0xEB JUMP JUMPDEST PUSH1 0x40 MLOAD PUSH1 0x1 PUSH1 0x1 PUSH1 0xA0 SHL SUB SWAP1 SWAP2 AND DUP2 MSTORE PUSH1 0x20 ADD PUSH3 0x64 JUMP JUMPDEST PUSH3 0x84 PUSH3 0xAE CALLDATASIZE PUSH1 0x4 PUSH3 0x381 JUMP JUMPDEST PUSH3 0x185 JUMP JUMPDEST PUSH1 0x40 DUP1 MLOAD DUP1 DUP3 ADD SWAP1 SWAP2 MSTORE PUSH1 0x18 DUP2 MSTORE PUSH32 0x4D6574614C69666544414F3A3130313A77697468436F696E0000000000000000 PUSH1 0x20 DUP3 ADD MSTORE SWAP1 JUMP JUMPDEST PUSH1 0x0 DUP1 PUSH1 0x40 MLOAD DUP1 PUSH1 0x20 ADD PUSH3 0x100 SWAP1 PUSH3 0x373 JUMP JUMPDEST PUSH1 0x1F NOT DUP3 DUP3 SUB DUP2 ADD DUP4 MSTORE PUSH1 0x1F SWAP1 SWAP2 ADD AND PUSH1 0x40 DUP2 SWAP1 MSTORE PUSH3 0x126 SWAP2 SWAP1 DUP6 SWAP1 PUSH1 0x20 ADD PUSH3 0x43C JUMP JUMPDEST PUSH1 0x40 MLOAD PUSH1 0x20 DUP2 DUP4 SUB SUB DUP2 MSTORE SWAP1 PUSH1 0x40 MSTORE SWAP1 POP PUSH1 0x0 PUSH3 0x143 PUSH3 0xB4 JUMP JUMPDEST NUMBER PUSH1 0x40 MLOAD PUSH1 0x20 ADD PUSH3 0x157 SWAP3 SWAP2 SWAP1 PUSH3 0x46F JUMP JUMPDEST PUSH1 0x40 MLOAD PUSH1 0x20 DUP2 DUP4 SUB SUB DUP2 MSTORE SWAP1 PUSH1 0x40 MSTORE DUP1 MLOAD SWAP1 PUSH1 0x20 ADD KECCAK256 SWAP1 POP PUSH3 0x17D PUSH1 0x0 DUP3 DUP5 PUSH3 0x267 JUMP JUMPDEST SWAP5 SWAP4 POP POP POP POP JUMP JUMPDEST PUSH1 0x0 DUP1 PUSH1 0x40 MLOAD DUP1 PUSH1 0x20 ADD PUSH3 0x19A SWAP1 PUSH3 0x373 JUMP JUMPDEST PUSH1 0x1F NOT DUP3 DUP3 SUB DUP2 ADD DUP4 MSTORE PUSH1 0x1F SWAP1 SWAP2 ADD AND PUSH1 0x40 DUP2 SWAP1 MSTORE PUSH3 0x1C0 SWAP2 SWAP1 DUP6 SWAP1 PUSH1 0x20 ADD PUSH3 0x43C JUMP JUMPDEST PUSH1 0x40 MLOAD PUSH1 0x20 DUP2 DUP4 SUB SUB DUP2 MSTORE SWAP1 PUSH1 0x40 MSTORE DUP1 MLOAD SWAP1 PUSH1 0x20 ADD KECCAK256 SWAP1 POP PUSH1 0x0 PUSH3 0x1E4 PUSH3 0xB4 JUMP JUMPDEST NUMBER PUSH1 0x40 MLOAD PUSH1 0x20 ADD PUSH3 0x1F8 SWAP3 SWAP2 SWAP1 PUSH3 0x46F JUMP JUMPDEST PUSH1 0x40 DUP1 MLOAD PUSH1 0x1F NOT DUP2 DUP5 SUB ADD DUP2 MSTORE DUP3 DUP3 MSTORE DUP1 MLOAD PUSH1 0x20 SWAP2 DUP3 ADD KECCAK256 PUSH1 0x1 PUSH1 0x1 PUSH1 0xF8 SHL SUB NOT DUP5 DUP4 ADD MSTORE PUSH12 0xFFFFFFFFFFFFFFFFFFFFFFFF NOT ADDRESS PUSH1 0x60 SHL AND PUSH1 0x21 DUP6 ADD MSTORE PUSH1 0x35 DUP5 ADD DUP2 SWAP1 MSTORE PUSH1 0x55 DUP1 DUP6 ADD DUP8 SWAP1 MSTORE DUP4 MLOAD DUP1 DUP7 SUB SWAP1 SWAP2 ADD DUP2 MSTORE PUSH1 0x75 SWAP1 SWAP5 ADD SWAP1 SWAP3 MSTORE DUP3 MLOAD SWAP3 ADD SWAP2 SWAP1 SWAP2 KECCAK256 SWAP1 SWAP2 POP PUSH3 0x17D JUMP JUMPDEST PUSH1 0x0 DUP1 DUP5 SELFBALANCE LT ISZERO PUSH3 0x2C0 JUMPI PUSH1 0x40 MLOAD PUSH3 0x461BCD PUSH1 0xE5 SHL DUP2 MSTORE PUSH1 0x20 PUSH1 0x4 DUP3 ADD MSTORE PUSH1 0x1D PUSH1 0x24 DUP3 ADD MSTORE PUSH32 0x437265617465323A20696E73756666696369656E742062616C616E6365000000 PUSH1 0x44 DUP3 ADD MSTORE PUSH1 0x64 ADD JUMPDEST PUSH1 0x40 MLOAD DUP1 SWAP2 SUB SWAP1 REVERT JUMPDEST DUP3 MLOAD PUSH3 0x310 JUMPI PUSH1 0x40 MLOAD PUSH3 0x461BCD PUSH1 0xE5 SHL DUP2 MSTORE PUSH1 0x20 PUSH1 0x4 DUP3 ADD DUP2 SWAP1 MSTORE PUSH1 0x24 DUP3 ADD MSTORE PUSH32 0x437265617465323A2062797465636F6465206C656E677468206973207A65726F PUSH1 0x44 DUP3 ADD MSTORE PUSH1 0x64 ADD PUSH3 0x2B7 JUMP JUMPDEST DUP4 DUP4 MLOAD PUSH1 0x20 DUP6 ADD DUP8 CREATE2 SWAP1 POP PUSH1 0x1 PUSH1 0x1 PUSH1 0xA0 SHL SUB DUP2 AND PUSH3 0x17D JUMPI PUSH1 0x40 MLOAD PUSH3 0x461BCD PUSH1 0xE5 SHL DUP2 MSTORE PUSH1 0x20 PUSH1 0x4 DUP3 ADD MSTORE PUSH1 0x19 PUSH1 0x24 DUP3 ADD MSTORE PUSH32 0x437265617465323A204661696C6564206F6E206465706C6F7900000000000000 PUSH1 0x44 DUP3 ADD MSTORE PUSH1 0x64 ADD PUSH3 0x2B7 JUMP JUMPDEST PUSH2 0x45A4 DUP1 PUSH3 0x512 DUP4 CODECOPY ADD SWAP1 JUMP JUMPDEST PUSH1 0x0 PUSH1 0x20 DUP3 DUP5 SUB SLT ISZERO PUSH3 0x394 JUMPI PUSH1 0x0 DUP1 REVERT JUMPDEST DUP2 CALLDATALOAD PUSH8 0xFFFFFFFFFFFFFFFF DUP1 DUP3 GT ISZERO PUSH3 0x3AD JUMPI PUSH1 0x0 DUP1 REVERT JUMPDEST DUP2 DUP5 ADD SWAP2 POP DUP5 PUSH1 0x1F DUP4 ADD SLT PUSH3 0x3C2 JUMPI PUSH1 0x0 DUP1 REVERT JUMPDEST DUP2 CALLDATALOAD DUP2 DUP2 GT ISZERO PUSH3 0x3D7 JUMPI PUSH3 0x3D7 PUSH3 0x4FB JUMP JUMPDEST PUSH1 0x40 MLOAD PUSH1 0x1F DUP3 ADD PUSH1 0x1F NOT SWAP1 DUP2 AND PUSH1 0x3F ADD AND DUP2 ADD SWAP1 DUP4 DUP3 GT DUP2 DUP4 LT OR ISZERO PUSH3 0x402 JUMPI PUSH3 0x402 PUSH3 0x4FB JUMP JUMPDEST DUP2 PUSH1 0x40 MSTORE DUP3 DUP2 MSTORE DUP8 PUSH1 0x20 DUP5 DUP8 ADD ADD GT ISZERO PUSH3 0x41C JUMPI PUSH1 0x0 DUP1 REVERT JUMPDEST DUP3 PUSH1 0x20 DUP7 ADD PUSH1 0x20 DUP4 ADD CALLDATACOPY PUSH1 0x0 SWAP3 DUP2 ADD PUSH1 0x20 ADD SWAP3 SWAP1 SWAP3 MSTORE POP SWAP6 SWAP5 POP POP POP POP POP JUMP JUMPDEST PUSH1 0x0 DUP4 MLOAD PUSH3 0x450 DUP2 DUP5 PUSH1 0x20 DUP9 ADD PUSH3 0x4C8 JUMP JUMPDEST DUP4 MLOAD SWAP1 DUP4 ADD SWAP1 PUSH3 0x466 DUP2 DUP4 PUSH1 0x20 DUP9 ADD PUSH3 0x4C8 JUMP JUMPDEST ADD SWAP5 SWAP4 POP POP POP POP JUMP JUMPDEST PUSH1 0x0 DUP4 MLOAD PUSH3 0x483 DUP2 DUP5 PUSH1 0x20 DUP9 ADD PUSH3 0x4C8 JUMP JUMPDEST SWAP2 SWAP1 SWAP2 ADD SWAP2 DUP3 MSTORE POP PUSH1 0x20 ADD SWAP2 SWAP1 POP JUMP JUMPDEST PUSH1 0x20 DUP2 MSTORE PUSH1 0x0 DUP3 MLOAD DUP1 PUSH1 0x20 DUP5 ADD MSTORE PUSH3 0x4B4 DUP2 PUSH1 0x40 DUP6 ADD PUSH1 0x20 DUP8 ADD PUSH3 0x4C8 JUMP JUMPDEST PUSH1 0x1F ADD PUSH1 0x1F NOT AND SWAP2 SWAP1 SWAP2 ADD PUSH1 0x40 ADD SWAP3 SWAP2 POP POP JUMP JUMPDEST PUSH1 0x0 JUMPDEST DUP4 DUP2 LT ISZERO PUSH3 0x4E5 JUMPI DUP2 DUP2 ADD MLOAD DUP4 DUP3 ADD MSTORE PUSH1 0x20 ADD PUSH3 0x4CB JUMP JUMPDEST DUP4 DUP2 GT ISZERO PUSH3 0x4F5 JUMPI PUSH1 0x0 DUP5 DUP5 ADD MSTORE JUMPDEST POP POP POP POP JUMP JUMPDEST PUSH4 0x4E487B71 PUSH1 0xE0 SHL PUSH1 0x0 MSTORE PUSH1 0x41 PUSH1 0x4 MSTORE PUSH1 0x24 PUSH1 0x0 REVERT INVALID PUSH2 0x140 PUSH1 0x40 MSTORE CALLVALUE DUP1 ISZERO PUSH3 0x12 JUMPI PUSH1 0x0 DUP1 REVERT JUMPDEST POP PUSH1 0x40 MLOAD PUSH3 0x45A4 CODESIZE SUB DUP1 PUSH3 0x45A4 DUP4 CODECOPY DUP2 ADD PUSH1 0x40 DUP2 SWAP1 MSTORE PUSH3 0x35 SWAP2 PUSH3 0xB0E JUMP JUMPDEST DUP7 DUP7 DUP7 PUSH1 0x40 MLOAD DUP1 PUSH1 0x40 ADD PUSH1 0x40 MSTORE DUP1 PUSH1 0x18 DUP2 MSTORE PUSH1 0x20 ADD PUSH32 0x4D6574614C69666544414F3A3130313A77697468436F696E0000000000000000 DUP2 MSTORE POP DUP8 DUP8 DUP6 DUP6 DUP6 DUP6 DUP4 DUP4 DUP4 DUP7 DUP5 DUP15 DUP16 DUP2 PUSH1 0x3 SWAP1 DUP1 MLOAD SWAP1 PUSH1 0x20 ADD SWAP1 PUSH3 0x93 SWAP3 SWAP2 SWAP1 PUSH3 0x8C0 JUMP JUMPDEST POP DUP1 MLOAD PUSH3 0xA9 SWAP1 PUSH1 0x4 SWAP1 PUSH1 0x20 DUP5 ADD SWAP1 PUSH3 0x8C0 JUMP JUMPDEST POP POP DUP3 MLOAD PUSH1 0x20 DUP1 DUP6 ADD SWAP2 SWAP1 SWAP2 KECCAK256 DUP4 MLOAD DUP5 DUP4 ADD KECCAK256 PUSH1 0xE0 DUP3 SWAP1 MSTORE PUSH2 0x100 DUP2 SWAP1 MSTORE CHAINID PUSH1 0xA0 DUP2 DUP2 MSTORE PUSH1 0x40 DUP1 MLOAD PUSH32 0x8B73C3C69BB8FE3D512ECC4CF759CC79239F7B179B0FFACAA9A75D522B39400F DUP2 DUP9 ADD DUP2 SWAP1 MSTORE DUP2 DUP4 ADD DUP8 SWAP1 MSTORE PUSH1 0x60 DUP3 ADD DUP7 SWAP1 MSTORE PUSH1 0x80 DUP3 ADD SWAP5 SWAP1 SWAP5 MSTORE ADDRESS DUP2 DUP5 ADD MSTORE DUP2 MLOAD DUP1 DUP3 SUB SWAP1 SWAP4 ADD DUP4 MSTORE PUSH1 0xC0 ADD SWAP1 MSTORE DUP1 MLOAD SWAP5 ADD SWAP4 SWAP1 SWAP4 KECCAK256 SWAP2 SWAP4 POP SWAP2 SWAP1 PUSH1 0x80 MSTORE ADDRESS PUSH1 0x60 SHL PUSH1 0xC0 MSTORE PUSH2 0x120 MSTORE POP POP DUP5 MLOAD PUSH3 0x155 SWAP3 POP PUSH1 0x5 SWAP2 POP PUSH1 0x20 DUP7 ADD SWAP1 PUSH3 0x8C0 JUMP JUMPDEST POP DUP2 MLOAD PUSH3 0x16B SWAP1 PUSH1 0x6 SWAP1 PUSH1 0x20 DUP6 ADD SWAP1 PUSH3 0x8C0 JUMP JUMPDEST POP DUP1 MLOAD PUSH3 0x181 SWAP1 PUSH1 0x7 SWAP1 PUSH1 0x20 DUP5 ADD SWAP1 PUSH3 0x8C0 JUMP JUMPDEST POP POP PUSH1 0x8 DUP1 SLOAD PUSH1 0x1 PUSH1 0x1 PUSH1 0xA0 SHL SUB NOT AND ADDRESS OR SWAP1 SSTORE POP POP PUSH1 0x1 PUSH1 0xC SSTORE POP POP POP PUSH1 0x1 PUSH1 0x1 PUSH1 0x40 SHL SUB SWAP1 SWAP3 AND PUSH1 0xE SSTORE PUSH1 0xF SSTORE POP POP DUP4 MLOAD DUP6 MLOAD EQ SWAP3 POP PUSH3 0x1F6 SWAP2 POP POP JUMPI PUSH1 0x40 MLOAD PUSH3 0x461BCD PUSH1 0xE5 SHL DUP2 MSTORE PUSH1 0x20 PUSH1 0x4 DUP3 ADD MSTORE PUSH1 0x5 PUSH1 0x24 DUP3 ADD MSTORE PUSH5 0x1A5B9C1D5D PUSH1 0xDA SHL PUSH1 0x44 DUP3 ADD MSTORE PUSH1 0x64 ADD JUMPDEST PUSH1 0x40 MLOAD DUP1 SWAP2 SUB SWAP1 REVERT JUMPDEST PUSH1 0x0 JUMPDEST DUP3 MLOAD DUP2 LT ISZERO PUSH3 0x262 JUMPI PUSH3 0x24D DUP4 DUP3 DUP2 MLOAD DUP2 LT PUSH3 0x21C JUMPI PUSH3 0x21C PUSH3 0xD0A JUMP JUMPDEST PUSH1 0x20 MUL PUSH1 0x20 ADD ADD MLOAD DUP4 DUP4 DUP2 MLOAD DUP2 LT PUSH3 0x239 JUMPI PUSH3 0x239 PUSH3 0xD0A JUMP JUMPDEST PUSH1 0x20 MUL PUSH1 0x20 ADD ADD MLOAD PUSH3 0x270 PUSH1 0x20 SHL PUSH1 0x20 SHR JUMP JUMPDEST DUP1 PUSH3 0x259 DUP2 PUSH3 0xCD6 JUMP JUMPDEST SWAP2 POP POP PUSH3 0x1F9 JUMP JUMPDEST POP POP POP POP POP POP POP POP PUSH3 0xD36 JUMP JUMPDEST PUSH1 0x1 PUSH1 0x1 PUSH1 0xA0 SHL SUB DUP3 AND PUSH3 0x2C8 JUMPI PUSH1 0x40 MLOAD PUSH3 0x461BCD PUSH1 0xE5 SHL DUP2 MSTORE PUSH1 0x20 PUSH1 0x4 DUP3 ADD MSTORE PUSH1 0x1F PUSH1 0x24 DUP3 ADD MSTORE PUSH32 0x45524332303A206D696E7420746F20746865207A65726F206164647265737300 PUSH1 0x44 DUP3 ADD MSTORE PUSH1 0x64 ADD PUSH3 0x1ED JUMP JUMPDEST DUP1 PUSH1 0x2 PUSH1 0x0 DUP3 DUP3 SLOAD PUSH3 0x2DC SWAP2 SWAP1 PUSH3 0xC64 JUMP JUMPDEST SWAP1 SWAP2 SSTORE POP POP PUSH1 0x1 PUSH1 0x1 PUSH1 0xA0 SHL SUB DUP3 AND PUSH1 0x0 SWAP1 DUP2 MSTORE PUSH1 0x20 DUP2 SWAP1 MSTORE PUSH1 0x40 DUP2 KECCAK256 DUP1 SLOAD DUP4 SWAP3 SWAP1 PUSH3 0x30B SWAP1 DUP5 SWAP1 PUSH3 0xC64 JUMP JUMPDEST SWAP1 SWAP2 SSTORE POP POP PUSH1 0x40 MLOAD DUP2 DUP2 MSTORE PUSH1 0x1 PUSH1 0x1 PUSH1 0xA0 SHL SUB DUP4 AND SWAP1 PUSH1 0x0 SWAP1 PUSH32 0xDDF252AD1BE2C89B69C2B068FC378DAA952BA7F163C4A11628F55A4DF523B3EF SWAP1 PUSH1 0x20 ADD PUSH1 0x40 MLOAD DUP1 SWAP2 SUB SWAP1 LOG3 PUSH3 0x35F PUSH1 0x0 DUP4 DUP4 PUSH3 0x368 JUMP JUMPDEST POP POP JUMP JUMPDEST POP POP POP JUMP JUMPDEST PUSH3 0x363 DUP4 DUP4 DUP4 PUSH1 0x1 PUSH1 0x1 PUSH1 0xA0 SHL SUB DUP4 AND PUSH3 0x3BF JUMPI PUSH3 0x3BC DUP2 PUSH3 0x39A PUSH1 0x13 PUSH3 0x41A PUSH1 0x20 SHL PUSH3 0x17DC OR PUSH1 0x20 SHR JUMP JUMPDEST PUSH3 0x3A6 SWAP2 SWAP1 PUSH3 0xC64 JUMP JUMPDEST PUSH1 0x13 PUSH3 0x47D PUSH1 0x20 SHL PUSH3 0x1838 OR SWAP1 SWAP2 SWAP1 PUSH1 0x20 SHR JUMP JUMPDEST POP POP JUMPDEST PUSH1 0x1 PUSH1 0x1 PUSH1 0xA0 SHL SUB DUP3 AND PUSH3 0x3F9 JUMPI PUSH3 0x3F6 DUP2 PUSH3 0x3EA PUSH1 0x13 PUSH3 0x41A PUSH1 0x20 SHL PUSH3 0x17DC OR PUSH1 0x20 SHR JUMP JUMPDEST PUSH3 0x3A6 SWAP2 SWAP1 PUSH3 0xC7F JUMP JUMPDEST POP POP JUMPDEST PUSH3 0x363 PUSH3 0x408 DUP5 PUSH3 0x5D9 JUMP JUMPDEST PUSH3 0x413 DUP5 PUSH3 0x5D9 JUMP JUMPDEST DUP4 PUSH3 0x623 JUMP JUMPDEST DUP1 SLOAD PUSH1 0x0 SWAP1 DUP1 ISZERO PUSH3 0x46A JUMPI DUP3 PUSH3 0x434 PUSH1 0x1 DUP4 PUSH3 0xC7F JUMP JUMPDEST DUP2 SLOAD DUP2 LT PUSH3 0x447 JUMPI PUSH3 0x447 PUSH3 0xD0A JUMP JUMPDEST PUSH1 0x0 SWAP2 DUP3 MSTORE PUSH1 0x20 SWAP1 SWAP2 KECCAK256 ADD SLOAD PUSH5 0x100000000 SWAP1 DIV PUSH1 0x1 PUSH1 0x1 PUSH1 0xE0 SHL SUB AND PUSH3 0x46D JUMP JUMPDEST PUSH1 0x0 JUMPDEST PUSH1 0x1 PUSH1 0x1 PUSH1 0xE0 SHL SUB AND SWAP4 SWAP3 POP POP POP JUMP JUMPDEST DUP2 SLOAD PUSH1 0x0 SWAP1 DUP2 SWAP1 DUP2 PUSH3 0x490 DUP7 PUSH3 0x41A JUMP JUMPDEST SWAP1 POP PUSH1 0x0 DUP3 GT DUP1 ISZERO PUSH3 0x4D4 JUMPI POP NUMBER DUP7 PUSH3 0x4AD PUSH1 0x1 DUP6 PUSH3 0xC7F JUMP JUMPDEST DUP2 SLOAD DUP2 LT PUSH3 0x4C0 JUMPI PUSH3 0x4C0 PUSH3 0xD0A JUMP JUMPDEST PUSH1 0x0 SWAP2 DUP3 MSTORE PUSH1 0x20 SWAP1 SWAP2 KECCAK256 ADD SLOAD PUSH4 0xFFFFFFFF AND EQ JUMPDEST ISZERO PUSH3 0x548 JUMPI PUSH3 0x4F0 DUP6 PUSH3 0x7EA PUSH1 0x20 SHL PUSH3 0x195E OR PUSH1 0x20 SHR JUMP JUMPDEST DUP7 PUSH3 0x4FE PUSH1 0x1 DUP6 PUSH3 0xC7F JUMP JUMPDEST DUP2 SLOAD DUP2 LT PUSH3 0x511 JUMPI PUSH3 0x511 PUSH3 0xD0A JUMP JUMPDEST SWAP1 PUSH1 0x0 MSTORE PUSH1 0x20 PUSH1 0x0 KECCAK256 ADD PUSH1 0x0 ADD PUSH1 0x4 PUSH2 0x100 EXP DUP2 SLOAD DUP2 PUSH1 0x1 PUSH1 0x1 PUSH1 0xE0 SHL SUB MUL NOT AND SWAP1 DUP4 PUSH1 0x1 PUSH1 0x1 PUSH1 0xE0 SHL SUB AND MUL OR SWAP1 SSTORE POP PUSH3 0x5D0 JUMP JUMPDEST DUP6 PUSH1 0x0 ADD PUSH1 0x40 MLOAD DUP1 PUSH1 0x40 ADD PUSH1 0x40 MSTORE DUP1 PUSH3 0x56D NUMBER PUSH3 0x859 PUSH1 0x20 SHL PUSH3 0x19CB OR PUSH1 0x20 SHR JUMP JUMPDEST PUSH4 0xFFFFFFFF AND DUP2 MSTORE PUSH1 0x20 ADD PUSH3 0x58E DUP9 PUSH3 0x7EA PUSH1 0x20 SHL PUSH3 0x195E OR PUSH1 0x20 SHR JUMP JUMPDEST PUSH1 0x1 PUSH1 0x1 PUSH1 0xE0 SHL SUB SWAP1 DUP2 AND SWAP1 SWAP2 MSTORE DUP3 SLOAD PUSH1 0x1 DUP2 ADD DUP5 SSTORE PUSH1 0x0 SWAP4 DUP5 MSTORE PUSH1 0x20 SWAP4 DUP5 SWAP1 KECCAK256 DUP4 MLOAD SWAP5 SWAP1 SWAP4 ADD MLOAD SWAP1 SWAP2 AND PUSH5 0x100000000 MUL PUSH4 0xFFFFFFFF SWAP1 SWAP4 AND SWAP3 SWAP1 SWAP3 OR SWAP2 ADD SSTORE JUMPDEST SWAP6 SWAP4 SWAP5 POP POP POP POP JUMP JUMPDEST PUSH1 0x1 PUSH1 0x1 PUSH1 0xA0 SHL SUB DUP2 DUP2 AND PUSH1 0x0 SWAP1 DUP2 MSTORE PUSH1 0x11 PUSH1 0x20 MSTORE PUSH1 0x40 DUP2 KECCAK256 SLOAD SWAP1 SWAP2 AND PUSH3 0x5FF JUMPI POP SWAP1 JUMP JUMPDEST POP PUSH1 0x1 PUSH1 0x1 PUSH1 0xA0 SHL SUB SWAP1 DUP2 AND PUSH1 0x0 SWAP1 DUP2 MSTORE PUSH1 0x11 PUSH1 0x20 MSTORE PUSH1 0x40 SWAP1 KECCAK256 SLOAD AND SWAP1 JUMP JUMPDEST SWAP2 SWAP1 POP JUMP JUMPDEST DUP2 PUSH1 0x1 PUSH1 0x1 PUSH1 0xA0 SHL SUB AND DUP4 PUSH1 0x1 PUSH1 0x1 PUSH1 0xA0 SHL SUB AND EQ ISZERO DUP1 ISZERO PUSH3 0x646 JUMPI POP PUSH1 0x0 DUP2 GT JUMPDEST ISZERO PUSH3 0x363 JUMPI PUSH1 0x1 PUSH1 0x1 PUSH1 0xA0 SHL SUB DUP4 AND ISZERO PUSH3 0x719 JUMPI PUSH1 0x0 DUP1 PUSH3 0x6D6 DUP4 PUSH3 0x69E PUSH1 0x12 PUSH1 0x0 DUP10 PUSH1 0x1 PUSH1 0x1 PUSH1 0xA0 SHL SUB AND PUSH1 0x1 PUSH1 0x1 PUSH1 0xA0 SHL SUB AND DUP2 MSTORE PUSH1 0x20 ADD SWAP1 DUP2 MSTORE PUSH1 0x20 ADD PUSH1 0x0 KECCAK256 PUSH3 0x41A PUSH1 0x20 SHL PUSH3 0x17DC OR PUSH1 0x20 SHR JUMP JUMPDEST PUSH3 0x6AA SWAP2 SWAP1 PUSH3 0xC7F JUMP JUMPDEST PUSH1 0x1 PUSH1 0x1 PUSH1 0xA0 SHL SUB DUP8 AND PUSH1 0x0 SWAP1 DUP2 MSTORE PUSH1 0x12 PUSH1 0x20 SWAP1 DUP2 MSTORE PUSH1 0x40 SWAP1 SWAP2 KECCAK256 SWAP2 SWAP1 PUSH3 0x1838 PUSH3 0x47D DUP3 SHL OR SWAP1 SHR JUMP JUMPDEST SWAP2 POP SWAP2 POP DUP5 PUSH1 0x1 PUSH1 0x1 PUSH1 0xA0 SHL SUB AND PUSH1 0x0 DUP1 MLOAD PUSH1 0x20 PUSH3 0x4584 DUP4 CODECOPY DUP2 MLOAD SWAP2 MSTORE DUP4 DUP4 PUSH1 0x40 MLOAD PUSH3 0x70E SWAP3 SWAP2 SWAP1 SWAP2 DUP3 MSTORE PUSH1 0x20 DUP3 ADD MSTORE PUSH1 0x40 ADD SWAP1 JUMP JUMPDEST PUSH1 0x40 MLOAD DUP1 SWAP2 SUB SWAP1 LOG2 POP POP JUMPDEST PUSH1 0x1 PUSH1 0x1 PUSH1 0xA0 SHL SUB DUP3 AND ISZERO PUSH3 0x363 JUMPI PUSH1 0x0 DUP1 PUSH3 0x7A3 DUP4 PUSH3 0x76B PUSH1 0x12 PUSH1 0x0 DUP9 PUSH1 0x1 PUSH1 0x1 PUSH1 0xA0 SHL SUB AND PUSH1 0x1 PUSH1 0x1 PUSH1 0xA0 SHL SUB AND DUP2 MSTORE PUSH1 0x20 ADD SWAP1 DUP2 MSTORE PUSH1 0x20 ADD PUSH1 0x0 KECCAK256 PUSH3 0x41A PUSH1 0x20 SHL PUSH3 0x17DC OR PUSH1 0x20 SHR JUMP JUMPDEST PUSH3 0x777 SWAP2 SWAP1 PUSH3 0xC64 JUMP JUMPDEST PUSH1 0x1 PUSH1 0x1 PUSH1 0xA0 SHL SUB DUP7 AND PUSH1 0x0 SWAP1 DUP2 MSTORE PUSH1 0x12 PUSH1 0x20 SWAP1 DUP2 MSTORE PUSH1 0x40 SWAP1 SWAP2 KECCAK256 SWAP2 SWAP1 PUSH3 0x1838 PUSH3 0x47D DUP3 SHL OR SWAP1 SHR JUMP JUMPDEST SWAP2 POP SWAP2 POP DUP4 PUSH1 0x1 PUSH1 0x1 PUSH1 0xA0 SHL SUB AND PUSH1 0x0 DUP1 MLOAD PUSH1 0x20 PUSH3 0x4584 DUP4 CODECOPY DUP2 MLOAD SWAP2 MSTORE DUP4 DUP4 PUSH1 0x40 MLOAD PUSH3 0x7DB SWAP3 SWAP2 SWAP1 SWAP2 DUP3 MSTORE PUSH1 0x20 DUP3 ADD MSTORE PUSH1 0x40 ADD SWAP1 JUMP JUMPDEST PUSH1 0x40 MLOAD DUP1 SWAP2 SUB SWAP1 LOG2 POP POP POP POP POP JUMP JUMPDEST PUSH1 0x0 PUSH1 0x1 PUSH1 0x1 PUSH1 0xE0 SHL SUB DUP3 GT ISZERO PUSH3 0x855 JUMPI PUSH1 0x40 MLOAD PUSH3 0x461BCD PUSH1 0xE5 SHL DUP2 MSTORE PUSH1 0x20 PUSH1 0x4 DUP3 ADD MSTORE PUSH1 0x27 PUSH1 0x24 DUP3 ADD MSTORE PUSH32 0x53616665436173743A2076616C756520646F65736E27742066697420696E2032 PUSH1 0x44 DUP3 ADD MSTORE PUSH7 0x32342062697473 PUSH1 0xC8 SHL PUSH1 0x64 DUP3 ADD MSTORE PUSH1 0x84 ADD PUSH3 0x1ED JUMP JUMPDEST POP SWAP1 JUMP JUMPDEST PUSH1 0x0 PUSH4 0xFFFFFFFF DUP3 GT ISZERO PUSH3 0x855 JUMPI PUSH1 0x40 MLOAD PUSH3 0x461BCD PUSH1 0xE5 SHL DUP2 MSTORE PUSH1 0x20 PUSH1 0x4 DUP3 ADD MSTORE PUSH1 0x26 PUSH1 0x24 DUP3 ADD MSTORE PUSH32 0x53616665436173743A2076616C756520646F65736E27742066697420696E2033 PUSH1 0x44 DUP3 ADD MSTORE PUSH6 0x322062697473 PUSH1 0xD0 SHL PUSH1 0x64 DUP3 ADD MSTORE PUSH1 0x84 ADD PUSH3 0x1ED JUMP JUMPDEST DUP3 DUP1 SLOAD PUSH3 0x8CE SWAP1 PUSH3 0xC99 JUMP JUMPDEST SWAP1 PUSH1 0x0 MSTORE PUSH1 0x20 PUSH1 0x0 KECCAK256 SWAP1 PUSH1 0x1F ADD PUSH1 0x20 SWAP1 DIV DUP2 ADD SWAP3 DUP3 PUSH3 0x8F2 JUMPI PUSH1 0x0 DUP6 SSTORE PUSH3 0x93D JUMP JUMPDEST DUP3 PUSH1 0x1F LT PUSH3 0x90D JUMPI DUP1 MLOAD PUSH1 0xFF NOT AND DUP4 DUP1 ADD OR DUP6 SSTORE PUSH3 0x93D JUMP JUMPDEST DUP3 DUP1 ADD PUSH1 0x1 ADD DUP6 SSTORE DUP3 ISZERO PUSH3 0x93D JUMPI SWAP2 DUP3 ADD JUMPDEST DUP3 DUP2 GT ISZERO PUSH3 0x93D JUMPI DUP3 MLOAD DUP3 SSTORE SWAP2 PUSH1 0x20 ADD SWAP2 SWAP1 PUSH1 0x1 ADD SWAP1 PUSH3 0x920 JUMP JUMPDEST POP PUSH3 0x855 SWAP3 SWAP2 POP JUMPDEST DUP1 DUP3 GT ISZERO PUSH3 0x855 JUMPI PUSH1 0x0 DUP2 SSTORE PUSH1 0x1 ADD PUSH3 0x946 JUMP JUMPDEST PUSH1 0x0 DUP3 PUSH1 0x1F DUP4 ADD SLT PUSH3 0x96E JUMPI PUSH1 0x0 DUP1 REVERT JUMPDEST DUP2 MLOAD PUSH1 0x20 PUSH3 0x987 PUSH3 0x981 DUP4 PUSH3 0xC3E JUMP JUMPDEST PUSH3 0xC0B JUMP JUMPDEST DUP1 DUP4 DUP3 MSTORE DUP3 DUP3 ADD SWAP2 POP DUP3 DUP7 ADD DUP8 DUP5 DUP7 PUSH1 0x5 SHL DUP10 ADD ADD GT ISZERO PUSH3 0x9A8 JUMPI PUSH1 0x0 DUP1 REVERT JUMPDEST PUSH1 0x0 DUP1 JUMPDEST DUP7 DUP2 LT ISZERO PUSH3 0x9DF JUMPI DUP3 MLOAD PUSH1 0x1 PUSH1 0x1 PUSH1 0xA0 SHL SUB DUP2 AND DUP2 EQ PUSH3 0x9CC JUMPI DUP3 DUP4 REVERT JUMPDEST DUP6 MSTORE SWAP4 DUP6 ADD SWAP4 SWAP2 DUP6 ADD SWAP2 PUSH1 0x1 ADD PUSH3 0x9AC JUMP JUMPDEST POP SWAP2 SWAP9 SWAP8 POP POP POP POP POP POP POP POP JUMP JUMPDEST PUSH1 0x0 DUP3 PUSH1 0x1F DUP4 ADD SLT PUSH3 0x9FF JUMPI PUSH1 0x0 DUP1 REVERT JUMPDEST DUP2 MLOAD PUSH1 0x20 PUSH3 0xA12 PUSH3 0x981 DUP4 PUSH3 0xC3E JUMP JUMPDEST DUP1 DUP4 DUP3 MSTORE DUP3 DUP3 ADD SWAP2 POP DUP3 DUP7 ADD DUP8 DUP5 DUP7 PUSH1 0x5 SHL DUP10 ADD ADD GT ISZERO PUSH3 0xA33 JUMPI PUSH1 0x0 DUP1 REVERT JUMPDEST PUSH1 0x0 JUMPDEST DUP6 DUP2 LT ISZERO PUSH3 0xA54 JUMPI DUP2 MLOAD DUP5 MSTORE SWAP3 DUP5 ADD SWAP3 SWAP1 DUP5 ADD SWAP1 PUSH1 0x1 ADD PUSH3 0xA36 JUMP JUMPDEST POP SWAP1 SWAP8 SWAP7 POP POP POP POP POP POP POP JUMP JUMPDEST PUSH1 0x0 DUP3 PUSH1 0x1F DUP4 ADD SLT PUSH3 0xA73 JUMPI PUSH1 0x0 DUP1 REVERT JUMPDEST DUP2 MLOAD PUSH1 0x1 PUSH1 0x1 PUSH1 0x40 SHL SUB DUP2 GT ISZERO PUSH3 0xA8F JUMPI PUSH3 0xA8F PUSH3 0xD20 JUMP JUMPDEST PUSH1 0x20 PUSH3 0xAA5 PUSH1 0x1F DUP4 ADD PUSH1 0x1F NOT AND DUP3 ADD PUSH3 0xC0B JUMP JUMPDEST DUP3 DUP2 MSTORE DUP6 DUP3 DUP5 DUP8 ADD ADD GT ISZERO PUSH3 0xABA JUMPI PUSH1 0x0 DUP1 REVERT JUMPDEST PUSH1 0x0 JUMPDEST DUP4 DUP2 LT ISZERO PUSH3 0xADA JUMPI DUP6 DUP2 ADD DUP4 ADD MLOAD DUP3 DUP3 ADD DUP5 ADD MSTORE DUP3 ADD PUSH3 0xABD JUMP JUMPDEST DUP4 DUP2 GT ISZERO PUSH3 0xAEC JUMPI PUSH1 0x0 DUP4 DUP6 DUP5 ADD ADD MSTORE JUMPDEST POP SWAP6 SWAP5 POP POP POP POP POP JUMP JUMPDEST DUP1 MLOAD PUSH1 0x1 PUSH1 0x1 PUSH1 0x40 SHL SUB DUP2 AND DUP2 EQ PUSH3 0x61E JUMPI PUSH1 0x0 DUP1 REVERT JUMPDEST PUSH1 0x0 DUP1 PUSH1 0x0 DUP1 PUSH1 0x0 DUP1 PUSH1 0x0 PUSH1 0xE0 DUP9 DUP11 SUB SLT ISZERO PUSH3 0xB2A JUMPI PUSH1 0x0 DUP1 REVERT JUMPDEST DUP8 MLOAD PUSH1 0x1 PUSH1 0x1 PUSH1 0x40 SHL SUB DUP1 DUP3 GT ISZERO PUSH3 0xB42 JUMPI PUSH1 0x0 DUP1 REVERT JUMPDEST PUSH3 0xB50 DUP12 DUP4 DUP13 ADD PUSH3 0xA61 JUMP JUMPDEST SWAP9 POP PUSH1 0x20 DUP11 ADD MLOAD SWAP2 POP DUP1 DUP3 GT ISZERO PUSH3 0xB67 JUMPI PUSH1 0x0 DUP1 REVERT JUMPDEST PUSH3 0xB75 DUP12 DUP4 DUP13 ADD PUSH3 0xA61 JUMP JUMPDEST SWAP8 POP PUSH1 0x40 DUP11 ADD MLOAD SWAP2 POP DUP1 DUP3 GT ISZERO PUSH3 0xB8C JUMPI PUSH1 0x0 DUP1 REVERT JUMPDEST PUSH3 0xB9A DUP12 DUP4 DUP13 ADD PUSH3 0xA61 JUMP JUMPDEST SWAP7 POP PUSH3 0xBAA PUSH1 0x60 DUP12 ADD PUSH3 0xAF6 JUMP JUMPDEST SWAP6 POP PUSH1 0x80 DUP11 ADD MLOAD SWAP5 POP PUSH1 0xA0 DUP11 ADD MLOAD SWAP2 POP DUP1 DUP3 GT ISZERO PUSH3 0xBC8 JUMPI PUSH1 0x0 DUP1 REVERT JUMPDEST PUSH3 0xBD6 DUP12 DUP4 DUP13 ADD PUSH3 0x95C JUMP JUMPDEST SWAP4 POP PUSH1 0xC0 DUP11 ADD MLOAD SWAP2 POP DUP1 DUP3 GT ISZERO PUSH3 0xBED JUMPI PUSH1 0x0 DUP1 REVERT JUMPDEST POP PUSH3 0xBFC DUP11 DUP3 DUP12 ADD PUSH3 0x9ED JUMP JUMPDEST SWAP2 POP POP SWAP3 SWAP6 SWAP9 SWAP2 SWAP5 SWAP8 POP SWAP3 SWAP6 POP JUMP JUMPDEST PUSH1 0x40 MLOAD PUSH1 0x1F DUP3 ADD PUSH1 0x1F NOT AND DUP2 ADD PUSH1 0x1 PUSH1 0x1 PUSH1 0x40 SHL SUB DUP2 GT DUP3 DUP3 LT OR ISZERO PUSH3 0xC36 JUMPI PUSH3 0xC36 PUSH3 0xD20 JUMP JUMPDEST PUSH1 0x40 MSTORE SWAP2 SWAP1 POP JUMP JUMPDEST PUSH1 0x0 PUSH1 0x1 PUSH1 0x1 PUSH1 0x40 SHL SUB DUP3 GT ISZERO PUSH3 0xC5A JUMPI PUSH3 0xC5A PUSH3 0xD20 JUMP JUMPDEST POP PUSH1 0x5 SHL PUSH1 0x20 ADD SWAP1 JUMP JUMPDEST PUSH1 0x0 DUP3 NOT DUP3 GT ISZERO PUSH3 0xC7A JUMPI PUSH3 0xC7A PUSH3 0xCF4 JUMP JUMPDEST POP ADD SWAP1 JUMP JUMPDEST PUSH1 0x0 DUP3 DUP3 LT ISZERO PUSH3 0xC94 JUMPI PUSH3 0xC94 PUSH3 0xCF4 JUMP JUMPDEST POP SUB SWAP1 JUMP JUMPDEST PUSH1 0x1 DUP2 DUP2 SHR SWAP1 DUP3 AND DUP1 PUSH3 0xCAE JUMPI PUSH1 0x7F DUP3 AND SWAP2 POP JUMPDEST PUSH1 0x20 DUP3 LT DUP2 EQ ISZERO PUSH3 0xCD0 JUMPI PUSH4 0x4E487B71 PUSH1 0xE0 SHL PUSH1 0x0 MSTORE PUSH1 0x22 PUSH1 0x4 MSTORE PUSH1 0x24 PUSH1 0x0 REVERT JUMPDEST POP SWAP2 SWAP1 POP JUMP JUMPDEST PUSH1 0x0 PUSH1 0x0 NOT DUP3 EQ ISZERO PUSH3 0xCED JUMPI PUSH3 0xCED PUSH3 0xCF4 JUMP JUMPDEST POP PUSH1 0x1 ADD SWAP1 JUMP JUMPDEST PUSH4 0x4E487B71 PUSH1 0xE0 SHL PUSH1 0x0 MSTORE PUSH1 0x11 PUSH1 0x4 MSTORE PUSH1 0x24 PUSH1 0x0 REVERT JUMPDEST PUSH4 0x4E487B71 PUSH1 0xE0 SHL PUSH1 0x0 MSTORE PUSH1 0x32 PUSH1 0x4 MSTORE PUSH1 0x24 PUSH1 0x0 REVERT JUMPDEST PUSH4 0x4E487B71 PUSH1 0xE0 SHL PUSH1 0x0 MSTORE PUSH1 0x41 PUSH1 0x4 MSTORE PUSH1 0x24 PUSH1 0x0 REVERT JUMPDEST PUSH1 0x80 MLOAD PUSH1 0xA0 MLOAD PUSH1 0xC0 MLOAD PUSH1 0x60 SHR PUSH1 0xE0 MLOAD PUSH2 0x100 MLOAD PUSH2 0x120 MLOAD PUSH2 0x37FB PUSH3 0xD89 PUSH1 0x0 CODECOPY PUSH1 0x0 PUSH2 0x2546 ADD MSTORE PUSH1 0x0 PUSH2 0x2595 ADD MSTORE PUSH1 0x0 PUSH2 0x2570 ADD MSTORE PUSH1 0x0 PUSH2 0x24C9 ADD MSTORE PUSH1 0x0 PUSH2 0x24F3 ADD MSTORE PUSH1 0x0 PUSH2 0x251D ADD MSTORE PUSH2 0x37FB PUSH1 0x0 RETURN INVALID PUSH1 0x80 PUSH1 0x40 MSTORE PUSH1 0x4 CALLDATASIZE LT PUSH2 0x28C JUMPI PUSH1 0x0 CALLDATALOAD PUSH1 0xE0 SHR DUP1 PUSH4 0x70A08231 GT PUSH2 0x15A JUMPI DUP1 PUSH4 0xC34C08E5 GT PUSH2 0xC1 JUMPI DUP1 PUSH4 0xEB9019D4 GT PUSH2 0x7A JUMPI DUP1 PUSH4 0xEB9019D4 EQ PUSH2 0x831 JUMPI DUP1 PUSH4 0xECE40CC1 EQ PUSH2 0x851 JUMPI DUP1 PUSH4 0xF8CE560A EQ PUSH2 0x871 JUMPI DUP1 PUSH4 0xFB4FA309 EQ PUSH2 0x891 JUMPI DUP1 PUSH4 0xFC7159F9 EQ PUSH2 0x8B1 JUMPI DUP1 PUSH4 0xFE0D94C1 EQ PUSH2 0x8D1 JUMPI PUSH1 0x0 DUP1 REVERT JUMPDEST DUP1 PUSH4 0xC34C08E5 EQ PUSH2 0x764 JUMPI DUP1 PUSH4 0xC3CDA520 EQ PUSH2 0x784 JUMPI DUP1 PUSH4 0xC47F0027 EQ PUSH2 0x7A4 JUMPI DUP1 PUSH4 0xD26331D4 EQ PUSH2 0x7C4 JUMPI DUP1 PUSH4 0xDD62ED3E EQ PUSH2 0x7F1 JUMPI DUP1 PUSH4 0xEA0217CF EQ PUSH2 0x811 JUMPI PUSH1 0x0 DUP1 REVERT JUMPDEST DUP1 PUSH4 0xA457C2D7 GT PUSH2 0x113 JUMPI DUP1 PUSH4 0xA457C2D7 EQ PUSH2 0x6A7 JUMPI DUP1 PUSH4 0xA9059CBB EQ PUSH2 0x6C7 JUMPI DUP1 PUSH4 0xAE092E89 EQ PUSH2 0x6E7 JUMPI DUP1 PUSH4 0xAFE926E8 EQ PUSH2 0x71A JUMPI DUP1 PUSH4 0xB58131B0 EQ PUSH2 0x72F JUMPI DUP1 PUSH4 0xC28BC2FA EQ PUSH2 0x744 JUMPI PUSH1 0x0 DUP1 REVERT JUMPDEST DUP1 PUSH4 0x70A08231 EQ PUSH2 0x5DC JUMPI DUP1 PUSH4 0x7D5E81E2 EQ PUSH2 0x612 JUMPI DUP1 PUSH4 0x8E539E8C EQ PUSH2 0x632 JUMPI DUP1 PUSH4 0x937F6E77 EQ PUSH2 0x652 JUMPI DUP1 PUSH4 0x95D89B41 EQ PUSH2 0x672 JUMPI DUP1 PUSH4 0x9AB24EB0 EQ PUSH2 0x687 JUMPI PUSH1 0x0 DUP1 REVERT JUMPDEST DUP1 PUSH4 0x3BCCF4FD GT PUSH2 0x1FE JUMPI DUP1 PUSH4 0x544FFC9C GT PUSH2 0x1B7 JUMPI DUP1 PUSH4 0x544FFC9C EQ PUSH2 0x4C9 JUMPI DUP1 PUSH4 0x54FD4D50 EQ PUSH2 0x51E JUMPI DUP1 PUSH4 0x56781388 EQ PUSH2 0x54F JUMPI DUP1 PUSH4 0x587CDE1E EQ PUSH2 0x56F JUMPI DUP1 PUSH4 0x5C19A95C EQ PUSH2 0x5A7 JUMPI DUP1 PUSH4 0x7034731B EQ PUSH2 0x5C7 JUMPI PUSH1 0x0 DUP1 REVERT JUMPDEST DUP1 PUSH4 0x3BCCF4FD EQ PUSH2 0x3FF JUMPI DUP1 PUSH4 0x40C10F19 EQ PUSH2 0x41F JUMPI DUP1 PUSH4 0x43859632 EQ PUSH2 0x43F JUMPI DUP1 PUSH4 0x48976936 EQ PUSH2 0x489 JUMPI DUP1 PUSH4 0x4A91DA48 EQ PUSH2 0x49E JUMPI DUP1 PUSH4 0x4C79E31D EQ PUSH2 0x4B4 JUMPI PUSH1 0x0 DUP1 REVERT JUMPDEST DUP1 PUSH4 0x18160DDD GT PUSH2 0x250 JUMPI DUP1 PUSH4 0x18160DDD EQ PUSH2 0x35A JUMPI DUP1 PUSH4 0x1C3C0EA8 EQ PUSH2 0x36F JUMPI DUP1 PUSH4 0x23B872DD EQ PUSH2 0x38F JUMPI DUP1 PUSH4 0x313CE567 EQ PUSH2 0x3AF JUMPI DUP1 PUSH4 0x3932ABB1 EQ PUSH2 0x3CB JUMPI DUP1 PUSH4 0x39509351 EQ PUSH2 0x3DF JUMPI PUSH1 0x0 DUP1 REVERT JUMPDEST DUP1 PUSH4 0x2A251A3 EQ PUSH2 0x2AF JUMPI DUP1 PUSH4 0x2FE5305 EQ PUSH2 0x2D3 JUMPI DUP1 PUSH4 0x6FDDE03 EQ PUSH2 0x2F3 JUMPI DUP1 PUSH4 0x95EA7B3 EQ PUSH2 0x315 JUMPI DUP1 PUSH4 0x1703A018 EQ PUSH2 0x345 JUMPI PUSH1 0x0 DUP1 REVERT JUMPDEST CALLDATASIZE PUSH2 0x2AA JUMPI PUSH1 0x8 SLOAD PUSH1 0x1 PUSH1 0x1 PUSH1 0xA0 SHL SUB AND ADDRESS EQ PUSH2 0x2A8 JUMPI PUSH1 0x0 DUP1 REVERT JUMPDEST STOP JUMPDEST PUSH1 0x0 DUP1 REVERT JUMPDEST CALLVALUE DUP1 ISZERO PUSH2 0x2BB JUMPI PUSH1 0x0 DUP1 REVERT JUMPDEST POP PUSH1 0xE SLOAD JUMPDEST PUSH1 0x40 MLOAD SWAP1 DUP2 MSTORE PUSH1 0x20 ADD JUMPDEST PUSH1 0x40 MLOAD DUP1 SWAP2 SUB SWAP1 RETURN JUMPDEST CALLVALUE DUP1 ISZERO PUSH2 0x2DF JUMPI PUSH1 0x0 DUP1 REVERT JUMPDEST POP PUSH2 0x2A8 PUSH2 0x2EE CALLDATASIZE PUSH1 0x4 PUSH2 0x32A6 JUMP JUMPDEST PUSH2 0x8E4 JUMP JUMPDEST CALLVALUE DUP1 ISZERO PUSH2 0x2FF JUMPI PUSH1 0x0 DUP1 REVERT JUMPDEST POP PUSH2 0x308 PUSH2 0x92E JUMP JUMPDEST PUSH1 0x40 MLOAD PUSH2 0x2CA SWAP2 SWAP1 PUSH2 0x352E JUMP JUMPDEST CALLVALUE DUP1 ISZERO PUSH2 0x321 JUMPI PUSH1 0x0 DUP1 REVERT JUMPDEST POP PUSH2 0x335 PUSH2 0x330 CALLDATASIZE PUSH1 0x4 PUSH2 0x3053 JUMP JUMPDEST PUSH2 0x9C0 JUMP JUMPDEST PUSH1 0x40 MLOAD SWAP1 ISZERO ISZERO DUP2 MSTORE PUSH1 0x20 ADD PUSH2 0x2CA JUMP JUMPDEST CALLVALUE DUP1 ISZERO PUSH2 0x351 JUMPI PUSH1 0x0 DUP1 REVERT JUMPDEST POP PUSH2 0x2C0 PUSH2 0x9D8 JUMP JUMPDEST CALLVALUE DUP1 ISZERO PUSH2 0x366 JUMPI PUSH1 0x0 DUP1 REVERT JUMPDEST POP PUSH1 0x2 SLOAD PUSH2 0x2C0 JUMP JUMPDEST CALLVALUE DUP1 ISZERO PUSH2 0x37B JUMPI PUSH1 0x0 DUP1 REVERT JUMPDEST POP PUSH2 0x2A8 PUSH2 0x38A CALLDATASIZE PUSH1 0x4 PUSH2 0x2FC9 JUMP JUMPDEST PUSH2 0xA02 JUMP JUMPDEST CALLVALUE DUP1 ISZERO PUSH2 0x39B JUMPI PUSH1 0x0 DUP1 REVERT JUMPDEST POP PUSH2 0x335 PUSH2 0x3AA CALLDATASIZE PUSH1 0x4 PUSH2 0x3017 JUMP JUMPDEST PUSH2 0xA4E JUMP JUMPDEST CALLVALUE DUP1 ISZERO PUSH2 0x3BB JUMPI PUSH1 0x0 DUP1 REVERT JUMPDEST POP PUSH1 0x40 MLOAD PUSH1 0x12 DUP2 MSTORE PUSH1 0x20 ADD PUSH2 0x2CA JUMP JUMPDEST CALLVALUE DUP1 ISZERO PUSH2 0x3D7 JUMPI PUSH1 0x0 DUP1 REVERT JUMPDEST POP PUSH1 0x0 PUSH2 0x2C0 JUMP JUMPDEST CALLVALUE DUP1 ISZERO PUSH2 0x3EB JUMPI PUSH1 0x0 DUP1 REVERT JUMPDEST POP PUSH2 0x335 PUSH2 0x3FA CALLDATASIZE PUSH1 0x4 PUSH2 0x3053 JUMP JUMPDEST PUSH2 0xA74 JUMP JUMPDEST CALLVALUE DUP1 ISZERO PUSH2 0x40B JUMPI PUSH1 0x0 DUP1 REVERT JUMPDEST POP PUSH2 0x2C0 PUSH2 0x41A CALLDATASIZE PUSH1 0x4 PUSH2 0x3339 JUMP JUMPDEST PUSH2 0xA96 JUMP JUMPDEST CALLVALUE DUP1 ISZERO PUSH2 0x42B JUMPI PUSH1 0x0 DUP1 REVERT JUMPDEST POP PUSH2 0x2A8 PUSH2 0x43A CALLDATASIZE PUSH1 0x4 PUSH2 0x3053 JUMP JUMPDEST PUSH2 0xB1B JUMP JUMPDEST CALLVALUE DUP1 ISZERO PUSH2 0x44B JUMPI PUSH1 0x0 DUP1 REVERT JUMPDEST POP PUSH2 0x335 PUSH2 0x45A CALLDATASIZE PUSH1 0x4 PUSH2 0x32F3 JUMP JUMPDEST PUSH1 0x0 DUP3 DUP2 MSTORE PUSH1 0x10 PUSH1 0x20 SWAP1 DUP2 MSTORE PUSH1 0x40 DUP1 DUP4 KECCAK256 PUSH1 0x1 PUSH1 0x1 PUSH1 0xA0 SHL SUB DUP6 AND DUP5 MSTORE PUSH1 0x3 ADD SWAP1 SWAP2 MSTORE SWAP1 KECCAK256 SLOAD PUSH1 0xFF AND SWAP3 SWAP2 POP POP JUMP JUMPDEST CALLVALUE DUP1 ISZERO PUSH2 0x495 JUMPI PUSH1 0x0 DUP1 REVERT JUMPDEST POP PUSH2 0x308 PUSH2 0xB4F JUMP JUMPDEST CALLVALUE DUP1 ISZERO PUSH2 0x4AA JUMPI PUSH1 0x0 DUP1 REVERT JUMPDEST POP PUSH2 0x2C0 PUSH1 0xA SLOAD DUP2 JUMP JUMPDEST CALLVALUE DUP1 ISZERO PUSH2 0x4C0 JUMPI PUSH1 0x0 DUP1 REVERT JUMPDEST POP PUSH1 0xF SLOAD PUSH2 0x2C0 JUMP JUMPDEST CALLVALUE DUP1 ISZERO PUSH2 0x4D5 JUMPI PUSH1 0x0 DUP1 REVERT JUMPDEST POP PUSH2 0x503 PUSH2 0x4E4 CALLDATASIZE PUSH1 0x4 PUSH2 0x32DA JUMP JUMPDEST PUSH1 0x0 SWAP1 DUP2 MSTORE PUSH1 0x10 PUSH1 0x20 MSTORE PUSH1 0x40 SWAP1 KECCAK256 DUP1 SLOAD PUSH1 0x1 DUP3 ADD SLOAD PUSH1 0x2 SWAP1 SWAP3 ADD SLOAD SWAP1 SWAP3 JUMP JUMPDEST PUSH1 0x40 DUP1 MLOAD SWAP4 DUP5 MSTORE PUSH1 0x20 DUP5 ADD SWAP3 SWAP1 SWAP3 MSTORE SWAP1 DUP3 ADD MSTORE PUSH1 0x60 ADD PUSH2 0x2CA JUMP JUMPDEST CALLVALUE DUP1 ISZERO PUSH2 0x52A JUMPI PUSH1 0x0 DUP1 REVERT JUMPDEST POP PUSH1 0x40 DUP1 MLOAD DUP1 DUP3 ADD SWAP1 SWAP2 MSTORE PUSH1 0x8 DUP2 MSTORE PUSH8 0x105094D5149050D5 PUSH1 0xC2 SHL PUSH1 0x20 DUP3 ADD MSTORE PUSH2 0x308 JUMP JUMPDEST CALLVALUE DUP1 ISZERO PUSH2 0x55B JUMPI PUSH1 0x0 DUP1 REVERT JUMPDEST POP PUSH2 0x2C0 PUSH2 0x56A CALLDATASIZE PUSH1 0x4 PUSH2 0x3316 JUMP JUMPDEST PUSH2 0xBDD JUMP JUMPDEST CALLVALUE DUP1 ISZERO PUSH2 0x57B JUMPI PUSH1 0x0 DUP1 REVERT JUMPDEST POP PUSH2 0x58F PUSH2 0x58A CALLDATASIZE PUSH1 0x4 PUSH2 0x2FC9 JUMP JUMPDEST PUSH2 0xBF3 JUMP JUMPDEST PUSH1 0x40 MLOAD PUSH1 0x1 PUSH1 0x1 PUSH1 0xA0 SHL SUB SWAP1 SWAP2 AND DUP2 MSTORE PUSH1 0x20 ADD PUSH2 0x2CA JUMP JUMPDEST CALLVALUE DUP1 ISZERO PUSH2 0x5B3 JUMPI PUSH1 0x0 DUP1 REVERT JUMPDEST POP PUSH2 0x2A8 PUSH2 0x5C2 CALLDATASIZE PUSH1 0x4 PUSH2 0x2FC9 JUMP JUMPDEST PUSH2 0xC3C JUMP JUMPDEST CALLVALUE DUP1 ISZERO PUSH2 0x5D3 JUMPI PUSH1 0x0 DUP1 REVERT JUMPDEST POP PUSH2 0x308 PUSH2 0xC47 JUMP JUMPDEST CALLVALUE DUP1 ISZERO PUSH2 0x5E8 JUMPI PUSH1 0x0 DUP1 REVERT JUMPDEST POP PUSH2 0x2C0 PUSH2 0x5F7 CALLDATASIZE PUSH1 0x4 PUSH2 0x2FC9 JUMP JUMPDEST PUSH1 0x1 PUSH1 0x1 PUSH1 0xA0 SHL SUB AND PUSH1 0x0 SWAP1 DUP2 MSTORE PUSH1 0x20 DUP2 SWAP1 MSTORE PUSH1 0x40 SWAP1 KECCAK256 SLOAD SWAP1 JUMP JUMPDEST CALLVALUE DUP1 ISZERO PUSH2 0x61E JUMPI PUSH1 0x0 DUP1 REVERT JUMPDEST POP PUSH2 0x2C0 PUSH2 0x62D CALLDATASIZE PUSH1 0x4 PUSH2 0x3197 JUMP JUMPDEST PUSH2 0xC54 JUMP JUMPDEST CALLVALUE DUP1 ISZERO PUSH2 0x63E JUMPI PUSH1 0x0 DUP1 REVERT JUMPDEST POP PUSH2 0x2C0 PUSH2 0x64D CALLDATASIZE PUSH1 0x4 PUSH2 0x32DA JUMP JUMPDEST PUSH2 0xF6C JUMP JUMPDEST CALLVALUE DUP1 ISZERO PUSH2 0x65E JUMPI PUSH1 0x0 DUP1 REVERT JUMPDEST POP PUSH2 0x2A8 PUSH2 0x66D CALLDATASIZE PUSH1 0x4 PUSH2 0x32A6 JUMP JUMPDEST PUSH2 0xFCD JUMP JUMPDEST CALLVALUE DUP1 ISZERO PUSH2 0x67E JUMPI PUSH1 0x0 DUP1 REVERT JUMPDEST POP PUSH2 0x308 PUSH2 0x100A JUMP JUMPDEST CALLVALUE DUP1 ISZERO PUSH2 0x693 JUMPI PUSH1 0x0 DUP1 REVERT JUMPDEST POP PUSH2 0x2C0 PUSH2 0x6A2 CALLDATASIZE PUSH1 0x4 PUSH2 0x2FC9 JUMP JUMPDEST PUSH2 0x1019 JUMP JUMPDEST CALLVALUE DUP1 ISZERO PUSH2 0x6B3 JUMPI PUSH1 0x0 DUP1 REVERT JUMPDEST POP PUSH2 0x335 PUSH2 0x6C2 CALLDATASIZE PUSH1 0x4 PUSH2 0x3053 JUMP JUMPDEST PUSH2 0x103A JUMP JUMPDEST CALLVALUE DUP1 ISZERO PUSH2 0x6D3 JUMPI PUSH1 0x0 DUP1 REVERT JUMPDEST POP PUSH2 0x335 PUSH2 0x6E2 CALLDATASIZE PUSH1 0x4 PUSH2 0x3053 JUMP JUMPDEST PUSH2 0x10C0 JUMP JUMPDEST CALLVALUE DUP1 ISZERO PUSH2 0x6F3 JUMPI PUSH1 0x0 DUP1 REVERT JUMPDEST POP PUSH2 0x707 PUSH2 0x702 CALLDATASIZE PUSH1 0x4 PUSH2 0x32DA JUMP JUMPDEST PUSH2 0x10CE JUMP JUMPDEST PUSH1 0x40 MLOAD PUSH2 0x2CA SWAP8 SWAP7 SWAP6 SWAP5 SWAP4 SWAP3 SWAP2 SWAP1 PUSH2 0x345F JUMP JUMPDEST CALLVALUE DUP1 ISZERO PUSH2 0x726 JUMPI PUSH1 0x0 DUP1 REVERT JUMPDEST POP PUSH2 0x308 PUSH2 0x140B JUMP JUMPDEST CALLVALUE DUP1 ISZERO PUSH2 0x73B JUMPI PUSH1 0x0 DUP1 REVERT JUMPDEST POP PUSH1 0xC SLOAD PUSH2 0x2C0 JUMP JUMPDEST CALLVALUE DUP1 ISZERO PUSH2 0x750 JUMPI PUSH1 0x0 DUP1 REVERT JUMPDEST POP PUSH2 0x2A8 PUSH2 0x75F CALLDATASIZE PUSH1 0x4 PUSH2 0x307D JUMP JUMPDEST PUSH2 0x1418 JUMP JUMPDEST CALLVALUE DUP1 ISZERO PUSH2 0x770 JUMPI PUSH1 0x0 DUP1 REVERT JUMPDEST POP PUSH1 0x8 SLOAD PUSH2 0x58F SWAP1 PUSH1 0x1 PUSH1 0x1 PUSH1 0xA0 SHL SUB AND DUP2 JUMP JUMPDEST CALLVALUE DUP1 ISZERO PUSH2 0x790 JUMPI PUSH1 0x0 DUP1 REVERT JUMPDEST POP PUSH2 0x2A8 PUSH2 0x79F CALLDATASIZE PUSH1 0x4 PUSH2 0x3103 JUMP JUMPDEST PUSH2 0x148B JUMP JUMPDEST CALLVALUE DUP1 ISZERO PUSH2 0x7B0 JUMPI PUSH1 0x0 DUP1 REVERT JUMPDEST POP PUSH2 0x2A8 PUSH2 0x7BF CALLDATASIZE PUSH1 0x4 PUSH2 0x32A6 JUMP JUMPDEST PUSH2 0x153E JUMP JUMPDEST CALLVALUE DUP1 ISZERO PUSH2 0x7D0 JUMPI PUSH1 0x0 DUP1 REVERT JUMPDEST POP PUSH2 0x7E4 PUSH2 0x7DF CALLDATASIZE PUSH1 0x4 PUSH2 0x32DA JUMP JUMPDEST PUSH2 0x157B JUMP JUMPDEST PUSH1 0x40 MLOAD PUSH2 0x2CA SWAP2 SWAP1 PUSH2 0x3506 JUMP JUMPDEST CALLVALUE DUP1 ISZERO PUSH2 0x7FD JUMPI PUSH1 0x0 DUP1 REVERT JUMPDEST POP PUSH2 0x2C0 PUSH2 0x80C CALLDATASIZE PUSH1 0x4 PUSH2 0x2FE4 JUMP JUMPDEST PUSH2 0x1586 JUMP JUMPDEST CALLVALUE DUP1 ISZERO PUSH2 0x81D JUMPI PUSH1 0x0 DUP1 REVERT JUMPDEST POP PUSH2 0x2A8 PUSH2 0x82C CALLDATASIZE PUSH1 0x4 PUSH2 0x32DA JUMP JUMPDEST PUSH2 0x15B1 JUMP JUMPDEST CALLVALUE DUP1 ISZERO PUSH2 0x83D JUMPI PUSH1 0x0 DUP1 REVERT JUMPDEST POP PUSH2 0x2C0 PUSH2 0x84C CALLDATASIZE PUSH1 0x4 PUSH2 0x3053 JUMP JUMPDEST PUSH2 0x15E0 JUMP JUMPDEST CALLVALUE DUP1 ISZERO PUSH2 0x85D JUMPI PUSH1 0x0 DUP1 REVERT JUMPDEST POP PUSH2 0x2A8 PUSH2 0x86C CALLDATASIZE PUSH1 0x4 PUSH2 0x32DA JUMP JUMPDEST PUSH2 0x15EC JUMP JUMPDEST CALLVALUE DUP1 ISZERO PUSH2 0x87D JUMPI PUSH1 0x0 DUP1 REVERT JUMPDEST POP PUSH2 0x2C0 PUSH2 0x88C CALLDATASIZE PUSH1 0x4 PUSH2 0x32DA JUMP JUMPDEST PUSH2 0x161B JUMP JUMPDEST CALLVALUE DUP1 ISZERO PUSH2 0x89D JUMPI PUSH1 0x0 DUP1 REVERT JUMPDEST POP PUSH2 0x2A8 PUSH2 0x8AC CALLDATASIZE PUSH1 0x4 PUSH2 0x32DA JUMP JUMPDEST PUSH2 0x1646 JUMP JUMPDEST CALLVALUE DUP1 ISZERO PUSH2 0x8BD JUMPI PUSH1 0x0 DUP1 REVERT JUMPDEST POP PUSH2 0x2C0 PUSH2 0x8CC CALLDATASIZE PUSH1 0x4 PUSH2 0x315B JUMP JUMPDEST PUSH2 0x1675 JUMP JUMPDEST PUSH2 0x2C0 PUSH2 0x8DF CALLDATASIZE PUSH1 0x4 PUSH2 0x32DA JUMP JUMPDEST PUSH2 0x16CD JUMP JUMPDEST PUSH1 0x8 SLOAD PUSH1 0x1 PUSH1 0x1 PUSH1 0xA0 SHL SUB AND CALLER EQ PUSH2 0x917 JUMPI PUSH1 0x40 MLOAD PUSH3 0x461BCD PUSH1 0xE5 SHL DUP2 MSTORE PUSH1 0x4 ADD PUSH2 0x90E SWAP1 PUSH2 0x3541 JUMP JUMPDEST PUSH1 0x40 MLOAD DUP1 SWAP2 SUB SWAP1 REVERT JUMPDEST DUP1 MLOAD PUSH2 0x92A SWAP1 PUSH1 0x6 SWAP1 PUSH1 0x20 DUP5 ADD SWAP1 PUSH2 0x2D91 JUMP JUMPDEST POP POP JUMP JUMPDEST PUSH1 0x60 PUSH1 0x3 DUP1 SLOAD PUSH2 0x93D SWAP1 PUSH2 0x36EE JUMP JUMPDEST DUP1 PUSH1 0x1F ADD PUSH1 0x20 DUP1 SWAP2 DIV MUL PUSH1 0x20 ADD PUSH1 0x40 MLOAD SWAP1 DUP2 ADD PUSH1 0x40 MSTORE DUP1 SWAP3 SWAP2 SWAP1 DUP2 DUP2 MSTORE PUSH1 0x20 ADD DUP3 DUP1 SLOAD PUSH2 0x969 SWAP1 PUSH2 0x36EE JUMP JUMPDEST DUP1 ISZERO PUSH2 0x9B6 JUMPI DUP1 PUSH1 0x1F LT PUSH2 0x98B JUMPI PUSH2 0x100 DUP1 DUP4 SLOAD DIV MUL DUP4 MSTORE SWAP2 PUSH1 0x20 ADD SWAP2 PUSH2 0x9B6 JUMP JUMPDEST DUP3 ADD SWAP2 SWAP1 PUSH1 0x0 MSTORE PUSH1 0x20 PUSH1 0x0 KECCAK256 SWAP1 JUMPDEST DUP2 SLOAD DUP2 MSTORE SWAP1 PUSH1 0x1 ADD SWAP1 PUSH1 0x20 ADD DUP1 DUP4 GT PUSH2 0x999 JUMPI DUP3 SWAP1 SUB PUSH1 0x1F AND DUP3 ADD SWAP2 JUMPDEST POP POP POP POP POP SWAP1 POP SWAP1 JUMP JUMPDEST PUSH1 0x0 CALLER PUSH2 0x9CE DUP2 DUP6 DUP6 PUSH2 0x1A30 JUMP JUMPDEST POP PUSH1 0x1 SWAP4 SWAP3 POP POP POP JUMP JUMPDEST PUSH1 0x0 PUSH2 0x2710 PUSH2 0x9E6 PUSH1 0xF SLOAD SWAP1 JUMP JUMPDEST PUSH1 0x2 SLOAD PUSH2 0x9F3 SWAP2 SWAP1 PUSH2 0x368C JUMP JUMPDEST PUSH2 0x9FD SWAP2 SWAP1 PUSH2 0x366A JUMP JUMPDEST SWAP1 POP SWAP1 JUMP JUMPDEST PUSH1 0x8 SLOAD PUSH1 0x1 PUSH1 0x1 PUSH1 0xA0 SHL SUB AND CALLER EQ PUSH2 0xA2C JUMPI PUSH1 0x40 MLOAD PUSH3 0x461BCD PUSH1 0xE5 SHL DUP2 MSTORE PUSH1 0x4 ADD PUSH2 0x90E SWAP1 PUSH2 0x3541 JUMP JUMPDEST PUSH1 0x8 DUP1 SLOAD PUSH1 0x1 PUSH1 0x1 PUSH1 0xA0 SHL SUB NOT AND PUSH1 0x1 PUSH1 0x1 PUSH1 0xA0 SHL SUB SWAP3 SWAP1 SWAP3 AND SWAP2 SWAP1 SWAP2 OR SWAP1 SSTORE JUMP JUMPDEST PUSH1 0x0 CALLER PUSH2 0xA5C DUP6 DUP3 DUP6 PUSH2 0x1B54 JUMP JUMPDEST PUSH2 0xA67 DUP6 DUP6 DUP6 PUSH2 0x1BCE JUMP JUMPDEST PUSH1 0x1 SWAP2 POP POP JUMPDEST SWAP4 SWAP3 POP POP POP JUMP JUMPDEST PUSH1 0x0 CALLER PUSH2 0x9CE DUP2 DUP6 DUP6 PUSH2 0xA87 DUP4 DUP4 PUSH2 0x1586 JUMP JUMPDEST PUSH2 0xA91 SWAP2 SWAP1 PUSH2 0x3627 JUMP JUMPDEST PUSH2 0x1A30 JUMP JUMPDEST PUSH1 0x40 DUP1 MLOAD PUSH32 0x150214D74D59B7D1E90C73FC22EF3D991DD0A76B046543D4D80AB92D2A50328F PUSH1 0x20 DUP3 ADD MSTORE SWAP1 DUP2 ADD DUP7 SWAP1 MSTORE PUSH1 0xFF DUP6 AND PUSH1 0x60 DUP3 ADD MSTORE PUSH1 0x0 SWAP1 DUP2 SWAP1 PUSH2 0xB03 SWAP1 PUSH2 0xAFB SWAP1 PUSH1 0x80 ADD JUMPDEST PUSH1 0x40 MLOAD PUSH1 0x20 DUP2 DUP4 SUB SUB DUP2 MSTORE SWAP1 PUSH1 0x40 MSTORE DUP1 MLOAD SWAP1 PUSH1 0x20 ADD KECCAK256 PUSH2 0x1DA2 JUMP JUMPDEST DUP7 DUP7 DUP7 PUSH2 0x1DF0 JUMP JUMPDEST SWAP1 POP PUSH2 0xB10 DUP8 DUP3 DUP9 PUSH2 0x1E18 JUMP JUMPDEST SWAP8 SWAP7 POP POP POP POP POP POP POP JUMP JUMPDEST PUSH1 0x8 SLOAD PUSH1 0x1 PUSH1 0x1 PUSH1 0xA0 SHL SUB AND CALLER EQ PUSH2 0xB45 JUMPI PUSH1 0x40 MLOAD PUSH3 0x461BCD PUSH1 0xE5 SHL DUP2 MSTORE PUSH1 0x4 ADD PUSH2 0x90E SWAP1 PUSH2 0x3541 JUMP JUMPDEST PUSH2 0x92A DUP3 DUP3 PUSH2 0x1F0A JUMP JUMPDEST PUSH1 0x5 DUP1 SLOAD PUSH2 0xB5C SWAP1 PUSH2 0x36EE JUMP JUMPDEST DUP1 PUSH1 0x1F ADD PUSH1 0x20 DUP1 SWAP2 DIV MUL PUSH1 0x20 ADD PUSH1 0x40 MLOAD SWAP1 DUP2 ADD PUSH1 0x40 MSTORE DUP1 SWAP3 SWAP2 SWAP1 DUP2 DUP2 MSTORE PUSH1 0x20 ADD DUP3 DUP1 SLOAD PUSH2 0xB88 SWAP1 PUSH2 0x36EE JUMP JUMPDEST DUP1 ISZERO PUSH2 0xBD5 JUMPI DUP1 PUSH1 0x1F LT PUSH2 0xBAA JUMPI PUSH2 0x100 DUP1 DUP4 SLOAD DIV MUL DUP4 MSTORE SWAP2 PUSH1 0x20 ADD SWAP2 PUSH2 0xBD5 JUMP JUMPDEST DUP3 ADD SWAP2 SWAP1 PUSH1 0x0 MSTORE PUSH1 0x20 PUSH1 0x0 KECCAK256 SWAP1 JUMPDEST DUP2 SLOAD DUP2 MSTORE SWAP1 PUSH1 0x1 ADD SWAP1 PUSH1 0x20 ADD DUP1 DUP4 GT PUSH2 0xBB8 JUMPI DUP3 SWAP1 SUB PUSH1 0x1F AND DUP3 ADD SWAP2 JUMPDEST POP POP POP POP POP DUP2 JUMP JUMPDEST PUSH1 0x0 CALLER PUSH2 0xBEB DUP5 DUP3 DUP6 PUSH2 0x1E18 JUMP JUMPDEST SWAP5 SWAP4 POP POP POP POP JUMP JUMPDEST PUSH1 0x1 PUSH1 0x1 PUSH1 0xA0 SHL SUB DUP2 DUP2 AND PUSH1 0x0 SWAP1 DUP2 MSTORE PUSH1 0x11 PUSH1 0x20 MSTORE PUSH1 0x40 DUP2 KECCAK256 SLOAD SWAP1 SWAP2 AND PUSH2 0xC18 JUMPI POP SWAP1 JUMP JUMPDEST POP PUSH1 0x1 PUSH1 0x1 PUSH1 0xA0 SHL SUB SWAP1 DUP2 AND PUSH1 0x0 SWAP1 DUP2 MSTORE PUSH1 0x11 PUSH1 0x20 MSTORE PUSH1 0x40 SWAP1 KECCAK256 SLOAD AND SWAP1 JUMP JUMPDEST SWAP2 SWAP1 POP JUMP JUMPDEST CALLER PUSH2 0x92A DUP2 DUP4 PUSH2 0x1FF1 JUMP JUMPDEST PUSH1 0x6 DUP1 SLOAD PUSH2 0xB5C SWAP1 PUSH2 0x36EE JUMP JUMPDEST PUSH1 0x0 PUSH2 0xC5F PUSH1 0xC SLOAD SWAP1 JUMP JUMPDEST PUSH2 0xC6E CALLER PUSH2 0x84C PUSH1 0x1 NUMBER PUSH2 0x36AB JUMP JUMPDEST LT ISZERO PUSH2 0xCAE JUMPI PUSH1 0x40 MLOAD PUSH3 0x461BCD PUSH1 0xE5 SHL DUP2 MSTORE PUSH1 0x20 PUSH1 0x4 DUP3 ADD MSTORE PUSH1 0xF PUSH1 0x24 DUP3 ADD MSTORE PUSH15 0x10995B1BDDC81D1A1C995CDA1BDB19 PUSH1 0x8A SHL PUSH1 0x44 DUP3 ADD MSTORE PUSH1 0x64 ADD PUSH2 0x90E JUMP JUMPDEST PUSH1 0xA DUP1 SLOAD SWAP1 PUSH1 0x1 SWAP1 PUSH1 0x0 PUSH2 0xCC2 DUP4 DUP6 PUSH2 0x3627 JUMP JUMPDEST SWAP1 SWAP2 SSTORE POP POP DUP5 MLOAD DUP7 MLOAD EQ PUSH2 0xCE8 JUMPI PUSH1 0x40 MLOAD PUSH3 0x461BCD PUSH1 0xE5 SHL DUP2 MSTORE PUSH1 0x4 ADD PUSH2 0x90E SWAP1 PUSH2 0x3569 JUMP JUMPDEST DUP4 MLOAD DUP7 MLOAD EQ PUSH2 0xD09 JUMPI PUSH1 0x40 MLOAD PUSH3 0x461BCD PUSH1 0xE5 SHL DUP2 MSTORE PUSH1 0x4 ADD PUSH2 0x90E SWAP1 PUSH2 0x3569 JUMP JUMPDEST PUSH1 0x0 DUP7 MLOAD GT PUSH2 0xD2A JUMPI PUSH1 0x40 MLOAD PUSH3 0x461BCD PUSH1 0xE5 SHL DUP2 MSTORE PUSH1 0x4 ADD PUSH2 0x90E SWAP1 PUSH2 0x3569 JUMP JUMPDEST PUSH1 0x0 DUP2 DUP2 MSTORE PUSH1 0x9 PUSH1 0x20 SWAP1 DUP2 MSTORE PUSH1 0x40 SWAP2 DUP3 SWAP1 KECCAK256 DUP3 MLOAD SWAP2 DUP3 ADD SWAP1 SWAP3 MSTORE PUSH1 0x3 DUP3 ADD SLOAD PUSH1 0x1 PUSH1 0x1 PUSH1 0x40 SHL SUB AND SWAP1 DUP2 SWAP1 MSTORE ISZERO PUSH2 0xD73 JUMPI PUSH1 0x40 MLOAD PUSH3 0x461BCD PUSH1 0xE5 SHL DUP2 MSTORE PUSH1 0x4 ADD PUSH2 0x90E SWAP1 PUSH2 0x3569 JUMP JUMPDEST PUSH1 0x0 PUSH2 0xD83 DUP2 PUSH2 0x2087 JUMP JUMPDEST PUSH2 0x2087 JUMP JUMPDEST PUSH2 0xD8C NUMBER PUSH2 0x2087 JUMP JUMPDEST PUSH2 0xD96 SWAP2 SWAP1 PUSH2 0x363F JUMP JUMPDEST SWAP1 POP PUSH1 0x0 PUSH2 0xDA6 PUSH2 0xD7E PUSH1 0xE SLOAD SWAP1 JUMP JUMPDEST PUSH2 0xDB0 SWAP1 DUP4 PUSH2 0x363F JUMP JUMPDEST DUP7 MLOAD SWAP1 SWAP2 POP PUSH2 0xDC5 SWAP1 DUP5 SWAP1 PUSH1 0x20 DUP10 ADD SWAP1 PUSH2 0x2D91 JUMP JUMPDEST POP PUSH2 0xDD0 DUP10 MLOAD PUSH2 0x2087 JUMP JUMPDEST PUSH1 0x2 DUP5 ADD DUP1 SLOAD PUSH8 0xFFFFFFFFFFFFFFFF NOT AND PUSH1 0x1 PUSH1 0x1 PUSH1 0x40 SHL SUB SWAP3 SWAP1 SWAP3 AND SWAP2 SWAP1 SWAP2 OR SWAP1 SSTORE PUSH1 0x0 JUMPDEST DUP10 MLOAD DUP2 LT ISZERO PUSH2 0xEE3 JUMPI DUP10 DUP2 DUP2 MLOAD DUP2 LT PUSH2 0xE11 JUMPI PUSH2 0xE11 PUSH2 0x3770 JUMP JUMPDEST PUSH1 0x20 MUL PUSH1 0x20 ADD ADD MLOAD DUP5 PUSH1 0x1 ADD PUSH1 0x0 DUP4 DUP2 MSTORE PUSH1 0x20 ADD SWAP1 DUP2 MSTORE PUSH1 0x20 ADD PUSH1 0x0 KECCAK256 PUSH1 0x0 ADD PUSH1 0x0 PUSH2 0x100 EXP DUP2 SLOAD DUP2 PUSH1 0x1 PUSH1 0x1 PUSH1 0xA0 SHL SUB MUL NOT AND SWAP1 DUP4 PUSH1 0x1 PUSH1 0x1 PUSH1 0xA0 SHL SUB AND MUL OR SWAP1 SSTORE POP DUP9 DUP2 DUP2 MLOAD DUP2 LT PUSH2 0xE67 JUMPI PUSH2 0xE67 PUSH2 0x3770 JUMP JUMPDEST PUSH1 0x20 MUL PUSH1 0x20 ADD ADD MLOAD DUP5 PUSH1 0x1 ADD PUSH1 0x0 DUP4 DUP2 MSTORE PUSH1 0x20 ADD SWAP1 DUP2 MSTORE PUSH1 0x20 ADD PUSH1 0x0 KECCAK256 PUSH1 0x1 ADD DUP2 SWAP1 SSTORE POP DUP8 DUP2 DUP2 MLOAD DUP2 LT PUSH2 0xE9D JUMPI PUSH2 0xE9D PUSH2 0x3770 JUMP JUMPDEST PUSH1 0x20 MUL PUSH1 0x20 ADD ADD MLOAD DUP5 PUSH1 0x1 ADD PUSH1 0x0 DUP4 DUP2 MSTORE PUSH1 0x20 ADD SWAP1 DUP2 MSTORE PUSH1 0x20 ADD PUSH1 0x0 KECCAK256 PUSH1 0x2 ADD SWAP1 DUP1 MLOAD SWAP1 PUSH1 0x20 ADD SWAP1 PUSH2 0xED0 SWAP3 SWAP2 SWAP1 PUSH2 0x2D91 JUMP JUMPDEST POP DUP1 PUSH2 0xEDB DUP2 PUSH2 0x3729 JUMP JUMPDEST SWAP2 POP POP PUSH2 0xDF6 JUMP JUMPDEST POP PUSH1 0x3 DUP4 ADD DUP1 SLOAD PUSH8 0xFFFFFFFFFFFFFFFF NOT AND PUSH1 0x1 PUSH1 0x1 PUSH1 0x40 SHL SUB DUP5 AND OR SWAP1 SSTORE PUSH1 0x4 DUP4 ADD DUP1 SLOAD PUSH8 0xFFFFFFFFFFFFFFFF NOT AND PUSH1 0x1 PUSH1 0x1 PUSH1 0x40 SHL SUB DUP4 AND OR SWAP1 SSTORE PUSH32 0xA00FCF4F5E03CC2F4818B8F380A8F2A06479E49BF0765E5FEC09AEBDAF922BBC DUP5 CALLER DUP5 DUP5 DUP11 PUSH1 0x40 MLOAD PUSH2 0xF57 SWAP6 SWAP5 SWAP4 SWAP3 SWAP2 SWAP1 PUSH2 0x3593 JUMP JUMPDEST PUSH1 0x40 MLOAD DUP1 SWAP2 SUB SWAP1 LOG1 POP SWAP2 SWAP8 SWAP7 POP POP POP POP POP POP POP JUMP JUMPDEST PUSH1 0x0 NUMBER DUP3 GT ISZERO PUSH2 0xFB0 JUMPI PUSH1 0x40 MLOAD PUSH3 0x461BCD PUSH1 0xE5 SHL DUP2 MSTORE PUSH1 0x20 PUSH1 0x4 DUP3 ADD MSTORE PUSH1 0xF PUSH1 0x24 DUP3 ADD MSTORE PUSH15 0x109B1BD8DAC81B9BDD081B5A5B9959 PUSH1 0x8A SHL PUSH1 0x44 DUP3 ADD MSTORE PUSH1 0x64 ADD PUSH2 0x90E JUMP JUMPDEST NUMBER DUP3 EQ ISZERO PUSH2 0xFC2 JUMPI PUSH1 0x2 SLOAD JUMPDEST SWAP3 SWAP2 POP POP JUMP JUMPDEST PUSH2 0xFBC PUSH1 0x13 DUP4 PUSH2 0x20F2 JUMP JUMPDEST PUSH1 0x8 SLOAD PUSH1 0x1 PUSH1 0x1 PUSH1 0xA0 SHL SUB AND CALLER EQ PUSH2 0xFF7 JUMPI PUSH1 0x40 MLOAD PUSH3 0x461BCD PUSH1 0xE5 SHL DUP2 MSTORE PUSH1 0x4 ADD PUSH2 0x90E SWAP1 PUSH2 0x3541 JUMP JUMPDEST DUP1 MLOAD PUSH2 0x92A SWAP1 PUSH1 0x7 SWAP1 PUSH1 0x20 DUP5 ADD SWAP1 PUSH2 0x2D91 JUMP JUMPDEST PUSH1 0x60 PUSH1 0x4 DUP1 SLOAD PUSH2 0x93D SWAP1 PUSH2 0x36EE JUMP JUMPDEST PUSH1 0x1 PUSH1 0x1 PUSH1 0xA0 SHL SUB DUP2 AND PUSH1 0x0 SWAP1 DUP2 MSTORE PUSH1 0x12 PUSH1 0x20 MSTORE PUSH1 0x40 DUP2 KECCAK256 PUSH2 0xFBC SWAP1 PUSH2 0x17DC JUMP JUMPDEST PUSH1 0x0 CALLER DUP2 PUSH2 0x1048 DUP3 DUP7 PUSH2 0x1586 JUMP JUMPDEST SWAP1 POP DUP4 DUP2 LT ISZERO PUSH2 0x10A8 JUMPI PUSH1 0x40 MLOAD PUSH3 0x461BCD PUSH1 0xE5 SHL DUP2 MSTORE PUSH1 0x20 PUSH1 0x4 DUP3 ADD MSTORE PUSH1 0x25 PUSH1 0x24 DUP3 ADD MSTORE PUSH32 0x45524332303A2064656372656173656420616C6C6F77616E63652062656C6F77 PUSH1 0x44 DUP3 ADD MSTORE PUSH5 0x207A65726F PUSH1 0xD8 SHL PUSH1 0x64 DUP3 ADD MSTORE PUSH1 0x84 ADD PUSH2 0x90E JUMP JUMPDEST PUSH2 0x10B5 DUP3 DUP7 DUP7 DUP5 SUB PUSH2 0x1A30 JUMP JUMPDEST POP PUSH1 0x1 SWAP5 SWAP4 POP POP POP POP JUMP JUMPDEST PUSH1 0x0 CALLER PUSH2 0x9CE DUP2 DUP6 DUP6 PUSH2 0x1BCE JUMP JUMPDEST PUSH1 0x0 DUP2 DUP2 MSTORE PUSH1 0x9 PUSH1 0x20 MSTORE PUSH1 0x40 DUP2 KECCAK256 PUSH1 0x2 DUP2 ADD SLOAD PUSH1 0x60 SWAP3 DUP4 SWAP3 DUP4 SWAP3 DUP4 SWAP3 SWAP2 DUP3 SWAP2 DUP3 SWAP2 SWAP1 PUSH1 0x1 PUSH1 0x1 PUSH1 0x40 SHL SUB SWAP1 DUP2 AND SWAP1 DUP2 GT ISZERO PUSH2 0x110B JUMPI PUSH2 0x110B PUSH2 0x3786 JUMP JUMPDEST PUSH1 0x40 MLOAD SWAP1 DUP1 DUP3 MSTORE DUP1 PUSH1 0x20 MUL PUSH1 0x20 ADD DUP3 ADD PUSH1 0x40 MSTORE DUP1 ISZERO PUSH2 0x1134 JUMPI DUP2 PUSH1 0x20 ADD PUSH1 0x20 DUP3 MUL DUP1 CALLDATASIZE DUP4 CALLDATACOPY ADD SWAP1 POP JUMPDEST POP PUSH1 0x2 DUP3 ADD SLOAD SWAP1 SWAP9 POP PUSH1 0x1 PUSH1 0x1 PUSH1 0x40 SHL SUB SWAP1 DUP2 AND SWAP1 DUP2 GT ISZERO PUSH2 0x1158 JUMPI PUSH2 0x1158 PUSH2 0x3786 JUMP JUMPDEST PUSH1 0x40 MLOAD SWAP1 DUP1 DUP3 MSTORE DUP1 PUSH1 0x20 MUL PUSH1 0x20 ADD DUP3 ADD PUSH1 0x40 MSTORE DUP1 ISZERO PUSH2 0x1181 JUMPI DUP2 PUSH1 0x20 ADD PUSH1 0x20 DUP3 MUL DUP1 CALLDATASIZE DUP4 CALLDATACOPY ADD SWAP1 POP JUMPDEST POP PUSH1 0x2 DUP3 ADD SLOAD SWAP1 SWAP8 POP PUSH1 0x1 PUSH1 0x1 PUSH1 0x40 SHL SUB SWAP1 DUP2 AND SWAP1 DUP2 GT ISZERO PUSH2 0x11A5 JUMPI PUSH2 0x11A5 PUSH2 0x3786 JUMP JUMPDEST PUSH1 0x40 MLOAD SWAP1 DUP1 DUP3 MSTORE DUP1 PUSH1 0x20 MUL PUSH1 0x20 ADD DUP3 ADD PUSH1 0x40 MSTORE DUP1 ISZERO PUSH2 0x11D8 JUMPI DUP2 PUSH1 0x20 ADD JUMPDEST PUSH1 0x60 DUP2 MSTORE PUSH1 0x20 ADD SWAP1 PUSH1 0x1 SWAP1 SUB SWAP1 DUP2 PUSH2 0x11C3 JUMPI SWAP1 POP JUMPDEST POP SWAP6 POP PUSH1 0x0 JUMPDEST PUSH1 0x2 DUP3 ADD SLOAD PUSH1 0x1 PUSH1 0x1 PUSH1 0x40 SHL SUB AND DUP2 LT ISZERO PUSH2 0x133F JUMPI PUSH1 0x0 DUP2 DUP2 MSTORE PUSH1 0x1 DUP4 ADD PUSH1 0x20 MSTORE PUSH1 0x40 SWAP1 KECCAK256 SLOAD DUP10 MLOAD PUSH1 0x1 PUSH1 0x1 PUSH1 0xA0 SHL SUB SWAP1 SWAP2 AND SWAP1 DUP11 SWAP1 DUP4 SWAP1 DUP2 LT PUSH2 0x1224 JUMPI PUSH2 0x1224 PUSH2 0x3770 JUMP JUMPDEST PUSH1 0x1 PUSH1 0x1 PUSH1 0xA0 SHL SUB SWAP1 SWAP3 AND PUSH1 0x20 SWAP3 DUP4 MUL SWAP2 SWAP1 SWAP2 ADD DUP3 ADD MSTORE PUSH1 0x0 DUP3 DUP2 MSTORE PUSH1 0x1 DUP1 DUP6 ADD SWAP1 SWAP3 MSTORE PUSH1 0x40 SWAP1 KECCAK256 ADD SLOAD DUP9 MLOAD DUP10 SWAP1 DUP4 SWAP1 DUP2 LT PUSH2 0x1262 JUMPI PUSH2 0x1262 PUSH2 0x3770 JUMP JUMPDEST PUSH1 0x20 MUL PUSH1 0x20 ADD ADD DUP2 DUP2 MSTORE POP POP DUP2 PUSH1 0x1 ADD PUSH1 0x0 DUP3 DUP2 MSTORE PUSH1 0x20 ADD SWAP1 DUP2 MSTORE PUSH1 0x20 ADD PUSH1 0x0 KECCAK256 PUSH1 0x2 ADD DUP1 SLOAD PUSH2 0x1291 SWAP1 PUSH2 0x36EE JUMP JUMPDEST DUP1 PUSH1 0x1F ADD PUSH1 0x20 DUP1 SWAP2 DIV MUL PUSH1 0x20 ADD PUSH1 0x40 MLOAD SWAP1 DUP2 ADD PUSH1 0x40 MSTORE DUP1 SWAP3 SWAP2 SWAP1 DUP2 DUP2 MSTORE PUSH1 0x20 ADD DUP3 DUP1 SLOAD PUSH2 0x12BD SWAP1 PUSH2 0x36EE JUMP JUMPDEST DUP1 ISZERO PUSH2 0x130A JUMPI DUP1 PUSH1 0x1F LT PUSH2 0x12DF JUMPI PUSH2 0x100 DUP1 DUP4 SLOAD DIV MUL DUP4 MSTORE SWAP2 PUSH1 0x20 ADD SWAP2 PUSH2 0x130A JUMP JUMPDEST DUP3 ADD SWAP2 SWAP1 PUSH1 0x0 MSTORE PUSH1 0x20 PUSH1 0x0 KECCAK256 SWAP1 JUMPDEST DUP2 SLOAD DUP2 MSTORE SWAP1 PUSH1 0x1 ADD SWAP1 PUSH1 0x20 ADD DUP1 DUP4 GT PUSH2 0x12ED JUMPI DUP3 SWAP1 SUB PUSH1 0x1F AND DUP3 ADD SWAP2 JUMPDEST POP POP POP POP POP DUP8 DUP3 DUP2 MLOAD DUP2 LT PUSH2 0x1321 JUMPI PUSH2 0x1321 PUSH2 0x3770 JUMP JUMPDEST PUSH1 0x20 MUL PUSH1 0x20 ADD ADD DUP2 SWAP1 MSTORE POP DUP1 DUP1 PUSH2 0x1337 SWAP1 PUSH2 0x3729 JUMP JUMPDEST SWAP2 POP POP PUSH2 0x11DE JUMP JUMPDEST POP DUP1 SLOAD DUP2 SWAP1 PUSH2 0x134D SWAP1 PUSH2 0x36EE JUMP JUMPDEST DUP1 PUSH1 0x1F ADD PUSH1 0x20 DUP1 SWAP2 DIV MUL PUSH1 0x20 ADD PUSH1 0x40 MLOAD SWAP1 DUP2 ADD PUSH1 0x40 MSTORE DUP1 SWAP3 SWAP2 SWAP1 DUP2 DUP2 MSTORE PUSH1 0x20 ADD DUP3 DUP1 SLOAD PUSH2 0x1379 SWAP1 PUSH2 0x36EE JUMP JUMPDEST DUP1 ISZERO PUSH2 0x13C6 JUMPI DUP1 PUSH1 0x1F LT PUSH2 0x139B JUMPI PUSH2 0x100 DUP1 DUP4 SLOAD DIV MUL DUP4 MSTORE SWAP2 PUSH1 0x20 ADD SWAP2 PUSH2 0x13C6 JUMP JUMPDEST DUP3 ADD SWAP2 SWAP1 PUSH1 0x0 MSTORE PUSH1 0x20 PUSH1 0x0 KECCAK256 SWAP1 JUMPDEST DUP2 SLOAD DUP2 MSTORE SWAP1 PUSH1 0x1 ADD SWAP1 PUSH1 0x20 ADD DUP1 DUP4 GT PUSH2 0x13A9 JUMPI DUP3 SWAP1 SUB PUSH1 0x1F AND DUP3 ADD SWAP2 JUMPDEST POP POP POP POP POP SWAP5 POP PUSH2 0x13D6 DUP10 PUSH2 0x2201 JUMP JUMPDEST PUSH1 0x7 DUP2 GT ISZERO PUSH2 0x13E7 JUMPI PUSH2 0x13E7 PUSH2 0x375A JUMP JUMPDEST SWAP4 POP PUSH2 0x13F2 DUP10 PUSH2 0x22FB JUMP JUMPDEST SWAP3 POP PUSH2 0x13FD DUP10 PUSH2 0x2335 JUMP JUMPDEST SWAP2 POP POP SWAP2 SWAP4 SWAP6 SWAP8 SWAP1 SWAP3 SWAP5 SWAP7 POP JUMP JUMPDEST PUSH1 0x7 DUP1 SLOAD PUSH2 0xB5C SWAP1 PUSH2 0x36EE JUMP JUMPDEST PUSH1 0x8 SLOAD PUSH1 0x1 PUSH1 0x1 PUSH1 0xA0 SHL SUB AND CALLER EQ PUSH2 0x1442 JUMPI PUSH1 0x40 MLOAD PUSH3 0x461BCD PUSH1 0xE5 SHL DUP2 MSTORE PUSH1 0x4 ADD PUSH2 0x90E SWAP1 PUSH2 0x3541 JUMP JUMPDEST PUSH2 0x1484 DUP5 DUP4 DUP4 DUP1 DUP1 PUSH1 0x1F ADD PUSH1 0x20 DUP1 SWAP2 DIV MUL PUSH1 0x20 ADD PUSH1 0x40 MLOAD SWAP1 DUP2 ADD PUSH1 0x40 MSTORE DUP1 SWAP4 SWAP3 SWAP2 SWAP1 DUP2 DUP2 MSTORE PUSH1 0x20 ADD DUP4 DUP4 DUP1 DUP3 DUP5 CALLDATACOPY PUSH1 0x0 SWAP3 ADD SWAP2 SWAP1 SWAP2 MSTORE POP DUP9 SWAP3 POP PUSH2 0x2364 SWAP2 POP POP JUMP JUMPDEST POP POP POP POP POP JUMP JUMPDEST DUP4 TIMESTAMP GT ISZERO PUSH2 0x14C5 JUMPI PUSH1 0x40 MLOAD PUSH3 0x461BCD PUSH1 0xE5 SHL DUP2 MSTORE PUSH1 0x20 PUSH1 0x4 DUP3 ADD MSTORE PUSH1 0x7 PUSH1 0x24 DUP3 ADD MSTORE PUSH7 0x115E1C1A5C9959 PUSH1 0xCA SHL PUSH1 0x44 DUP3 ADD MSTORE PUSH1 0x64 ADD PUSH2 0x90E JUMP JUMPDEST PUSH1 0x40 DUP1 MLOAD PUSH32 0xE48329057BFD03D55E49B547132E39CFFD9C1820AD7B9D4C5307691425D15ADF PUSH1 0x20 DUP3 ADD MSTORE PUSH1 0x1 PUSH1 0x1 PUSH1 0xA0 SHL SUB DUP9 AND SWAP2 DUP2 ADD SWAP2 SWAP1 SWAP2 MSTORE PUSH1 0x60 DUP2 ADD DUP7 SWAP1 MSTORE PUSH1 0x80 DUP2 ADD DUP6 SWAP1 MSTORE PUSH1 0x0 SWAP1 PUSH2 0x1529 SWAP1 PUSH2 0x1521 SWAP1 PUSH1 0xA0 ADD PUSH2 0xAE0 JUMP JUMPDEST DUP6 DUP6 DUP6 PUSH2 0x1DF0 JUMP JUMPDEST SWAP1 POP PUSH2 0x1535 DUP2 DUP9 PUSH2 0x1FF1 JUMP JUMPDEST POP POP POP POP POP POP POP JUMP JUMPDEST PUSH1 0x8 SLOAD PUSH1 0x1 PUSH1 0x1 PUSH1 0xA0 SHL SUB AND CALLER EQ PUSH2 0x1568 JUMPI PUSH1 0x40 MLOAD PUSH3 0x461BCD PUSH1 0xE5 SHL DUP2 MSTORE PUSH1 0x4 ADD PUSH2 0x90E SWAP1 PUSH2 0x3541 JUMP JUMPDEST DUP1 MLOAD PUSH2 0x92A SWAP1 PUSH1 0x5 SWAP1 PUSH1 0x20 DUP5 ADD SWAP1 PUSH2 0x2D91 JUMP JUMPDEST PUSH1 0x0 PUSH2 0xFBC DUP3 PUSH2 0x2201 JUMP JUMPDEST PUSH1 0x1 PUSH1 0x1 PUSH1 0xA0 SHL SUB SWAP2 DUP3 AND PUSH1 0x0 SWAP1 DUP2 MSTORE PUSH1 0x1 PUSH1 0x20 SWAP1 DUP2 MSTORE PUSH1 0x40 DUP1 DUP4 KECCAK256 SWAP4 SWAP1 SWAP5 AND DUP3 MSTORE SWAP2 SWAP1 SWAP2 MSTORE KECCAK256 SLOAD SWAP1 JUMP JUMPDEST PUSH1 0x8 SLOAD PUSH1 0x1 PUSH1 0x1 PUSH1 0xA0 SHL SUB AND CALLER EQ PUSH2 0x15DB JUMPI PUSH1 0x40 MLOAD PUSH3 0x461BCD PUSH1 0xE5 SHL DUP2 MSTORE PUSH1 0x4 ADD PUSH2 0x90E SWAP1 PUSH2 0x3541 JUMP JUMPDEST PUSH1 0xE SSTORE JUMP JUMPDEST PUSH1 0x0 PUSH2 0xA6D DUP4 DUP4 PUSH2 0x238A JUMP JUMPDEST PUSH1 0x8 SLOAD PUSH1 0x1 PUSH1 0x1 PUSH1 0xA0 SHL SUB AND CALLER EQ PUSH2 0x1616 JUMPI PUSH1 0x40 MLOAD PUSH3 0x461BCD PUSH1 0xE5 SHL DUP2 MSTORE PUSH1 0x4 ADD PUSH2 0x90E SWAP1 PUSH2 0x3541 JUMP JUMPDEST PUSH1 0xC SSTORE JUMP JUMPDEST PUSH1 0x0 PUSH2 0x2710 PUSH2 0x1629 PUSH1 0xF SLOAD SWAP1 JUMP JUMPDEST PUSH2 0x1632 DUP5 PUSH2 0xF6C JUMP JUMPDEST PUSH2 0x163C SWAP2 SWAP1 PUSH2 0x368C JUMP JUMPDEST PUSH2 0xFBC SWAP2 SWAP1 PUSH2 0x366A JUMP JUMPDEST PUSH1 0x8 SLOAD PUSH1 0x1 PUSH1 0x1 PUSH1 0xA0 SHL SUB AND CALLER EQ PUSH2 0x1670 JUMPI PUSH1 0x40 MLOAD PUSH3 0x461BCD PUSH1 0xE5 SHL DUP2 MSTORE PUSH1 0x4 ADD PUSH2 0x90E SWAP1 PUSH2 0x3541 JUMP JUMPDEST PUSH1 0xF SSTORE JUMP JUMPDEST PUSH1 0x0 CALLER PUSH2 0x1681 DUP6 PUSH2 0xBF3 JUMP JUMPDEST PUSH1 0x1 PUSH1 0x1 PUSH1 0xA0 SHL SUB AND EQ PUSH2 0x16C2 JUMPI PUSH1 0x40 MLOAD PUSH3 0x461BCD PUSH1 0xE5 SHL DUP2 MSTORE PUSH1 0x20 PUSH1 0x4 DUP3 ADD MSTORE PUSH1 0x8 PUSH1 0x24 DUP3 ADD MSTORE PUSH8 0x14995A9958DD1959 PUSH1 0xC2 SHL PUSH1 0x44 DUP3 ADD MSTORE PUSH1 0x64 ADD PUSH2 0x90E JUMP JUMPDEST PUSH2 0xBEB DUP4 DUP6 DUP5 PUSH2 0x1E18 JUMP JUMPDEST PUSH1 0x0 DUP1 PUSH1 0x0 DUP1 PUSH2 0x16DC DUP6 PUSH2 0x10CE JUMP JUMPDEST POP POP POP POP SWAP3 POP SWAP3 POP SWAP3 POP PUSH1 0x0 PUSH2 0x16F1 DUP7 PUSH2 0x2201 JUMP JUMPDEST SWAP1 POP PUSH1 0x4 DUP2 PUSH1 0x7 DUP2 GT ISZERO PUSH2 0x1707 JUMPI PUSH2 0x1707 PUSH2 0x375A JUMP JUMPDEST EQ DUP1 PUSH2 0x1724 JUMPI POP PUSH1 0x5 DUP2 PUSH1 0x7 DUP2 GT ISZERO PUSH2 0x1722 JUMPI PUSH2 0x1722 PUSH2 0x375A JUMP JUMPDEST EQ JUMPDEST PUSH2 0x1770 JUMPI PUSH1 0x40 MLOAD PUSH3 0x461BCD PUSH1 0xE5 SHL DUP2 MSTORE PUSH1 0x20 PUSH1 0x4 DUP3 ADD MSTORE PUSH1 0x17 PUSH1 0x24 DUP3 ADD MSTORE PUSH32 0x50726F706F73616C206E6F74207375636365737366756C000000000000000000 PUSH1 0x44 DUP3 ADD MSTORE PUSH1 0x64 ADD PUSH2 0x90E JUMP JUMPDEST PUSH1 0x0 DUP7 DUP2 MSTORE PUSH1 0x9 PUSH1 0x20 MSTORE PUSH1 0x40 SWAP1 DUP2 SWAP1 KECCAK256 PUSH1 0x5 ADD DUP1 SLOAD PUSH1 0xFF NOT AND PUSH1 0x1 OR SWAP1 SSTORE MLOAD PUSH32 0x712AE1383F79AC853F8D882153778E0260EF8F03B504E2866E0593E04D2B291F SWAP1 PUSH2 0x17BE SWAP1 DUP9 DUP2 MSTORE PUSH1 0x20 ADD SWAP1 JUMP JUMPDEST PUSH1 0x40 MLOAD DUP1 SWAP2 SUB SWAP1 LOG1 PUSH2 0x17D2 DUP7 DUP6 DUP6 DUP6 PUSH2 0x23AC JUMP JUMPDEST POP SWAP4 SWAP5 SWAP4 POP POP POP POP JUMP JUMPDEST DUP1 SLOAD PUSH1 0x0 SWAP1 DUP1 ISZERO PUSH2 0x1825 JUMPI DUP3 PUSH2 0x17F3 PUSH1 0x1 DUP4 PUSH2 0x36AB JUMP JUMPDEST DUP2 SLOAD DUP2 LT PUSH2 0x1803 JUMPI PUSH2 0x1803 PUSH2 0x3770 JUMP JUMPDEST PUSH1 0x0 SWAP2 DUP3 MSTORE PUSH1 0x20 SWAP1 SWAP2 KECCAK256 ADD SLOAD PUSH5 0x100000000 SWAP1 DIV PUSH1 0x1 PUSH1 0x1 PUSH1 0xE0 SHL SUB AND PUSH2 0x1828 JUMP JUMPDEST PUSH1 0x0 JUMPDEST PUSH1 0x1 PUSH1 0x1 PUSH1 0xE0 SHL SUB AND SWAP4 SWAP3 POP POP POP JUMP JUMPDEST DUP2 SLOAD PUSH1 0x0 SWAP1 DUP2 SWAP1 DUP2 PUSH2 0x1849 DUP7 PUSH2 0x17DC JUMP JUMPDEST SWAP1 POP PUSH1 0x0 DUP3 GT DUP1 ISZERO PUSH2 0x1887 JUMPI POP NUMBER DUP7 PUSH2 0x1863 PUSH1 0x1 DUP6 PUSH2 0x36AB JUMP JUMPDEST DUP2 SLOAD DUP2 LT PUSH2 0x1873 JUMPI PUSH2 0x1873 PUSH2 0x3770 JUMP JUMPDEST PUSH1 0x0 SWAP2 DUP3 MSTORE PUSH1 0x20 SWAP1 SWAP2 KECCAK256 ADD SLOAD PUSH4 0xFFFFFFFF AND EQ JUMPDEST ISZERO PUSH2 0x18E7 JUMPI PUSH2 0x1895 DUP6 PUSH2 0x195E JUMP JUMPDEST DUP7 PUSH2 0x18A1 PUSH1 0x1 DUP6 PUSH2 0x36AB JUMP JUMPDEST DUP2 SLOAD DUP2 LT PUSH2 0x18B1 JUMPI PUSH2 0x18B1 PUSH2 0x3770 JUMP JUMPDEST SWAP1 PUSH1 0x0 MSTORE PUSH1 0x20 PUSH1 0x0 KECCAK256 ADD PUSH1 0x0 ADD PUSH1 0x4 PUSH2 0x100 EXP DUP2 SLOAD DUP2 PUSH1 0x1 PUSH1 0x1 PUSH1 0xE0 SHL SUB MUL NOT AND SWAP1 DUP4 PUSH1 0x1 PUSH1 0x1 PUSH1 0xE0 SHL SUB AND MUL OR SWAP1 SSTORE POP PUSH2 0x1955 JUMP JUMPDEST DUP6 PUSH1 0x0 ADD PUSH1 0x40 MLOAD DUP1 PUSH1 0x40 ADD PUSH1 0x40 MSTORE DUP1 PUSH2 0x18FF NUMBER PUSH2 0x19CB JUMP JUMPDEST PUSH4 0xFFFFFFFF AND DUP2 MSTORE PUSH1 0x20 ADD PUSH2 0x1913 DUP9 PUSH2 0x195E JUMP JUMPDEST PUSH1 0x1 PUSH1 0x1 PUSH1 0xE0 SHL SUB SWAP1 DUP2 AND SWAP1 SWAP2 MSTORE DUP3 SLOAD PUSH1 0x1 DUP2 ADD DUP5 SSTORE PUSH1 0x0 SWAP4 DUP5 MSTORE PUSH1 0x20 SWAP4 DUP5 SWAP1 KECCAK256 DUP4 MLOAD SWAP5 SWAP1 SWAP4 ADD MLOAD SWAP1 SWAP2 AND PUSH5 0x100000000 MUL PUSH4 0xFFFFFFFF SWAP1 SWAP4 AND SWAP3 SWAP1 SWAP3 OR SWAP2 ADD SSTORE JUMPDEST SWAP6 SWAP4 SWAP5 POP POP POP POP JUMP JUMPDEST PUSH1 0x0 PUSH1 0x1 PUSH1 0x1 PUSH1 0xE0 SHL SUB DUP3 GT ISZERO PUSH2 0x19C7 JUMPI PUSH1 0x40 MLOAD PUSH3 0x461BCD PUSH1 0xE5 SHL DUP2 MSTORE PUSH1 0x20 PUSH1 0x4 DUP3 ADD MSTORE PUSH1 0x27 PUSH1 0x24 DUP3 ADD MSTORE PUSH32 0x53616665436173743A2076616C756520646F65736E27742066697420696E2032 PUSH1 0x44 DUP3 ADD MSTORE PUSH7 0x32342062697473 PUSH1 0xC8 SHL PUSH1 0x64 DUP3 ADD MSTORE PUSH1 0x84 ADD PUSH2 0x90E JUMP JUMPDEST POP SWAP1 JUMP JUMPDEST PUSH1 0x0 PUSH4 0xFFFFFFFF DUP3 GT ISZERO PUSH2 0x19C7 JUMPI PUSH1 0x40 MLOAD PUSH3 0x461BCD PUSH1 0xE5 SHL DUP2 MSTORE PUSH1 0x20 PUSH1 0x4 DUP3 ADD MSTORE PUSH1 0x26 PUSH1 0x24 DUP3 ADD MSTORE PUSH32 0x53616665436173743A2076616C756520646F65736E27742066697420696E2033 PUSH1 0x44 DUP3 ADD MSTORE PUSH6 0x322062697473 PUSH1 0xD0 SHL PUSH1 0x64 DUP3 ADD MSTORE PUSH1 0x84 ADD PUSH2 0x90E JUMP JUMPDEST PUSH1 0x1 PUSH1 0x1 PUSH1 0xA0 SHL SUB DUP4 AND PUSH2 0x1A92 JUMPI PUSH1 0x40 MLOAD PUSH3 0x461BCD PUSH1 0xE5 SHL DUP2 MSTORE PUSH1 0x20 PUSH1 0x4 DUP3 ADD MSTORE PUSH1 0x24 DUP1 DUP3 ADD MSTORE PUSH32 0x45524332303A20617070726F76652066726F6D20746865207A65726F20616464 PUSH1 0x44 DUP3 ADD MSTORE PUSH4 0x72657373 PUSH1 0xE0 SHL PUSH1 0x64 DUP3 ADD MSTORE PUSH1 0x84 ADD PUSH2 0x90E JUMP JUMPDEST PUSH1 0x1 PUSH1 0x1 PUSH1 0xA0 SHL SUB DUP3 AND PUSH2 0x1AF3 JUMPI PUSH1 0x40 MLOAD PUSH3 0x461BCD PUSH1 0xE5 SHL DUP2 MSTORE PUSH1 0x20 PUSH1 0x4 DUP3 ADD MSTORE PUSH1 0x22 PUSH1 0x24 DUP3 ADD MSTORE PUSH32 0x45524332303A20617070726F766520746F20746865207A65726F206164647265 PUSH1 0x44 DUP3 ADD MSTORE PUSH2 0x7373 PUSH1 0xF0 SHL PUSH1 0x64 DUP3 ADD MSTORE PUSH1 0x84 ADD PUSH2 0x90E JUMP JUMPDEST PUSH1 0x1 PUSH1 0x1 PUSH1 0xA0 SHL SUB DUP4 DUP2 AND PUSH1 0x0 DUP2 DUP2 MSTORE PUSH1 0x1 PUSH1 0x20 SWAP1 DUP2 MSTORE PUSH1 0x40 DUP1 DUP4 KECCAK256 SWAP5 DUP8 AND DUP1 DUP5 MSTORE SWAP5 DUP3 MSTORE SWAP2 DUP3 SWAP1 KECCAK256 DUP6 SWAP1 SSTORE SWAP1 MLOAD DUP5 DUP2 MSTORE PUSH32 0x8C5BE1E5EBEC7D5BD14F71427D1E84F3DD0314C0F7B2291E5B200AC8C7C3B925 SWAP2 ADD PUSH1 0x40 MLOAD DUP1 SWAP2 SUB SWAP1 LOG3 POP POP POP JUMP JUMPDEST PUSH1 0x0 PUSH2 0x1B60 DUP5 DUP5 PUSH2 0x1586 JUMP JUMPDEST SWAP1 POP PUSH1 0x0 NOT DUP2 EQ PUSH2 0x1BC8 JUMPI DUP2 DUP2 LT ISZERO PUSH2 0x1BBB JUMPI PUSH1 0x40 MLOAD PUSH3 0x461BCD PUSH1 0xE5 SHL DUP2 MSTORE PUSH1 0x20 PUSH1 0x4 DUP3 ADD MSTORE PUSH1 0x1D PUSH1 0x24 DUP3 ADD MSTORE PUSH32 0x45524332303A20696E73756666696369656E7420616C6C6F77616E6365000000 PUSH1 0x44 DUP3 ADD MSTORE PUSH1 0x64 ADD PUSH2 0x90E JUMP JUMPDEST PUSH2 0x1BC8 DUP5 DUP5 DUP5 DUP5 SUB PUSH2 0x1A30 JUMP JUMPDEST POP POP POP POP JUMP JUMPDEST PUSH1 0x1 PUSH1 0x1 PUSH1 0xA0 SHL SUB DUP4 AND PUSH2 0x1C32 JUMPI PUSH1 0x40 MLOAD PUSH3 0x461BCD PUSH1 0xE5 SHL DUP2 MSTORE PUSH1 0x20 PUSH1 0x4 DUP3 ADD MSTORE PUSH1 0x25 PUSH1 0x24 DUP3 ADD MSTORE PUSH32 0x45524332303A207472616E736665722066726F6D20746865207A65726F206164 PUSH1 0x44 DUP3 ADD MSTORE PUSH5 0x6472657373 PUSH1 0xD8 SHL PUSH1 0x64 DUP3 ADD MSTORE PUSH1 0x84 ADD PUSH2 0x90E JUMP JUMPDEST PUSH1 0x1 PUSH1 0x1 PUSH1 0xA0 SHL SUB DUP3 AND PUSH2 0x1C94 JUMPI PUSH1 0x40 MLOAD PUSH3 0x461BCD PUSH1 0xE5 SHL DUP2 MSTORE PUSH1 0x20 PUSH1 0x4 DUP3 ADD MSTORE PUSH1 0x23 PUSH1 0x24 DUP3 ADD MSTORE PUSH32 0x45524332303A207472616E7366657220746F20746865207A65726F2061646472 PUSH1 0x44 DUP3 ADD MSTORE PUSH3 0x657373 PUSH1 0xE8 SHL PUSH1 0x64 DUP3 ADD MSTORE PUSH1 0x84 ADD PUSH2 0x90E JUMP JUMPDEST PUSH1 0x1 PUSH1 0x1 PUSH1 0xA0 SHL SUB DUP4 AND PUSH1 0x0 SWAP1 DUP2 MSTORE PUSH1 0x20 DUP2 SWAP1 MSTORE PUSH1 0x40 SWAP1 KECCAK256 SLOAD DUP2 DUP2 LT ISZERO PUSH2 0x1D0C JUMPI PUSH1 0x40 MLOAD PUSH3 0x461BCD PUSH1 0xE5 SHL DUP2 MSTORE PUSH1 0x20 PUSH1 0x4 DUP3 ADD MSTORE PUSH1 0x26 PUSH1 0x24 DUP3 ADD MSTORE PUSH32 0x45524332303A207472616E7366657220616D6F756E7420657863656564732062 PUSH1 0x44 DUP3 ADD MSTORE PUSH6 0x616C616E6365 PUSH1 0xD0 SHL PUSH1 0x64 DUP3 ADD MSTORE PUSH1 0x84 ADD PUSH2 0x90E JUMP JUMPDEST PUSH1 0x1 PUSH1 0x1 PUSH1 0xA0 SHL SUB DUP1 DUP6 AND PUSH1 0x0 SWAP1 DUP2 MSTORE PUSH1 0x20 DUP2 SWAP1 MSTORE PUSH1 0x40 DUP1 DUP3 KECCAK256 DUP6 DUP6 SUB SWAP1 SSTORE SWAP2 DUP6 AND DUP2 MSTORE SWAP1 DUP2 KECCAK256 DUP1 SLOAD DUP5 SWAP3 SWAP1 PUSH2 0x1D43 SWAP1 DUP5 SWAP1 PUSH2 0x3627 JUMP JUMPDEST SWAP3 POP POP DUP2 SWAP1 SSTORE POP DUP3 PUSH1 0x1 PUSH1 0x1 PUSH1 0xA0 SHL SUB AND DUP5 PUSH1 0x1 PUSH1 0x1 PUSH1 0xA0 SHL SUB AND PUSH32 0xDDF252AD1BE2C89B69C2B068FC378DAA952BA7F163C4A11628F55A4DF523B3EF DUP5 PUSH1 0x40 MLOAD PUSH2 0x1D8F SWAP2 DUP2 MSTORE PUSH1 0x20 ADD SWAP1 JUMP JUMPDEST PUSH1 0x40 MLOAD DUP1 SWAP2 SUB SWAP1 LOG3 PUSH2 0x1BC8 DUP5 DUP5 DUP5 PUSH2 0x24B1 JUMP JUMPDEST PUSH1 0x0 PUSH2 0xFBC PUSH2 0x1DAF PUSH2 0x24BC JUMP JUMPDEST DUP4 PUSH1 0x40 MLOAD PUSH2 0x1901 PUSH1 0xF0 SHL PUSH1 0x20 DUP3 ADD MSTORE PUSH1 0x22 DUP2 ADD DUP4 SWAP1 MSTORE PUSH1 0x42 DUP2 ADD DUP3 SWAP1 MSTORE PUSH1 0x0 SWAP1 PUSH1 0x62 ADD PUSH1 0x40 MLOAD PUSH1 0x20 DUP2 DUP4 SUB SUB DUP2 MSTORE SWAP1 PUSH1 0x40 MSTORE DUP1 MLOAD SWAP1 PUSH1 0x20 ADD KECCAK256 SWAP1 POP SWAP3 SWAP2 POP POP JUMP JUMPDEST PUSH1 0x0 DUP1 PUSH1 0x0 PUSH2 0x1E01 DUP8 DUP8 DUP8 DUP8 PUSH2 0x25E3 JUMP JUMPDEST SWAP2 POP SWAP2 POP PUSH2 0x1E0E DUP2 PUSH2 0x26D0 JUMP JUMPDEST POP SWAP6 SWAP5 POP POP POP POP POP JUMP JUMPDEST PUSH1 0x0 DUP4 DUP2 MSTORE PUSH1 0x9 PUSH1 0x20 MSTORE PUSH1 0x40 DUP2 KECCAK256 PUSH1 0x1 PUSH2 0x1E31 DUP7 PUSH2 0x2201 JUMP JUMPDEST PUSH1 0x7 DUP2 GT ISZERO PUSH2 0x1E42 JUMPI PUSH2 0x1E42 PUSH2 0x375A JUMP JUMPDEST EQ PUSH2 0x1E7A JUMPI PUSH1 0x40 MLOAD PUSH3 0x461BCD PUSH1 0xE5 SHL DUP2 MSTORE PUSH1 0x20 PUSH1 0x4 DUP3 ADD MSTORE PUSH1 0x8 PUSH1 0x24 DUP3 ADD MSTORE PUSH8 0x496E616374697665 PUSH1 0xC0 SHL PUSH1 0x44 DUP3 ADD MSTORE PUSH1 0x64 ADD PUSH2 0x90E JUMP JUMPDEST PUSH1 0x40 DUP1 MLOAD PUSH1 0x20 DUP2 ADD SWAP1 SWAP2 MSTORE PUSH1 0x3 DUP3 ADD SLOAD PUSH1 0x1 PUSH1 0x1 PUSH1 0x40 SHL SUB AND SWAP1 DUP2 SWAP1 MSTORE PUSH1 0x0 SWAP1 PUSH2 0x1EA5 SWAP1 DUP7 SWAP1 PUSH2 0x15E0 JUMP JUMPDEST SWAP1 POP PUSH2 0x1EB3 DUP7 DUP7 DUP7 DUP5 PUSH2 0x288B JUMP JUMPDEST PUSH1 0x40 DUP1 MLOAD DUP8 DUP2 MSTORE PUSH1 0xFF DUP7 AND PUSH1 0x20 DUP3 ADD MSTORE SWAP1 DUP2 ADD DUP3 SWAP1 MSTORE PUSH1 0x1 PUSH1 0x1 PUSH1 0xA0 SHL SUB DUP7 AND SWAP1 PUSH32 0x2C9DEB38F462962EADBD85A9D3A4120503EE091F1582EAAA10AA8C6797651D29 SWAP1 PUSH1 0x60 ADD PUSH1 0x40 MLOAD DUP1 SWAP2 SUB SWAP1 LOG2 SWAP6 SWAP5 POP POP POP POP POP JUMP JUMPDEST PUSH1 0x1 PUSH1 0x1 PUSH1 0xA0 SHL SUB DUP3 AND PUSH2 0x1F60 JUMPI PUSH1 0x40 MLOAD PUSH3 0x461BCD PUSH1 0xE5 SHL DUP2 MSTORE PUSH1 0x20 PUSH1 0x4 DUP3 ADD MSTORE PUSH1 0x1F PUSH1 0x24 DUP3 ADD MSTORE PUSH32 0x45524332303A206D696E7420746F20746865207A65726F206164647265737300 PUSH1 0x44 DUP3 ADD MSTORE PUSH1 0x64 ADD PUSH2 0x90E JUMP JUMPDEST DUP1 PUSH1 0x2 PUSH1 0x0 DUP3 DUP3 SLOAD PUSH2 0x1F72 SWAP2 SWAP1 PUSH2 0x3627 JUMP JUMPDEST SWAP1 SWAP2 SSTORE POP POP PUSH1 0x1 PUSH1 0x1 PUSH1 0xA0 SHL SUB DUP3 AND PUSH1 0x0 SWAP1 DUP2 MSTORE PUSH1 0x20 DUP2 SWAP1 MSTORE PUSH1 0x40 DUP2 KECCAK256 DUP1 SLOAD DUP4 SWAP3 SWAP1 PUSH2 0x1F9F SWAP1 DUP5 SWAP1 PUSH2 0x3627 JUMP JUMPDEST SWAP1 SWAP2 SSTORE POP POP PUSH1 0x40 MLOAD DUP2 DUP2 MSTORE PUSH1 0x1 PUSH1 0x1 PUSH1 0xA0 SHL SUB DUP4 AND SWAP1 PUSH1 0x0 SWAP1 PUSH32 0xDDF252AD1BE2C89B69C2B068FC378DAA952BA7F163C4A11628F55A4DF523B3EF SWAP1 PUSH1 0x20 ADD PUSH1 0x40 MLOAD DUP1 SWAP2 SUB SWAP1 LOG3 PUSH2 0x92A PUSH1 0x0 DUP4 DUP4 PUSH2 0x24B1 JUMP JUMPDEST PUSH1 0x0 PUSH2 0x1FFC DUP4 PUSH2 0xBF3 JUMP JUMPDEST PUSH1 0x1 PUSH1 0x1 PUSH1 0xA0 SHL SUB DUP5 DUP2 AND PUSH1 0x0 DUP2 DUP2 MSTORE PUSH1 0x11 PUSH1 0x20 MSTORE PUSH1 0x40 DUP1 DUP3 KECCAK256 DUP1 SLOAD PUSH1 0x1 PUSH1 0x1 PUSH1 0xA0 SHL SUB NOT AND DUP9 DUP7 AND SWAP1 DUP2 OR SWAP1 SWAP2 SSTORE SWAP1 MLOAD SWAP5 SWAP6 POP SWAP4 SWAP3 DUP6 AND SWAP3 PUSH32 0x3134E8A2E6D97E929A7E54011EA5485D7D196DD5F0BA4D4EF95803E8E3FC257F SWAP2 SWAP1 LOG4 PUSH2 0x2082 DUP2 DUP4 PUSH2 0x207D DUP7 PUSH1 0x1 PUSH1 0x1 PUSH1 0xA0 SHL SUB AND PUSH1 0x0 SWAP1 DUP2 MSTORE PUSH1 0x20 DUP2 SWAP1 MSTORE PUSH1 0x40 SWAP1 KECCAK256 SLOAD SWAP1 JUMP JUMPDEST PUSH2 0x2941 JUMP JUMPDEST POP POP POP JUMP JUMPDEST PUSH1 0x0 PUSH1 0x1 PUSH1 0x1 PUSH1 0x40 SHL SUB DUP3 GT ISZERO PUSH2 0x19C7 JUMPI PUSH1 0x40 MLOAD PUSH3 0x461BCD PUSH1 0xE5 SHL DUP2 MSTORE PUSH1 0x20 PUSH1 0x4 DUP3 ADD MSTORE PUSH1 0x26 PUSH1 0x24 DUP3 ADD MSTORE PUSH32 0x53616665436173743A2076616C756520646F65736E27742066697420696E2036 PUSH1 0x44 DUP3 ADD MSTORE PUSH6 0x342062697473 PUSH1 0xD0 SHL PUSH1 0x64 DUP3 ADD MSTORE PUSH1 0x84 ADD PUSH2 0x90E JUMP JUMPDEST POP JUMP JUMPDEST PUSH1 0x0 NUMBER DUP3 LT PUSH2 0x2143 JUMPI PUSH1 0x40 MLOAD PUSH3 0x461BCD PUSH1 0xE5 SHL DUP2 MSTORE PUSH1 0x20 PUSH1 0x4 DUP3 ADD DUP2 SWAP1 MSTORE PUSH1 0x24 DUP3 ADD MSTORE PUSH32 0x436865636B706F696E74733A20626C6F636B206E6F7420796574206D696E6564 PUSH1 0x44 DUP3 ADD MSTORE PUSH1 0x64 ADD PUSH2 0x90E JUMP JUMPDEST DUP3 SLOAD PUSH1 0x0 JUMPDEST DUP2 DUP2 LT ISZERO PUSH2 0x21A8 JUMPI PUSH1 0x0 PUSH2 0x215C DUP3 DUP5 PUSH2 0x2AD2 JUMP JUMPDEST SWAP1 POP DUP5 DUP7 PUSH1 0x0 ADD DUP3 DUP2 SLOAD DUP2 LT PUSH2 0x2174 JUMPI PUSH2 0x2174 PUSH2 0x3770 JUMP JUMPDEST PUSH1 0x0 SWAP2 DUP3 MSTORE PUSH1 0x20 SWAP1 SWAP2 KECCAK256 ADD SLOAD PUSH4 0xFFFFFFFF AND GT ISZERO PUSH2 0x2194 JUMPI DUP1 SWAP3 POP PUSH2 0x21A2 JUMP JUMPDEST PUSH2 0x219F DUP2 PUSH1 0x1 PUSH2 0x3627 JUMP JUMPDEST SWAP2 POP JUMPDEST POP PUSH2 0x2148 JUMP JUMPDEST DUP2 ISZERO PUSH2 0x21EC JUMPI DUP5 PUSH2 0x21BA PUSH1 0x1 DUP5 PUSH2 0x36AB JUMP JUMPDEST DUP2 SLOAD DUP2 LT PUSH2 0x21CA JUMPI PUSH2 0x21CA PUSH2 0x3770 JUMP JUMPDEST PUSH1 0x0 SWAP2 DUP3 MSTORE PUSH1 0x20 SWAP1 SWAP2 KECCAK256 ADD SLOAD PUSH5 0x100000000 SWAP1 DIV PUSH1 0x1 PUSH1 0x1 PUSH1 0xE0 SHL SUB AND PUSH2 0x21EF JUMP JUMPDEST PUSH1 0x0 JUMPDEST PUSH1 0x1 PUSH1 0x1 PUSH1 0xE0 SHL SUB AND SWAP6 SWAP5 POP POP POP POP POP JUMP JUMPDEST PUSH1 0x0 DUP2 DUP2 MSTORE PUSH1 0x9 PUSH1 0x20 MSTORE PUSH1 0x40 DUP2 KECCAK256 PUSH1 0x5 DUP2 ADD SLOAD PUSH1 0xFF AND ISZERO PUSH2 0x2225 JUMPI POP PUSH1 0x7 SWAP3 SWAP2 POP POP JUMP JUMPDEST PUSH1 0x5 DUP2 ADD SLOAD PUSH2 0x100 SWAP1 DIV PUSH1 0xFF AND ISZERO PUSH2 0x2240 JUMPI POP PUSH1 0x2 SWAP3 SWAP2 POP POP JUMP JUMPDEST PUSH1 0x0 PUSH2 0x224B DUP5 PUSH2 0x22FB JUMP JUMPDEST SWAP1 POP DUP1 PUSH2 0x2287 JUMPI PUSH1 0x40 MLOAD PUSH3 0x461BCD PUSH1 0xE5 SHL DUP2 MSTORE PUSH1 0x20 PUSH1 0x4 DUP3 ADD MSTORE PUSH1 0xA PUSH1 0x24 DUP3 ADD MSTORE PUSH10 0x1D5B9ADB9BDDDB881A59 PUSH1 0xB2 SHL PUSH1 0x44 DUP3 ADD MSTORE PUSH1 0x64 ADD PUSH2 0x90E JUMP JUMPDEST NUMBER DUP2 GT ISZERO PUSH2 0x2299 JUMPI POP PUSH1 0x0 SWAP4 SWAP3 POP POP POP JUMP JUMPDEST PUSH1 0x0 PUSH2 0x22A4 DUP6 PUSH2 0x2335 JUMP JUMPDEST SWAP1 POP PUSH2 0x22AF DUP6 PUSH2 0x2AED JUMP JUMPDEST DUP1 ISZERO PUSH2 0x22CE JUMPI POP PUSH1 0x0 DUP6 DUP2 MSTORE PUSH1 0x10 PUSH1 0x20 MSTORE PUSH1 0x40 SWAP1 KECCAK256 DUP1 SLOAD PUSH1 0x1 SWAP1 SWAP2 ADD SLOAD GT JUMPDEST ISZERO PUSH2 0x22DE JUMPI POP PUSH1 0x4 SWAP5 SWAP4 POP POP POP POP JUMP JUMPDEST NUMBER DUP2 LT PUSH2 0x22F0 JUMPI POP PUSH1 0x1 SWAP5 SWAP4 POP POP POP POP JUMP JUMPDEST POP PUSH1 0x3 SWAP5 SWAP4 POP POP POP POP JUMP JUMPDEST PUSH1 0x0 DUP2 DUP2 MSTORE PUSH1 0x9 PUSH1 0x20 SWAP1 DUP2 MSTORE PUSH1 0x40 DUP1 DUP4 KECCAK256 DUP2 MLOAD SWAP3 DUP4 ADD SWAP1 SWAP2 MSTORE PUSH1 0x3 ADD SLOAD PUSH1 0x1 PUSH1 0x1 PUSH1 0x40 SHL SUB AND SWAP1 DUP2 SWAP1 MSTORE JUMPDEST PUSH1 0x1 PUSH1 0x1 PUSH1 0x40 SHL SUB AND SWAP3 SWAP2 POP POP JUMP JUMPDEST PUSH1 0x0 DUP2 DUP2 MSTORE PUSH1 0x9 PUSH1 0x20 SWAP1 DUP2 MSTORE PUSH1 0x40 DUP1 DUP4 KECCAK256 DUP2 MLOAD SWAP3 DUP4 ADD SWAP1 SWAP2 MSTORE PUSH1 0x4 ADD SLOAD PUSH1 0x1 PUSH1 0x1 PUSH1 0x40 SHL SUB AND SWAP1 DUP2 SWAP1 MSTORE PUSH2 0x2326 JUMP JUMPDEST PUSH1 0x60 PUSH2 0xBEB DUP5 DUP5 DUP5 PUSH1 0x40 MLOAD DUP1 PUSH1 0x60 ADD PUSH1 0x40 MSTORE DUP1 PUSH1 0x29 DUP2 MSTORE PUSH1 0x20 ADD PUSH2 0x379D PUSH1 0x29 SWAP2 CODECOPY PUSH2 0x2B30 JUMP JUMPDEST PUSH1 0x1 PUSH1 0x1 PUSH1 0xA0 SHL SUB DUP3 AND PUSH1 0x0 SWAP1 DUP2 MSTORE PUSH1 0x12 PUSH1 0x20 MSTORE PUSH1 0x40 DUP2 KECCAK256 PUSH2 0xA6D SWAP1 DUP4 PUSH2 0x20F2 JUMP JUMPDEST PUSH1 0x40 DUP1 MLOAD DUP1 DUP3 ADD SWAP1 SWAP2 MSTORE PUSH1 0xD DUP2 MSTORE PUSH13 0x10D85B1B081C995D995C9D1959 PUSH1 0x9A SHL PUSH1 0x20 DUP3 ADD MSTORE PUSH1 0x0 JUMPDEST DUP5 MLOAD DUP2 LT ISZERO PUSH2 0x24A9 JUMPI PUSH1 0x0 DUP1 DUP7 DUP4 DUP2 MLOAD DUP2 LT PUSH2 0x23F1 JUMPI PUSH2 0x23F1 PUSH2 0x3770 JUMP JUMPDEST PUSH1 0x20 MUL PUSH1 0x20 ADD ADD MLOAD PUSH1 0x1 PUSH1 0x1 PUSH1 0xA0 SHL SUB AND DUP7 DUP5 DUP2 MLOAD DUP2 LT PUSH2 0x2414 JUMPI PUSH2 0x2414 PUSH2 0x3770 JUMP JUMPDEST PUSH1 0x20 MUL PUSH1 0x20 ADD ADD MLOAD DUP7 DUP6 DUP2 MLOAD DUP2 LT PUSH2 0x242E JUMPI PUSH2 0x242E PUSH2 0x3770 JUMP JUMPDEST PUSH1 0x20 MUL PUSH1 0x20 ADD ADD MLOAD PUSH1 0x40 MLOAD PUSH2 0x2443 SWAP2 SWAP1 PUSH2 0x3443 JUMP JUMPDEST PUSH1 0x0 PUSH1 0x40 MLOAD DUP1 DUP4 SUB DUP2 DUP6 DUP8 GAS CALL SWAP3 POP POP POP RETURNDATASIZE DUP1 PUSH1 0x0 DUP2 EQ PUSH2 0x2480 JUMPI PUSH1 0x40 MLOAD SWAP2 POP PUSH1 0x1F NOT PUSH1 0x3F RETURNDATASIZE ADD AND DUP3 ADD PUSH1 0x40 MSTORE RETURNDATASIZE DUP3 MSTORE RETURNDATASIZE PUSH1 0x0 PUSH1 0x20 DUP5 ADD RETURNDATACOPY PUSH2 0x2485 JUMP JUMPDEST PUSH1 0x60 SWAP2 POP JUMPDEST POP SWAP2 POP SWAP2 POP PUSH2 0x2495 DUP3 DUP3 DUP7 PUSH2 0x2C52 JUMP JUMPDEST POP POP POP DUP1 PUSH2 0x24A2 SWAP1 PUSH2 0x3729 JUMP JUMPDEST SWAP1 POP PUSH2 0x23D3 JUMP JUMPDEST POP POP POP POP POP POP JUMP JUMPDEST PUSH2 0x2082 DUP4 DUP4 DUP4 PUSH2 0x2C8B JUMP JUMPDEST PUSH1 0x0 ADDRESS PUSH1 0x1 PUSH1 0x1 PUSH1 0xA0 SHL SUB PUSH32 0x0 AND EQ DUP1 ISZERO PUSH2 0x2515 JUMPI POP PUSH32 0x0 CHAINID EQ JUMPDEST ISZERO PUSH2 0x253F JUMPI POP PUSH32 0x0 SWAP1 JUMP JUMPDEST POP PUSH1 0x40 DUP1 MLOAD PUSH32 0x0 PUSH1 0x20 DUP1 DUP4 ADD SWAP2 SWAP1 SWAP2 MSTORE PUSH32 0x0 DUP3 DUP5 ADD MSTORE PUSH32 0x0 PUSH1 0x60 DUP4 ADD MSTORE CHAINID PUSH1 0x80 DUP4 ADD MSTORE ADDRESS PUSH1 0xA0 DUP1 DUP5 ADD SWAP2 SWAP1 SWAP2 MSTORE DUP4 MLOAD DUP1 DUP5 SUB SWAP1 SWAP2 ADD DUP2 MSTORE PUSH1 0xC0 SWAP1 SWAP3 ADD SWAP1 SWAP3 MSTORE DUP1 MLOAD SWAP2 ADD KECCAK256 SWAP1 JUMP JUMPDEST PUSH1 0x0 DUP1 PUSH32 0x7FFFFFFFFFFFFFFFFFFFFFFFFFFFFFFF5D576E7357A4501DDFE92F46681B20A0 DUP4 GT ISZERO PUSH2 0x261A JUMPI POP PUSH1 0x0 SWAP1 POP PUSH1 0x3 PUSH2 0x26C7 JUMP JUMPDEST DUP5 PUSH1 0xFF AND PUSH1 0x1B EQ ISZERO DUP1 ISZERO PUSH2 0x2632 JUMPI POP DUP5 PUSH1 0xFF AND PUSH1 0x1C EQ ISZERO JUMPDEST ISZERO PUSH2 0x2643 JUMPI POP PUSH1 0x0 SWAP1 POP PUSH1 0x4 PUSH2 0x26C7 JUMP JUMPDEST PUSH1 0x40 DUP1 MLOAD PUSH1 0x0 DUP1 DUP3 MSTORE PUSH1 0x20 DUP3 ADD DUP1 DUP5 MSTORE DUP10 SWAP1 MSTORE PUSH1 0xFF DUP9 AND SWAP3 DUP3 ADD SWAP3 SWAP1 SWAP3 MSTORE PUSH1 0x60 DUP2 ADD DUP7 SWAP1 MSTORE PUSH1 0x80 DUP2 ADD DUP6 SWAP1 MSTORE PUSH1 0x1 SWAP1 PUSH1 0xA0 ADD PUSH1 0x20 PUSH1 0x40 MLOAD PUSH1 0x20 DUP2 SUB SWAP1 DUP1 DUP5 SUB SWAP1 DUP6 GAS STATICCALL ISZERO DUP1 ISZERO PUSH2 0x2697 JUMPI RETURNDATASIZE PUSH1 0x0 DUP1 RETURNDATACOPY RETURNDATASIZE PUSH1 0x0 REVERT JUMPDEST POP POP PUSH1 0x40 MLOAD PUSH1 0x1F NOT ADD MLOAD SWAP2 POP POP PUSH1 0x1 PUSH1 0x1 PUSH1 0xA0 SHL SUB DUP2 AND PUSH2 0x26C0 JUMPI PUSH1 0x0 PUSH1 0x1 SWAP3 POP SWAP3 POP POP PUSH2 0x26C7 JUMP JUMPDEST SWAP2 POP PUSH1 0x0 SWAP1 POP JUMPDEST SWAP5 POP SWAP5 SWAP3 POP POP POP JUMP JUMPDEST PUSH1 0x0 DUP2 PUSH1 0x4 DUP2 GT ISZERO PUSH2 0x26E4 JUMPI PUSH2 0x26E4 PUSH2 0x375A JUMP JUMPDEST EQ ISZERO PUSH2 0x26ED JUMPI POP JUMP JUMPDEST PUSH1 0x1 DUP2 PUSH1 0x4 DUP2 GT ISZERO PUSH2 0x2701 JUMPI PUSH2 0x2701 PUSH2 0x375A JUMP JUMPDEST EQ ISZERO PUSH2 0x274F JUMPI PUSH1 0x40 MLOAD PUSH3 0x461BCD PUSH1 0xE5 SHL DUP2 MSTORE PUSH1 0x20 PUSH1 0x4 DUP3 ADD MSTORE PUSH1 0x18 PUSH1 0x24 DUP3 ADD MSTORE PUSH32 0x45434453413A20696E76616C6964207369676E61747572650000000000000000 PUSH1 0x44 DUP3 ADD MSTORE PUSH1 0x64 ADD PUSH2 0x90E JUMP JUMPDEST PUSH1 0x2 DUP2 PUSH1 0x4 DUP2 GT ISZERO PUSH2 0x2763 JUMPI PUSH2 0x2763 PUSH2 0x375A JUMP JUMPDEST EQ ISZERO PUSH2 0x27B1 JUMPI PUSH1 0x40 MLOAD PUSH3 0x461BCD PUSH1 0xE5 SHL DUP2 MSTORE PUSH1 0x20 PUSH1 0x4 DUP3 ADD MSTORE PUSH1 0x1F PUSH1 0x24 DUP3 ADD MSTORE PUSH32 0x45434453413A20696E76616C6964207369676E6174757265206C656E67746800 PUSH1 0x44 DUP3 ADD MSTORE PUSH1 0x64 ADD PUSH2 0x90E JUMP JUMPDEST PUSH1 0x3 DUP2 PUSH1 0x4 DUP2 GT ISZERO PUSH2 0x27C5 JUMPI PUSH2 0x27C5 PUSH2 0x375A JUMP JUMPDEST EQ ISZERO PUSH2 0x281E JUMPI PUSH1 0x40 MLOAD PUSH3 0x461BCD PUSH1 0xE5 SHL DUP2 MSTORE PUSH1 0x20 PUSH1 0x4 DUP3 ADD MSTORE PUSH1 0x22 PUSH1 0x24 DUP3 ADD MSTORE PUSH32 0x45434453413A20696E76616C6964207369676E6174757265202773272076616C PUSH1 0x44 DUP3 ADD MSTORE PUSH2 0x7565 PUSH1 0xF0 SHL PUSH1 0x64 DUP3 ADD MSTORE PUSH1 0x84 ADD PUSH2 0x90E JUMP JUMPDEST PUSH1 0x4 DUP2 PUSH1 0x4 DUP2 GT ISZERO PUSH2 0x2832 JUMPI PUSH2 0x2832 PUSH2 0x375A JUMP JUMPDEST EQ ISZERO PUSH2 0x20EF JUMPI PUSH1 0x40 MLOAD PUSH3 0x461BCD PUSH1 0xE5 SHL DUP2 MSTORE PUSH1 0x20 PUSH1 0x4 DUP3 ADD MSTORE PUSH1 0x22 PUSH1 0x24 DUP3 ADD MSTORE PUSH32 0x45434453413A20696E76616C6964207369676E6174757265202776272076616C PUSH1 0x44 DUP3 ADD MSTORE PUSH2 0x7565 PUSH1 0xF0 SHL PUSH1 0x64 DUP3 ADD MSTORE PUSH1 0x84 ADD PUSH2 0x90E JUMP JUMPDEST PUSH1 0x0 DUP5 DUP2 MSTORE PUSH1 0x10 PUSH1 0x20 MSTORE PUSH1 0x40 SWAP1 KECCAK256 PUSH2 0x28A3 DUP6 DUP6 PUSH2 0x2D00 JUMP JUMPDEST PUSH1 0xFF DUP4 AND PUSH2 0x28CA JUMPI DUP2 DUP2 PUSH1 0x0 ADD PUSH1 0x0 DUP3 DUP3 SLOAD PUSH2 0x28BF SWAP2 SWAP1 PUSH2 0x3627 JUMP JUMPDEST SWAP1 SWAP2 SSTORE POP PUSH2 0x1484 SWAP1 POP JUMP JUMPDEST PUSH1 0xFF DUP4 AND PUSH1 0x1 EQ ISZERO PUSH2 0x28EA JUMPI DUP2 DUP2 PUSH1 0x1 ADD PUSH1 0x0 DUP3 DUP3 SLOAD PUSH2 0x28BF SWAP2 SWAP1 PUSH2 0x3627 JUMP JUMPDEST PUSH1 0xFF DUP4 AND PUSH1 0x2 EQ ISZERO PUSH2 0x290A JUMPI DUP2 DUP2 PUSH1 0x2 ADD PUSH1 0x0 DUP3 DUP3 SLOAD PUSH2 0x28BF SWAP2 SWAP1 PUSH2 0x3627 JUMP JUMPDEST PUSH1 0x40 MLOAD PUSH3 0x461BCD PUSH1 0xE5 SHL DUP2 MSTORE PUSH1 0x20 PUSH1 0x4 DUP3 ADD MSTORE PUSH1 0xC PUSH1 0x24 DUP3 ADD MSTORE PUSH12 0x496E76616C696420766F7465 PUSH1 0xA0 SHL PUSH1 0x44 DUP3 ADD MSTORE PUSH1 0x64 ADD PUSH2 0x90E JUMP JUMPDEST DUP2 PUSH1 0x1 PUSH1 0x1 PUSH1 0xA0 SHL SUB AND DUP4 PUSH1 0x1 PUSH1 0x1 PUSH1 0xA0 SHL SUB AND EQ ISZERO DUP1 ISZERO PUSH2 0x2963 JUMPI POP PUSH1 0x0 DUP2 GT JUMPDEST ISZERO PUSH2 0x2082 JUMPI PUSH1 0x1 PUSH1 0x1 PUSH1 0xA0 SHL SUB DUP4 AND ISZERO PUSH2 0x2A1B JUMPI PUSH1 0x1 PUSH1 0x1 PUSH1 0xA0 SHL SUB DUP4 AND PUSH1 0x0 SWAP1 DUP2 MSTORE PUSH1 0x12 PUSH1 0x20 MSTORE PUSH1 0x40 DUP2 KECCAK256 DUP2 SWAP1 PUSH2 0x29C8 SWAP1 DUP5 SWAP1 PUSH2 0x29A0 SWAP1 PUSH2 0x17DC JUMP JUMPDEST PUSH2 0x29AA SWAP2 SWAP1 PUSH2 0x36AB JUMP JUMPDEST PUSH1 0x1 PUSH1 0x1 PUSH1 0xA0 SHL SUB DUP8 AND PUSH1 0x0 SWAP1 DUP2 MSTORE PUSH1 0x12 PUSH1 0x20 MSTORE PUSH1 0x40 SWAP1 KECCAK256 SWAP1 PUSH2 0x1838 JUMP JUMPDEST SWAP2 POP SWAP2 POP DUP5 PUSH1 0x1 PUSH1 0x1 PUSH1 0xA0 SHL SUB AND PUSH32 0xDEC2BACDD2F05B59DE34DA9B523DFF8BE42E5E38E818C82FDB0BAE774387A724 DUP4 DUP4 PUSH1 0x40 MLOAD PUSH2 0x2A10 SWAP3 SWAP2 SWAP1 SWAP2 DUP3 MSTORE PUSH1 0x20 DUP3 ADD MSTORE PUSH1 0x40 ADD SWAP1 JUMP JUMPDEST PUSH1 0x40 MLOAD DUP1 SWAP2 SUB SWAP1 LOG2 POP POP JUMPDEST PUSH1 0x1 PUSH1 0x1 PUSH1 0xA0 SHL SUB DUP3 AND ISZERO PUSH2 0x2082 JUMPI PUSH1 0x1 PUSH1 0x1 PUSH1 0xA0 SHL SUB DUP3 AND PUSH1 0x0 SWAP1 DUP2 MSTORE PUSH1 0x12 PUSH1 0x20 MSTORE PUSH1 0x40 DUP2 KECCAK256 DUP2 SWAP1 PUSH2 0x2A7B SWAP1 DUP5 SWAP1 PUSH2 0x2A53 SWAP1 PUSH2 0x17DC JUMP JUMPDEST PUSH2 0x2A5D SWAP2 SWAP1 PUSH2 0x3627 JUMP JUMPDEST PUSH1 0x1 PUSH1 0x1 PUSH1 0xA0 SHL SUB DUP7 AND PUSH1 0x0 SWAP1 DUP2 MSTORE PUSH1 0x12 PUSH1 0x20 MSTORE PUSH1 0x40 SWAP1 KECCAK256 SWAP1 PUSH2 0x1838 JUMP JUMPDEST SWAP2 POP SWAP2 POP DUP4 PUSH1 0x1 PUSH1 0x1 PUSH1 0xA0 SHL SUB AND PUSH32 0xDEC2BACDD2F05B59DE34DA9B523DFF8BE42E5E38E818C82FDB0BAE774387A724 DUP4 DUP4 PUSH1 0x40 MLOAD PUSH2 0x2AC3 SWAP3 SWAP2 SWAP1 SWAP2 DUP3 MSTORE PUSH1 0x20 DUP3 ADD MSTORE PUSH1 0x40 ADD SWAP1 JUMP JUMPDEST PUSH1 0x40 MLOAD DUP1 SWAP2 SUB SWAP1 LOG2 POP POP POP POP POP JUMP JUMPDEST PUSH1 0x0 PUSH2 0x2AE1 PUSH1 0x2 DUP5 DUP5 XOR PUSH2 0x366A JUMP JUMPDEST PUSH2 0xA6D SWAP1 DUP5 DUP5 AND PUSH2 0x3627 JUMP JUMPDEST PUSH1 0x0 DUP2 DUP2 MSTORE PUSH1 0x10 PUSH1 0x20 MSTORE PUSH1 0x40 DUP2 KECCAK256 PUSH1 0x2 DUP2 ADD SLOAD PUSH1 0x1 DUP3 ADD SLOAD DUP3 SLOAD PUSH2 0x2B11 SWAP2 SWAP1 PUSH2 0x3627 JUMP JUMPDEST PUSH2 0x2B1B SWAP2 SWAP1 PUSH2 0x3627 JUMP JUMPDEST PUSH2 0x2B27 PUSH2 0x88C DUP6 PUSH2 0x22FB JUMP JUMPDEST GT ISZERO SWAP4 SWAP3 POP POP POP JUMP JUMPDEST PUSH1 0x60 DUP3 SELFBALANCE LT ISZERO PUSH2 0x2B91 JUMPI PUSH1 0x40 MLOAD PUSH3 0x461BCD PUSH1 0xE5 SHL DUP2 MSTORE PUSH1 0x20 PUSH1 0x4 DUP3 ADD MSTORE PUSH1 0x26 PUSH1 0x24 DUP3 ADD MSTORE PUSH32 0x416464726573733A20696E73756666696369656E742062616C616E636520666F PUSH1 0x44 DUP3 ADD MSTORE PUSH6 0x1C8818D85B1B PUSH1 0xD2 SHL PUSH1 0x64 DUP3 ADD MSTORE PUSH1 0x84 ADD PUSH2 0x90E JUMP JUMPDEST PUSH1 0x1 PUSH1 0x1 PUSH1 0xA0 SHL SUB DUP6 AND EXTCODESIZE PUSH2 0x2BE8 JUMPI PUSH1 0x40 MLOAD PUSH3 0x461BCD PUSH1 0xE5 SHL DUP2 MSTORE PUSH1 0x20 PUSH1 0x4 DUP3 ADD MSTORE PUSH1 0x1D PUSH1 0x24 DUP3 ADD MSTORE PUSH32 0x416464726573733A2063616C6C20746F206E6F6E2D636F6E7472616374000000 PUSH1 0x44 DUP3 ADD MSTORE PUSH1 0x64 ADD PUSH2 0x90E JUMP JUMPDEST PUSH1 0x0 DUP1 DUP7 PUSH1 0x1 PUSH1 0x1 PUSH1 0xA0 SHL SUB AND DUP6 DUP8 PUSH1 0x40 MLOAD PUSH2 0x2C04 SWAP2 SWAP1 PUSH2 0x3443 JUMP JUMPDEST PUSH1 0x0 PUSH1 0x40 MLOAD DUP1 DUP4 SUB DUP2 DUP6 DUP8 GAS CALL SWAP3 POP POP POP RETURNDATASIZE DUP1 PUSH1 0x0 DUP2 EQ PUSH2 0x2C41 JUMPI PUSH1 0x40 MLOAD SWAP2 POP PUSH1 0x1F NOT PUSH1 0x3F RETURNDATASIZE ADD AND DUP3 ADD PUSH1 0x40 MSTORE RETURNDATASIZE DUP3 MSTORE RETURNDATASIZE PUSH1 0x0 PUSH1 0x20 DUP5 ADD RETURNDATACOPY PUSH2 0x2C46 JUMP JUMPDEST PUSH1 0x60 SWAP2 POP JUMPDEST POP SWAP2 POP SWAP2 POP PUSH2 0xB10 DUP3 DUP3 DUP7 JUMPDEST PUSH1 0x60 DUP4 ISZERO PUSH2 0x2C61 JUMPI POP DUP2 PUSH2 0xA6D JUMP JUMPDEST DUP3 MLOAD ISZERO PUSH2 0x2C71 JUMPI DUP3 MLOAD DUP1 DUP5 PUSH1 0x20 ADD REVERT JUMPDEST DUP2 PUSH1 0x40 MLOAD PUSH3 0x461BCD PUSH1 0xE5 SHL DUP2 MSTORE PUSH1 0x4 ADD PUSH2 0x90E SWAP2 SWAP1 PUSH2 0x352E JUMP JUMPDEST PUSH1 0x1 PUSH1 0x1 PUSH1 0xA0 SHL SUB DUP4 AND PUSH2 0x2CBC JUMPI PUSH2 0x2CB9 DUP2 PUSH2 0x2CA7 PUSH1 0x13 PUSH2 0x17DC JUMP JUMPDEST PUSH2 0x2CB1 SWAP2 SWAP1 PUSH2 0x3627 JUMP JUMPDEST PUSH1 0x13 SWAP1 PUSH2 0x1838 JUMP JUMPDEST POP POP JUMPDEST PUSH1 0x1 PUSH1 0x1 PUSH1 0xA0 SHL SUB DUP3 AND PUSH2 0x2CE5 JUMPI PUSH2 0x2CE2 DUP2 PUSH2 0x2CD8 PUSH1 0x13 PUSH2 0x17DC JUMP JUMPDEST PUSH2 0x2CB1 SWAP2 SWAP1 PUSH2 0x36AB JUMP JUMPDEST POP POP JUMPDEST PUSH2 0x2082 PUSH2 0x2CF1 DUP5 PUSH2 0xBF3 JUMP JUMPDEST PUSH2 0x2CFA DUP5 PUSH2 0xBF3 JUMP JUMPDEST DUP4 PUSH2 0x2941 JUMP JUMPDEST PUSH1 0x0 DUP3 DUP2 MSTORE PUSH1 0x10 PUSH1 0x20 SWAP1 DUP2 MSTORE PUSH1 0x40 DUP1 DUP4 KECCAK256 PUSH1 0x1 PUSH1 0x1 PUSH1 0xA0 SHL SUB DUP6 AND DUP5 MSTORE PUSH1 0x3 DUP2 ADD SWAP1 SWAP3 MSTORE SWAP1 SWAP2 KECCAK256 SLOAD PUSH1 0xFF AND ISZERO PUSH2 0x2D67 JUMPI PUSH1 0x40 MLOAD PUSH3 0x461BCD PUSH1 0xE5 SHL DUP2 MSTORE PUSH1 0x20 PUSH1 0x4 DUP3 ADD MSTORE PUSH1 0xC PUSH1 0x24 DUP3 ADD MSTORE PUSH12 0x105B1C9958591E4818D85CDD PUSH1 0xA2 SHL PUSH1 0x44 DUP3 ADD MSTORE PUSH1 0x64 ADD PUSH2 0x90E JUMP JUMPDEST PUSH1 0x1 PUSH1 0x1 PUSH1 0xA0 SHL SUB SWAP1 SWAP2 AND PUSH1 0x0 SWAP1 DUP2 MSTORE PUSH1 0x3 SWAP1 SWAP2 ADD PUSH1 0x20 MSTORE PUSH1 0x40 SWAP1 KECCAK256 DUP1 SLOAD PUSH1 0xFF NOT AND PUSH1 0x1 OR SWAP1 SSTORE POP JUMP JUMPDEST DUP3 DUP1 SLOAD PUSH2 0x2D9D SWAP1 PUSH2 0x36EE JUMP JUMPDEST SWAP1 PUSH1 0x0 MSTORE PUSH1 0x20 PUSH1 0x0 KECCAK256 SWAP1 PUSH1 0x1F ADD PUSH1 0x20 SWAP1 DIV DUP2 ADD SWAP3 DUP3 PUSH2 0x2DBF JUMPI PUSH1 0x0 DUP6 SSTORE PUSH2 0x2E05 JUMP JUMPDEST DUP3 PUSH1 0x1F LT PUSH2 0x2DD8 JUMPI DUP1 MLOAD PUSH1 0xFF NOT AND DUP4 DUP1 ADD OR DUP6 SSTORE PUSH2 0x2E05 JUMP JUMPDEST DUP3 DUP1 ADD PUSH1 0x1 ADD DUP6 SSTORE DUP3 ISZERO PUSH2 0x2E05 JUMPI SWAP2 DUP3 ADD JUMPDEST DUP3 DUP2 GT ISZERO PUSH2 0x2E05 JUMPI DUP3 MLOAD DUP3 SSTORE SWAP2 PUSH1 0x20 ADD SWAP2 SWAP1 PUSH1 0x1 ADD SWAP1 PUSH2 0x2DEA JUMP JUMPDEST POP PUSH2 0x19C7 SWAP3 SWAP2 POP JUMPDEST DUP1 DUP3 GT ISZERO PUSH2 0x19C7 JUMPI PUSH1 0x0 DUP2 SSTORE PUSH1 0x1 ADD PUSH2 0x2E0D JUMP JUMPDEST PUSH1 0x0 PUSH1 0x1 PUSH1 0x1 PUSH1 0x40 SHL SUB DUP4 GT ISZERO PUSH2 0x2E3A JUMPI PUSH2 0x2E3A PUSH2 0x3786 JUMP JUMPDEST PUSH2 0x2E4D PUSH1 0x1F DUP5 ADD PUSH1 0x1F NOT AND PUSH1 0x20 ADD PUSH2 0x35D4 JUMP JUMPDEST SWAP1 POP DUP3 DUP2 MSTORE DUP4 DUP4 DUP4 ADD GT ISZERO PUSH2 0x2E61 JUMPI PUSH1 0x0 DUP1 REVERT JUMPDEST DUP3 DUP3 PUSH1 0x20 DUP4 ADD CALLDATACOPY PUSH1 0x0 PUSH1 0x20 DUP5 DUP4 ADD ADD MSTORE SWAP4 SWAP3 POP POP POP JUMP JUMPDEST DUP1 CALLDATALOAD PUSH1 0x1 PUSH1 0x1 PUSH1 0xA0 SHL SUB DUP2 AND DUP2 EQ PUSH2 0xC37 JUMPI PUSH1 0x0 DUP1 REVERT JUMPDEST PUSH1 0x0 DUP3 PUSH1 0x1F DUP4 ADD SLT PUSH2 0x2EA0 JUMPI PUSH1 0x0 DUP1 REVERT JUMPDEST DUP2 CALLDATALOAD PUSH1 0x20 PUSH2 0x2EB5 PUSH2 0x2EB0 DUP4 PUSH2 0x3604 JUMP JUMPDEST PUSH2 0x35D4 JUMP JUMPDEST DUP1 DUP4 DUP3 MSTORE DUP3 DUP3 ADD SWAP2 POP DUP3 DUP7 ADD DUP8 DUP5 DUP7 PUSH1 0x5 SHL DUP10 ADD ADD GT ISZERO PUSH2 0x2ED5 JUMPI PUSH1 0x0 DUP1 REVERT JUMPDEST PUSH1 0x0 JUMPDEST DUP6 DUP2 LT ISZERO PUSH2 0x2F2B JUMPI DUP2 CALLDATALOAD PUSH1 0x1 PUSH1 0x1 PUSH1 0x40 SHL SUB DUP2 GT ISZERO PUSH2 0x2EF6 JUMPI PUSH1 0x0 DUP1 REVERT JUMPDEST DUP9 ADD PUSH1 0x3F DUP2 ADD DUP11 SGT PUSH2 0x2F07 JUMPI PUSH1 0x0 DUP1 REVERT JUMPDEST PUSH2 0x2F18 DUP11 DUP8 DUP4 ADD CALLDATALOAD PUSH1 0x40 DUP5 ADD PUSH2 0x2E21 JUMP JUMPDEST DUP6 MSTORE POP SWAP3 DUP5 ADD SWAP3 SWAP1 DUP5 ADD SWAP1 PUSH1 0x1 ADD PUSH2 0x2ED8 JUMP JUMPDEST POP SWAP1 SWAP8 SWAP7 POP POP POP POP POP POP POP JUMP JUMPDEST PUSH1 0x0 DUP3 PUSH1 0x1F DUP4 ADD SLT PUSH2 0x2F49 JUMPI PUSH1 0x0 DUP1 REVERT JUMPDEST DUP2 CALLDATALOAD PUSH1 0x20 PUSH2 0x2F59 PUSH2 0x2EB0 DUP4 PUSH2 0x3604 JUMP JUMPDEST DUP1 DUP4 DUP3 MSTORE DUP3 DUP3 ADD SWAP2 POP DUP3 DUP7 ADD DUP8 DUP5 DUP7 PUSH1 0x5 SHL DUP10 ADD ADD GT ISZERO PUSH2 0x2F79 JUMPI PUSH1 0x0 DUP1 REVERT JUMPDEST PUSH1 0x0 JUMPDEST DUP6 DUP2 LT ISZERO PUSH2 0x2F2B JUMPI DUP2 CALLDATALOAD DUP5 MSTORE SWAP3 DUP5 ADD SWAP3 SWAP1 DUP5 ADD SWAP1 PUSH1 0x1 ADD PUSH2 0x2F7C JUMP JUMPDEST PUSH1 0x0 DUP3 PUSH1 0x1F DUP4 ADD SLT PUSH2 0x2FA9 JUMPI PUSH1 0x0 DUP1 REVERT JUMPDEST PUSH2 0xA6D DUP4 DUP4 CALLDATALOAD PUSH1 0x20 DUP6 ADD PUSH2 0x2E21 JUMP JUMPDEST DUP1 CALLDATALOAD PUSH1 0xFF DUP2 AND DUP2 EQ PUSH2 0xC37 JUMPI PUSH1 0x0 DUP1 REVERT JUMPDEST PUSH1 0x0 PUSH1 0x20 DUP3 DUP5 SUB SLT ISZERO PUSH2 0x2FDB JUMPI PUSH1 0x0 DUP1 REVERT JUMPDEST PUSH2 0xA6D DUP3 PUSH2 0x2E78 JUMP JUMPDEST PUSH1 0x0 DUP1 PUSH1 0x40 DUP4 DUP6 SUB SLT ISZERO PUSH2 0x2FF7 JUMPI PUSH1 0x0 DUP1 REVERT JUMPDEST PUSH2 0x3000 DUP4 PUSH2 0x2E78 JUMP JUMPDEST SWAP2 POP PUSH2 0x300E PUSH1 0x20 DUP5 ADD PUSH2 0x2E78 JUMP JUMPDEST SWAP1 POP SWAP3 POP SWAP3 SWAP1 POP JUMP JUMPDEST PUSH1 0x0 DUP1 PUSH1 0x0 PUSH1 0x60 DUP5 DUP7 SUB SLT ISZERO PUSH2 0x302C JUMPI PUSH1 0x0 DUP1 REVERT JUMPDEST PUSH2 0x3035 DUP5 PUSH2 0x2E78 JUMP JUMPDEST SWAP3 POP PUSH2 0x3043 PUSH1 0x20 DUP6 ADD PUSH2 0x2E78 JUMP JUMPDEST SWAP2 POP PUSH1 0x40 DUP5 ADD CALLDATALOAD SWAP1 POP SWAP3 POP SWAP3 POP SWAP3 JUMP JUMPDEST PUSH1 0x0 DUP1 PUSH1 0x40 DUP4 DUP6 SUB SLT ISZERO PUSH2 0x3066 JUMPI PUSH1 0x0 DUP1 REVERT JUMPDEST PUSH2 0x306F DUP4 PUSH2 0x2E78 JUMP JUMPDEST SWAP5 PUSH1 0x20 SWAP4 SWAP1 SWAP4 ADD CALLDATALOAD SWAP4 POP POP POP JUMP JUMPDEST PUSH1 0x0 DUP1 PUSH1 0x0 DUP1 PUSH1 0x60 DUP6 DUP8 SUB SLT ISZERO PUSH2 0x3093 JUMPI PUSH1 0x0 DUP1 REVERT JUMPDEST PUSH2 0x309C DUP6 PUSH2 0x2E78 JUMP JUMPDEST SWAP4 POP PUSH1 0x20 DUP6 ADD CALLDATALOAD SWAP3 POP PUSH1 0x40 DUP6 ADD CALLDATALOAD PUSH1 0x1 PUSH1 0x1 PUSH1 0x40 SHL SUB DUP1 DUP3 GT ISZERO PUSH2 0x30BF JUMPI PUSH1 0x0 DUP1 REVERT JUMPDEST DUP2 DUP8 ADD SWAP2 POP DUP8 PUSH1 0x1F DUP4 ADD SLT PUSH2 0x30D3 JUMPI PUSH1 0x0 DUP1 REVERT JUMPDEST DUP2 CALLDATALOAD DUP2 DUP2 GT ISZERO PUSH2 0x30E2 JUMPI PUSH1 0x0 DUP1 REVERT JUMPDEST DUP9 PUSH1 0x20 DUP3 DUP6 ADD ADD GT ISZERO PUSH2 0x30F4 JUMPI PUSH1 0x0 DUP1 REVERT JUMPDEST SWAP6 SWAP9 SWAP5 SWAP8 POP POP PUSH1 0x20 ADD SWAP5 POP POP POP JUMP JUMPDEST PUSH1 0x0 DUP1 PUSH1 0x0 DUP1 PUSH1 0x0 DUP1 PUSH1 0xC0 DUP8 DUP10 SUB SLT ISZERO PUSH2 0x311C JUMPI PUSH1 0x0 DUP1 REVERT JUMPDEST PUSH2 0x3125 DUP8 PUSH2 0x2E78 JUMP JUMPDEST SWAP6 POP PUSH1 0x20 DUP8 ADD CALLDATALOAD SWAP5 POP PUSH1 0x40 DUP8 ADD CALLDATALOAD SWAP4 POP PUSH2 0x3141 PUSH1 0x60 DUP9 ADD PUSH2 0x2FB8 JUMP JUMPDEST SWAP3 POP PUSH1 0x80 DUP8 ADD CALLDATALOAD SWAP2 POP PUSH1 0xA0 DUP8 ADD CALLDATALOAD SWAP1 POP SWAP3 SWAP6 POP SWAP3 SWAP6 POP SWAP3 SWAP6 JUMP JUMPDEST PUSH1 0x0 DUP1 PUSH1 0x0 PUSH1 0x60 DUP5 DUP7 SUB SLT ISZERO PUSH2 0x3170 JUMPI PUSH1 0x0 DUP1 REVERT JUMPDEST PUSH2 0x3179 DUP5 PUSH2 0x2E78 JUMP JUMPDEST SWAP3 POP PUSH1 0x20 DUP5 ADD CALLDATALOAD SWAP2 POP PUSH2 0x318E PUSH1 0x40 DUP6 ADD PUSH2 0x2FB8 JUMP JUMPDEST SWAP1 POP SWAP3 POP SWAP3 POP SWAP3 JUMP JUMPDEST PUSH1 0x0 DUP1 PUSH1 0x0 DUP1 PUSH1 0x80 DUP6 DUP8 SUB SLT ISZERO PUSH2 0x31AD JUMPI PUSH1 0x0 DUP1 REVERT JUMPDEST DUP5 CALLDATALOAD PUSH1 0x1 PUSH1 0x1 PUSH1 0x40 SHL SUB DUP1 DUP3 GT ISZERO PUSH2 0x31C4 JUMPI PUSH1 0x0 DUP1 REVERT JUMPDEST DUP2 DUP8 ADD SWAP2 POP DUP8 PUSH1 0x1F DUP4 ADD SLT PUSH2 0x31D8 JUMPI PUSH1 0x0 DUP1 REVERT JUMPDEST DUP2 CALLDATALOAD PUSH1 0x20 PUSH2 0x31E8 PUSH2 0x2EB0 DUP4 PUSH2 0x3604 JUMP JUMPDEST DUP1 DUP4 DUP3 MSTORE DUP3 DUP3 ADD SWAP2 POP DUP3 DUP7 ADD DUP13 DUP5 DUP7 PUSH1 0x5 SHL DUP10 ADD ADD GT ISZERO PUSH2 0x3208 JUMPI PUSH1 0x0 DUP1 REVERT JUMPDEST PUSH1 0x0 SWAP7 POP JUMPDEST DUP5 DUP8 LT ISZERO PUSH2 0x3232 JUMPI PUSH2 0x321E DUP2 PUSH2 0x2E78 JUMP JUMPDEST DUP4 MSTORE PUSH1 0x1 SWAP7 SWAP1 SWAP7 ADD SWAP6 SWAP2 DUP4 ADD SWAP2 DUP4 ADD PUSH2 0x320D JUMP JUMPDEST POP SWAP9 POP POP DUP9 ADD CALLDATALOAD SWAP3 POP POP DUP1 DUP3 GT ISZERO PUSH2 0x3249 JUMPI PUSH1 0x0 DUP1 REVERT JUMPDEST PUSH2 0x3255 DUP9 DUP4 DUP10 ADD PUSH2 0x2F38 JUMP JUMPDEST SWAP5 POP PUSH1 0x40 DUP8 ADD CALLDATALOAD SWAP2 POP DUP1 DUP3 GT ISZERO PUSH2 0x326B JUMPI PUSH1 0x0 DUP1 REVERT JUMPDEST PUSH2 0x3277 DUP9 DUP4 DUP10 ADD PUSH2 0x2E8F JUMP JUMPDEST SWAP4 POP PUSH1 0x60 DUP8 ADD CALLDATALOAD SWAP2 POP DUP1 DUP3 GT ISZERO PUSH2 0x328D JUMPI PUSH1 0x0 DUP1 REVERT JUMPDEST POP PUSH2 0x329A DUP8 DUP3 DUP9 ADD PUSH2 0x2F98 JUMP JUMPDEST SWAP2 POP POP SWAP3 SWAP6 SWAP2 SWAP5 POP SWAP3 POP JUMP JUMPDEST PUSH1 0x0 PUSH1 0x20 DUP3 DUP5 SUB SLT ISZERO PUSH2 0x32B8 JUMPI PUSH1 0x0 DUP1 REVERT JUMPDEST DUP2 CALLDATALOAD PUSH1 0x1 PUSH1 0x1 PUSH1 0x40 SHL SUB DUP2 GT ISZERO PUSH2 0x32CE JUMPI PUSH1 0x0 DUP1 REVERT JUMPDEST PUSH2 0xBEB DUP5 DUP3 DUP6 ADD PUSH2 0x2F98 JUMP JUMPDEST PUSH1 0x0 PUSH1 0x20 DUP3 DUP5 SUB SLT ISZERO PUSH2 0x32EC JUMPI PUSH1 0x0 DUP1 REVERT JUMPDEST POP CALLDATALOAD SWAP2 SWAP1 POP JUMP JUMPDEST PUSH1 0x0 DUP1 PUSH1 0x40 DUP4 DUP6 SUB SLT ISZERO PUSH2 0x3306 JUMPI PUSH1 0x0 DUP1 REVERT JUMPDEST DUP3 CALLDATALOAD SWAP2 POP PUSH2 0x300E PUSH1 0x20 DUP5 ADD PUSH2 0x2E78 JUMP JUMPDEST PUSH1 0x0 DUP1 PUSH1 0x40 DUP4 DUP6 SUB SLT ISZERO PUSH2 0x3329 JUMPI PUSH1 0x0 DUP1 REVERT JUMPDEST DUP3 CALLDATALOAD SWAP2 POP PUSH2 0x300E PUSH1 0x20 DUP5 ADD PUSH2 0x2FB8 JUMP JUMPDEST PUSH1 0x0 DUP1 PUSH1 0x0 DUP1 PUSH1 0x0 PUSH1 0xA0 DUP7 DUP9 SUB SLT ISZERO PUSH2 0x3351 JUMPI PUSH1 0x0 DUP1 REVERT JUMPDEST DUP6 CALLDATALOAD SWAP5 POP PUSH2 0x3361 PUSH1 0x20 DUP8 ADD PUSH2 0x2FB8 JUMP JUMPDEST SWAP4 POP PUSH2 0x336F PUSH1 0x40 DUP8 ADD PUSH2 0x2FB8 JUMP JUMPDEST SWAP5 SWAP8 SWAP4 SWAP7 POP SWAP4 SWAP5 PUSH1 0x60 DUP2 ADD CALLDATALOAD SWAP5 POP PUSH1 0x80 ADD CALLDATALOAD SWAP3 SWAP2 POP POP JUMP JUMPDEST PUSH1 0x0 DUP2 MLOAD DUP1 DUP5 MSTORE PUSH1 0x20 DUP1 DUP6 ADD DUP1 DUP2 SWAP7 POP DUP4 PUSH1 0x5 SHL DUP2 ADD SWAP2 POP DUP3 DUP7 ADD PUSH1 0x0 JUMPDEST DUP6 DUP2 LT ISZERO PUSH2 0x33CF JUMPI DUP3 DUP5 SUB DUP10 MSTORE PUSH2 0x33BD DUP5 DUP4 MLOAD PUSH2 0x3417 JUMP JUMPDEST SWAP9 DUP6 ADD SWAP9 SWAP4 POP SWAP1 DUP5 ADD SWAP1 PUSH1 0x1 ADD PUSH2 0x33A5 JUMP JUMPDEST POP SWAP2 SWAP8 SWAP7 POP POP POP POP POP POP POP JUMP JUMPDEST PUSH1 0x0 DUP2 MLOAD DUP1 DUP5 MSTORE PUSH1 0x20 DUP1 DUP6 ADD SWAP5 POP DUP1 DUP5 ADD PUSH1 0x0 JUMPDEST DUP4 DUP2 LT ISZERO PUSH2 0x340C JUMPI DUP2 MLOAD DUP8 MSTORE SWAP6 DUP3 ADD SWAP6 SWAP1 DUP3 ADD SWAP1 PUSH1 0x1 ADD PUSH2 0x33F0 JUMP JUMPDEST POP SWAP5 SWAP6 SWAP5 POP POP POP POP POP JUMP JUMPDEST PUSH1 0x0 DUP2 MLOAD DUP1 DUP5 MSTORE PUSH2 0x342F DUP2 PUSH1 0x20 DUP7 ADD PUSH1 0x20 DUP7 ADD PUSH2 0x36C2 JUMP JUMPDEST PUSH1 0x1F ADD PUSH1 0x1F NOT AND SWAP3 SWAP1 SWAP3 ADD PUSH1 0x20 ADD SWAP3 SWAP2 POP POP JUMP JUMPDEST PUSH1 0x0 DUP3 MLOAD PUSH2 0x3455 DUP2 DUP5 PUSH1 0x20 DUP8 ADD PUSH2 0x36C2 JUMP JUMPDEST SWAP2 SWAP1 SWAP2 ADD SWAP3 SWAP2 POP POP JUMP JUMPDEST PUSH1 0xE0 DUP1 DUP3 MSTORE DUP9 MLOAD SWAP1 DUP3 ADD DUP2 SWAP1 MSTORE PUSH1 0x0 SWAP1 PUSH1 0x20 SWAP1 PUSH2 0x100 DUP5 ADD SWAP1 DUP3 DUP13 ADD DUP5 JUMPDEST DUP3 DUP2 LT ISZERO PUSH2 0x34A2 JUMPI DUP2 MLOAD PUSH1 0x1 PUSH1 0x1 PUSH1 0xA0 SHL SUB AND DUP5 MSTORE SWAP3 DUP5 ADD SWAP3 SWAP1 DUP5 ADD SWAP1 PUSH1 0x1 ADD PUSH2 0x347D JUMP JUMPDEST POP POP POP DUP4 DUP2 SUB DUP3 DUP6 ADD MSTORE PUSH2 0x34B6 DUP2 DUP12 PUSH2 0x33DC JUMP JUMPDEST SWAP2 POP POP DUP3 DUP2 SUB PUSH1 0x40 DUP5 ADD MSTORE PUSH2 0x34CB DUP2 DUP10 PUSH2 0x3387 JUMP JUMPDEST SWAP1 POP DUP3 DUP2 SUB PUSH1 0x60 DUP5 ADD MSTORE PUSH2 0x34DF DUP2 DUP9 PUSH2 0x3417 JUMP JUMPDEST SWAP2 POP POP PUSH2 0x34F1 PUSH1 0x80 DUP4 ADD DUP7 PUSH1 0xFF AND SWAP1 MSTORE JUMP JUMPDEST PUSH1 0xA0 DUP3 ADD SWAP4 SWAP1 SWAP4 MSTORE PUSH1 0xC0 ADD MSTORE SWAP6 SWAP5 POP POP POP POP POP JUMP JUMPDEST PUSH1 0x20 DUP2 ADD PUSH1 0x8 DUP4 LT PUSH2 0x3528 JUMPI PUSH4 0x4E487B71 PUSH1 0xE0 SHL PUSH1 0x0 MSTORE PUSH1 0x21 PUSH1 0x4 MSTORE PUSH1 0x24 PUSH1 0x0 REVERT JUMPDEST SWAP2 SWAP1 MSTORE SWAP1 JUMP JUMPDEST PUSH1 0x20 DUP2 MSTORE PUSH1 0x0 PUSH2 0xA6D PUSH1 0x20 DUP4 ADD DUP5 PUSH2 0x3417 JUMP JUMPDEST PUSH1 0x20 DUP1 DUP3 MSTORE PUSH1 0xE SWAP1 DUP3 ADD MSTORE PUSH14 0x6F6E6C79476F7665726E616E6365 PUSH1 0x90 SHL PUSH1 0x40 DUP3 ADD MSTORE PUSH1 0x60 ADD SWAP1 JUMP JUMPDEST PUSH1 0x20 DUP1 DUP3 MSTORE PUSH1 0x10 SWAP1 DUP3 ADD MSTORE PUSH16 0x125B9D985B1A59081C1C9BDC1BDCD85B PUSH1 0x82 SHL PUSH1 0x40 DUP3 ADD MSTORE PUSH1 0x60 ADD SWAP1 JUMP JUMPDEST DUP6 DUP2 MSTORE PUSH1 0x1 PUSH1 0x1 PUSH1 0xA0 SHL SUB DUP6 AND PUSH1 0x20 DUP3 ADD MSTORE PUSH1 0x1 PUSH1 0x1 PUSH1 0x40 SHL SUB DUP5 DUP2 AND PUSH1 0x40 DUP4 ADD MSTORE DUP4 AND PUSH1 0x60 DUP3 ADD MSTORE PUSH1 0xA0 PUSH1 0x80 DUP3 ADD DUP2 SWAP1 MSTORE PUSH1 0x0 SWAP1 PUSH2 0xB10 SWAP1 DUP4 ADD DUP5 PUSH2 0x3417 JUMP JUMPDEST PUSH1 0x40 MLOAD PUSH1 0x1F DUP3 ADD PUSH1 0x1F NOT AND DUP2 ADD PUSH1 0x1 PUSH1 0x1 PUSH1 0x40 SHL SUB DUP2 GT DUP3 DUP3 LT OR ISZERO PUSH2 0x35FC JUMPI PUSH2 0x35FC PUSH2 0x3786 JUMP JUMPDEST PUSH1 0x40 MSTORE SWAP2 SWAP1 POP JUMP JUMPDEST PUSH1 0x0 PUSH1 0x1 PUSH1 0x1 PUSH1 0x40 SHL SUB DUP3 GT ISZERO PUSH2 0x361D JUMPI PUSH2 0x361D PUSH2 0x3786 JUMP JUMPDEST POP PUSH1 0x5 SHL PUSH1 0x20 ADD SWAP1 JUMP JUMPDEST PUSH1 0x0 DUP3 NOT DUP3 GT ISZERO PUSH2 0x363A JUMPI PUSH2 0x363A PUSH2 0x3744 JUMP JUMPDEST POP ADD SWAP1 JUMP JUMPDEST PUSH1 0x0 PUSH1 0x1 PUSH1 0x1 PUSH1 0x40 SHL SUB DUP1 DUP4 AND DUP2 DUP6 AND DUP1 DUP4 SUB DUP3 GT ISZERO PUSH2 0x3661 JUMPI PUSH2 0x3661 PUSH2 0x3744 JUMP JUMPDEST ADD SWAP5 SWAP4 POP POP POP POP JUMP JUMPDEST PUSH1 0x0 DUP3 PUSH2 0x3687 JUMPI PUSH4 0x4E487B71 PUSH1 0xE0 SHL PUSH1 0x0 MSTORE PUSH1 0x12 PUSH1 0x4 MSTORE PUSH1 0x24 PUSH1 0x0 REVERT JUMPDEST POP DIV SWAP1 JUMP JUMPDEST PUSH1 0x0 DUP2 PUSH1 0x0 NOT DIV DUP4 GT DUP3 ISZERO ISZERO AND ISZERO PUSH2 0x36A6 JUMPI PUSH2 0x36A6 PUSH2 0x3744 JUMP JUMPDEST POP MUL SWAP1 JUMP JUMPDEST PUSH1 0x0 DUP3 DUP3 LT ISZERO PUSH2 0x36BD JUMPI PUSH2 0x36BD PUSH2 0x3744 JUMP JUMPDEST POP SUB SWAP1 JUMP JUMPDEST PUSH1 0x0 JUMPDEST DUP4 DUP2 LT ISZERO PUSH2 0x36DD JUMPI DUP2 DUP2 ADD MLOAD DUP4 DUP3 ADD MSTORE PUSH1 0x20 ADD PUSH2 0x36C5 JUMP JUMPDEST DUP4 DUP2 GT ISZERO PUSH2 0x1BC8 JUMPI POP POP PUSH1 0x0 SWAP2 ADD MSTORE JUMP JUMPDEST PUSH1 0x1 DUP2 DUP2 SHR SWAP1 DUP3 AND DUP1 PUSH2 0x3702 JUMPI PUSH1 0x7F DUP3 AND SWAP2 POP JUMPDEST PUSH1 0x20 DUP3 LT DUP2 EQ ISZERO PUSH2 0x3723 JUMPI PUSH4 0x4E487B71 PUSH1 0xE0 SHL PUSH1 0x0 MSTORE PUSH1 0x22 PUSH1 0x4 MSTORE PUSH1 0x24 PUSH1 0x0 REVERT JUMPDEST POP SWAP2 SWAP1 POP JUMP JUMPDEST PUSH1 0x0 PUSH1 0x0 NOT DUP3 EQ ISZERO PUSH2 0x373D JUMPI PUSH2 0x373D PUSH2 0x3744 JUMP JUMPDEST POP PUSH1 0x1 ADD SWAP1 JUMP JUMPDEST PUSH4 0x4E487B71 PUSH1 0xE0 SHL PUSH1 0x0 MSTORE PUSH1 0x11 PUSH1 0x4 MSTORE PUSH1 0x24 PUSH1 0x0 REVERT JUMPDEST PUSH4 0x4E487B71 PUSH1 0xE0 SHL PUSH1 0x0 MSTORE PUSH1 0x21 PUSH1 0x4 MSTORE PUSH1 0x24 PUSH1 0x0 REVERT JUMPDEST PUSH4 0x4E487B71 PUSH1 0xE0 SHL PUSH1 0x0 MSTORE PUSH1 0x32 PUSH1 0x4 MSTORE PUSH1 0x24 PUSH1 0x0 REVERT JUMPDEST PUSH4 0x4E487B71 PUSH1 0xE0 SHL PUSH1 0x0 MSTORE PUSH1 0x41 PUSH1 0x4 MSTORE PUSH1 0x24 PUSH1 0x0 REVERT INVALID COINBASE PUSH5 0x6472657373 GASPRICE KECCAK256 PUSH13 0x6F772D6C6576656C2063616C6C KECCAK256 PUSH24 0x6974682076616C7565206661696C6564A264697066735822 SLT KECCAK256 SWAP1 0xEE PUSH1 0x9 DUP15 0xD4 TIMESTAMP 0xE0 DUP7 SLOAD OR 0xF XOR 0xC6 0x29 PUSH27 0xAA41628734C8750560234C1F84CD4C5364736F6C63430008070033 0xDE 0xC2 0xBA 0xCD 0xD2 CREATE JUMPDEST MSIZE 0xDE CALLVALUE 0xDA SWAP12 MSTORE RETURNDATASIZE SELFDESTRUCT DUP12 0xE4 0x2E 0x5E CODESIZE 0xE8 XOR 0xC8 0x2F 0xDB SIGNEXTEND 0xAE PUSH24 0x4387A724A26469706673582212206935E30E863F6255E58E GASPRICE MLOAD PUSH13 0xF9BDAD0736C89059B122B1D8CF EXTCODECOPY ISZERO RETURNDATASIZE POP SWAP1 POP PUSH5 0x736F6C6343 STOP ADDMOD SMOD STOP CALLER "
		},
		"gasEstimates": {
			"creation": {
				"codeDepositCost": "3835800",
				"executionCost": "4354",
				"totalCost": "3840154"
			},
			"external": {
				"createDAO(bytes)": "infinite",
				"getDAOAddress(bytes)": "infinite",
				"version()": "infinite"
			}
		},
		"methodIdentifiers": {
			"createDAO(bytes)": "5c65f2fb",
			"getDAOAddress(bytes)": "a08351df",
			"version()": "54fd4d50"
		}
	},
	"abi": [
		{
			"inputs": [
				{
					"internalType": "bytes",
					"name": "param",
					"type": "bytes"
				}
			],
			"name": "createDAO",
			"outputs": [
				{
					"internalType": "address",
					"name": "dao",
					"type": "address"
				}
			],
			"stateMutability": "nonpayable",
			"type": "function"
		},
		{
			"inputs": [
				{
					"internalType": "bytes",
					"name": "param",
					"type": "bytes"
				}
			],
			"name": "getDAOAddress",
			"outputs": [
				{
					"internalType": "address",
					"name": "",
					"type": "address"
				}
			],
			"stateMutability": "view",
			"type": "function"
		},
		{
			"inputs": [],
			"name": "version",
			"outputs": [
				{
					"internalType": "string",
					"name": "",
					"type": "string"
				}
			],
			"stateMutability": "pure",
			"type": "function"
		}
	]
}